{
	"week9/Registry.sol": {
		"Registry": {
			"abi": [
				{
					"inputs": [],
					"stateMutability": "nonpayable",
					"type": "constructor"
				},
				{
					"anonymous": false,
					"inputs": [
						{
							"indexed": false,
							"internalType": "string",
							"name": "_name",
							"type": "string"
						}
					],
					"name": "ContractDeleted",
					"type": "event"
				},
				{
					"anonymous": false,
					"inputs": [
						{
							"indexed": false,
							"internalType": "string",
							"name": "_name",
							"type": "string"
						},
						{
							"indexed": false,
							"internalType": "address",
							"name": "_contractAddress",
							"type": "address"
						},
						{
							"indexed": false,
							"internalType": "string",
							"name": "_description",
							"type": "string"
						}
					],
					"name": "ContractRegistered",
					"type": "event"
				},
				{
					"anonymous": false,
					"inputs": [
						{
							"indexed": false,
							"internalType": "string",
							"name": "_name",
							"type": "string"
						},
						{
							"indexed": false,
							"internalType": "string",
							"name": "_type",
							"type": "string"
						}
					],
					"name": "ContractUpdated",
					"type": "event"
				},
				{
					"inputs": [
						{
							"internalType": "string",
							"name": "_name",
							"type": "string"
						},
						{
							"internalType": "address",
							"name": "_newOwner",
							"type": "address"
						}
					],
					"name": "changeOwner",
					"outputs": [],
					"stateMutability": "nonpayable",
					"type": "function"
				},
				{
					"inputs": [
						{
							"internalType": "string",
							"name": "_name",
							"type": "string"
						}
					],
					"name": "getAddr",
					"outputs": [
						{
							"internalType": "address",
							"name": "",
							"type": "address"
						}
					],
					"stateMutability": "view",
					"type": "function"
				},
				{
					"inputs": [
						{
							"internalType": "string",
							"name": "_name",
							"type": "string"
						}
					],
					"name": "getDescription",
					"outputs": [
						{
							"internalType": "string",
							"name": "",
							"type": "string"
						}
					],
					"stateMutability": "view",
					"type": "function"
				},
				{
					"inputs": [
						{
							"internalType": "string",
							"name": "_name",
							"type": "string"
						}
					],
					"name": "getOwner",
					"outputs": [
						{
							"internalType": "address",
							"name": "",
							"type": "address"
						}
					],
					"stateMutability": "view",
					"type": "function"
				},
				{
					"inputs": [],
					"name": "numContracts",
					"outputs": [
						{
							"internalType": "uint256",
							"name": "",
							"type": "uint256"
						}
					],
					"stateMutability": "view",
					"type": "function"
				},
				{
					"inputs": [
						{
							"internalType": "string",
							"name": "_name",
							"type": "string"
						},
						{
							"internalType": "address",
							"name": "_contractAddress",
							"type": "address"
						},
						{
							"internalType": "string",
							"name": "_description",
							"type": "string"
						}
					],
					"name": "registerContract",
					"outputs": [],
					"stateMutability": "nonpayable",
					"type": "function"
				},
				{
					"inputs": [
						{
							"internalType": "string",
							"name": "",
							"type": "string"
						}
					],
					"name": "registeredContracts",
					"outputs": [
						{
							"internalType": "address",
							"name": "contractOwner",
							"type": "address"
						},
						{
							"internalType": "address",
							"name": "contractAddress",
							"type": "address"
						},
						{
							"internalType": "string",
							"name": "description",
							"type": "string"
						}
					],
					"stateMutability": "view",
					"type": "function"
				},
				{
					"inputs": [
						{
							"internalType": "string",
							"name": "_name",
							"type": "string"
						},
						{
							"internalType": "address",
							"name": "_addr",
							"type": "address"
						}
					],
					"name": "setAddr",
					"outputs": [],
					"stateMutability": "nonpayable",
					"type": "function"
				},
				{
					"inputs": [
						{
							"internalType": "string",
							"name": "_name",
							"type": "string"
						},
						{
							"internalType": "string",
							"name": "_description",
							"type": "string"
						}
					],
					"name": "setDescription",
					"outputs": [],
					"stateMutability": "nonpayable",
					"type": "function"
				},
				{
					"inputs": [
						{
							"internalType": "string",
							"name": "_name",
							"type": "string"
						}
					],
					"name": "unregisterContract",
					"outputs": [],
					"stateMutability": "nonpayable",
					"type": "function"
				}
			],
			"devdoc": {
				"kind": "dev",
				"methods": {},
				"version": 1
			},
			"evm": {
				"assembly": "    /* \"week9/Registry.sol\":61:4636  contract Registry{... */\n  mstore(0x40, 0x80)\n    /* \"week9/Registry.sol\":1465:1513  constructor(){... */\n  callvalue\n  dup1\n  iszero\n  tag_1\n  jumpi\n  0x00\n  dup1\n  revert\ntag_1:\n  pop\n    /* \"week9/Registry.sol\":1504:1505  0 */\n  0x00\n    /* \"week9/Registry.sol\":1489:1501  numContracts */\n  dup1\n    /* \"week9/Registry.sol\":1489:1505  numContracts = 0 */\n  dup2\n  swap1\n  sstore\n  pop\n    /* \"week9/Registry.sol\":61:4636  contract Registry{... */\n  dataSize(sub_0)\n  dup1\n  dataOffset(sub_0)\n  0x00\n  codecopy\n  0x00\n  return\nstop\n\nsub_0: assembly {\n        /* \"week9/Registry.sol\":61:4636  contract Registry{... */\n      mstore(0x40, 0x80)\n      callvalue\n      dup1\n      iszero\n      tag_1\n      jumpi\n      0x00\n      dup1\n      revert\n    tag_1:\n      pop\n      jumpi(tag_2, lt(calldatasize, 0x04))\n      shr(0xe0, calldataload(0x00))\n      dup1\n      0x6755d456\n      gt\n      tag_13\n      jumpi\n      dup1\n      0x6755d456\n      eq\n      tag_8\n      jumpi\n      dup1\n      0x98fd3835\n      eq\n      tag_9\n      jumpi\n      dup1\n      0xa738e975\n      eq\n      tag_10\n      jumpi\n      dup1\n      0xd502db97\n      eq\n      tag_11\n      jumpi\n      dup1\n      0xd8f9d144\n      eq\n      tag_12\n      jumpi\n      jump(tag_2)\n    tag_13:\n      dup1\n      0x035e7709\n      eq\n      tag_3\n      jumpi\n      dup1\n      0x213b9eb8\n      eq\n      tag_4\n      jumpi\n      dup1\n      0x45de2ca0\n      eq\n      tag_5\n      jumpi\n      dup1\n      0x4aaf4a12\n      eq\n      tag_6\n      jumpi\n      dup1\n      0x524d81d3\n      eq\n      tag_7\n      jumpi\n    tag_2:\n      0x00\n      dup1\n      revert\n        /* \"week9/Registry.sol\":2434:2674  function unregisterContract(string memory _name) public onlyOwner(_name){... */\n    tag_3:\n      tag_14\n      0x04\n      dup1\n      calldatasize\n      sub\n      dup2\n      add\n      swap1\n      tag_15\n      swap2\n      swap1\n      tag_16\n      jump\t// in\n    tag_15:\n      tag_17\n      jump\t// in\n    tag_14:\n      stop\n        /* \"week9/Registry.sol\":3501:3801  function setAddr(string memory _name, address _addr) public onlyOwner(_name){... */\n    tag_4:\n      tag_18\n      0x04\n      dup1\n      calldatasize\n      sub\n      dup2\n      add\n      swap1\n      tag_19\n      swap2\n      swap1\n      tag_20\n      jump\t// in\n    tag_19:\n      tag_21\n      jump\t// in\n    tag_18:\n      stop\n        /* \"week9/Registry.sol\":4454:4631  function getDescription(string memory _name) public view returns(string memory) {... */\n    tag_5:\n      tag_22\n      0x04\n      dup1\n      calldatasize\n      sub\n      dup2\n      add\n      swap1\n      tag_23\n      swap2\n      swap1\n      tag_16\n      jump\t// in\n    tag_23:\n      tag_24\n      jump\t// in\n    tag_22:\n      mload(0x40)\n      tag_25\n      swap2\n      swap1\n      tag_26\n      jump\t// in\n    tag_25:\n      mload(0x40)\n      dup1\n      swap2\n      sub\n      swap1\n      return\n        /* \"week9/Registry.sol\":3244:3424  function getOwner(string memory _name) public view returns (address){... */\n    tag_6:\n      tag_27\n      0x04\n      dup1\n      calldatasize\n      sub\n      dup2\n      add\n      swap1\n      tag_28\n      swap2\n      swap1\n      tag_16\n      jump\t// in\n    tag_28:\n      tag_29\n      jump\t// in\n    tag_27:\n      mload(0x40)\n      tag_30\n      swap2\n      swap1\n      tag_31\n      jump\t// in\n    tag_30:\n      mload(0x40)\n      dup1\n      swap2\n      sub\n      swap1\n      return\n        /* \"week9/Registry.sol\":399:423  uint public numContracts */\n    tag_7:\n      tag_32\n      tag_33\n      jump\t// in\n    tag_32:\n      mload(0x40)\n      tag_34\n      swap2\n      swap1\n      tag_35\n      jump\t// in\n    tag_34:\n      mload(0x40)\n      dup1\n      swap2\n      sub\n      swap1\n      return\n        /* \"week9/Registry.sol\":4088:4408  function setDescription(string memory _name, string memory _description) public onlyOwner(_name){... */\n    tag_8:\n      tag_36\n      0x04\n      dup1\n      calldatasize\n      sub\n      dup2\n      add\n      swap1\n      tag_37\n      swap2\n      swap1\n      tag_38\n      jump\t// in\n    tag_37:\n      tag_39\n      jump\t// in\n    tag_36:\n      stop\n        /* \"week9/Registry.sol\":904:960  mapping(string=>ContractInfo) public registeredContracts */\n    tag_9:\n      tag_40\n      0x04\n      dup1\n      calldatasize\n      sub\n      dup2\n      add\n      swap1\n      tag_41\n      swap2\n      swap1\n      tag_16\n      jump\t// in\n    tag_41:\n      tag_42\n      jump\t// in\n    tag_40:\n      mload(0x40)\n      tag_43\n      swap4\n      swap3\n      swap2\n      swap1\n      tag_44\n      jump\t// in\n    tag_43:\n      mload(0x40)\n      dup1\n      swap2\n      sub\n      swap1\n      return\n        /* \"week9/Registry.sol\":1633:2357  function registerContract(string memory _name,... */\n    tag_10:\n      tag_45\n      0x04\n      dup1\n      calldatasize\n      sub\n      dup2\n      add\n      swap1\n      tag_46\n      swap2\n      swap1\n      tag_47\n      jump\t// in\n    tag_46:\n      tag_48\n      jump\t// in\n    tag_45:\n      stop\n        /* \"week9/Registry.sol\":3843:4011  function getAddr(string memory _name) public view returns (address){... */\n    tag_11:\n      tag_49\n      0x04\n      dup1\n      calldatasize\n      sub\n      dup2\n      add\n      swap1\n      tag_50\n      swap2\n      swap1\n      tag_16\n      jump\t// in\n    tag_50:\n      tag_51\n      jump\t// in\n    tag_49:\n      mload(0x40)\n      tag_52\n      swap2\n      swap1\n      tag_31\n      jump\t// in\n    tag_52:\n      mload(0x40)\n      dup1\n      swap2\n      sub\n      swap1\n      return\n        /* \"week9/Registry.sol\":2720:3199  function changeOwner(string memory _name, address _newOwner) public onlyOwner(_name){... */\n    tag_12:\n      tag_53\n      0x04\n      dup1\n      calldatasize\n      sub\n      dup2\n      add\n      swap1\n      tag_54\n      swap2\n      swap1\n      tag_20\n      jump\t// in\n    tag_54:\n      tag_55\n      jump\t// in\n    tag_53:\n      stop\n        /* \"week9/Registry.sol\":2434:2674  function unregisterContract(string memory _name) public onlyOwner(_name){... */\n    tag_17:\n        /* \"week9/Registry.sol\":2500:2505  _name */\n      dup1\n        /* \"week9/Registry.sol\":1252:1271  registeredContracts */\n      0x01\n        /* \"week9/Registry.sol\":1272:1277  _name */\n      dup2\n        /* \"week9/Registry.sol\":1252:1278  registeredContracts[_name] */\n      mload(0x40)\n      tag_57\n      swap2\n      swap1\n      tag_58\n      jump\t// in\n    tag_57:\n      swap1\n      dup2\n      mstore\n      0x20\n      add\n      mload(0x40)\n      dup1\n      swap2\n      sub\n      swap1\n      keccak256\n        /* \"week9/Registry.sol\":1252:1292  registeredContracts[_name].contractOwner */\n      0x00\n      add\n      0x00\n      swap1\n      sload\n      swap1\n      0x0100\n      exp\n      swap1\n      div\n      0xffffffffffffffffffffffffffffffffffffffff\n      and\n        /* \"week9/Registry.sol\":1238:1292  msg.sender == registeredContracts[_name].contractOwner */\n      0xffffffffffffffffffffffffffffffffffffffff\n      and\n        /* \"week9/Registry.sol\":1238:1248  msg.sender */\n      caller\n        /* \"week9/Registry.sol\":1238:1292  msg.sender == registeredContracts[_name].contractOwner */\n      0xffffffffffffffffffffffffffffffffffffffff\n      and\n      eq\n        /* \"week9/Registry.sol\":1230:1338  require(msg.sender == registeredContracts[_name].contractOwner, \"Error: caller is not the contract's owner\") */\n      tag_59\n      jumpi\n      mload(0x40)\n      0x08c379a000000000000000000000000000000000000000000000000000000000\n      dup2\n      mstore\n      0x04\n      add\n      tag_60\n      swap1\n      tag_61\n      jump\t// in\n    tag_60:\n      mload(0x40)\n      dup1\n      swap2\n      sub\n      swap1\n      revert\n    tag_59:\n        /* \"week9/Registry.sol\":2524:2543  registeredContracts */\n      0x01\n        /* \"week9/Registry.sol\":2544:2549  _name */\n      dup3\n        /* \"week9/Registry.sol\":2524:2550  registeredContracts[_name] */\n      mload(0x40)\n      tag_63\n      swap2\n      swap1\n      tag_58\n      jump\t// in\n    tag_63:\n      swap1\n      dup2\n      mstore\n      0x20\n      add\n      mload(0x40)\n      dup1\n      swap2\n      sub\n      swap1\n      keccak256\n      0x00\n        /* \"week9/Registry.sol\":2517:2550  delete registeredContracts[_name] */\n      dup1\n      dup3\n      add\n      exp(0x0100, 0x00)\n      dup2\n      sload\n      swap1\n      0xffffffffffffffffffffffffffffffffffffffff\n      mul\n      not\n      and\n      swap1\n      sstore\n      0x01\n      dup3\n      add\n      exp(0x0100, 0x00)\n      dup2\n      sload\n      swap1\n      0xffffffffffffffffffffffffffffffffffffffff\n      mul\n      not\n      and\n      swap1\n      sstore\n      0x02\n      dup3\n      add\n      0x00\n      tag_64\n      swap2\n      swap1\n      tag_65\n      jump\t// in\n    tag_64:\n      pop\n      pop\n        /* \"week9/Registry.sol\":2604:2626  ContractDeleted(_name) */\n      0x984b9358b6046fa1ad5f4f201ef75d0b624f6af129790db9b96d832fb63b17a3\n        /* \"week9/Registry.sol\":2620:2625  _name */\n      dup3\n        /* \"week9/Registry.sol\":2604:2626  ContractDeleted(_name) */\n      mload(0x40)\n      tag_66\n      swap2\n      swap1\n      tag_26\n      jump\t// in\n    tag_66:\n      mload(0x40)\n      dup1\n      swap2\n      sub\n      swap1\n      log1\n        /* \"week9/Registry.sol\":2434:2674  function unregisterContract(string memory _name) public onlyOwner(_name){... */\n      pop\n      pop\n      jump\t// out\n        /* \"week9/Registry.sol\":3501:3801  function setAddr(string memory _name, address _addr) public onlyOwner(_name){... */\n    tag_21:\n        /* \"week9/Registry.sol\":3571:3576  _name */\n      dup2\n        /* \"week9/Registry.sol\":1252:1271  registeredContracts */\n      0x01\n        /* \"week9/Registry.sol\":1272:1277  _name */\n      dup2\n        /* \"week9/Registry.sol\":1252:1278  registeredContracts[_name] */\n      mload(0x40)\n      tag_68\n      swap2\n      swap1\n      tag_58\n      jump\t// in\n    tag_68:\n      swap1\n      dup2\n      mstore\n      0x20\n      add\n      mload(0x40)\n      dup1\n      swap2\n      sub\n      swap1\n      keccak256\n        /* \"week9/Registry.sol\":1252:1292  registeredContracts[_name].contractOwner */\n      0x00\n      add\n      0x00\n      swap1\n      sload\n      swap1\n      0x0100\n      exp\n      swap1\n      div\n      0xffffffffffffffffffffffffffffffffffffffff\n      and\n        /* \"week9/Registry.sol\":1238:1292  msg.sender == registeredContracts[_name].contractOwner */\n      0xffffffffffffffffffffffffffffffffffffffff\n      and\n        /* \"week9/Registry.sol\":1238:1248  msg.sender */\n      caller\n        /* \"week9/Registry.sol\":1238:1292  msg.sender == registeredContracts[_name].contractOwner */\n      0xffffffffffffffffffffffffffffffffffffffff\n      and\n      eq\n        /* \"week9/Registry.sol\":1230:1338  require(msg.sender == registeredContracts[_name].contractOwner, \"Error: caller is not the contract's owner\") */\n      tag_69\n      jumpi\n      mload(0x40)\n      0x08c379a000000000000000000000000000000000000000000000000000000000\n      dup2\n      mstore\n      0x04\n      add\n      tag_70\n      swap1\n      tag_61\n      jump\t// in\n    tag_70:\n      mload(0x40)\n      dup1\n      swap2\n      sub\n      swap1\n      revert\n    tag_69:\n        /* \"week9/Registry.sol\":3633:3638  _addr */\n      dup2\n        /* \"week9/Registry.sol\":3588:3607  registeredContracts */\n      0x01\n        /* \"week9/Registry.sol\":3608:3613  _name */\n      dup5\n        /* \"week9/Registry.sol\":3588:3614  registeredContracts[_name] */\n      mload(0x40)\n      tag_72\n      swap2\n      swap1\n      tag_58\n      jump\t// in\n    tag_72:\n      swap1\n      dup2\n      mstore\n      0x20\n      add\n      mload(0x40)\n      dup1\n      swap2\n      sub\n      swap1\n      keccak256\n        /* \"week9/Registry.sol\":3588:3630  registeredContracts[_name].contractAddress */\n      0x01\n      add\n      0x00\n        /* \"week9/Registry.sol\":3588:3638  registeredContracts[_name].contractAddress = _addr */\n      0x0100\n      exp\n      dup2\n      sload\n      dup2\n      0xffffffffffffffffffffffffffffffffffffffff\n      mul\n      not\n      and\n      swap1\n      dup4\n      0xffffffffffffffffffffffffffffffffffffffff\n      and\n      mul\n      or\n      swap1\n      sstore\n      pop\n        /* \"week9/Registry.sol\":3683:3731  ContractUpdated(_name, \"change ContractAddress\") */\n      0x57b75b6d8a87a5a5fb23b8661e6576421516e045c4d3cda7943d3127278e2154\n        /* \"week9/Registry.sol\":3699:3704  _name */\n      dup4\n        /* \"week9/Registry.sol\":3683:3731  ContractUpdated(_name, \"change ContractAddress\") */\n      mload(0x40)\n      tag_73\n      swap2\n      swap1\n      tag_74\n      jump\t// in\n    tag_73:\n      mload(0x40)\n      dup1\n      swap2\n      sub\n      swap1\n      log1\n        /* \"week9/Registry.sol\":3501:3801  function setAddr(string memory _name, address _addr) public onlyOwner(_name){... */\n      pop\n      pop\n      pop\n      jump\t// out\n        /* \"week9/Registry.sol\":4454:4631  function getDescription(string memory _name) public view returns(string memory) {... */\n    tag_24:\n        /* \"week9/Registry.sol\":4519:4532  string memory */\n      0x60\n        /* \"week9/Registry.sol\":4552:4571  registeredContracts */\n      0x01\n        /* \"week9/Registry.sol\":4572:4577  _name */\n      dup3\n        /* \"week9/Registry.sol\":4552:4578  registeredContracts[_name] */\n      mload(0x40)\n      tag_76\n      swap2\n      swap1\n      tag_58\n      jump\t// in\n    tag_76:\n      swap1\n      dup2\n      mstore\n      0x20\n      add\n      mload(0x40)\n      dup1\n      swap2\n      sub\n      swap1\n      keccak256\n        /* \"week9/Registry.sol\":4552:4590  registeredContracts[_name].description */\n      0x02\n      add\n        /* \"week9/Registry.sol\":4545:4590  return registeredContracts[_name].description */\n      dup1\n      sload\n      tag_77\n      swap1\n      tag_78\n      jump\t// in\n    tag_77:\n      dup1\n      0x1f\n      add\n      0x20\n      dup1\n      swap2\n      div\n      mul\n      0x20\n      add\n      mload(0x40)\n      swap1\n      dup2\n      add\n      0x40\n      mstore\n      dup1\n      swap3\n      swap2\n      swap1\n      dup2\n      dup2\n      mstore\n      0x20\n      add\n      dup3\n      dup1\n      sload\n      tag_79\n      swap1\n      tag_78\n      jump\t// in\n    tag_79:\n      dup1\n      iszero\n      tag_80\n      jumpi\n      dup1\n      0x1f\n      lt\n      tag_81\n      jumpi\n      0x0100\n      dup1\n      dup4\n      sload\n      div\n      mul\n      dup4\n      mstore\n      swap2\n      0x20\n      add\n      swap2\n      jump(tag_80)\n    tag_81:\n      dup3\n      add\n      swap2\n      swap1\n      0x00\n      mstore\n      keccak256(0x00, 0x20)\n      swap1\n    tag_82:\n      dup2\n      sload\n      dup2\n      mstore\n      swap1\n      0x01\n      add\n      swap1\n      0x20\n      add\n      dup1\n      dup4\n      gt\n      tag_82\n      jumpi\n      dup3\n      swap1\n      sub\n      0x1f\n      and\n      dup3\n      add\n      swap2\n    tag_80:\n      pop\n      pop\n      pop\n      pop\n      pop\n      swap1\n      pop\n        /* \"week9/Registry.sol\":4454:4631  function getDescription(string memory _name) public view returns(string memory) {... */\n      swap2\n      swap1\n      pop\n      jump\t// out\n        /* \"week9/Registry.sol\":3244:3424  function getOwner(string memory _name) public view returns (address){... */\n    tag_29:\n        /* \"week9/Registry.sol\":3304:3311  address */\n      0x00\n        /* \"week9/Registry.sol\":3330:3349  registeredContracts */\n      0x01\n        /* \"week9/Registry.sol\":3350:3355  _name */\n      dup3\n        /* \"week9/Registry.sol\":3330:3356  registeredContracts[_name] */\n      mload(0x40)\n      tag_84\n      swap2\n      swap1\n      tag_58\n      jump\t// in\n    tag_84:\n      swap1\n      dup2\n      mstore\n      0x20\n      add\n      mload(0x40)\n      dup1\n      swap2\n      sub\n      swap1\n      keccak256\n        /* \"week9/Registry.sol\":3330:3370  registeredContracts[_name].contractOwner */\n      0x00\n      add\n      0x00\n      swap1\n      sload\n      swap1\n      0x0100\n      exp\n      swap1\n      div\n      0xffffffffffffffffffffffffffffffffffffffff\n      and\n        /* \"week9/Registry.sol\":3323:3370  return registeredContracts[_name].contractOwner */\n      swap1\n      pop\n        /* \"week9/Registry.sol\":3244:3424  function getOwner(string memory _name) public view returns (address){... */\n      swap2\n      swap1\n      pop\n      jump\t// out\n        /* \"week9/Registry.sol\":399:423  uint public numContracts */\n    tag_33:\n      sload(0x00)\n      dup2\n      jump\t// out\n        /* \"week9/Registry.sol\":4088:4408  function setDescription(string memory _name, string memory _description) public onlyOwner(_name){... */\n    tag_39:\n        /* \"week9/Registry.sol\":4178:4183  _name */\n      dup2\n        /* \"week9/Registry.sol\":1252:1271  registeredContracts */\n      0x01\n        /* \"week9/Registry.sol\":1272:1277  _name */\n      dup2\n        /* \"week9/Registry.sol\":1252:1278  registeredContracts[_name] */\n      mload(0x40)\n      tag_86\n      swap2\n      swap1\n      tag_58\n      jump\t// in\n    tag_86:\n      swap1\n      dup2\n      mstore\n      0x20\n      add\n      mload(0x40)\n      dup1\n      swap2\n      sub\n      swap1\n      keccak256\n        /* \"week9/Registry.sol\":1252:1292  registeredContracts[_name].contractOwner */\n      0x00\n      add\n      0x00\n      swap1\n      sload\n      swap1\n      0x0100\n      exp\n      swap1\n      div\n      0xffffffffffffffffffffffffffffffffffffffff\n      and\n        /* \"week9/Registry.sol\":1238:1292  msg.sender == registeredContracts[_name].contractOwner */\n      0xffffffffffffffffffffffffffffffffffffffff\n      and\n        /* \"week9/Registry.sol\":1238:1248  msg.sender */\n      caller\n        /* \"week9/Registry.sol\":1238:1292  msg.sender == registeredContracts[_name].contractOwner */\n      0xffffffffffffffffffffffffffffffffffffffff\n      and\n      eq\n        /* \"week9/Registry.sol\":1230:1338  require(msg.sender == registeredContracts[_name].contractOwner, \"Error: caller is not the contract's owner\") */\n      tag_87\n      jumpi\n      mload(0x40)\n      0x08c379a000000000000000000000000000000000000000000000000000000000\n      dup2\n      mstore\n      0x04\n      add\n      tag_88\n      swap1\n      tag_61\n      jump\t// in\n    tag_88:\n      mload(0x40)\n      dup1\n      swap2\n      sub\n      swap1\n      revert\n    tag_87:\n        /* \"week9/Registry.sol\":4236:4248  _description */\n      dup2\n        /* \"week9/Registry.sol\":4195:4214  registeredContracts */\n      0x01\n        /* \"week9/Registry.sol\":4215:4220  _name */\n      dup5\n        /* \"week9/Registry.sol\":4195:4221  registeredContracts[_name] */\n      mload(0x40)\n      tag_90\n      swap2\n      swap1\n      tag_58\n      jump\t// in\n    tag_90:\n      swap1\n      dup2\n      mstore\n      0x20\n      add\n      mload(0x40)\n      dup1\n      swap2\n      sub\n      swap1\n      keccak256\n        /* \"week9/Registry.sol\":4195:4233  registeredContracts[_name].description */\n      0x02\n      add\n        /* \"week9/Registry.sol\":4195:4248  registeredContracts[_name].description = _description */\n      swap1\n      dup2\n      tag_91\n      swap2\n      swap1\n      tag_92\n      jump\t// in\n    tag_91:\n      pop\n        /* \"week9/Registry.sol\":4294:4338  ContractUpdated(_name, \"change description\") */\n      0x57b75b6d8a87a5a5fb23b8661e6576421516e045c4d3cda7943d3127278e2154\n        /* \"week9/Registry.sol\":4310:4315  _name */\n      dup4\n        /* \"week9/Registry.sol\":4294:4338  ContractUpdated(_name, \"change description\") */\n      mload(0x40)\n      tag_93\n      swap2\n      swap1\n      tag_94\n      jump\t// in\n    tag_93:\n      mload(0x40)\n      dup1\n      swap2\n      sub\n      swap1\n      log1\n        /* \"week9/Registry.sol\":4088:4408  function setDescription(string memory _name, string memory _description) public onlyOwner(_name){... */\n      pop\n      pop\n      pop\n      jump\t// out\n        /* \"week9/Registry.sol\":904:960  mapping(string=>ContractInfo) public registeredContracts */\n    tag_42:\n      0x01\n      dup2\n      dup1\n      mload\n      0x20\n      dup2\n      add\n      dup3\n      add\n      dup1\n      mload\n      dup5\n      dup3\n      mstore\n      0x20\n      dup4\n      add\n      0x20\n      dup6\n      add\n      keccak256\n      dup2\n      dup4\n      mstore\n      dup1\n      swap6\n      pop\n      pop\n      pop\n      pop\n      pop\n      pop\n      0x00\n      swap2\n      pop\n      swap1\n      pop\n      dup1\n      0x00\n      add\n      0x00\n      swap1\n      sload\n      swap1\n      0x0100\n      exp\n      swap1\n      div\n      0xffffffffffffffffffffffffffffffffffffffff\n      and\n      swap1\n      dup1\n      0x01\n      add\n      0x00\n      swap1\n      sload\n      swap1\n      0x0100\n      exp\n      swap1\n      div\n      0xffffffffffffffffffffffffffffffffffffffff\n      and\n      swap1\n      dup1\n      0x02\n      add\n      dup1\n      sload\n      tag_95\n      swap1\n      tag_78\n      jump\t// in\n    tag_95:\n      dup1\n      0x1f\n      add\n      0x20\n      dup1\n      swap2\n      div\n      mul\n      0x20\n      add\n      mload(0x40)\n      swap1\n      dup2\n      add\n      0x40\n      mstore\n      dup1\n      swap3\n      swap2\n      swap1\n      dup2\n      dup2\n      mstore\n      0x20\n      add\n      dup3\n      dup1\n      sload\n      tag_96\n      swap1\n      tag_78\n      jump\t// in\n    tag_96:\n      dup1\n      iszero\n      tag_97\n      jumpi\n      dup1\n      0x1f\n      lt\n      tag_98\n      jumpi\n      0x0100\n      dup1\n      dup4\n      sload\n      div\n      mul\n      dup4\n      mstore\n      swap2\n      0x20\n      add\n      swap2\n      jump(tag_97)\n    tag_98:\n      dup3\n      add\n      swap2\n      swap1\n      0x00\n      mstore\n      keccak256(0x00, 0x20)\n      swap1\n    tag_99:\n      dup2\n      sload\n      dup2\n      mstore\n      swap1\n      0x01\n      add\n      swap1\n      0x20\n      add\n      dup1\n      dup4\n      gt\n      tag_99\n      jumpi\n      dup3\n      swap1\n      sub\n      0x1f\n      and\n      dup3\n      add\n      swap2\n    tag_97:\n      pop\n      pop\n      pop\n      pop\n      pop\n      swap1\n      pop\n      dup4\n      jump\t// out\n        /* \"week9/Registry.sol\":1633:2357  function registerContract(string memory _name,... */\n    tag_48:\n        /* \"week9/Registry.sol\":1998:1999  0 */\n      0x00\n        /* \"week9/Registry.sol\":1946:2000  registeredContracts[_name].contractAddress==address(0) */\n      0xffffffffffffffffffffffffffffffffffffffff\n      and\n        /* \"week9/Registry.sol\":1946:1965  registeredContracts */\n      0x01\n        /* \"week9/Registry.sol\":1966:1971  _name */\n      dup5\n        /* \"week9/Registry.sol\":1946:1972  registeredContracts[_name] */\n      mload(0x40)\n      tag_101\n      swap2\n      swap1\n      tag_58\n      jump\t// in\n    tag_101:\n      swap1\n      dup2\n      mstore\n      0x20\n      add\n      mload(0x40)\n      dup1\n      swap2\n      sub\n      swap1\n      keccak256\n        /* \"week9/Registry.sol\":1946:1988  registeredContracts[_name].contractAddress */\n      0x01\n      add\n      0x00\n      swap1\n      sload\n      swap1\n      0x0100\n      exp\n      swap1\n      div\n      0xffffffffffffffffffffffffffffffffffffffff\n      and\n        /* \"week9/Registry.sol\":1946:2000  registeredContracts[_name].contractAddress==address(0) */\n      0xffffffffffffffffffffffffffffffffffffffff\n      and\n      eq\n        /* \"week9/Registry.sol\":1938:2040  require(registeredContracts[_name].contractAddress==address(0), \"The contract is already registered!\") */\n      tag_102\n      jumpi\n      mload(0x40)\n      0x08c379a000000000000000000000000000000000000000000000000000000000\n      dup2\n      mstore\n      0x04\n      add\n      tag_103\n      swap1\n      tag_104\n      jump\t// in\n    tag_103:\n      mload(0x40)\n      dup1\n      swap2\n      sub\n      swap1\n      revert\n    tag_102:\n        /* \"week9/Registry.sol\":2080:2136  ContractInfo(msg.sender, _contractAddress, _description) */\n      mload(0x40)\n      dup1\n      0x60\n      add\n      0x40\n      mstore\n      dup1\n        /* \"week9/Registry.sol\":2093:2103  msg.sender */\n      caller\n        /* \"week9/Registry.sol\":2080:2136  ContractInfo(msg.sender, _contractAddress, _description) */\n      0xffffffffffffffffffffffffffffffffffffffff\n      and\n      dup2\n      mstore\n      0x20\n      add\n        /* \"week9/Registry.sol\":2105:2121  _contractAddress */\n      dup4\n        /* \"week9/Registry.sol\":2080:2136  ContractInfo(msg.sender, _contractAddress, _description) */\n      0xffffffffffffffffffffffffffffffffffffffff\n      and\n      dup2\n      mstore\n      0x20\n      add\n        /* \"week9/Registry.sol\":2123:2135  _description */\n      dup3\n        /* \"week9/Registry.sol\":2080:2136  ContractInfo(msg.sender, _contractAddress, _description) */\n      dup2\n      mstore\n      pop\n        /* \"week9/Registry.sol\":2051:2070  registeredContracts */\n      0x01\n        /* \"week9/Registry.sol\":2071:2076  _name */\n      dup5\n        /* \"week9/Registry.sol\":2051:2077  registeredContracts[_name] */\n      mload(0x40)\n      tag_105\n      swap2\n      swap1\n      tag_58\n      jump\t// in\n    tag_105:\n      swap1\n      dup2\n      mstore\n      0x20\n      add\n      mload(0x40)\n      dup1\n      swap2\n      sub\n      swap1\n      keccak256\n        /* \"week9/Registry.sol\":2051:2136  registeredContracts[_name] = ContractInfo(msg.sender, _contractAddress, _description) */\n      0x00\n      dup3\n      add\n      mload\n      dup2\n      0x00\n      add\n      exp(0x0100, 0x00)\n      dup2\n      sload\n      dup2\n      0xffffffffffffffffffffffffffffffffffffffff\n      mul\n      not\n      and\n      swap1\n      dup4\n      0xffffffffffffffffffffffffffffffffffffffff\n      and\n      mul\n      or\n      swap1\n      sstore\n      pop\n      0x20\n      dup3\n      add\n      mload\n      dup2\n      0x01\n      add\n      exp(0x0100, 0x00)\n      dup2\n      sload\n      dup2\n      0xffffffffffffffffffffffffffffffffffffffff\n      mul\n      not\n      and\n      swap1\n      dup4\n      0xffffffffffffffffffffffffffffffffffffffff\n      and\n      mul\n      or\n      swap1\n      sstore\n      pop\n      0x40\n      dup3\n      add\n      mload\n      dup2\n      0x02\n      add\n      swap1\n      dup2\n      tag_106\n      swap2\n      swap1\n      tag_92\n      jump\t// in\n    tag_106:\n      pop\n      swap1\n      pop\n      pop\n        /* \"week9/Registry.sol\":2180:2192  numContracts */\n      0x00\n      dup1\n        /* \"week9/Registry.sol\":2180:2194  numContracts++ */\n      dup2\n      sload\n      dup1\n      swap3\n      swap2\n      swap1\n      tag_107\n      swap1\n      tag_108\n      jump\t// in\n    tag_107:\n      swap2\n      swap1\n      pop\n      sstore\n      pop\n        /* \"week9/Registry.sol\":2250:2307  ContractRegistered(_name, _contractAddress, _description) */\n      0x9cdf53a2180bc35fba548a5c453c528596a434c394e235e9fbbb1a686d99db21\n        /* \"week9/Registry.sol\":2269:2274  _name */\n      dup4\n        /* \"week9/Registry.sol\":2276:2292  _contractAddress */\n      dup4\n        /* \"week9/Registry.sol\":2294:2306  _description */\n      dup4\n        /* \"week9/Registry.sol\":2250:2307  ContractRegistered(_name, _contractAddress, _description) */\n      mload(0x40)\n      tag_109\n      swap4\n      swap3\n      swap2\n      swap1\n      tag_110\n      jump\t// in\n    tag_109:\n      mload(0x40)\n      dup1\n      swap2\n      sub\n      swap1\n      log1\n        /* \"week9/Registry.sol\":1633:2357  function registerContract(string memory _name,... */\n      pop\n      pop\n      pop\n      jump\t// out\n        /* \"week9/Registry.sol\":3843:4011  function getAddr(string memory _name) public view returns (address){... */\n    tag_51:\n        /* \"week9/Registry.sol\":3902:3909  address */\n      0x00\n        /* \"week9/Registry.sol\":3928:3947  registeredContracts */\n      0x01\n        /* \"week9/Registry.sol\":3948:3953  _name */\n      dup3\n        /* \"week9/Registry.sol\":3928:3954  registeredContracts[_name] */\n      mload(0x40)\n      tag_112\n      swap2\n      swap1\n      tag_58\n      jump\t// in\n    tag_112:\n      swap1\n      dup2\n      mstore\n      0x20\n      add\n      mload(0x40)\n      dup1\n      swap2\n      sub\n      swap1\n      keccak256\n        /* \"week9/Registry.sol\":3928:3970  registeredContracts[_name].contractAddress */\n      0x01\n      add\n      0x00\n      swap1\n      sload\n      swap1\n      0x0100\n      exp\n      swap1\n      div\n      0xffffffffffffffffffffffffffffffffffffffff\n      and\n        /* \"week9/Registry.sol\":3921:3970  return registeredContracts[_name].contractAddress */\n      swap1\n      pop\n        /* \"week9/Registry.sol\":3843:4011  function getAddr(string memory _name) public view returns (address){... */\n      swap2\n      swap1\n      pop\n      jump\t// out\n        /* \"week9/Registry.sol\":2720:3199  function changeOwner(string memory _name, address _newOwner) public onlyOwner(_name){... */\n    tag_55:\n        /* \"week9/Registry.sol\":2798:2803  _name */\n      dup2\n        /* \"week9/Registry.sol\":1252:1271  registeredContracts */\n      0x01\n        /* \"week9/Registry.sol\":1272:1277  _name */\n      dup2\n        /* \"week9/Registry.sol\":1252:1278  registeredContracts[_name] */\n      mload(0x40)\n      tag_114\n      swap2\n      swap1\n      tag_58\n      jump\t// in\n    tag_114:\n      swap1\n      dup2\n      mstore\n      0x20\n      add\n      mload(0x40)\n      dup1\n      swap2\n      sub\n      swap1\n      keccak256\n        /* \"week9/Registry.sol\":1252:1292  registeredContracts[_name].contractOwner */\n      0x00\n      add\n      0x00\n      swap1\n      sload\n      swap1\n      0x0100\n      exp\n      swap1\n      div\n      0xffffffffffffffffffffffffffffffffffffffff\n      and\n        /* \"week9/Registry.sol\":1238:1292  msg.sender == registeredContracts[_name].contractOwner */\n      0xffffffffffffffffffffffffffffffffffffffff\n      and\n        /* \"week9/Registry.sol\":1238:1248  msg.sender */\n      caller\n        /* \"week9/Registry.sol\":1238:1292  msg.sender == registeredContracts[_name].contractOwner */\n      0xffffffffffffffffffffffffffffffffffffffff\n      and\n      eq\n        /* \"week9/Registry.sol\":1230:1338  require(msg.sender == registeredContracts[_name].contractOwner, \"Error: caller is not the contract's owner\") */\n      tag_115\n      jumpi\n      mload(0x40)\n      0x08c379a000000000000000000000000000000000000000000000000000000000\n      dup2\n      mstore\n      0x04\n      add\n      tag_116\n      swap1\n      tag_61\n      jump\t// in\n    tag_116:\n      mload(0x40)\n      dup1\n      swap2\n      sub\n      swap1\n      revert\n    tag_115:\n        /* \"week9/Registry.sol\":2844:2845  0 */\n      0x00\n        /* \"week9/Registry.sol\":2823:2846  _newOwner != address(0) */\n      0xffffffffffffffffffffffffffffffffffffffff\n      and\n        /* \"week9/Registry.sol\":2823:2832  _newOwner */\n      dup3\n        /* \"week9/Registry.sol\":2823:2846  _newOwner != address(0) */\n      0xffffffffffffffffffffffffffffffffffffffff\n      and\n      sub\n        /* \"week9/Registry.sol\":2815:2881  require(_newOwner != address(0), \"Error: newOwner is address(0)!\") */\n      tag_118\n      jumpi\n      mload(0x40)\n      0x08c379a000000000000000000000000000000000000000000000000000000000\n      dup2\n      mstore\n      0x04\n      add\n      tag_119\n      swap1\n      tag_120\n      jump\t// in\n    tag_119:\n      mload(0x40)\n      dup1\n      swap2\n      sub\n      swap1\n      revert\n    tag_118:\n        /* \"week9/Registry.sol\":3019:3028  _newOwner */\n      dup2\n        /* \"week9/Registry.sol\":2976:2995  registeredContracts */\n      0x01\n        /* \"week9/Registry.sol\":2996:3001  _name */\n      dup5\n        /* \"week9/Registry.sol\":2976:3002  registeredContracts[_name] */\n      mload(0x40)\n      tag_121\n      swap2\n      swap1\n      tag_58\n      jump\t// in\n    tag_121:\n      swap1\n      dup2\n      mstore\n      0x20\n      add\n      mload(0x40)\n      dup1\n      swap2\n      sub\n      swap1\n      keccak256\n        /* \"week9/Registry.sol\":2976:3016  registeredContracts[_name].contractOwner */\n      0x00\n      add\n      0x00\n        /* \"week9/Registry.sol\":2976:3028  registeredContracts[_name].contractOwner = _newOwner */\n      0x0100\n      exp\n      dup2\n      sload\n      dup2\n      0xffffffffffffffffffffffffffffffffffffffff\n      mul\n      not\n      and\n      swap1\n      dup4\n      0xffffffffffffffffffffffffffffffffffffffff\n      and\n      mul\n      or\n      swap1\n      sstore\n      pop\n        /* \"week9/Registry.sol\":3080:3126  ContractUpdated(_name, \"change ContractOwner\") */\n      0x57b75b6d8a87a5a5fb23b8661e6576421516e045c4d3cda7943d3127278e2154\n        /* \"week9/Registry.sol\":3096:3101  _name */\n      dup4\n        /* \"week9/Registry.sol\":3080:3126  ContractUpdated(_name, \"change ContractOwner\") */\n      mload(0x40)\n      tag_122\n      swap2\n      swap1\n      tag_123\n      jump\t// in\n    tag_122:\n      mload(0x40)\n      dup1\n      swap2\n      sub\n      swap1\n      log1\n        /* \"week9/Registry.sol\":2720:3199  function changeOwner(string memory _name, address _newOwner) public onlyOwner(_name){... */\n      pop\n      pop\n      pop\n      jump\t// out\n    tag_65:\n      pop\n      dup1\n      sload\n      tag_124\n      swap1\n      tag_78\n      jump\t// in\n    tag_124:\n      0x00\n      dup3\n      sstore\n      dup1\n      0x1f\n      lt\n      tag_126\n      jumpi\n      pop\n      jump(tag_125)\n    tag_126:\n      0x1f\n      add\n      0x20\n      swap1\n      div\n      swap1\n      0x00\n      mstore\n      keccak256(0x00, 0x20)\n      swap1\n      dup2\n      add\n      swap1\n      tag_127\n      swap2\n      swap1\n      tag_128\n      jump\t// in\n    tag_127:\n    tag_125:\n      pop\n      jump\t// out\n    tag_128:\n    tag_129:\n      dup1\n      dup3\n      gt\n      iszero\n      tag_130\n      jumpi\n      0x00\n      dup2\n      0x00\n      swap1\n      sstore\n      pop\n      0x01\n      add\n      jump(tag_129)\n    tag_130:\n      pop\n      swap1\n      jump\t// out\n        /* \"#utility.yul\":7:82   */\n    tag_131:\n        /* \"#utility.yul\":40:46   */\n      0x00\n        /* \"#utility.yul\":73:75   */\n      0x40\n        /* \"#utility.yul\":67:76   */\n      mload\n        /* \"#utility.yul\":57:76   */\n      swap1\n      pop\n        /* \"#utility.yul\":7:82   */\n      swap1\n      jump\t// out\n        /* \"#utility.yul\":88:205   */\n    tag_132:\n        /* \"#utility.yul\":197:198   */\n      0x00\n        /* \"#utility.yul\":194:195   */\n      dup1\n        /* \"#utility.yul\":187:199   */\n      revert\n        /* \"#utility.yul\":211:328   */\n    tag_133:\n        /* \"#utility.yul\":320:321   */\n      0x00\n        /* \"#utility.yul\":317:318   */\n      dup1\n        /* \"#utility.yul\":310:322   */\n      revert\n        /* \"#utility.yul\":334:451   */\n    tag_134:\n        /* \"#utility.yul\":443:444   */\n      0x00\n        /* \"#utility.yul\":440:441   */\n      dup1\n        /* \"#utility.yul\":433:445   */\n      revert\n        /* \"#utility.yul\":457:574   */\n    tag_135:\n        /* \"#utility.yul\":566:567   */\n      0x00\n        /* \"#utility.yul\":563:564   */\n      dup1\n        /* \"#utility.yul\":556:568   */\n      revert\n        /* \"#utility.yul\":580:682   */\n    tag_136:\n        /* \"#utility.yul\":621:627   */\n      0x00\n        /* \"#utility.yul\":672:674   */\n      0x1f\n        /* \"#utility.yul\":668:675   */\n      not\n        /* \"#utility.yul\":663:665   */\n      0x1f\n        /* \"#utility.yul\":656:661   */\n      dup4\n        /* \"#utility.yul\":652:666   */\n      add\n        /* \"#utility.yul\":648:676   */\n      and\n        /* \"#utility.yul\":638:676   */\n      swap1\n      pop\n        /* \"#utility.yul\":580:682   */\n      swap2\n      swap1\n      pop\n      jump\t// out\n        /* \"#utility.yul\":688:868   */\n    tag_137:\n        /* \"#utility.yul\":736:813   */\n      0x4e487b7100000000000000000000000000000000000000000000000000000000\n        /* \"#utility.yul\":733:734   */\n      0x00\n        /* \"#utility.yul\":726:814   */\n      mstore\n        /* \"#utility.yul\":833:837   */\n      0x41\n        /* \"#utility.yul\":830:831   */\n      0x04\n        /* \"#utility.yul\":823:838   */\n      mstore\n        /* \"#utility.yul\":857:861   */\n      0x24\n        /* \"#utility.yul\":854:855   */\n      0x00\n        /* \"#utility.yul\":847:862   */\n      revert\n        /* \"#utility.yul\":874:1155   */\n    tag_138:\n        /* \"#utility.yul\":957:984   */\n      tag_195\n        /* \"#utility.yul\":979:983   */\n      dup3\n        /* \"#utility.yul\":957:984   */\n      tag_136\n      jump\t// in\n    tag_195:\n        /* \"#utility.yul\":949:955   */\n      dup2\n        /* \"#utility.yul\":945:985   */\n      add\n        /* \"#utility.yul\":1087:1093   */\n      dup2\n        /* \"#utility.yul\":1075:1085   */\n      dup2\n        /* \"#utility.yul\":1072:1094   */\n      lt\n        /* \"#utility.yul\":1051:1069   */\n      0xffffffffffffffff\n        /* \"#utility.yul\":1039:1049   */\n      dup3\n        /* \"#utility.yul\":1036:1070   */\n      gt\n        /* \"#utility.yul\":1033:1095   */\n      or\n        /* \"#utility.yul\":1030:1118   */\n      iszero\n      tag_196\n      jumpi\n        /* \"#utility.yul\":1098:1116   */\n      tag_197\n      tag_137\n      jump\t// in\n    tag_197:\n        /* \"#utility.yul\":1030:1118   */\n    tag_196:\n        /* \"#utility.yul\":1138:1148   */\n      dup1\n        /* \"#utility.yul\":1134:1136   */\n      0x40\n        /* \"#utility.yul\":1127:1149   */\n      mstore\n        /* \"#utility.yul\":917:1155   */\n      pop\n        /* \"#utility.yul\":874:1155   */\n      pop\n      pop\n      jump\t// out\n        /* \"#utility.yul\":1161:1290   */\n    tag_139:\n        /* \"#utility.yul\":1195:1201   */\n      0x00\n        /* \"#utility.yul\":1222:1242   */\n      tag_199\n      tag_131\n      jump\t// in\n    tag_199:\n        /* \"#utility.yul\":1212:1242   */\n      swap1\n      pop\n        /* \"#utility.yul\":1251:1284   */\n      tag_200\n        /* \"#utility.yul\":1279:1283   */\n      dup3\n        /* \"#utility.yul\":1271:1277   */\n      dup3\n        /* \"#utility.yul\":1251:1284   */\n      tag_138\n      jump\t// in\n    tag_200:\n        /* \"#utility.yul\":1161:1290   */\n      swap2\n      swap1\n      pop\n      jump\t// out\n        /* \"#utility.yul\":1296:1604   */\n    tag_140:\n        /* \"#utility.yul\":1358:1362   */\n      0x00\n        /* \"#utility.yul\":1448:1466   */\n      0xffffffffffffffff\n        /* \"#utility.yul\":1440:1446   */\n      dup3\n        /* \"#utility.yul\":1437:1467   */\n      gt\n        /* \"#utility.yul\":1434:1490   */\n      iszero\n      tag_202\n      jumpi\n        /* \"#utility.yul\":1470:1488   */\n      tag_203\n      tag_137\n      jump\t// in\n    tag_203:\n        /* \"#utility.yul\":1434:1490   */\n    tag_202:\n        /* \"#utility.yul\":1508:1537   */\n      tag_204\n        /* \"#utility.yul\":1530:1536   */\n      dup3\n        /* \"#utility.yul\":1508:1537   */\n      tag_136\n      jump\t// in\n    tag_204:\n        /* \"#utility.yul\":1500:1537   */\n      swap1\n      pop\n        /* \"#utility.yul\":1592:1596   */\n      0x20\n        /* \"#utility.yul\":1586:1590   */\n      dup2\n        /* \"#utility.yul\":1582:1597   */\n      add\n        /* \"#utility.yul\":1574:1597   */\n      swap1\n      pop\n        /* \"#utility.yul\":1296:1604   */\n      swap2\n      swap1\n      pop\n      jump\t// out\n        /* \"#utility.yul\":1610:1756   */\n    tag_141:\n        /* \"#utility.yul\":1707:1713   */\n      dup3\n        /* \"#utility.yul\":1702:1705   */\n      dup2\n        /* \"#utility.yul\":1697:1700   */\n      dup4\n        /* \"#utility.yul\":1684:1714   */\n      calldatacopy\n        /* \"#utility.yul\":1748:1749   */\n      0x00\n        /* \"#utility.yul\":1739:1745   */\n      dup4\n        /* \"#utility.yul\":1734:1737   */\n      dup4\n        /* \"#utility.yul\":1730:1746   */\n      add\n        /* \"#utility.yul\":1723:1750   */\n      mstore\n        /* \"#utility.yul\":1610:1756   */\n      pop\n      pop\n      pop\n      jump\t// out\n        /* \"#utility.yul\":1762:2187   */\n    tag_142:\n        /* \"#utility.yul\":1840:1845   */\n      0x00\n        /* \"#utility.yul\":1865:1931   */\n      tag_207\n        /* \"#utility.yul\":1881:1930   */\n      tag_208\n        /* \"#utility.yul\":1923:1929   */\n      dup5\n        /* \"#utility.yul\":1881:1930   */\n      tag_140\n      jump\t// in\n    tag_208:\n        /* \"#utility.yul\":1865:1931   */\n      tag_139\n      jump\t// in\n    tag_207:\n        /* \"#utility.yul\":1856:1931   */\n      swap1\n      pop\n        /* \"#utility.yul\":1954:1960   */\n      dup3\n        /* \"#utility.yul\":1947:1952   */\n      dup2\n        /* \"#utility.yul\":1940:1961   */\n      mstore\n        /* \"#utility.yul\":1992:1996   */\n      0x20\n        /* \"#utility.yul\":1985:1990   */\n      dup2\n        /* \"#utility.yul\":1981:1997   */\n      add\n        /* \"#utility.yul\":2030:2033   */\n      dup5\n        /* \"#utility.yul\":2021:2027   */\n      dup5\n        /* \"#utility.yul\":2016:2019   */\n      dup5\n        /* \"#utility.yul\":2012:2028   */\n      add\n        /* \"#utility.yul\":2009:2034   */\n      gt\n        /* \"#utility.yul\":2006:2118   */\n      iszero\n      tag_209\n      jumpi\n        /* \"#utility.yul\":2037:2116   */\n      tag_210\n      tag_135\n      jump\t// in\n    tag_210:\n        /* \"#utility.yul\":2006:2118   */\n    tag_209:\n        /* \"#utility.yul\":2127:2181   */\n      tag_211\n        /* \"#utility.yul\":2174:2180   */\n      dup5\n        /* \"#utility.yul\":2169:2172   */\n      dup3\n        /* \"#utility.yul\":2164:2167   */\n      dup6\n        /* \"#utility.yul\":2127:2181   */\n      tag_141\n      jump\t// in\n    tag_211:\n        /* \"#utility.yul\":1846:2187   */\n      pop\n        /* \"#utility.yul\":1762:2187   */\n      swap4\n      swap3\n      pop\n      pop\n      pop\n      jump\t// out\n        /* \"#utility.yul\":2207:2547   */\n    tag_143:\n        /* \"#utility.yul\":2263:2268   */\n      0x00\n        /* \"#utility.yul\":2312:2315   */\n      dup3\n        /* \"#utility.yul\":2305:2309   */\n      0x1f\n        /* \"#utility.yul\":2297:2303   */\n      dup4\n        /* \"#utility.yul\":2293:2310   */\n      add\n        /* \"#utility.yul\":2289:2316   */\n      slt\n        /* \"#utility.yul\":2279:2401   */\n      tag_213\n      jumpi\n        /* \"#utility.yul\":2320:2399   */\n      tag_214\n      tag_134\n      jump\t// in\n    tag_214:\n        /* \"#utility.yul\":2279:2401   */\n    tag_213:\n        /* \"#utility.yul\":2437:2443   */\n      dup2\n        /* \"#utility.yul\":2424:2444   */\n      calldataload\n        /* \"#utility.yul\":2462:2541   */\n      tag_215\n        /* \"#utility.yul\":2537:2540   */\n      dup5\n        /* \"#utility.yul\":2529:2535   */\n      dup3\n        /* \"#utility.yul\":2522:2526   */\n      0x20\n        /* \"#utility.yul\":2514:2520   */\n      dup7\n        /* \"#utility.yul\":2510:2527   */\n      add\n        /* \"#utility.yul\":2462:2541   */\n      tag_142\n      jump\t// in\n    tag_215:\n        /* \"#utility.yul\":2453:2541   */\n      swap2\n      pop\n        /* \"#utility.yul\":2269:2547   */\n      pop\n        /* \"#utility.yul\":2207:2547   */\n      swap3\n      swap2\n      pop\n      pop\n      jump\t// out\n        /* \"#utility.yul\":2553:3062   */\n    tag_16:\n        /* \"#utility.yul\":2622:2628   */\n      0x00\n        /* \"#utility.yul\":2671:2673   */\n      0x20\n        /* \"#utility.yul\":2659:2668   */\n      dup3\n        /* \"#utility.yul\":2650:2657   */\n      dup5\n        /* \"#utility.yul\":2646:2669   */\n      sub\n        /* \"#utility.yul\":2642:2674   */\n      slt\n        /* \"#utility.yul\":2639:2758   */\n      iszero\n      tag_217\n      jumpi\n        /* \"#utility.yul\":2677:2756   */\n      tag_218\n      tag_132\n      jump\t// in\n    tag_218:\n        /* \"#utility.yul\":2639:2758   */\n    tag_217:\n        /* \"#utility.yul\":2825:2826   */\n      0x00\n        /* \"#utility.yul\":2814:2823   */\n      dup3\n        /* \"#utility.yul\":2810:2827   */\n      add\n        /* \"#utility.yul\":2797:2828   */\n      calldataload\n        /* \"#utility.yul\":2855:2873   */\n      0xffffffffffffffff\n        /* \"#utility.yul\":2847:2853   */\n      dup2\n        /* \"#utility.yul\":2844:2874   */\n      gt\n        /* \"#utility.yul\":2841:2958   */\n      iszero\n      tag_219\n      jumpi\n        /* \"#utility.yul\":2877:2956   */\n      tag_220\n      tag_133\n      jump\t// in\n    tag_220:\n        /* \"#utility.yul\":2841:2958   */\n    tag_219:\n        /* \"#utility.yul\":2982:3045   */\n      tag_221\n        /* \"#utility.yul\":3037:3044   */\n      dup5\n        /* \"#utility.yul\":3028:3034   */\n      dup3\n        /* \"#utility.yul\":3017:3026   */\n      dup6\n        /* \"#utility.yul\":3013:3035   */\n      add\n        /* \"#utility.yul\":2982:3045   */\n      tag_143\n      jump\t// in\n    tag_221:\n        /* \"#utility.yul\":2972:3045   */\n      swap2\n      pop\n        /* \"#utility.yul\":2768:3055   */\n      pop\n        /* \"#utility.yul\":2553:3062   */\n      swap3\n      swap2\n      pop\n      pop\n      jump\t// out\n        /* \"#utility.yul\":3068:3194   */\n    tag_144:\n        /* \"#utility.yul\":3105:3112   */\n      0x00\n        /* \"#utility.yul\":3145:3187   */\n      0xffffffffffffffffffffffffffffffffffffffff\n        /* \"#utility.yul\":3138:3143   */\n      dup3\n        /* \"#utility.yul\":3134:3188   */\n      and\n        /* \"#utility.yul\":3123:3188   */\n      swap1\n      pop\n        /* \"#utility.yul\":3068:3194   */\n      swap2\n      swap1\n      pop\n      jump\t// out\n        /* \"#utility.yul\":3200:3296   */\n    tag_145:\n        /* \"#utility.yul\":3237:3244   */\n      0x00\n        /* \"#utility.yul\":3266:3290   */\n      tag_224\n        /* \"#utility.yul\":3284:3289   */\n      dup3\n        /* \"#utility.yul\":3266:3290   */\n      tag_144\n      jump\t// in\n    tag_224:\n        /* \"#utility.yul\":3255:3290   */\n      swap1\n      pop\n        /* \"#utility.yul\":3200:3296   */\n      swap2\n      swap1\n      pop\n      jump\t// out\n        /* \"#utility.yul\":3302:3424   */\n    tag_146:\n        /* \"#utility.yul\":3375:3399   */\n      tag_226\n        /* \"#utility.yul\":3393:3398   */\n      dup2\n        /* \"#utility.yul\":3375:3399   */\n      tag_145\n      jump\t// in\n    tag_226:\n        /* \"#utility.yul\":3368:3373   */\n      dup2\n        /* \"#utility.yul\":3365:3400   */\n      eq\n        /* \"#utility.yul\":3355:3418   */\n      tag_227\n      jumpi\n        /* \"#utility.yul\":3414:3415   */\n      0x00\n        /* \"#utility.yul\":3411:3412   */\n      dup1\n        /* \"#utility.yul\":3404:3416   */\n      revert\n        /* \"#utility.yul\":3355:3418   */\n    tag_227:\n        /* \"#utility.yul\":3302:3424   */\n      pop\n      jump\t// out\n        /* \"#utility.yul\":3430:3569   */\n    tag_147:\n        /* \"#utility.yul\":3476:3481   */\n      0x00\n        /* \"#utility.yul\":3514:3520   */\n      dup2\n        /* \"#utility.yul\":3501:3521   */\n      calldataload\n        /* \"#utility.yul\":3492:3521   */\n      swap1\n      pop\n        /* \"#utility.yul\":3530:3563   */\n      tag_229\n        /* \"#utility.yul\":3557:3562   */\n      dup2\n        /* \"#utility.yul\":3530:3563   */\n      tag_146\n      jump\t// in\n    tag_229:\n        /* \"#utility.yul\":3430:3569   */\n      swap3\n      swap2\n      pop\n      pop\n      jump\t// out\n        /* \"#utility.yul\":3575:4229   */\n    tag_20:\n        /* \"#utility.yul\":3653:3659   */\n      0x00\n        /* \"#utility.yul\":3661:3667   */\n      dup1\n        /* \"#utility.yul\":3710:3712   */\n      0x40\n        /* \"#utility.yul\":3698:3707   */\n      dup4\n        /* \"#utility.yul\":3689:3696   */\n      dup6\n        /* \"#utility.yul\":3685:3708   */\n      sub\n        /* \"#utility.yul\":3681:3713   */\n      slt\n        /* \"#utility.yul\":3678:3797   */\n      iszero\n      tag_231\n      jumpi\n        /* \"#utility.yul\":3716:3795   */\n      tag_232\n      tag_132\n      jump\t// in\n    tag_232:\n        /* \"#utility.yul\":3678:3797   */\n    tag_231:\n        /* \"#utility.yul\":3864:3865   */\n      0x00\n        /* \"#utility.yul\":3853:3862   */\n      dup4\n        /* \"#utility.yul\":3849:3866   */\n      add\n        /* \"#utility.yul\":3836:3867   */\n      calldataload\n        /* \"#utility.yul\":3894:3912   */\n      0xffffffffffffffff\n        /* \"#utility.yul\":3886:3892   */\n      dup2\n        /* \"#utility.yul\":3883:3913   */\n      gt\n        /* \"#utility.yul\":3880:3997   */\n      iszero\n      tag_233\n      jumpi\n        /* \"#utility.yul\":3916:3995   */\n      tag_234\n      tag_133\n      jump\t// in\n    tag_234:\n        /* \"#utility.yul\":3880:3997   */\n    tag_233:\n        /* \"#utility.yul\":4021:4084   */\n      tag_235\n        /* \"#utility.yul\":4076:4083   */\n      dup6\n        /* \"#utility.yul\":4067:4073   */\n      dup3\n        /* \"#utility.yul\":4056:4065   */\n      dup7\n        /* \"#utility.yul\":4052:4074   */\n      add\n        /* \"#utility.yul\":4021:4084   */\n      tag_143\n      jump\t// in\n    tag_235:\n        /* \"#utility.yul\":4011:4084   */\n      swap3\n      pop\n        /* \"#utility.yul\":3807:4094   */\n      pop\n        /* \"#utility.yul\":4133:4135   */\n      0x20\n        /* \"#utility.yul\":4159:4212   */\n      tag_236\n        /* \"#utility.yul\":4204:4211   */\n      dup6\n        /* \"#utility.yul\":4195:4201   */\n      dup3\n        /* \"#utility.yul\":4184:4193   */\n      dup7\n        /* \"#utility.yul\":4180:4202   */\n      add\n        /* \"#utility.yul\":4159:4212   */\n      tag_147\n      jump\t// in\n    tag_236:\n        /* \"#utility.yul\":4149:4212   */\n      swap2\n      pop\n        /* \"#utility.yul\":4104:4222   */\n      pop\n        /* \"#utility.yul\":3575:4229   */\n      swap3\n      pop\n      swap3\n      swap1\n      pop\n      jump\t// out\n        /* \"#utility.yul\":4235:4334   */\n    tag_148:\n        /* \"#utility.yul\":4287:4293   */\n      0x00\n        /* \"#utility.yul\":4321:4326   */\n      dup2\n        /* \"#utility.yul\":4315:4327   */\n      mload\n        /* \"#utility.yul\":4305:4327   */\n      swap1\n      pop\n        /* \"#utility.yul\":4235:4334   */\n      swap2\n      swap1\n      pop\n      jump\t// out\n        /* \"#utility.yul\":4340:4509   */\n    tag_149:\n        /* \"#utility.yul\":4424:4435   */\n      0x00\n        /* \"#utility.yul\":4458:4464   */\n      dup3\n        /* \"#utility.yul\":4453:4456   */\n      dup3\n        /* \"#utility.yul\":4446:4465   */\n      mstore\n        /* \"#utility.yul\":4498:4502   */\n      0x20\n        /* \"#utility.yul\":4493:4496   */\n      dup3\n        /* \"#utility.yul\":4489:4503   */\n      add\n        /* \"#utility.yul\":4474:4503   */\n      swap1\n      pop\n        /* \"#utility.yul\":4340:4509   */\n      swap3\n      swap2\n      pop\n      pop\n      jump\t// out\n        /* \"#utility.yul\":4515:4761   */\n    tag_150:\n        /* \"#utility.yul\":4596:4597   */\n      0x00\n        /* \"#utility.yul\":4606:4719   */\n    tag_240:\n        /* \"#utility.yul\":4620:4626   */\n      dup4\n        /* \"#utility.yul\":4617:4618   */\n      dup2\n        /* \"#utility.yul\":4614:4627   */\n      lt\n        /* \"#utility.yul\":4606:4719   */\n      iszero\n      tag_242\n      jumpi\n        /* \"#utility.yul\":4705:4706   */\n      dup1\n        /* \"#utility.yul\":4700:4703   */\n      dup3\n        /* \"#utility.yul\":4696:4707   */\n      add\n        /* \"#utility.yul\":4690:4708   */\n      mload\n        /* \"#utility.yul\":4686:4687   */\n      dup2\n        /* \"#utility.yul\":4681:4684   */\n      dup5\n        /* \"#utility.yul\":4677:4688   */\n      add\n        /* \"#utility.yul\":4670:4709   */\n      mstore\n        /* \"#utility.yul\":4642:4644   */\n      0x20\n        /* \"#utility.yul\":4639:4640   */\n      dup2\n        /* \"#utility.yul\":4635:4645   */\n      add\n        /* \"#utility.yul\":4630:4645   */\n      swap1\n      pop\n        /* \"#utility.yul\":4606:4719   */\n      jump(tag_240)\n    tag_242:\n        /* \"#utility.yul\":4753:4754   */\n      0x00\n        /* \"#utility.yul\":4744:4750   */\n      dup5\n        /* \"#utility.yul\":4739:4742   */\n      dup5\n        /* \"#utility.yul\":4735:4751   */\n      add\n        /* \"#utility.yul\":4728:4755   */\n      mstore\n        /* \"#utility.yul\":4577:4761   */\n      pop\n        /* \"#utility.yul\":4515:4761   */\n      pop\n      pop\n      pop\n      jump\t// out\n        /* \"#utility.yul\":4767:5144   */\n    tag_151:\n        /* \"#utility.yul\":4855:4858   */\n      0x00\n        /* \"#utility.yul\":4883:4922   */\n      tag_244\n        /* \"#utility.yul\":4916:4921   */\n      dup3\n        /* \"#utility.yul\":4883:4922   */\n      tag_148\n      jump\t// in\n    tag_244:\n        /* \"#utility.yul\":4938:5009   */\n      tag_245\n        /* \"#utility.yul\":5002:5008   */\n      dup2\n        /* \"#utility.yul\":4997:5000   */\n      dup6\n        /* \"#utility.yul\":4938:5009   */\n      tag_149\n      jump\t// in\n    tag_245:\n        /* \"#utility.yul\":4931:5009   */\n      swap4\n      pop\n        /* \"#utility.yul\":5018:5083   */\n      tag_246\n        /* \"#utility.yul\":5076:5082   */\n      dup2\n        /* \"#utility.yul\":5071:5074   */\n      dup6\n        /* \"#utility.yul\":5064:5068   */\n      0x20\n        /* \"#utility.yul\":5057:5062   */\n      dup7\n        /* \"#utility.yul\":5053:5069   */\n      add\n        /* \"#utility.yul\":5018:5083   */\n      tag_150\n      jump\t// in\n    tag_246:\n        /* \"#utility.yul\":5108:5137   */\n      tag_247\n        /* \"#utility.yul\":5130:5136   */\n      dup2\n        /* \"#utility.yul\":5108:5137   */\n      tag_136\n      jump\t// in\n    tag_247:\n        /* \"#utility.yul\":5103:5106   */\n      dup5\n        /* \"#utility.yul\":5099:5138   */\n      add\n        /* \"#utility.yul\":5092:5138   */\n      swap2\n      pop\n        /* \"#utility.yul\":4859:5144   */\n      pop\n        /* \"#utility.yul\":4767:5144   */\n      swap3\n      swap2\n      pop\n      pop\n      jump\t// out\n        /* \"#utility.yul\":5150:5463   */\n    tag_26:\n        /* \"#utility.yul\":5263:5267   */\n      0x00\n        /* \"#utility.yul\":5301:5303   */\n      0x20\n        /* \"#utility.yul\":5290:5299   */\n      dup3\n        /* \"#utility.yul\":5286:5304   */\n      add\n        /* \"#utility.yul\":5278:5304   */\n      swap1\n      pop\n        /* \"#utility.yul\":5350:5359   */\n      dup2\n        /* \"#utility.yul\":5344:5348   */\n      dup2\n        /* \"#utility.yul\":5340:5360   */\n      sub\n        /* \"#utility.yul\":5336:5337   */\n      0x00\n        /* \"#utility.yul\":5325:5334   */\n      dup4\n        /* \"#utility.yul\":5321:5338   */\n      add\n        /* \"#utility.yul\":5314:5361   */\n      mstore\n        /* \"#utility.yul\":5378:5456   */\n      tag_249\n        /* \"#utility.yul\":5451:5455   */\n      dup2\n        /* \"#utility.yul\":5442:5448   */\n      dup5\n        /* \"#utility.yul\":5378:5456   */\n      tag_151\n      jump\t// in\n    tag_249:\n        /* \"#utility.yul\":5370:5456   */\n      swap1\n      pop\n        /* \"#utility.yul\":5150:5463   */\n      swap3\n      swap2\n      pop\n      pop\n      jump\t// out\n        /* \"#utility.yul\":5469:5587   */\n    tag_152:\n        /* \"#utility.yul\":5556:5580   */\n      tag_251\n        /* \"#utility.yul\":5574:5579   */\n      dup2\n        /* \"#utility.yul\":5556:5580   */\n      tag_145\n      jump\t// in\n    tag_251:\n        /* \"#utility.yul\":5551:5554   */\n      dup3\n        /* \"#utility.yul\":5544:5581   */\n      mstore\n        /* \"#utility.yul\":5469:5587   */\n      pop\n      pop\n      jump\t// out\n        /* \"#utility.yul\":5593:5815   */\n    tag_31:\n        /* \"#utility.yul\":5686:5690   */\n      0x00\n        /* \"#utility.yul\":5724:5726   */\n      0x20\n        /* \"#utility.yul\":5713:5722   */\n      dup3\n        /* \"#utility.yul\":5709:5727   */\n      add\n        /* \"#utility.yul\":5701:5727   */\n      swap1\n      pop\n        /* \"#utility.yul\":5737:5808   */\n      tag_253\n        /* \"#utility.yul\":5805:5806   */\n      0x00\n        /* \"#utility.yul\":5794:5803   */\n      dup4\n        /* \"#utility.yul\":5790:5807   */\n      add\n        /* \"#utility.yul\":5781:5787   */\n      dup5\n        /* \"#utility.yul\":5737:5808   */\n      tag_152\n      jump\t// in\n    tag_253:\n        /* \"#utility.yul\":5593:5815   */\n      swap3\n      swap2\n      pop\n      pop\n      jump\t// out\n        /* \"#utility.yul\":5821:5898   */\n    tag_153:\n        /* \"#utility.yul\":5858:5865   */\n      0x00\n        /* \"#utility.yul\":5887:5892   */\n      dup2\n        /* \"#utility.yul\":5876:5892   */\n      swap1\n      pop\n        /* \"#utility.yul\":5821:5898   */\n      swap2\n      swap1\n      pop\n      jump\t// out\n        /* \"#utility.yul\":5904:6022   */\n    tag_154:\n        /* \"#utility.yul\":5991:6015   */\n      tag_256\n        /* \"#utility.yul\":6009:6014   */\n      dup2\n        /* \"#utility.yul\":5991:6015   */\n      tag_153\n      jump\t// in\n    tag_256:\n        /* \"#utility.yul\":5986:5989   */\n      dup3\n        /* \"#utility.yul\":5979:6016   */\n      mstore\n        /* \"#utility.yul\":5904:6022   */\n      pop\n      pop\n      jump\t// out\n        /* \"#utility.yul\":6028:6250   */\n    tag_35:\n        /* \"#utility.yul\":6121:6125   */\n      0x00\n        /* \"#utility.yul\":6159:6161   */\n      0x20\n        /* \"#utility.yul\":6148:6157   */\n      dup3\n        /* \"#utility.yul\":6144:6162   */\n      add\n        /* \"#utility.yul\":6136:6162   */\n      swap1\n      pop\n        /* \"#utility.yul\":6172:6243   */\n      tag_258\n        /* \"#utility.yul\":6240:6241   */\n      0x00\n        /* \"#utility.yul\":6229:6238   */\n      dup4\n        /* \"#utility.yul\":6225:6242   */\n      add\n        /* \"#utility.yul\":6216:6222   */\n      dup5\n        /* \"#utility.yul\":6172:6243   */\n      tag_154\n      jump\t// in\n    tag_258:\n        /* \"#utility.yul\":6028:6250   */\n      swap3\n      swap2\n      pop\n      pop\n      jump\t// out\n        /* \"#utility.yul\":6256:7090   */\n    tag_38:\n        /* \"#utility.yul\":6344:6350   */\n      0x00\n        /* \"#utility.yul\":6352:6358   */\n      dup1\n        /* \"#utility.yul\":6401:6403   */\n      0x40\n        /* \"#utility.yul\":6389:6398   */\n      dup4\n        /* \"#utility.yul\":6380:6387   */\n      dup6\n        /* \"#utility.yul\":6376:6399   */\n      sub\n        /* \"#utility.yul\":6372:6404   */\n      slt\n        /* \"#utility.yul\":6369:6488   */\n      iszero\n      tag_260\n      jumpi\n        /* \"#utility.yul\":6407:6486   */\n      tag_261\n      tag_132\n      jump\t// in\n    tag_261:\n        /* \"#utility.yul\":6369:6488   */\n    tag_260:\n        /* \"#utility.yul\":6555:6556   */\n      0x00\n        /* \"#utility.yul\":6544:6553   */\n      dup4\n        /* \"#utility.yul\":6540:6557   */\n      add\n        /* \"#utility.yul\":6527:6558   */\n      calldataload\n        /* \"#utility.yul\":6585:6603   */\n      0xffffffffffffffff\n        /* \"#utility.yul\":6577:6583   */\n      dup2\n        /* \"#utility.yul\":6574:6604   */\n      gt\n        /* \"#utility.yul\":6571:6688   */\n      iszero\n      tag_262\n      jumpi\n        /* \"#utility.yul\":6607:6686   */\n      tag_263\n      tag_133\n      jump\t// in\n    tag_263:\n        /* \"#utility.yul\":6571:6688   */\n    tag_262:\n        /* \"#utility.yul\":6712:6775   */\n      tag_264\n        /* \"#utility.yul\":6767:6774   */\n      dup6\n        /* \"#utility.yul\":6758:6764   */\n      dup3\n        /* \"#utility.yul\":6747:6756   */\n      dup7\n        /* \"#utility.yul\":6743:6765   */\n      add\n        /* \"#utility.yul\":6712:6775   */\n      tag_143\n      jump\t// in\n    tag_264:\n        /* \"#utility.yul\":6702:6775   */\n      swap3\n      pop\n        /* \"#utility.yul\":6498:6785   */\n      pop\n        /* \"#utility.yul\":6852:6854   */\n      0x20\n        /* \"#utility.yul\":6841:6850   */\n      dup4\n        /* \"#utility.yul\":6837:6855   */\n      add\n        /* \"#utility.yul\":6824:6856   */\n      calldataload\n        /* \"#utility.yul\":6883:6901   */\n      0xffffffffffffffff\n        /* \"#utility.yul\":6875:6881   */\n      dup2\n        /* \"#utility.yul\":6872:6902   */\n      gt\n        /* \"#utility.yul\":6869:6986   */\n      iszero\n      tag_265\n      jumpi\n        /* \"#utility.yul\":6905:6984   */\n      tag_266\n      tag_133\n      jump\t// in\n    tag_266:\n        /* \"#utility.yul\":6869:6986   */\n    tag_265:\n        /* \"#utility.yul\":7010:7073   */\n      tag_267\n        /* \"#utility.yul\":7065:7072   */\n      dup6\n        /* \"#utility.yul\":7056:7062   */\n      dup3\n        /* \"#utility.yul\":7045:7054   */\n      dup7\n        /* \"#utility.yul\":7041:7063   */\n      add\n        /* \"#utility.yul\":7010:7073   */\n      tag_143\n      jump\t// in\n    tag_267:\n        /* \"#utility.yul\":7000:7073   */\n      swap2\n      pop\n        /* \"#utility.yul\":6795:7083   */\n      pop\n        /* \"#utility.yul\":6256:7090   */\n      swap3\n      pop\n      swap3\n      swap1\n      pop\n      jump\t// out\n        /* \"#utility.yul\":7096:7629   */\n    tag_44:\n        /* \"#utility.yul\":7265:7269   */\n      0x00\n        /* \"#utility.yul\":7303:7305   */\n      0x60\n        /* \"#utility.yul\":7292:7301   */\n      dup3\n        /* \"#utility.yul\":7288:7306   */\n      add\n        /* \"#utility.yul\":7280:7306   */\n      swap1\n      pop\n        /* \"#utility.yul\":7316:7387   */\n      tag_269\n        /* \"#utility.yul\":7384:7385   */\n      0x00\n        /* \"#utility.yul\":7373:7382   */\n      dup4\n        /* \"#utility.yul\":7369:7386   */\n      add\n        /* \"#utility.yul\":7360:7366   */\n      dup7\n        /* \"#utility.yul\":7316:7387   */\n      tag_152\n      jump\t// in\n    tag_269:\n        /* \"#utility.yul\":7397:7469   */\n      tag_270\n        /* \"#utility.yul\":7465:7467   */\n      0x20\n        /* \"#utility.yul\":7454:7463   */\n      dup4\n        /* \"#utility.yul\":7450:7468   */\n      add\n        /* \"#utility.yul\":7441:7447   */\n      dup6\n        /* \"#utility.yul\":7397:7469   */\n      tag_152\n      jump\t// in\n    tag_270:\n        /* \"#utility.yul\":7516:7525   */\n      dup2\n        /* \"#utility.yul\":7510:7514   */\n      dup2\n        /* \"#utility.yul\":7506:7526   */\n      sub\n        /* \"#utility.yul\":7501:7503   */\n      0x40\n        /* \"#utility.yul\":7490:7499   */\n      dup4\n        /* \"#utility.yul\":7486:7504   */\n      add\n        /* \"#utility.yul\":7479:7527   */\n      mstore\n        /* \"#utility.yul\":7544:7622   */\n      tag_271\n        /* \"#utility.yul\":7617:7621   */\n      dup2\n        /* \"#utility.yul\":7608:7614   */\n      dup5\n        /* \"#utility.yul\":7544:7622   */\n      tag_151\n      jump\t// in\n    tag_271:\n        /* \"#utility.yul\":7536:7622   */\n      swap1\n      pop\n        /* \"#utility.yul\":7096:7629   */\n      swap5\n      swap4\n      pop\n      pop\n      pop\n      pop\n      jump\t// out\n        /* \"#utility.yul\":7635:8614   */\n    tag_47:\n        /* \"#utility.yul\":7732:7738   */\n      0x00\n        /* \"#utility.yul\":7740:7746   */\n      dup1\n        /* \"#utility.yul\":7748:7754   */\n      0x00\n        /* \"#utility.yul\":7797:7799   */\n      0x60\n        /* \"#utility.yul\":7785:7794   */\n      dup5\n        /* \"#utility.yul\":7776:7783   */\n      dup7\n        /* \"#utility.yul\":7772:7795   */\n      sub\n        /* \"#utility.yul\":7768:7800   */\n      slt\n        /* \"#utility.yul\":7765:7884   */\n      iszero\n      tag_273\n      jumpi\n        /* \"#utility.yul\":7803:7882   */\n      tag_274\n      tag_132\n      jump\t// in\n    tag_274:\n        /* \"#utility.yul\":7765:7884   */\n    tag_273:\n        /* \"#utility.yul\":7951:7952   */\n      0x00\n        /* \"#utility.yul\":7940:7949   */\n      dup5\n        /* \"#utility.yul\":7936:7953   */\n      add\n        /* \"#utility.yul\":7923:7954   */\n      calldataload\n        /* \"#utility.yul\":7981:7999   */\n      0xffffffffffffffff\n        /* \"#utility.yul\":7973:7979   */\n      dup2\n        /* \"#utility.yul\":7970:8000   */\n      gt\n        /* \"#utility.yul\":7967:8084   */\n      iszero\n      tag_275\n      jumpi\n        /* \"#utility.yul\":8003:8082   */\n      tag_276\n      tag_133\n      jump\t// in\n    tag_276:\n        /* \"#utility.yul\":7967:8084   */\n    tag_275:\n        /* \"#utility.yul\":8108:8171   */\n      tag_277\n        /* \"#utility.yul\":8163:8170   */\n      dup7\n        /* \"#utility.yul\":8154:8160   */\n      dup3\n        /* \"#utility.yul\":8143:8152   */\n      dup8\n        /* \"#utility.yul\":8139:8161   */\n      add\n        /* \"#utility.yul\":8108:8171   */\n      tag_143\n      jump\t// in\n    tag_277:\n        /* \"#utility.yul\":8098:8171   */\n      swap4\n      pop\n        /* \"#utility.yul\":7894:8181   */\n      pop\n        /* \"#utility.yul\":8220:8222   */\n      0x20\n        /* \"#utility.yul\":8246:8299   */\n      tag_278\n        /* \"#utility.yul\":8291:8298   */\n      dup7\n        /* \"#utility.yul\":8282:8288   */\n      dup3\n        /* \"#utility.yul\":8271:8280   */\n      dup8\n        /* \"#utility.yul\":8267:8289   */\n      add\n        /* \"#utility.yul\":8246:8299   */\n      tag_147\n      jump\t// in\n    tag_278:\n        /* \"#utility.yul\":8236:8299   */\n      swap3\n      pop\n        /* \"#utility.yul\":8191:8309   */\n      pop\n        /* \"#utility.yul\":8376:8378   */\n      0x40\n        /* \"#utility.yul\":8365:8374   */\n      dup5\n        /* \"#utility.yul\":8361:8379   */\n      add\n        /* \"#utility.yul\":8348:8380   */\n      calldataload\n        /* \"#utility.yul\":8407:8425   */\n      0xffffffffffffffff\n        /* \"#utility.yul\":8399:8405   */\n      dup2\n        /* \"#utility.yul\":8396:8426   */\n      gt\n        /* \"#utility.yul\":8393:8510   */\n      iszero\n      tag_279\n      jumpi\n        /* \"#utility.yul\":8429:8508   */\n      tag_280\n      tag_133\n      jump\t// in\n    tag_280:\n        /* \"#utility.yul\":8393:8510   */\n    tag_279:\n        /* \"#utility.yul\":8534:8597   */\n      tag_281\n        /* \"#utility.yul\":8589:8596   */\n      dup7\n        /* \"#utility.yul\":8580:8586   */\n      dup3\n        /* \"#utility.yul\":8569:8578   */\n      dup8\n        /* \"#utility.yul\":8565:8587   */\n      add\n        /* \"#utility.yul\":8534:8597   */\n      tag_143\n      jump\t// in\n    tag_281:\n        /* \"#utility.yul\":8524:8597   */\n      swap2\n      pop\n        /* \"#utility.yul\":8319:8607   */\n      pop\n        /* \"#utility.yul\":7635:8614   */\n      swap3\n      pop\n      swap3\n      pop\n      swap3\n      jump\t// out\n        /* \"#utility.yul\":8620:8768   */\n    tag_155:\n        /* \"#utility.yul\":8722:8733   */\n      0x00\n        /* \"#utility.yul\":8759:8762   */\n      dup2\n        /* \"#utility.yul\":8744:8762   */\n      swap1\n      pop\n        /* \"#utility.yul\":8620:8768   */\n      swap3\n      swap2\n      pop\n      pop\n      jump\t// out\n        /* \"#utility.yul\":8774:9164   */\n    tag_156:\n        /* \"#utility.yul\":8880:8883   */\n      0x00\n        /* \"#utility.yul\":8908:8947   */\n      tag_284\n        /* \"#utility.yul\":8941:8946   */\n      dup3\n        /* \"#utility.yul\":8908:8947   */\n      tag_148\n      jump\t// in\n    tag_284:\n        /* \"#utility.yul\":8963:9052   */\n      tag_285\n        /* \"#utility.yul\":9045:9051   */\n      dup2\n        /* \"#utility.yul\":9040:9043   */\n      dup6\n        /* \"#utility.yul\":8963:9052   */\n      tag_155\n      jump\t// in\n    tag_285:\n        /* \"#utility.yul\":8956:9052   */\n      swap4\n      pop\n        /* \"#utility.yul\":9061:9126   */\n      tag_286\n        /* \"#utility.yul\":9119:9125   */\n      dup2\n        /* \"#utility.yul\":9114:9117   */\n      dup6\n        /* \"#utility.yul\":9107:9111   */\n      0x20\n        /* \"#utility.yul\":9100:9105   */\n      dup7\n        /* \"#utility.yul\":9096:9112   */\n      add\n        /* \"#utility.yul\":9061:9126   */\n      tag_150\n      jump\t// in\n    tag_286:\n        /* \"#utility.yul\":9151:9157   */\n      dup1\n        /* \"#utility.yul\":9146:9149   */\n      dup5\n        /* \"#utility.yul\":9142:9158   */\n      add\n        /* \"#utility.yul\":9135:9158   */\n      swap2\n      pop\n        /* \"#utility.yul\":8884:9164   */\n      pop\n        /* \"#utility.yul\":8774:9164   */\n      swap3\n      swap2\n      pop\n      pop\n      jump\t// out\n        /* \"#utility.yul\":9170:9445   */\n    tag_58:\n        /* \"#utility.yul\":9302:9305   */\n      0x00\n        /* \"#utility.yul\":9324:9419   */\n      tag_288\n        /* \"#utility.yul\":9415:9418   */\n      dup3\n        /* \"#utility.yul\":9406:9412   */\n      dup5\n        /* \"#utility.yul\":9324:9419   */\n      tag_156\n      jump\t// in\n    tag_288:\n        /* \"#utility.yul\":9317:9419   */\n      swap2\n      pop\n        /* \"#utility.yul\":9436:9439   */\n      dup2\n        /* \"#utility.yul\":9429:9439   */\n      swap1\n      pop\n        /* \"#utility.yul\":9170:9445   */\n      swap3\n      swap2\n      pop\n      pop\n      jump\t// out\n        /* \"#utility.yul\":9451:9679   */\n    tag_157:\n        /* \"#utility.yul\":9591:9625   */\n      0x4572726f723a2063616c6c6572206973206e6f742074686520636f6e74726163\n        /* \"#utility.yul\":9587:9588   */\n      0x00\n        /* \"#utility.yul\":9579:9585   */\n      dup3\n        /* \"#utility.yul\":9575:9589   */\n      add\n        /* \"#utility.yul\":9568:9626   */\n      mstore\n        /* \"#utility.yul\":9660:9671   */\n      0x742773206f776e65720000000000000000000000000000000000000000000000\n        /* \"#utility.yul\":9655:9657   */\n      0x20\n        /* \"#utility.yul\":9647:9653   */\n      dup3\n        /* \"#utility.yul\":9643:9658   */\n      add\n        /* \"#utility.yul\":9636:9672   */\n      mstore\n        /* \"#utility.yul\":9451:9679   */\n      pop\n      jump\t// out\n        /* \"#utility.yul\":9685:10051   */\n    tag_158:\n        /* \"#utility.yul\":9827:9830   */\n      0x00\n        /* \"#utility.yul\":9848:9915   */\n      tag_291\n        /* \"#utility.yul\":9912:9914   */\n      0x29\n        /* \"#utility.yul\":9907:9910   */\n      dup4\n        /* \"#utility.yul\":9848:9915   */\n      tag_149\n      jump\t// in\n    tag_291:\n        /* \"#utility.yul\":9841:9915   */\n      swap2\n      pop\n        /* \"#utility.yul\":9924:10017   */\n      tag_292\n        /* \"#utility.yul\":10013:10016   */\n      dup3\n        /* \"#utility.yul\":9924:10017   */\n      tag_157\n      jump\t// in\n    tag_292:\n        /* \"#utility.yul\":10042:10044   */\n      0x40\n        /* \"#utility.yul\":10037:10040   */\n      dup3\n        /* \"#utility.yul\":10033:10045   */\n      add\n        /* \"#utility.yul\":10026:10045   */\n      swap1\n      pop\n        /* \"#utility.yul\":9685:10051   */\n      swap2\n      swap1\n      pop\n      jump\t// out\n        /* \"#utility.yul\":10057:10476   */\n    tag_61:\n        /* \"#utility.yul\":10223:10227   */\n      0x00\n        /* \"#utility.yul\":10261:10263   */\n      0x20\n        /* \"#utility.yul\":10250:10259   */\n      dup3\n        /* \"#utility.yul\":10246:10264   */\n      add\n        /* \"#utility.yul\":10238:10264   */\n      swap1\n      pop\n        /* \"#utility.yul\":10310:10319   */\n      dup2\n        /* \"#utility.yul\":10304:10308   */\n      dup2\n        /* \"#utility.yul\":10300:10320   */\n      sub\n        /* \"#utility.yul\":10296:10297   */\n      0x00\n        /* \"#utility.yul\":10285:10294   */\n      dup4\n        /* \"#utility.yul\":10281:10298   */\n      add\n        /* \"#utility.yul\":10274:10321   */\n      mstore\n        /* \"#utility.yul\":10338:10469   */\n      tag_294\n        /* \"#utility.yul\":10464:10468   */\n      dup2\n        /* \"#utility.yul\":10338:10469   */\n      tag_158\n      jump\t// in\n    tag_294:\n        /* \"#utility.yul\":10330:10469   */\n      swap1\n      pop\n        /* \"#utility.yul\":10057:10476   */\n      swap2\n      swap1\n      pop\n      jump\t// out\n        /* \"#utility.yul\":10482:10654   */\n    tag_159:\n        /* \"#utility.yul\":10622:10646   */\n      0x6368616e676520436f6e74726163744164647265737300000000000000000000\n        /* \"#utility.yul\":10618:10619   */\n      0x00\n        /* \"#utility.yul\":10610:10616   */\n      dup3\n        /* \"#utility.yul\":10606:10620   */\n      add\n        /* \"#utility.yul\":10599:10647   */\n      mstore\n        /* \"#utility.yul\":10482:10654   */\n      pop\n      jump\t// out\n        /* \"#utility.yul\":10660:11026   */\n    tag_160:\n        /* \"#utility.yul\":10802:10805   */\n      0x00\n        /* \"#utility.yul\":10823:10890   */\n      tag_297\n        /* \"#utility.yul\":10887:10889   */\n      0x16\n        /* \"#utility.yul\":10882:10885   */\n      dup4\n        /* \"#utility.yul\":10823:10890   */\n      tag_149\n      jump\t// in\n    tag_297:\n        /* \"#utility.yul\":10816:10890   */\n      swap2\n      pop\n        /* \"#utility.yul\":10899:10992   */\n      tag_298\n        /* \"#utility.yul\":10988:10991   */\n      dup3\n        /* \"#utility.yul\":10899:10992   */\n      tag_159\n      jump\t// in\n    tag_298:\n        /* \"#utility.yul\":11017:11019   */\n      0x20\n        /* \"#utility.yul\":11012:11015   */\n      dup3\n        /* \"#utility.yul\":11008:11020   */\n      add\n        /* \"#utility.yul\":11001:11020   */\n      swap1\n      pop\n        /* \"#utility.yul\":10660:11026   */\n      swap2\n      swap1\n      pop\n      jump\t// out\n        /* \"#utility.yul\":11032:11652   */\n    tag_74:\n        /* \"#utility.yul\":11246:11250   */\n      0x00\n        /* \"#utility.yul\":11284:11286   */\n      0x40\n        /* \"#utility.yul\":11273:11282   */\n      dup3\n        /* \"#utility.yul\":11269:11287   */\n      add\n        /* \"#utility.yul\":11261:11287   */\n      swap1\n      pop\n        /* \"#utility.yul\":11333:11342   */\n      dup2\n        /* \"#utility.yul\":11327:11331   */\n      dup2\n        /* \"#utility.yul\":11323:11343   */\n      sub\n        /* \"#utility.yul\":11319:11320   */\n      0x00\n        /* \"#utility.yul\":11308:11317   */\n      dup4\n        /* \"#utility.yul\":11304:11321   */\n      add\n        /* \"#utility.yul\":11297:11344   */\n      mstore\n        /* \"#utility.yul\":11361:11439   */\n      tag_300\n        /* \"#utility.yul\":11434:11438   */\n      dup2\n        /* \"#utility.yul\":11425:11431   */\n      dup5\n        /* \"#utility.yul\":11361:11439   */\n      tag_151\n      jump\t// in\n    tag_300:\n        /* \"#utility.yul\":11353:11439   */\n      swap1\n      pop\n        /* \"#utility.yul\":11486:11495   */\n      dup2\n        /* \"#utility.yul\":11480:11484   */\n      dup2\n        /* \"#utility.yul\":11476:11496   */\n      sub\n        /* \"#utility.yul\":11471:11473   */\n      0x20\n        /* \"#utility.yul\":11460:11469   */\n      dup4\n        /* \"#utility.yul\":11456:11474   */\n      add\n        /* \"#utility.yul\":11449:11497   */\n      mstore\n        /* \"#utility.yul\":11514:11645   */\n      tag_301\n        /* \"#utility.yul\":11640:11644   */\n      dup2\n        /* \"#utility.yul\":11514:11645   */\n      tag_160\n      jump\t// in\n    tag_301:\n        /* \"#utility.yul\":11506:11645   */\n      swap1\n      pop\n        /* \"#utility.yul\":11032:11652   */\n      swap3\n      swap2\n      pop\n      pop\n      jump\t// out\n        /* \"#utility.yul\":11658:11838   */\n    tag_161:\n        /* \"#utility.yul\":11706:11783   */\n      0x4e487b7100000000000000000000000000000000000000000000000000000000\n        /* \"#utility.yul\":11703:11704   */\n      0x00\n        /* \"#utility.yul\":11696:11784   */\n      mstore\n        /* \"#utility.yul\":11803:11807   */\n      0x22\n        /* \"#utility.yul\":11800:11801   */\n      0x04\n        /* \"#utility.yul\":11793:11808   */\n      mstore\n        /* \"#utility.yul\":11827:11831   */\n      0x24\n        /* \"#utility.yul\":11824:11825   */\n      0x00\n        /* \"#utility.yul\":11817:11832   */\n      revert\n        /* \"#utility.yul\":11844:12164   */\n    tag_78:\n        /* \"#utility.yul\":11888:11894   */\n      0x00\n        /* \"#utility.yul\":11925:11926   */\n      0x02\n        /* \"#utility.yul\":11919:11923   */\n      dup3\n        /* \"#utility.yul\":11915:11927   */\n      div\n        /* \"#utility.yul\":11905:11927   */\n      swap1\n      pop\n        /* \"#utility.yul\":11972:11973   */\n      0x01\n        /* \"#utility.yul\":11966:11970   */\n      dup3\n        /* \"#utility.yul\":11962:11974   */\n      and\n        /* \"#utility.yul\":11993:12011   */\n      dup1\n        /* \"#utility.yul\":11983:12064   */\n      tag_304\n      jumpi\n        /* \"#utility.yul\":12049:12053   */\n      0x7f\n        /* \"#utility.yul\":12041:12047   */\n      dup3\n        /* \"#utility.yul\":12037:12054   */\n      and\n        /* \"#utility.yul\":12027:12054   */\n      swap2\n      pop\n        /* \"#utility.yul\":11983:12064   */\n    tag_304:\n        /* \"#utility.yul\":12111:12113   */\n      0x20\n        /* \"#utility.yul\":12103:12109   */\n      dup3\n        /* \"#utility.yul\":12100:12114   */\n      lt\n        /* \"#utility.yul\":12080:12098   */\n      dup2\n        /* \"#utility.yul\":12077:12115   */\n      sub\n        /* \"#utility.yul\":12074:12158   */\n      tag_305\n      jumpi\n        /* \"#utility.yul\":12130:12148   */\n      tag_306\n      tag_161\n      jump\t// in\n    tag_306:\n        /* \"#utility.yul\":12074:12158   */\n    tag_305:\n        /* \"#utility.yul\":11895:12164   */\n      pop\n        /* \"#utility.yul\":11844:12164   */\n      swap2\n      swap1\n      pop\n      jump\t// out\n        /* \"#utility.yul\":12170:12311   */\n    tag_162:\n        /* \"#utility.yul\":12219:12223   */\n      0x00\n        /* \"#utility.yul\":12242:12245   */\n      dup2\n        /* \"#utility.yul\":12234:12245   */\n      swap1\n      pop\n        /* \"#utility.yul\":12265:12268   */\n      dup2\n        /* \"#utility.yul\":12262:12263   */\n      0x00\n        /* \"#utility.yul\":12255:12269   */\n      mstore\n        /* \"#utility.yul\":12299:12303   */\n      0x20\n        /* \"#utility.yul\":12296:12297   */\n      0x00\n        /* \"#utility.yul\":12286:12304   */\n      keccak256\n        /* \"#utility.yul\":12278:12304   */\n      swap1\n      pop\n        /* \"#utility.yul\":12170:12311   */\n      swap2\n      swap1\n      pop\n      jump\t// out\n        /* \"#utility.yul\":12317:12410   */\n    tag_163:\n        /* \"#utility.yul\":12354:12360   */\n      0x00\n        /* \"#utility.yul\":12401:12403   */\n      0x20\n        /* \"#utility.yul\":12396:12398   */\n      0x1f\n        /* \"#utility.yul\":12389:12394   */\n      dup4\n        /* \"#utility.yul\":12385:12399   */\n      add\n        /* \"#utility.yul\":12381:12404   */\n      div\n        /* \"#utility.yul\":12371:12404   */\n      swap1\n      pop\n        /* \"#utility.yul\":12317:12410   */\n      swap2\n      swap1\n      pop\n      jump\t// out\n        /* \"#utility.yul\":12416:12523   */\n    tag_164:\n        /* \"#utility.yul\":12460:12468   */\n      0x00\n        /* \"#utility.yul\":12510:12515   */\n      dup3\n        /* \"#utility.yul\":12504:12508   */\n      dup3\n        /* \"#utility.yul\":12500:12516   */\n      shl\n        /* \"#utility.yul\":12479:12516   */\n      swap1\n      pop\n        /* \"#utility.yul\":12416:12523   */\n      swap3\n      swap2\n      pop\n      pop\n      jump\t// out\n        /* \"#utility.yul\":12529:12922   */\n    tag_165:\n        /* \"#utility.yul\":12598:12604   */\n      0x00\n        /* \"#utility.yul\":12648:12649   */\n      0x08\n        /* \"#utility.yul\":12636:12646   */\n      dup4\n        /* \"#utility.yul\":12632:12650   */\n      mul\n        /* \"#utility.yul\":12671:12768   */\n      tag_311\n        /* \"#utility.yul\":12701:12767   */\n      0xffffffffffffffffffffffffffffffffffffffffffffffffffffffffffffffff\n        /* \"#utility.yul\":12690:12699   */\n      dup3\n        /* \"#utility.yul\":12671:12768   */\n      tag_164\n      jump\t// in\n    tag_311:\n        /* \"#utility.yul\":12789:12828   */\n      tag_312\n        /* \"#utility.yul\":12819:12827   */\n      dup7\n        /* \"#utility.yul\":12808:12817   */\n      dup4\n        /* \"#utility.yul\":12789:12828   */\n      tag_164\n      jump\t// in\n    tag_312:\n        /* \"#utility.yul\":12777:12828   */\n      swap6\n      pop\n        /* \"#utility.yul\":12861:12865   */\n      dup1\n        /* \"#utility.yul\":12857:12866   */\n      not\n        /* \"#utility.yul\":12850:12855   */\n      dup5\n        /* \"#utility.yul\":12846:12867   */\n      and\n        /* \"#utility.yul\":12837:12867   */\n      swap4\n      pop\n        /* \"#utility.yul\":12910:12914   */\n      dup1\n        /* \"#utility.yul\":12900:12908   */\n      dup7\n        /* \"#utility.yul\":12896:12915   */\n      and\n        /* \"#utility.yul\":12889:12894   */\n      dup5\n        /* \"#utility.yul\":12886:12916   */\n      or\n        /* \"#utility.yul\":12876:12916   */\n      swap3\n      pop\n        /* \"#utility.yul\":12605:12922   */\n      pop\n      pop\n        /* \"#utility.yul\":12529:12922   */\n      swap4\n      swap3\n      pop\n      pop\n      pop\n      jump\t// out\n        /* \"#utility.yul\":12928:12988   */\n    tag_166:\n        /* \"#utility.yul\":12956:12959   */\n      0x00\n        /* \"#utility.yul\":12977:12982   */\n      dup2\n        /* \"#utility.yul\":12970:12982   */\n      swap1\n      pop\n        /* \"#utility.yul\":12928:12988   */\n      swap2\n      swap1\n      pop\n      jump\t// out\n        /* \"#utility.yul\":12994:13136   */\n    tag_167:\n        /* \"#utility.yul\":13044:13053   */\n      0x00\n        /* \"#utility.yul\":13077:13130   */\n      tag_315\n        /* \"#utility.yul\":13095:13129   */\n      tag_316\n        /* \"#utility.yul\":13104:13128   */\n      tag_317\n        /* \"#utility.yul\":13122:13127   */\n      dup5\n        /* \"#utility.yul\":13104:13128   */\n      tag_153\n      jump\t// in\n    tag_317:\n        /* \"#utility.yul\":13095:13129   */\n      tag_166\n      jump\t// in\n    tag_316:\n        /* \"#utility.yul\":13077:13130   */\n      tag_153\n      jump\t// in\n    tag_315:\n        /* \"#utility.yul\":13064:13130   */\n      swap1\n      pop\n        /* \"#utility.yul\":12994:13136   */\n      swap2\n      swap1\n      pop\n      jump\t// out\n        /* \"#utility.yul\":13142:13217   */\n    tag_168:\n        /* \"#utility.yul\":13185:13188   */\n      0x00\n        /* \"#utility.yul\":13206:13211   */\n      dup2\n        /* \"#utility.yul\":13199:13211   */\n      swap1\n      pop\n        /* \"#utility.yul\":13142:13217   */\n      swap2\n      swap1\n      pop\n      jump\t// out\n        /* \"#utility.yul\":13223:13492   */\n    tag_169:\n        /* \"#utility.yul\":13333:13372   */\n      tag_320\n        /* \"#utility.yul\":13364:13371   */\n      dup4\n        /* \"#utility.yul\":13333:13372   */\n      tag_167\n      jump\t// in\n    tag_320:\n        /* \"#utility.yul\":13394:13485   */\n      tag_321\n        /* \"#utility.yul\":13443:13484   */\n      tag_322\n        /* \"#utility.yul\":13467:13483   */\n      dup3\n        /* \"#utility.yul\":13443:13484   */\n      tag_168\n      jump\t// in\n    tag_322:\n        /* \"#utility.yul\":13435:13441   */\n      dup5\n        /* \"#utility.yul\":13428:13432   */\n      dup5\n        /* \"#utility.yul\":13422:13433   */\n      sload\n        /* \"#utility.yul\":13394:13485   */\n      tag_165\n      jump\t// in\n    tag_321:\n        /* \"#utility.yul\":13388:13392   */\n      dup3\n        /* \"#utility.yul\":13381:13486   */\n      sstore\n        /* \"#utility.yul\":13299:13492   */\n      pop\n        /* \"#utility.yul\":13223:13492   */\n      pop\n      pop\n      pop\n      jump\t// out\n        /* \"#utility.yul\":13498:13571   */\n    tag_170:\n        /* \"#utility.yul\":13543:13546   */\n      0x00\n        /* \"#utility.yul\":13498:13571   */\n      swap1\n      jump\t// out\n        /* \"#utility.yul\":13577:13766   */\n    tag_171:\n        /* \"#utility.yul\":13654:13686   */\n      tag_325\n      tag_170\n      jump\t// in\n    tag_325:\n        /* \"#utility.yul\":13695:13760   */\n      tag_326\n        /* \"#utility.yul\":13753:13759   */\n      dup2\n        /* \"#utility.yul\":13745:13751   */\n      dup5\n        /* \"#utility.yul\":13739:13743   */\n      dup5\n        /* \"#utility.yul\":13695:13760   */\n      tag_169\n      jump\t// in\n    tag_326:\n        /* \"#utility.yul\":13630:13766   */\n      pop\n        /* \"#utility.yul\":13577:13766   */\n      pop\n      pop\n      jump\t// out\n        /* \"#utility.yul\":13772:13958   */\n    tag_172:\n        /* \"#utility.yul\":13832:13952   */\n    tag_328:\n        /* \"#utility.yul\":13849:13852   */\n      dup2\n        /* \"#utility.yul\":13842:13847   */\n      dup2\n        /* \"#utility.yul\":13839:13853   */\n      lt\n        /* \"#utility.yul\":13832:13952   */\n      iszero\n      tag_330\n      jumpi\n        /* \"#utility.yul\":13903:13942   */\n      tag_331\n        /* \"#utility.yul\":13940:13941   */\n      0x00\n        /* \"#utility.yul\":13933:13938   */\n      dup3\n        /* \"#utility.yul\":13903:13942   */\n      tag_171\n      jump\t// in\n    tag_331:\n        /* \"#utility.yul\":13876:13877   */\n      0x01\n        /* \"#utility.yul\":13869:13874   */\n      dup2\n        /* \"#utility.yul\":13865:13878   */\n      add\n        /* \"#utility.yul\":13856:13878   */\n      swap1\n      pop\n        /* \"#utility.yul\":13832:13952   */\n      jump(tag_328)\n    tag_330:\n        /* \"#utility.yul\":13772:13958   */\n      pop\n      pop\n      jump\t// out\n        /* \"#utility.yul\":13964:14507   */\n    tag_173:\n        /* \"#utility.yul\":14065:14067   */\n      0x1f\n        /* \"#utility.yul\":14060:14063   */\n      dup3\n        /* \"#utility.yul\":14057:14068   */\n      gt\n        /* \"#utility.yul\":14054:14500   */\n      iszero\n      tag_333\n      jumpi\n        /* \"#utility.yul\":14099:14137   */\n      tag_334\n        /* \"#utility.yul\":14131:14136   */\n      dup2\n        /* \"#utility.yul\":14099:14137   */\n      tag_162\n      jump\t// in\n    tag_334:\n        /* \"#utility.yul\":14183:14212   */\n      tag_335\n        /* \"#utility.yul\":14201:14211   */\n      dup5\n        /* \"#utility.yul\":14183:14212   */\n      tag_163\n      jump\t// in\n    tag_335:\n        /* \"#utility.yul\":14173:14181   */\n      dup2\n        /* \"#utility.yul\":14169:14213   */\n      add\n        /* \"#utility.yul\":14366:14368   */\n      0x20\n        /* \"#utility.yul\":14354:14364   */\n      dup6\n        /* \"#utility.yul\":14351:14369   */\n      lt\n        /* \"#utility.yul\":14348:14397   */\n      iszero\n      tag_336\n      jumpi\n        /* \"#utility.yul\":14387:14395   */\n      dup2\n        /* \"#utility.yul\":14372:14395   */\n      swap1\n      pop\n        /* \"#utility.yul\":14348:14397   */\n    tag_336:\n        /* \"#utility.yul\":14410:14490   */\n      tag_337\n        /* \"#utility.yul\":14466:14488   */\n      tag_338\n        /* \"#utility.yul\":14484:14487   */\n      dup6\n        /* \"#utility.yul\":14466:14488   */\n      tag_163\n      jump\t// in\n    tag_338:\n        /* \"#utility.yul\":14456:14464   */\n      dup4\n        /* \"#utility.yul\":14452:14489   */\n      add\n        /* \"#utility.yul\":14439:14450   */\n      dup3\n        /* \"#utility.yul\":14410:14490   */\n      tag_172\n      jump\t// in\n    tag_337:\n        /* \"#utility.yul\":14069:14500   */\n      pop\n      pop\n        /* \"#utility.yul\":14054:14500   */\n    tag_333:\n        /* \"#utility.yul\":13964:14507   */\n      pop\n      pop\n      pop\n      jump\t// out\n        /* \"#utility.yul\":14513:14630   */\n    tag_174:\n        /* \"#utility.yul\":14567:14575   */\n      0x00\n        /* \"#utility.yul\":14617:14622   */\n      dup3\n        /* \"#utility.yul\":14611:14615   */\n      dup3\n        /* \"#utility.yul\":14607:14623   */\n      shr\n        /* \"#utility.yul\":14586:14623   */\n      swap1\n      pop\n        /* \"#utility.yul\":14513:14630   */\n      swap3\n      swap2\n      pop\n      pop\n      jump\t// out\n        /* \"#utility.yul\":14636:14805   */\n    tag_175:\n        /* \"#utility.yul\":14680:14686   */\n      0x00\n        /* \"#utility.yul\":14713:14764   */\n      tag_341\n        /* \"#utility.yul\":14761:14762   */\n      0x00\n        /* \"#utility.yul\":14757:14763   */\n      not\n        /* \"#utility.yul\":14749:14754   */\n      dup5\n        /* \"#utility.yul\":14746:14747   */\n      0x08\n        /* \"#utility.yul\":14742:14755   */\n      mul\n        /* \"#utility.yul\":14713:14764   */\n      tag_174\n      jump\t// in\n    tag_341:\n        /* \"#utility.yul\":14709:14765   */\n      not\n        /* \"#utility.yul\":14794:14798   */\n      dup1\n        /* \"#utility.yul\":14788:14792   */\n      dup4\n        /* \"#utility.yul\":14784:14799   */\n      and\n        /* \"#utility.yul\":14774:14799   */\n      swap2\n      pop\n        /* \"#utility.yul\":14687:14805   */\n      pop\n        /* \"#utility.yul\":14636:14805   */\n      swap3\n      swap2\n      pop\n      pop\n      jump\t// out\n        /* \"#utility.yul\":14810:15105   */\n    tag_176:\n        /* \"#utility.yul\":14886:14890   */\n      0x00\n        /* \"#utility.yul\":15032:15061   */\n      tag_343\n        /* \"#utility.yul\":15057:15060   */\n      dup4\n        /* \"#utility.yul\":15051:15055   */\n      dup4\n        /* \"#utility.yul\":15032:15061   */\n      tag_175\n      jump\t// in\n    tag_343:\n        /* \"#utility.yul\":15024:15061   */\n      swap2\n      pop\n        /* \"#utility.yul\":15094:15097   */\n      dup3\n        /* \"#utility.yul\":15091:15092   */\n      0x02\n        /* \"#utility.yul\":15087:15098   */\n      mul\n        /* \"#utility.yul\":15081:15085   */\n      dup3\n        /* \"#utility.yul\":15078:15099   */\n      or\n        /* \"#utility.yul\":15070:15099   */\n      swap1\n      pop\n        /* \"#utility.yul\":14810:15105   */\n      swap3\n      swap2\n      pop\n      pop\n      jump\t// out\n        /* \"#utility.yul\":15110:16505   */\n    tag_92:\n        /* \"#utility.yul\":15227:15264   */\n      tag_345\n        /* \"#utility.yul\":15260:15263   */\n      dup3\n        /* \"#utility.yul\":15227:15264   */\n      tag_148\n      jump\t// in\n    tag_345:\n        /* \"#utility.yul\":15329:15347   */\n      0xffffffffffffffff\n        /* \"#utility.yul\":15321:15327   */\n      dup2\n        /* \"#utility.yul\":15318:15348   */\n      gt\n        /* \"#utility.yul\":15315:15371   */\n      iszero\n      tag_346\n      jumpi\n        /* \"#utility.yul\":15351:15369   */\n      tag_347\n      tag_137\n      jump\t// in\n    tag_347:\n        /* \"#utility.yul\":15315:15371   */\n    tag_346:\n        /* \"#utility.yul\":15395:15433   */\n      tag_348\n        /* \"#utility.yul\":15427:15431   */\n      dup3\n        /* \"#utility.yul\":15421:15432   */\n      sload\n        /* \"#utility.yul\":15395:15433   */\n      tag_78\n      jump\t// in\n    tag_348:\n        /* \"#utility.yul\":15480:15547   */\n      tag_349\n        /* \"#utility.yul\":15540:15546   */\n      dup3\n        /* \"#utility.yul\":15532:15538   */\n      dup3\n        /* \"#utility.yul\":15526:15530   */\n      dup6\n        /* \"#utility.yul\":15480:15547   */\n      tag_173\n      jump\t// in\n    tag_349:\n        /* \"#utility.yul\":15574:15575   */\n      0x00\n        /* \"#utility.yul\":15598:15602   */\n      0x20\n        /* \"#utility.yul\":15585:15602   */\n      swap1\n      pop\n        /* \"#utility.yul\":15630:15632   */\n      0x1f\n        /* \"#utility.yul\":15622:15628   */\n      dup4\n        /* \"#utility.yul\":15619:15633   */\n      gt\n        /* \"#utility.yul\":15647:15648   */\n      0x01\n        /* \"#utility.yul\":15642:16260   */\n      dup2\n      eq\n      tag_351\n      jumpi\n        /* \"#utility.yul\":16304:16305   */\n      0x00\n        /* \"#utility.yul\":16321:16327   */\n      dup5\n        /* \"#utility.yul\":16318:16395   */\n      iszero\n      tag_352\n      jumpi\n        /* \"#utility.yul\":16370:16379   */\n      dup3\n        /* \"#utility.yul\":16365:16368   */\n      dup8\n        /* \"#utility.yul\":16361:16380   */\n      add\n        /* \"#utility.yul\":16355:16381   */\n      mload\n        /* \"#utility.yul\":16346:16381   */\n      swap1\n      pop\n        /* \"#utility.yul\":16318:16395   */\n    tag_352:\n        /* \"#utility.yul\":16421:16488   */\n      tag_353\n        /* \"#utility.yul\":16481:16487   */\n      dup6\n        /* \"#utility.yul\":16474:16479   */\n      dup3\n        /* \"#utility.yul\":16421:16488   */\n      tag_176\n      jump\t// in\n    tag_353:\n        /* \"#utility.yul\":16415:16419   */\n      dup7\n        /* \"#utility.yul\":16408:16489   */\n      sstore\n        /* \"#utility.yul\":16277:16499   */\n      pop\n        /* \"#utility.yul\":15612:16499   */\n      jump(tag_350)\n        /* \"#utility.yul\":15642:16260   */\n    tag_351:\n        /* \"#utility.yul\":15694:15698   */\n      0x1f\n        /* \"#utility.yul\":15690:15699   */\n      not\n        /* \"#utility.yul\":15682:15688   */\n      dup5\n        /* \"#utility.yul\":15678:15700   */\n      and\n        /* \"#utility.yul\":15728:15765   */\n      tag_354\n        /* \"#utility.yul\":15760:15764   */\n      dup7\n        /* \"#utility.yul\":15728:15765   */\n      tag_162\n      jump\t// in\n    tag_354:\n        /* \"#utility.yul\":15787:15788   */\n      0x00\n        /* \"#utility.yul\":15801:16009   */\n    tag_355:\n        /* \"#utility.yul\":15815:15822   */\n      dup3\n        /* \"#utility.yul\":15812:15813   */\n      dup2\n        /* \"#utility.yul\":15809:15823   */\n      lt\n        /* \"#utility.yul\":15801:16009   */\n      iszero\n      tag_357\n      jumpi\n        /* \"#utility.yul\":15894:15903   */\n      dup5\n        /* \"#utility.yul\":15889:15892   */\n      dup10\n        /* \"#utility.yul\":15885:15904   */\n      add\n        /* \"#utility.yul\":15879:15905   */\n      mload\n        /* \"#utility.yul\":15871:15877   */\n      dup3\n        /* \"#utility.yul\":15864:15906   */\n      sstore\n        /* \"#utility.yul\":15945:15946   */\n      0x01\n        /* \"#utility.yul\":15937:15943   */\n      dup3\n        /* \"#utility.yul\":15933:15947   */\n      add\n        /* \"#utility.yul\":15923:15947   */\n      swap2\n      pop\n        /* \"#utility.yul\":15992:15994   */\n      0x20\n        /* \"#utility.yul\":15981:15990   */\n      dup6\n        /* \"#utility.yul\":15977:15995   */\n      add\n        /* \"#utility.yul\":15964:15995   */\n      swap5\n      pop\n        /* \"#utility.yul\":15838:15842   */\n      0x20\n        /* \"#utility.yul\":15835:15836   */\n      dup2\n        /* \"#utility.yul\":15831:15843   */\n      add\n        /* \"#utility.yul\":15826:15843   */\n      swap1\n      pop\n        /* \"#utility.yul\":15801:16009   */\n      jump(tag_355)\n    tag_357:\n        /* \"#utility.yul\":16037:16043   */\n      dup7\n        /* \"#utility.yul\":16028:16035   */\n      dup4\n        /* \"#utility.yul\":16025:16044   */\n      lt\n        /* \"#utility.yul\":16022:16201   */\n      iszero\n      tag_358\n      jumpi\n        /* \"#utility.yul\":16095:16104   */\n      dup5\n        /* \"#utility.yul\":16090:16093   */\n      dup10\n        /* \"#utility.yul\":16086:16105   */\n      add\n        /* \"#utility.yul\":16080:16106   */\n      mload\n        /* \"#utility.yul\":16138:16186   */\n      tag_359\n        /* \"#utility.yul\":16180:16184   */\n      0x1f\n        /* \"#utility.yul\":16172:16178   */\n      dup10\n        /* \"#utility.yul\":16168:16185   */\n      and\n        /* \"#utility.yul\":16157:16166   */\n      dup3\n        /* \"#utility.yul\":16138:16186   */\n      tag_175\n      jump\t// in\n    tag_359:\n        /* \"#utility.yul\":16130:16136   */\n      dup4\n        /* \"#utility.yul\":16123:16187   */\n      sstore\n        /* \"#utility.yul\":16045:16201   */\n      pop\n        /* \"#utility.yul\":16022:16201   */\n    tag_358:\n        /* \"#utility.yul\":16247:16248   */\n      0x01\n        /* \"#utility.yul\":16243:16244   */\n      0x02\n        /* \"#utility.yul\":16235:16241   */\n      dup9\n        /* \"#utility.yul\":16231:16245   */\n      mul\n        /* \"#utility.yul\":16227:16249   */\n      add\n        /* \"#utility.yul\":16221:16225   */\n      dup9\n        /* \"#utility.yul\":16214:16250   */\n      sstore\n        /* \"#utility.yul\":15649:16260   */\n      pop\n      pop\n      pop\n        /* \"#utility.yul\":15612:16499   */\n    tag_350:\n      pop\n        /* \"#utility.yul\":15202:16505   */\n      pop\n      pop\n      pop\n        /* \"#utility.yul\":15110:16505   */\n      pop\n      pop\n      jump\t// out\n        /* \"#utility.yul\":16511:16679   */\n    tag_177:\n        /* \"#utility.yul\":16651:16671   */\n      0x6368616e6765206465736372697074696f6e0000000000000000000000000000\n        /* \"#utility.yul\":16647:16648   */\n      0x00\n        /* \"#utility.yul\":16639:16645   */\n      dup3\n        /* \"#utility.yul\":16635:16649   */\n      add\n        /* \"#utility.yul\":16628:16672   */\n      mstore\n        /* \"#utility.yul\":16511:16679   */\n      pop\n      jump\t// out\n        /* \"#utility.yul\":16685:17051   */\n    tag_178:\n        /* \"#utility.yul\":16827:16830   */\n      0x00\n        /* \"#utility.yul\":16848:16915   */\n      tag_362\n        /* \"#utility.yul\":16912:16914   */\n      0x12\n        /* \"#utility.yul\":16907:16910   */\n      dup4\n        /* \"#utility.yul\":16848:16915   */\n      tag_149\n      jump\t// in\n    tag_362:\n        /* \"#utility.yul\":16841:16915   */\n      swap2\n      pop\n        /* \"#utility.yul\":16924:17017   */\n      tag_363\n        /* \"#utility.yul\":17013:17016   */\n      dup3\n        /* \"#utility.yul\":16924:17017   */\n      tag_177\n      jump\t// in\n    tag_363:\n        /* \"#utility.yul\":17042:17044   */\n      0x20\n        /* \"#utility.yul\":17037:17040   */\n      dup3\n        /* \"#utility.yul\":17033:17045   */\n      add\n        /* \"#utility.yul\":17026:17045   */\n      swap1\n      pop\n        /* \"#utility.yul\":16685:17051   */\n      swap2\n      swap1\n      pop\n      jump\t// out\n        /* \"#utility.yul\":17057:17677   */\n    tag_94:\n        /* \"#utility.yul\":17271:17275   */\n      0x00\n        /* \"#utility.yul\":17309:17311   */\n      0x40\n        /* \"#utility.yul\":17298:17307   */\n      dup3\n        /* \"#utility.yul\":17294:17312   */\n      add\n        /* \"#utility.yul\":17286:17312   */\n      swap1\n      pop\n        /* \"#utility.yul\":17358:17367   */\n      dup2\n        /* \"#utility.yul\":17352:17356   */\n      dup2\n        /* \"#utility.yul\":17348:17368   */\n      sub\n        /* \"#utility.yul\":17344:17345   */\n      0x00\n        /* \"#utility.yul\":17333:17342   */\n      dup4\n        /* \"#utility.yul\":17329:17346   */\n      add\n        /* \"#utility.yul\":17322:17369   */\n      mstore\n        /* \"#utility.yul\":17386:17464   */\n      tag_365\n        /* \"#utility.yul\":17459:17463   */\n      dup2\n        /* \"#utility.yul\":17450:17456   */\n      dup5\n        /* \"#utility.yul\":17386:17464   */\n      tag_151\n      jump\t// in\n    tag_365:\n        /* \"#utility.yul\":17378:17464   */\n      swap1\n      pop\n        /* \"#utility.yul\":17511:17520   */\n      dup2\n        /* \"#utility.yul\":17505:17509   */\n      dup2\n        /* \"#utility.yul\":17501:17521   */\n      sub\n        /* \"#utility.yul\":17496:17498   */\n      0x20\n        /* \"#utility.yul\":17485:17494   */\n      dup4\n        /* \"#utility.yul\":17481:17499   */\n      add\n        /* \"#utility.yul\":17474:17522   */\n      mstore\n        /* \"#utility.yul\":17539:17670   */\n      tag_366\n        /* \"#utility.yul\":17665:17669   */\n      dup2\n        /* \"#utility.yul\":17539:17670   */\n      tag_178\n      jump\t// in\n    tag_366:\n        /* \"#utility.yul\":17531:17670   */\n      swap1\n      pop\n        /* \"#utility.yul\":17057:17677   */\n      swap3\n      swap2\n      pop\n      pop\n      jump\t// out\n        /* \"#utility.yul\":17683:17905   */\n    tag_179:\n        /* \"#utility.yul\":17823:17857   */\n      0x54686520636f6e747261637420697320616c7265616479207265676973746572\n        /* \"#utility.yul\":17819:17820   */\n      0x00\n        /* \"#utility.yul\":17811:17817   */\n      dup3\n        /* \"#utility.yul\":17807:17821   */\n      add\n        /* \"#utility.yul\":17800:17858   */\n      mstore\n        /* \"#utility.yul\":17892:17897   */\n      0x6564210000000000000000000000000000000000000000000000000000000000\n        /* \"#utility.yul\":17887:17889   */\n      0x20\n        /* \"#utility.yul\":17879:17885   */\n      dup3\n        /* \"#utility.yul\":17875:17890   */\n      add\n        /* \"#utility.yul\":17868:17898   */\n      mstore\n        /* \"#utility.yul\":17683:17905   */\n      pop\n      jump\t// out\n        /* \"#utility.yul\":17911:18277   */\n    tag_180:\n        /* \"#utility.yul\":18053:18056   */\n      0x00\n        /* \"#utility.yul\":18074:18141   */\n      tag_369\n        /* \"#utility.yul\":18138:18140   */\n      0x23\n        /* \"#utility.yul\":18133:18136   */\n      dup4\n        /* \"#utility.yul\":18074:18141   */\n      tag_149\n      jump\t// in\n    tag_369:\n        /* \"#utility.yul\":18067:18141   */\n      swap2\n      pop\n        /* \"#utility.yul\":18150:18243   */\n      tag_370\n        /* \"#utility.yul\":18239:18242   */\n      dup3\n        /* \"#utility.yul\":18150:18243   */\n      tag_179\n      jump\t// in\n    tag_370:\n        /* \"#utility.yul\":18268:18270   */\n      0x40\n        /* \"#utility.yul\":18263:18266   */\n      dup3\n        /* \"#utility.yul\":18259:18271   */\n      add\n        /* \"#utility.yul\":18252:18271   */\n      swap1\n      pop\n        /* \"#utility.yul\":17911:18277   */\n      swap2\n      swap1\n      pop\n      jump\t// out\n        /* \"#utility.yul\":18283:18702   */\n    tag_104:\n        /* \"#utility.yul\":18449:18453   */\n      0x00\n        /* \"#utility.yul\":18487:18489   */\n      0x20\n        /* \"#utility.yul\":18476:18485   */\n      dup3\n        /* \"#utility.yul\":18472:18490   */\n      add\n        /* \"#utility.yul\":18464:18490   */\n      swap1\n      pop\n        /* \"#utility.yul\":18536:18545   */\n      dup2\n        /* \"#utility.yul\":18530:18534   */\n      dup2\n        /* \"#utility.yul\":18526:18546   */\n      sub\n        /* \"#utility.yul\":18522:18523   */\n      0x00\n        /* \"#utility.yul\":18511:18520   */\n      dup4\n        /* \"#utility.yul\":18507:18524   */\n      add\n        /* \"#utility.yul\":18500:18547   */\n      mstore\n        /* \"#utility.yul\":18564:18695   */\n      tag_372\n        /* \"#utility.yul\":18690:18694   */\n      dup2\n        /* \"#utility.yul\":18564:18695   */\n      tag_180\n      jump\t// in\n    tag_372:\n        /* \"#utility.yul\":18556:18695   */\n      swap1\n      pop\n        /* \"#utility.yul\":18283:18702   */\n      swap2\n      swap1\n      pop\n      jump\t// out\n        /* \"#utility.yul\":18708:18888   */\n    tag_181:\n        /* \"#utility.yul\":18756:18833   */\n      0x4e487b7100000000000000000000000000000000000000000000000000000000\n        /* \"#utility.yul\":18753:18754   */\n      0x00\n        /* \"#utility.yul\":18746:18834   */\n      mstore\n        /* \"#utility.yul\":18853:18857   */\n      0x11\n        /* \"#utility.yul\":18850:18851   */\n      0x04\n        /* \"#utility.yul\":18843:18858   */\n      mstore\n        /* \"#utility.yul\":18877:18881   */\n      0x24\n        /* \"#utility.yul\":18874:18875   */\n      0x00\n        /* \"#utility.yul\":18867:18882   */\n      revert\n        /* \"#utility.yul\":18894:19127   */\n    tag_108:\n        /* \"#utility.yul\":18933:18936   */\n      0x00\n        /* \"#utility.yul\":18956:18980   */\n      tag_375\n        /* \"#utility.yul\":18974:18979   */\n      dup3\n        /* \"#utility.yul\":18956:18980   */\n      tag_153\n      jump\t// in\n    tag_375:\n        /* \"#utility.yul\":18947:18980   */\n      swap2\n      pop\n        /* \"#utility.yul\":19002:19068   */\n      0xffffffffffffffffffffffffffffffffffffffffffffffffffffffffffffffff\n        /* \"#utility.yul\":18995:19000   */\n      dup3\n        /* \"#utility.yul\":18992:19069   */\n      sub\n        /* \"#utility.yul\":18989:19092   */\n      tag_376\n      jumpi\n        /* \"#utility.yul\":19072:19090   */\n      tag_377\n      tag_181\n      jump\t// in\n    tag_377:\n        /* \"#utility.yul\":18989:19092   */\n    tag_376:\n        /* \"#utility.yul\":19119:19120   */\n      0x01\n        /* \"#utility.yul\":19112:19117   */\n      dup3\n        /* \"#utility.yul\":19108:19121   */\n      add\n        /* \"#utility.yul\":19101:19121   */\n      swap1\n      pop\n        /* \"#utility.yul\":18894:19127   */\n      swap2\n      swap1\n      pop\n      jump\t// out\n        /* \"#utility.yul\":19133:19757   */\n    tag_110:\n        /* \"#utility.yul\":19322:19326   */\n      0x00\n        /* \"#utility.yul\":19360:19362   */\n      0x60\n        /* \"#utility.yul\":19349:19358   */\n      dup3\n        /* \"#utility.yul\":19345:19363   */\n      add\n        /* \"#utility.yul\":19337:19363   */\n      swap1\n      pop\n        /* \"#utility.yul\":19409:19418   */\n      dup2\n        /* \"#utility.yul\":19403:19407   */\n      dup2\n        /* \"#utility.yul\":19399:19419   */\n      sub\n        /* \"#utility.yul\":19395:19396   */\n      0x00\n        /* \"#utility.yul\":19384:19393   */\n      dup4\n        /* \"#utility.yul\":19380:19397   */\n      add\n        /* \"#utility.yul\":19373:19420   */\n      mstore\n        /* \"#utility.yul\":19437:19515   */\n      tag_379\n        /* \"#utility.yul\":19510:19514   */\n      dup2\n        /* \"#utility.yul\":19501:19507   */\n      dup7\n        /* \"#utility.yul\":19437:19515   */\n      tag_151\n      jump\t// in\n    tag_379:\n        /* \"#utility.yul\":19429:19515   */\n      swap1\n      pop\n        /* \"#utility.yul\":19525:19597   */\n      tag_380\n        /* \"#utility.yul\":19593:19595   */\n      0x20\n        /* \"#utility.yul\":19582:19591   */\n      dup4\n        /* \"#utility.yul\":19578:19596   */\n      add\n        /* \"#utility.yul\":19569:19575   */\n      dup6\n        /* \"#utility.yul\":19525:19597   */\n      tag_152\n      jump\t// in\n    tag_380:\n        /* \"#utility.yul\":19644:19653   */\n      dup2\n        /* \"#utility.yul\":19638:19642   */\n      dup2\n        /* \"#utility.yul\":19634:19654   */\n      sub\n        /* \"#utility.yul\":19629:19631   */\n      0x40\n        /* \"#utility.yul\":19618:19627   */\n      dup4\n        /* \"#utility.yul\":19614:19632   */\n      add\n        /* \"#utility.yul\":19607:19655   */\n      mstore\n        /* \"#utility.yul\":19672:19750   */\n      tag_381\n        /* \"#utility.yul\":19745:19749   */\n      dup2\n        /* \"#utility.yul\":19736:19742   */\n      dup5\n        /* \"#utility.yul\":19672:19750   */\n      tag_151\n      jump\t// in\n    tag_381:\n        /* \"#utility.yul\":19664:19750   */\n      swap1\n      pop\n        /* \"#utility.yul\":19133:19757   */\n      swap5\n      swap4\n      pop\n      pop\n      pop\n      pop\n      jump\t// out\n        /* \"#utility.yul\":19763:19943   */\n    tag_182:\n        /* \"#utility.yul\":19903:19935   */\n      0x4572726f723a206e65774f776e65722069732061646472657373283029210000\n        /* \"#utility.yul\":19899:19900   */\n      0x00\n        /* \"#utility.yul\":19891:19897   */\n      dup3\n        /* \"#utility.yul\":19887:19901   */\n      add\n        /* \"#utility.yul\":19880:19936   */\n      mstore\n        /* \"#utility.yul\":19763:19943   */\n      pop\n      jump\t// out\n        /* \"#utility.yul\":19949:20315   */\n    tag_183:\n        /* \"#utility.yul\":20091:20094   */\n      0x00\n        /* \"#utility.yul\":20112:20179   */\n      tag_384\n        /* \"#utility.yul\":20176:20178   */\n      0x1e\n        /* \"#utility.yul\":20171:20174   */\n      dup4\n        /* \"#utility.yul\":20112:20179   */\n      tag_149\n      jump\t// in\n    tag_384:\n        /* \"#utility.yul\":20105:20179   */\n      swap2\n      pop\n        /* \"#utility.yul\":20188:20281   */\n      tag_385\n        /* \"#utility.yul\":20277:20280   */\n      dup3\n        /* \"#utility.yul\":20188:20281   */\n      tag_182\n      jump\t// in\n    tag_385:\n        /* \"#utility.yul\":20306:20308   */\n      0x20\n        /* \"#utility.yul\":20301:20304   */\n      dup3\n        /* \"#utility.yul\":20297:20309   */\n      add\n        /* \"#utility.yul\":20290:20309   */\n      swap1\n      pop\n        /* \"#utility.yul\":19949:20315   */\n      swap2\n      swap1\n      pop\n      jump\t// out\n        /* \"#utility.yul\":20321:20740   */\n    tag_120:\n        /* \"#utility.yul\":20487:20491   */\n      0x00\n        /* \"#utility.yul\":20525:20527   */\n      0x20\n        /* \"#utility.yul\":20514:20523   */\n      dup3\n        /* \"#utility.yul\":20510:20528   */\n      add\n        /* \"#utility.yul\":20502:20528   */\n      swap1\n      pop\n        /* \"#utility.yul\":20574:20583   */\n      dup2\n        /* \"#utility.yul\":20568:20572   */\n      dup2\n        /* \"#utility.yul\":20564:20584   */\n      sub\n        /* \"#utility.yul\":20560:20561   */\n      0x00\n        /* \"#utility.yul\":20549:20558   */\n      dup4\n        /* \"#utility.yul\":20545:20562   */\n      add\n        /* \"#utility.yul\":20538:20585   */\n      mstore\n        /* \"#utility.yul\":20602:20733   */\n      tag_387\n        /* \"#utility.yul\":20728:20732   */\n      dup2\n        /* \"#utility.yul\":20602:20733   */\n      tag_183\n      jump\t// in\n    tag_387:\n        /* \"#utility.yul\":20594:20733   */\n      swap1\n      pop\n        /* \"#utility.yul\":20321:20740   */\n      swap2\n      swap1\n      pop\n      jump\t// out\n        /* \"#utility.yul\":20746:20916   */\n    tag_184:\n        /* \"#utility.yul\":20886:20908   */\n      0x6368616e676520436f6e74726163744f776e6572000000000000000000000000\n        /* \"#utility.yul\":20882:20883   */\n      0x00\n        /* \"#utility.yul\":20874:20880   */\n      dup3\n        /* \"#utility.yul\":20870:20884   */\n      add\n        /* \"#utility.yul\":20863:20909   */\n      mstore\n        /* \"#utility.yul\":20746:20916   */\n      pop\n      jump\t// out\n        /* \"#utility.yul\":20922:21288   */\n    tag_185:\n        /* \"#utility.yul\":21064:21067   */\n      0x00\n        /* \"#utility.yul\":21085:21152   */\n      tag_390\n        /* \"#utility.yul\":21149:21151   */\n      0x14\n        /* \"#utility.yul\":21144:21147   */\n      dup4\n        /* \"#utility.yul\":21085:21152   */\n      tag_149\n      jump\t// in\n    tag_390:\n        /* \"#utility.yul\":21078:21152   */\n      swap2\n      pop\n        /* \"#utility.yul\":21161:21254   */\n      tag_391\n        /* \"#utility.yul\":21250:21253   */\n      dup3\n        /* \"#utility.yul\":21161:21254   */\n      tag_184\n      jump\t// in\n    tag_391:\n        /* \"#utility.yul\":21279:21281   */\n      0x20\n        /* \"#utility.yul\":21274:21277   */\n      dup3\n        /* \"#utility.yul\":21270:21282   */\n      add\n        /* \"#utility.yul\":21263:21282   */\n      swap1\n      pop\n        /* \"#utility.yul\":20922:21288   */\n      swap2\n      swap1\n      pop\n      jump\t// out\n        /* \"#utility.yul\":21294:21914   */\n    tag_123:\n        /* \"#utility.yul\":21508:21512   */\n      0x00\n        /* \"#utility.yul\":21546:21548   */\n      0x40\n        /* \"#utility.yul\":21535:21544   */\n      dup3\n        /* \"#utility.yul\":21531:21549   */\n      add\n        /* \"#utility.yul\":21523:21549   */\n      swap1\n      pop\n        /* \"#utility.yul\":21595:21604   */\n      dup2\n        /* \"#utility.yul\":21589:21593   */\n      dup2\n        /* \"#utility.yul\":21585:21605   */\n      sub\n        /* \"#utility.yul\":21581:21582   */\n      0x00\n        /* \"#utility.yul\":21570:21579   */\n      dup4\n        /* \"#utility.yul\":21566:21583   */\n      add\n        /* \"#utility.yul\":21559:21606   */\n      mstore\n        /* \"#utility.yul\":21623:21701   */\n      tag_393\n        /* \"#utility.yul\":21696:21700   */\n      dup2\n        /* \"#utility.yul\":21687:21693   */\n      dup5\n        /* \"#utility.yul\":21623:21701   */\n      tag_151\n      jump\t// in\n    tag_393:\n        /* \"#utility.yul\":21615:21701   */\n      swap1\n      pop\n        /* \"#utility.yul\":21748:21757   */\n      dup2\n        /* \"#utility.yul\":21742:21746   */\n      dup2\n        /* \"#utility.yul\":21738:21758   */\n      sub\n        /* \"#utility.yul\":21733:21735   */\n      0x20\n        /* \"#utility.yul\":21722:21731   */\n      dup4\n        /* \"#utility.yul\":21718:21736   */\n      add\n        /* \"#utility.yul\":21711:21759   */\n      mstore\n        /* \"#utility.yul\":21776:21907   */\n      tag_394\n        /* \"#utility.yul\":21902:21906   */\n      dup2\n        /* \"#utility.yul\":21776:21907   */\n      tag_185\n      jump\t// in\n    tag_394:\n        /* \"#utility.yul\":21768:21907   */\n      swap1\n      pop\n        /* \"#utility.yul\":21294:21914   */\n      swap3\n      swap2\n      pop\n      pop\n      jump\t// out\n\n    auxdata: 0xa26469706673582212201e2d00718a591add062881fb40a9fc33b2490421558c2784d1247fb6225cf49e64736f6c63430008120033\n}\n",
				"bytecode": {
					"linkReferences": {},
					"object": "608060405234801561001057600080fd5b5060008081905550611835806100276000396000f3fe608060405234801561001057600080fd5b506004361061009e5760003560e01c80636755d456116100665780636755d4561461015957806398fd383514610175578063a738e975146101a7578063d502db97146101c3578063d8f9d144146101f35761009e565b8063035e7709146100a3578063213b9eb8146100bf57806345de2ca0146100db5780634aaf4a121461010b578063524d81d31461013b575b600080fd5b6100bd60048036038101906100b89190610dbc565b61020f565b005b6100d960048036038101906100d49190610e63565b610379565b005b6100f560048036038101906100f09190610dbc565b6104c5565b6040516101029190610f3e565b60405180910390f35b61012560048036038101906101209190610dbc565b610578565b6040516101329190610f6f565b60405180910390f35b6101436105c3565b6040516101509190610fa3565b60405180910390f35b610173600480360381019061016e9190610fbe565b6105c9565b005b61018f600480360381019061018a9190610dbc565b6106e4565b60405161019e93929190611036565b60405180910390f35b6101c160048036038101906101bc9190611074565b6107ec565b005b6101dd60048036038101906101d89190610dbc565b6109ff565b6040516101ea9190610f6f565b60405180910390f35b61020d60048036038101906102089190610e63565b610a4a565b005b80600181604051610220919061113b565b908152602001604051809103902060000160009054906101000a900473ffffffffffffffffffffffffffffffffffffffff1673ffffffffffffffffffffffffffffffffffffffff163373ffffffffffffffffffffffffffffffffffffffff16146102bf576040517f08c379a00000000000000000000000000000000000000000000000000000000081526004016102b6906111c4565b60405180910390fd5b6001826040516102cf919061113b565b9081526020016040518091039020600080820160006101000a81549073ffffffffffffffffffffffffffffffffffffffff02191690556001820160006101000a81549073ffffffffffffffffffffffffffffffffffffffff021916905560028201600061033c9190610c05565b50507f984b9358b6046fa1ad5f4f201ef75d0b624f6af129790db9b96d832fb63b17a38260405161036d9190610f3e565b60405180910390a15050565b8160018160405161038a919061113b565b908152602001604051809103902060000160009054906101000a900473ffffffffffffffffffffffffffffffffffffffff1673ffffffffffffffffffffffffffffffffffffffff163373ffffffffffffffffffffffffffffffffffffffff1614610429576040517f08c379a0000000000000000000000000000000000000000000000000000000008152600401610420906111c4565b60405180910390fd5b8160018460405161043a919061113b565b908152602001604051809103902060010160006101000a81548173ffffffffffffffffffffffffffffffffffffffff021916908373ffffffffffffffffffffffffffffffffffffffff1602179055507f57b75b6d8a87a5a5fb23b8661e6576421516e045c4d3cda7943d3127278e2154836040516104b89190611230565b60405180910390a1505050565b60606001826040516104d7919061113b565b908152602001604051809103902060020180546104f390611294565b80601f016020809104026020016040519081016040528092919081815260200182805461051f90611294565b801561056c5780601f106105415761010080835404028352916020019161056c565b820191906000526020600020905b81548152906001019060200180831161054f57829003601f168201915b50505050509050919050565b600060018260405161058a919061113b565b908152602001604051809103902060000160009054906101000a900473ffffffffffffffffffffffffffffffffffffffff169050919050565b60005481565b816001816040516105da919061113b565b908152602001604051809103902060000160009054906101000a900473ffffffffffffffffffffffffffffffffffffffff1673ffffffffffffffffffffffffffffffffffffffff163373ffffffffffffffffffffffffffffffffffffffff1614610679576040517f08c379a0000000000000000000000000000000000000000000000000000000008152600401610670906111c4565b60405180910390fd5b8160018460405161068a919061113b565b908152602001604051809103902060020190816106a79190611471565b507f57b75b6d8a87a5a5fb23b8661e6576421516e045c4d3cda7943d3127278e2154836040516106d7919061158f565b60405180910390a1505050565b6001818051602081018201805184825260208301602085012081835280955050505050506000915090508060000160009054906101000a900473ffffffffffffffffffffffffffffffffffffffff16908060010160009054906101000a900473ffffffffffffffffffffffffffffffffffffffff169080600201805461076990611294565b80601f016020809104026020016040519081016040528092919081815260200182805461079590611294565b80156107e25780601f106107b7576101008083540402835291602001916107e2565b820191906000526020600020905b8154815290600101906020018083116107c557829003601f168201915b5050505050905083565b600073ffffffffffffffffffffffffffffffffffffffff16600184604051610814919061113b565b908152602001604051809103902060010160009054906101000a900473ffffffffffffffffffffffffffffffffffffffff1673ffffffffffffffffffffffffffffffffffffffff161461089c576040517f08c379a000000000000000000000000000000000000000000000000000000000815260040161089390611636565b60405180910390fd5b60405180606001604052803373ffffffffffffffffffffffffffffffffffffffff1681526020018373ffffffffffffffffffffffffffffffffffffffff168152602001828152506001846040516108f3919061113b565b908152602001604051809103902060008201518160000160006101000a81548173ffffffffffffffffffffffffffffffffffffffff021916908373ffffffffffffffffffffffffffffffffffffffff16021790555060208201518160010160006101000a81548173ffffffffffffffffffffffffffffffffffffffff021916908373ffffffffffffffffffffffffffffffffffffffff16021790555060408201518160020190816109a49190611471565b509050506000808154809291906109ba90611685565b91905055507f9cdf53a2180bc35fba548a5c453c528596a434c394e235e9fbbb1a686d99db218383836040516109f2939291906116cd565b60405180910390a1505050565b6000600182604051610a11919061113b565b908152602001604051809103902060010160009054906101000a900473ffffffffffffffffffffffffffffffffffffffff169050919050565b81600181604051610a5b919061113b565b908152602001604051809103902060000160009054906101000a900473ffffffffffffffffffffffffffffffffffffffff1673ffffffffffffffffffffffffffffffffffffffff163373ffffffffffffffffffffffffffffffffffffffff1614610afa576040517f08c379a0000000000000000000000000000000000000000000000000000000008152600401610af1906111c4565b60405180910390fd5b600073ffffffffffffffffffffffffffffffffffffffff168273ffffffffffffffffffffffffffffffffffffffff1603610b69576040517f08c379a0000000000000000000000000000000000000000000000000000000008152600401610b609061175e565b60405180910390fd5b81600184604051610b7a919061113b565b908152602001604051809103902060000160006101000a81548173ffffffffffffffffffffffffffffffffffffffff021916908373ffffffffffffffffffffffffffffffffffffffff1602179055507f57b75b6d8a87a5a5fb23b8661e6576421516e045c4d3cda7943d3127278e215483604051610bf891906117ca565b60405180910390a1505050565b508054610c1190611294565b6000825580601f10610c235750610c42565b601f016020900490600052602060002090810190610c419190610c45565b5b50565b5b80821115610c5e576000816000905550600101610c46565b5090565b6000604051905090565b600080fd5b600080fd5b600080fd5b600080fd5b6000601f19601f8301169050919050565b7f4e487b7100000000000000000000000000000000000000000000000000000000600052604160045260246000fd5b610cc982610c80565b810181811067ffffffffffffffff82111715610ce857610ce7610c91565b5b80604052505050565b6000610cfb610c62565b9050610d078282610cc0565b919050565b600067ffffffffffffffff821115610d2757610d26610c91565b5b610d3082610c80565b9050602081019050919050565b82818337600083830152505050565b6000610d5f610d5a84610d0c565b610cf1565b905082815260208101848484011115610d7b57610d7a610c7b565b5b610d86848285610d3d565b509392505050565b600082601f830112610da357610da2610c76565b5b8135610db3848260208601610d4c565b91505092915050565b600060208284031215610dd257610dd1610c6c565b5b600082013567ffffffffffffffff811115610df057610def610c71565b5b610dfc84828501610d8e565b91505092915050565b600073ffffffffffffffffffffffffffffffffffffffff82169050919050565b6000610e3082610e05565b9050919050565b610e4081610e25565b8114610e4b57600080fd5b50565b600081359050610e5d81610e37565b92915050565b60008060408385031215610e7a57610e79610c6c565b5b600083013567ffffffffffffffff811115610e9857610e97610c71565b5b610ea485828601610d8e565b9250506020610eb585828601610e4e565b9150509250929050565b600081519050919050565b600082825260208201905092915050565b60005b83811015610ef9578082015181840152602081019050610ede565b60008484015250505050565b6000610f1082610ebf565b610f1a8185610eca565b9350610f2a818560208601610edb565b610f3381610c80565b840191505092915050565b60006020820190508181036000830152610f588184610f05565b905092915050565b610f6981610e25565b82525050565b6000602082019050610f846000830184610f60565b92915050565b6000819050919050565b610f9d81610f8a565b82525050565b6000602082019050610fb86000830184610f94565b92915050565b60008060408385031215610fd557610fd4610c6c565b5b600083013567ffffffffffffffff811115610ff357610ff2610c71565b5b610fff85828601610d8e565b925050602083013567ffffffffffffffff8111156110205761101f610c71565b5b61102c85828601610d8e565b9150509250929050565b600060608201905061104b6000830186610f60565b6110586020830185610f60565b818103604083015261106a8184610f05565b9050949350505050565b60008060006060848603121561108d5761108c610c6c565b5b600084013567ffffffffffffffff8111156110ab576110aa610c71565b5b6110b786828701610d8e565b93505060206110c886828701610e4e565b925050604084013567ffffffffffffffff8111156110e9576110e8610c71565b5b6110f586828701610d8e565b9150509250925092565b600081905092915050565b600061111582610ebf565b61111f81856110ff565b935061112f818560208601610edb565b80840191505092915050565b6000611147828461110a565b915081905092915050565b7f4572726f723a2063616c6c6572206973206e6f742074686520636f6e7472616360008201527f742773206f776e65720000000000000000000000000000000000000000000000602082015250565b60006111ae602983610eca565b91506111b982611152565b604082019050919050565b600060208201905081810360008301526111dd816111a1565b9050919050565b7f6368616e676520436f6e74726163744164647265737300000000000000000000600082015250565b600061121a601683610eca565b9150611225826111e4565b602082019050919050565b6000604082019050818103600083015261124a8184610f05565b9050818103602083015261125d8161120d565b905092915050565b7f4e487b7100000000000000000000000000000000000000000000000000000000600052602260045260246000fd5b600060028204905060018216806112ac57607f821691505b6020821081036112bf576112be611265565b5b50919050565b60008190508160005260206000209050919050565b60006020601f8301049050919050565b600082821b905092915050565b6000600883026113277fffffffffffffffffffffffffffffffffffffffffffffffffffffffffffffffff826112ea565b61133186836112ea565b95508019841693508086168417925050509392505050565b6000819050919050565b600061136e61136961136484610f8a565b611349565b610f8a565b9050919050565b6000819050919050565b61138883611353565b61139c61139482611375565b8484546112f7565b825550505050565b600090565b6113b16113a4565b6113bc81848461137f565b505050565b5b818110156113e0576113d56000826113a9565b6001810190506113c2565b5050565b601f821115611425576113f6816112c5565b6113ff846112da565b8101602085101561140e578190505b61142261141a856112da565b8301826113c1565b50505b505050565b600082821c905092915050565b60006114486000198460080261142a565b1980831691505092915050565b60006114618383611437565b9150826002028217905092915050565b61147a82610ebf565b67ffffffffffffffff81111561149357611492610c91565b5b61149d8254611294565b6114a88282856113e4565b600060209050601f8311600181146114db57600084156114c9578287015190505b6114d38582611455565b86555061153b565b601f1984166114e9866112c5565b60005b82811015611511578489015182556001820191506020850194506020810190506114ec565b8683101561152e578489015161152a601f891682611437565b8355505b6001600288020188555050505b505050505050565b7f6368616e6765206465736372697074696f6e0000000000000000000000000000600082015250565b6000611579601283610eca565b915061158482611543565b602082019050919050565b600060408201905081810360008301526115a98184610f05565b905081810360208301526115bc8161156c565b905092915050565b7f54686520636f6e747261637420697320616c726561647920726567697374657260008201527f6564210000000000000000000000000000000000000000000000000000000000602082015250565b6000611620602383610eca565b915061162b826115c4565b604082019050919050565b6000602082019050818103600083015261164f81611613565b9050919050565b7f4e487b7100000000000000000000000000000000000000000000000000000000600052601160045260246000fd5b600061169082610f8a565b91507fffffffffffffffffffffffffffffffffffffffffffffffffffffffffffffffff82036116c2576116c1611656565b5b600182019050919050565b600060608201905081810360008301526116e78186610f05565b90506116f66020830185610f60565b81810360408301526117088184610f05565b9050949350505050565b7f4572726f723a206e65774f776e65722069732061646472657373283029210000600082015250565b6000611748601e83610eca565b915061175382611712565b602082019050919050565b600060208201905081810360008301526117778161173b565b9050919050565b7f6368616e676520436f6e74726163744f776e6572000000000000000000000000600082015250565b60006117b4601483610eca565b91506117bf8261177e565b602082019050919050565b600060408201905081810360008301526117e48184610f05565b905081810360208301526117f7816117a7565b90509291505056fea26469706673582212201e2d00718a591add062881fb40a9fc33b2490421558c2784d1247fb6225cf49e64736f6c63430008120033",
					"opcodes": "PUSH1 0x80 PUSH1 0x40 MSTORE CALLVALUE DUP1 ISZERO PUSH2 0x10 JUMPI PUSH1 0x0 DUP1 REVERT JUMPDEST POP PUSH1 0x0 DUP1 DUP2 SWAP1 SSTORE POP PUSH2 0x1835 DUP1 PUSH2 0x27 PUSH1 0x0 CODECOPY PUSH1 0x0 RETURN INVALID PUSH1 0x80 PUSH1 0x40 MSTORE CALLVALUE DUP1 ISZERO PUSH2 0x10 JUMPI PUSH1 0x0 DUP1 REVERT JUMPDEST POP PUSH1 0x4 CALLDATASIZE LT PUSH2 0x9E JUMPI PUSH1 0x0 CALLDATALOAD PUSH1 0xE0 SHR DUP1 PUSH4 0x6755D456 GT PUSH2 0x66 JUMPI DUP1 PUSH4 0x6755D456 EQ PUSH2 0x159 JUMPI DUP1 PUSH4 0x98FD3835 EQ PUSH2 0x175 JUMPI DUP1 PUSH4 0xA738E975 EQ PUSH2 0x1A7 JUMPI DUP1 PUSH4 0xD502DB97 EQ PUSH2 0x1C3 JUMPI DUP1 PUSH4 0xD8F9D144 EQ PUSH2 0x1F3 JUMPI PUSH2 0x9E JUMP JUMPDEST DUP1 PUSH4 0x35E7709 EQ PUSH2 0xA3 JUMPI DUP1 PUSH4 0x213B9EB8 EQ PUSH2 0xBF JUMPI DUP1 PUSH4 0x45DE2CA0 EQ PUSH2 0xDB JUMPI DUP1 PUSH4 0x4AAF4A12 EQ PUSH2 0x10B JUMPI DUP1 PUSH4 0x524D81D3 EQ PUSH2 0x13B JUMPI JUMPDEST PUSH1 0x0 DUP1 REVERT JUMPDEST PUSH2 0xBD PUSH1 0x4 DUP1 CALLDATASIZE SUB DUP2 ADD SWAP1 PUSH2 0xB8 SWAP2 SWAP1 PUSH2 0xDBC JUMP JUMPDEST PUSH2 0x20F JUMP JUMPDEST STOP JUMPDEST PUSH2 0xD9 PUSH1 0x4 DUP1 CALLDATASIZE SUB DUP2 ADD SWAP1 PUSH2 0xD4 SWAP2 SWAP1 PUSH2 0xE63 JUMP JUMPDEST PUSH2 0x379 JUMP JUMPDEST STOP JUMPDEST PUSH2 0xF5 PUSH1 0x4 DUP1 CALLDATASIZE SUB DUP2 ADD SWAP1 PUSH2 0xF0 SWAP2 SWAP1 PUSH2 0xDBC JUMP JUMPDEST PUSH2 0x4C5 JUMP JUMPDEST PUSH1 0x40 MLOAD PUSH2 0x102 SWAP2 SWAP1 PUSH2 0xF3E JUMP JUMPDEST PUSH1 0x40 MLOAD DUP1 SWAP2 SUB SWAP1 RETURN JUMPDEST PUSH2 0x125 PUSH1 0x4 DUP1 CALLDATASIZE SUB DUP2 ADD SWAP1 PUSH2 0x120 SWAP2 SWAP1 PUSH2 0xDBC JUMP JUMPDEST PUSH2 0x578 JUMP JUMPDEST PUSH1 0x40 MLOAD PUSH2 0x132 SWAP2 SWAP1 PUSH2 0xF6F JUMP JUMPDEST PUSH1 0x40 MLOAD DUP1 SWAP2 SUB SWAP1 RETURN JUMPDEST PUSH2 0x143 PUSH2 0x5C3 JUMP JUMPDEST PUSH1 0x40 MLOAD PUSH2 0x150 SWAP2 SWAP1 PUSH2 0xFA3 JUMP JUMPDEST PUSH1 0x40 MLOAD DUP1 SWAP2 SUB SWAP1 RETURN JUMPDEST PUSH2 0x173 PUSH1 0x4 DUP1 CALLDATASIZE SUB DUP2 ADD SWAP1 PUSH2 0x16E SWAP2 SWAP1 PUSH2 0xFBE JUMP JUMPDEST PUSH2 0x5C9 JUMP JUMPDEST STOP JUMPDEST PUSH2 0x18F PUSH1 0x4 DUP1 CALLDATASIZE SUB DUP2 ADD SWAP1 PUSH2 0x18A SWAP2 SWAP1 PUSH2 0xDBC JUMP JUMPDEST PUSH2 0x6E4 JUMP JUMPDEST PUSH1 0x40 MLOAD PUSH2 0x19E SWAP4 SWAP3 SWAP2 SWAP1 PUSH2 0x1036 JUMP JUMPDEST PUSH1 0x40 MLOAD DUP1 SWAP2 SUB SWAP1 RETURN JUMPDEST PUSH2 0x1C1 PUSH1 0x4 DUP1 CALLDATASIZE SUB DUP2 ADD SWAP1 PUSH2 0x1BC SWAP2 SWAP1 PUSH2 0x1074 JUMP JUMPDEST PUSH2 0x7EC JUMP JUMPDEST STOP JUMPDEST PUSH2 0x1DD PUSH1 0x4 DUP1 CALLDATASIZE SUB DUP2 ADD SWAP1 PUSH2 0x1D8 SWAP2 SWAP1 PUSH2 0xDBC JUMP JUMPDEST PUSH2 0x9FF JUMP JUMPDEST PUSH1 0x40 MLOAD PUSH2 0x1EA SWAP2 SWAP1 PUSH2 0xF6F JUMP JUMPDEST PUSH1 0x40 MLOAD DUP1 SWAP2 SUB SWAP1 RETURN JUMPDEST PUSH2 0x20D PUSH1 0x4 DUP1 CALLDATASIZE SUB DUP2 ADD SWAP1 PUSH2 0x208 SWAP2 SWAP1 PUSH2 0xE63 JUMP JUMPDEST PUSH2 0xA4A JUMP JUMPDEST STOP JUMPDEST DUP1 PUSH1 0x1 DUP2 PUSH1 0x40 MLOAD PUSH2 0x220 SWAP2 SWAP1 PUSH2 0x113B JUMP JUMPDEST SWAP1 DUP2 MSTORE PUSH1 0x20 ADD PUSH1 0x40 MLOAD DUP1 SWAP2 SUB SWAP1 KECCAK256 PUSH1 0x0 ADD PUSH1 0x0 SWAP1 SLOAD SWAP1 PUSH2 0x100 EXP SWAP1 DIV PUSH20 0xFFFFFFFFFFFFFFFFFFFFFFFFFFFFFFFFFFFFFFFF AND PUSH20 0xFFFFFFFFFFFFFFFFFFFFFFFFFFFFFFFFFFFFFFFF AND CALLER PUSH20 0xFFFFFFFFFFFFFFFFFFFFFFFFFFFFFFFFFFFFFFFF AND EQ PUSH2 0x2BF JUMPI PUSH1 0x40 MLOAD PUSH32 0x8C379A000000000000000000000000000000000000000000000000000000000 DUP2 MSTORE PUSH1 0x4 ADD PUSH2 0x2B6 SWAP1 PUSH2 0x11C4 JUMP JUMPDEST PUSH1 0x40 MLOAD DUP1 SWAP2 SUB SWAP1 REVERT JUMPDEST PUSH1 0x1 DUP3 PUSH1 0x40 MLOAD PUSH2 0x2CF SWAP2 SWAP1 PUSH2 0x113B JUMP JUMPDEST SWAP1 DUP2 MSTORE PUSH1 0x20 ADD PUSH1 0x40 MLOAD DUP1 SWAP2 SUB SWAP1 KECCAK256 PUSH1 0x0 DUP1 DUP3 ADD PUSH1 0x0 PUSH2 0x100 EXP DUP2 SLOAD SWAP1 PUSH20 0xFFFFFFFFFFFFFFFFFFFFFFFFFFFFFFFFFFFFFFFF MUL NOT AND SWAP1 SSTORE PUSH1 0x1 DUP3 ADD PUSH1 0x0 PUSH2 0x100 EXP DUP2 SLOAD SWAP1 PUSH20 0xFFFFFFFFFFFFFFFFFFFFFFFFFFFFFFFFFFFFFFFF MUL NOT AND SWAP1 SSTORE PUSH1 0x2 DUP3 ADD PUSH1 0x0 PUSH2 0x33C SWAP2 SWAP1 PUSH2 0xC05 JUMP JUMPDEST POP POP PUSH32 0x984B9358B6046FA1AD5F4F201EF75D0B624F6AF129790DB9B96D832FB63B17A3 DUP3 PUSH1 0x40 MLOAD PUSH2 0x36D SWAP2 SWAP1 PUSH2 0xF3E JUMP JUMPDEST PUSH1 0x40 MLOAD DUP1 SWAP2 SUB SWAP1 LOG1 POP POP JUMP JUMPDEST DUP2 PUSH1 0x1 DUP2 PUSH1 0x40 MLOAD PUSH2 0x38A SWAP2 SWAP1 PUSH2 0x113B JUMP JUMPDEST SWAP1 DUP2 MSTORE PUSH1 0x20 ADD PUSH1 0x40 MLOAD DUP1 SWAP2 SUB SWAP1 KECCAK256 PUSH1 0x0 ADD PUSH1 0x0 SWAP1 SLOAD SWAP1 PUSH2 0x100 EXP SWAP1 DIV PUSH20 0xFFFFFFFFFFFFFFFFFFFFFFFFFFFFFFFFFFFFFFFF AND PUSH20 0xFFFFFFFFFFFFFFFFFFFFFFFFFFFFFFFFFFFFFFFF AND CALLER PUSH20 0xFFFFFFFFFFFFFFFFFFFFFFFFFFFFFFFFFFFFFFFF AND EQ PUSH2 0x429 JUMPI PUSH1 0x40 MLOAD PUSH32 0x8C379A000000000000000000000000000000000000000000000000000000000 DUP2 MSTORE PUSH1 0x4 ADD PUSH2 0x420 SWAP1 PUSH2 0x11C4 JUMP JUMPDEST PUSH1 0x40 MLOAD DUP1 SWAP2 SUB SWAP1 REVERT JUMPDEST DUP2 PUSH1 0x1 DUP5 PUSH1 0x40 MLOAD PUSH2 0x43A SWAP2 SWAP1 PUSH2 0x113B JUMP JUMPDEST SWAP1 DUP2 MSTORE PUSH1 0x20 ADD PUSH1 0x40 MLOAD DUP1 SWAP2 SUB SWAP1 KECCAK256 PUSH1 0x1 ADD PUSH1 0x0 PUSH2 0x100 EXP DUP2 SLOAD DUP2 PUSH20 0xFFFFFFFFFFFFFFFFFFFFFFFFFFFFFFFFFFFFFFFF MUL NOT AND SWAP1 DUP4 PUSH20 0xFFFFFFFFFFFFFFFFFFFFFFFFFFFFFFFFFFFFFFFF AND MUL OR SWAP1 SSTORE POP PUSH32 0x57B75B6D8A87A5A5FB23B8661E6576421516E045C4D3CDA7943D3127278E2154 DUP4 PUSH1 0x40 MLOAD PUSH2 0x4B8 SWAP2 SWAP1 PUSH2 0x1230 JUMP JUMPDEST PUSH1 0x40 MLOAD DUP1 SWAP2 SUB SWAP1 LOG1 POP POP POP JUMP JUMPDEST PUSH1 0x60 PUSH1 0x1 DUP3 PUSH1 0x40 MLOAD PUSH2 0x4D7 SWAP2 SWAP1 PUSH2 0x113B JUMP JUMPDEST SWAP1 DUP2 MSTORE PUSH1 0x20 ADD PUSH1 0x40 MLOAD DUP1 SWAP2 SUB SWAP1 KECCAK256 PUSH1 0x2 ADD DUP1 SLOAD PUSH2 0x4F3 SWAP1 PUSH2 0x1294 JUMP JUMPDEST DUP1 PUSH1 0x1F ADD PUSH1 0x20 DUP1 SWAP2 DIV MUL PUSH1 0x20 ADD PUSH1 0x40 MLOAD SWAP1 DUP2 ADD PUSH1 0x40 MSTORE DUP1 SWAP3 SWAP2 SWAP1 DUP2 DUP2 MSTORE PUSH1 0x20 ADD DUP3 DUP1 SLOAD PUSH2 0x51F SWAP1 PUSH2 0x1294 JUMP JUMPDEST DUP1 ISZERO PUSH2 0x56C JUMPI DUP1 PUSH1 0x1F LT PUSH2 0x541 JUMPI PUSH2 0x100 DUP1 DUP4 SLOAD DIV MUL DUP4 MSTORE SWAP2 PUSH1 0x20 ADD SWAP2 PUSH2 0x56C JUMP JUMPDEST DUP3 ADD SWAP2 SWAP1 PUSH1 0x0 MSTORE PUSH1 0x20 PUSH1 0x0 KECCAK256 SWAP1 JUMPDEST DUP2 SLOAD DUP2 MSTORE SWAP1 PUSH1 0x1 ADD SWAP1 PUSH1 0x20 ADD DUP1 DUP4 GT PUSH2 0x54F JUMPI DUP3 SWAP1 SUB PUSH1 0x1F AND DUP3 ADD SWAP2 JUMPDEST POP POP POP POP POP SWAP1 POP SWAP2 SWAP1 POP JUMP JUMPDEST PUSH1 0x0 PUSH1 0x1 DUP3 PUSH1 0x40 MLOAD PUSH2 0x58A SWAP2 SWAP1 PUSH2 0x113B JUMP JUMPDEST SWAP1 DUP2 MSTORE PUSH1 0x20 ADD PUSH1 0x40 MLOAD DUP1 SWAP2 SUB SWAP1 KECCAK256 PUSH1 0x0 ADD PUSH1 0x0 SWAP1 SLOAD SWAP1 PUSH2 0x100 EXP SWAP1 DIV PUSH20 0xFFFFFFFFFFFFFFFFFFFFFFFFFFFFFFFFFFFFFFFF AND SWAP1 POP SWAP2 SWAP1 POP JUMP JUMPDEST PUSH1 0x0 SLOAD DUP2 JUMP JUMPDEST DUP2 PUSH1 0x1 DUP2 PUSH1 0x40 MLOAD PUSH2 0x5DA SWAP2 SWAP1 PUSH2 0x113B JUMP JUMPDEST SWAP1 DUP2 MSTORE PUSH1 0x20 ADD PUSH1 0x40 MLOAD DUP1 SWAP2 SUB SWAP1 KECCAK256 PUSH1 0x0 ADD PUSH1 0x0 SWAP1 SLOAD SWAP1 PUSH2 0x100 EXP SWAP1 DIV PUSH20 0xFFFFFFFFFFFFFFFFFFFFFFFFFFFFFFFFFFFFFFFF AND PUSH20 0xFFFFFFFFFFFFFFFFFFFFFFFFFFFFFFFFFFFFFFFF AND CALLER PUSH20 0xFFFFFFFFFFFFFFFFFFFFFFFFFFFFFFFFFFFFFFFF AND EQ PUSH2 0x679 JUMPI PUSH1 0x40 MLOAD PUSH32 0x8C379A000000000000000000000000000000000000000000000000000000000 DUP2 MSTORE PUSH1 0x4 ADD PUSH2 0x670 SWAP1 PUSH2 0x11C4 JUMP JUMPDEST PUSH1 0x40 MLOAD DUP1 SWAP2 SUB SWAP1 REVERT JUMPDEST DUP2 PUSH1 0x1 DUP5 PUSH1 0x40 MLOAD PUSH2 0x68A SWAP2 SWAP1 PUSH2 0x113B JUMP JUMPDEST SWAP1 DUP2 MSTORE PUSH1 0x20 ADD PUSH1 0x40 MLOAD DUP1 SWAP2 SUB SWAP1 KECCAK256 PUSH1 0x2 ADD SWAP1 DUP2 PUSH2 0x6A7 SWAP2 SWAP1 PUSH2 0x1471 JUMP JUMPDEST POP PUSH32 0x57B75B6D8A87A5A5FB23B8661E6576421516E045C4D3CDA7943D3127278E2154 DUP4 PUSH1 0x40 MLOAD PUSH2 0x6D7 SWAP2 SWAP1 PUSH2 0x158F JUMP JUMPDEST PUSH1 0x40 MLOAD DUP1 SWAP2 SUB SWAP1 LOG1 POP POP POP JUMP JUMPDEST PUSH1 0x1 DUP2 DUP1 MLOAD PUSH1 0x20 DUP2 ADD DUP3 ADD DUP1 MLOAD DUP5 DUP3 MSTORE PUSH1 0x20 DUP4 ADD PUSH1 0x20 DUP6 ADD KECCAK256 DUP2 DUP4 MSTORE DUP1 SWAP6 POP POP POP POP POP POP PUSH1 0x0 SWAP2 POP SWAP1 POP DUP1 PUSH1 0x0 ADD PUSH1 0x0 SWAP1 SLOAD SWAP1 PUSH2 0x100 EXP SWAP1 DIV PUSH20 0xFFFFFFFFFFFFFFFFFFFFFFFFFFFFFFFFFFFFFFFF AND SWAP1 DUP1 PUSH1 0x1 ADD PUSH1 0x0 SWAP1 SLOAD SWAP1 PUSH2 0x100 EXP SWAP1 DIV PUSH20 0xFFFFFFFFFFFFFFFFFFFFFFFFFFFFFFFFFFFFFFFF AND SWAP1 DUP1 PUSH1 0x2 ADD DUP1 SLOAD PUSH2 0x769 SWAP1 PUSH2 0x1294 JUMP JUMPDEST DUP1 PUSH1 0x1F ADD PUSH1 0x20 DUP1 SWAP2 DIV MUL PUSH1 0x20 ADD PUSH1 0x40 MLOAD SWAP1 DUP2 ADD PUSH1 0x40 MSTORE DUP1 SWAP3 SWAP2 SWAP1 DUP2 DUP2 MSTORE PUSH1 0x20 ADD DUP3 DUP1 SLOAD PUSH2 0x795 SWAP1 PUSH2 0x1294 JUMP JUMPDEST DUP1 ISZERO PUSH2 0x7E2 JUMPI DUP1 PUSH1 0x1F LT PUSH2 0x7B7 JUMPI PUSH2 0x100 DUP1 DUP4 SLOAD DIV MUL DUP4 MSTORE SWAP2 PUSH1 0x20 ADD SWAP2 PUSH2 0x7E2 JUMP JUMPDEST DUP3 ADD SWAP2 SWAP1 PUSH1 0x0 MSTORE PUSH1 0x20 PUSH1 0x0 KECCAK256 SWAP1 JUMPDEST DUP2 SLOAD DUP2 MSTORE SWAP1 PUSH1 0x1 ADD SWAP1 PUSH1 0x20 ADD DUP1 DUP4 GT PUSH2 0x7C5 JUMPI DUP3 SWAP1 SUB PUSH1 0x1F AND DUP3 ADD SWAP2 JUMPDEST POP POP POP POP POP SWAP1 POP DUP4 JUMP JUMPDEST PUSH1 0x0 PUSH20 0xFFFFFFFFFFFFFFFFFFFFFFFFFFFFFFFFFFFFFFFF AND PUSH1 0x1 DUP5 PUSH1 0x40 MLOAD PUSH2 0x814 SWAP2 SWAP1 PUSH2 0x113B JUMP JUMPDEST SWAP1 DUP2 MSTORE PUSH1 0x20 ADD PUSH1 0x40 MLOAD DUP1 SWAP2 SUB SWAP1 KECCAK256 PUSH1 0x1 ADD PUSH1 0x0 SWAP1 SLOAD SWAP1 PUSH2 0x100 EXP SWAP1 DIV PUSH20 0xFFFFFFFFFFFFFFFFFFFFFFFFFFFFFFFFFFFFFFFF AND PUSH20 0xFFFFFFFFFFFFFFFFFFFFFFFFFFFFFFFFFFFFFFFF AND EQ PUSH2 0x89C JUMPI PUSH1 0x40 MLOAD PUSH32 0x8C379A000000000000000000000000000000000000000000000000000000000 DUP2 MSTORE PUSH1 0x4 ADD PUSH2 0x893 SWAP1 PUSH2 0x1636 JUMP JUMPDEST PUSH1 0x40 MLOAD DUP1 SWAP2 SUB SWAP1 REVERT JUMPDEST PUSH1 0x40 MLOAD DUP1 PUSH1 0x60 ADD PUSH1 0x40 MSTORE DUP1 CALLER PUSH20 0xFFFFFFFFFFFFFFFFFFFFFFFFFFFFFFFFFFFFFFFF AND DUP2 MSTORE PUSH1 0x20 ADD DUP4 PUSH20 0xFFFFFFFFFFFFFFFFFFFFFFFFFFFFFFFFFFFFFFFF AND DUP2 MSTORE PUSH1 0x20 ADD DUP3 DUP2 MSTORE POP PUSH1 0x1 DUP5 PUSH1 0x40 MLOAD PUSH2 0x8F3 SWAP2 SWAP1 PUSH2 0x113B JUMP JUMPDEST SWAP1 DUP2 MSTORE PUSH1 0x20 ADD PUSH1 0x40 MLOAD DUP1 SWAP2 SUB SWAP1 KECCAK256 PUSH1 0x0 DUP3 ADD MLOAD DUP2 PUSH1 0x0 ADD PUSH1 0x0 PUSH2 0x100 EXP DUP2 SLOAD DUP2 PUSH20 0xFFFFFFFFFFFFFFFFFFFFFFFFFFFFFFFFFFFFFFFF MUL NOT AND SWAP1 DUP4 PUSH20 0xFFFFFFFFFFFFFFFFFFFFFFFFFFFFFFFFFFFFFFFF AND MUL OR SWAP1 SSTORE POP PUSH1 0x20 DUP3 ADD MLOAD DUP2 PUSH1 0x1 ADD PUSH1 0x0 PUSH2 0x100 EXP DUP2 SLOAD DUP2 PUSH20 0xFFFFFFFFFFFFFFFFFFFFFFFFFFFFFFFFFFFFFFFF MUL NOT AND SWAP1 DUP4 PUSH20 0xFFFFFFFFFFFFFFFFFFFFFFFFFFFFFFFFFFFFFFFF AND MUL OR SWAP1 SSTORE POP PUSH1 0x40 DUP3 ADD MLOAD DUP2 PUSH1 0x2 ADD SWAP1 DUP2 PUSH2 0x9A4 SWAP2 SWAP1 PUSH2 0x1471 JUMP JUMPDEST POP SWAP1 POP POP PUSH1 0x0 DUP1 DUP2 SLOAD DUP1 SWAP3 SWAP2 SWAP1 PUSH2 0x9BA SWAP1 PUSH2 0x1685 JUMP JUMPDEST SWAP2 SWAP1 POP SSTORE POP PUSH32 0x9CDF53A2180BC35FBA548A5C453C528596A434C394E235E9FBBB1A686D99DB21 DUP4 DUP4 DUP4 PUSH1 0x40 MLOAD PUSH2 0x9F2 SWAP4 SWAP3 SWAP2 SWAP1 PUSH2 0x16CD JUMP JUMPDEST PUSH1 0x40 MLOAD DUP1 SWAP2 SUB SWAP1 LOG1 POP POP POP JUMP JUMPDEST PUSH1 0x0 PUSH1 0x1 DUP3 PUSH1 0x40 MLOAD PUSH2 0xA11 SWAP2 SWAP1 PUSH2 0x113B JUMP JUMPDEST SWAP1 DUP2 MSTORE PUSH1 0x20 ADD PUSH1 0x40 MLOAD DUP1 SWAP2 SUB SWAP1 KECCAK256 PUSH1 0x1 ADD PUSH1 0x0 SWAP1 SLOAD SWAP1 PUSH2 0x100 EXP SWAP1 DIV PUSH20 0xFFFFFFFFFFFFFFFFFFFFFFFFFFFFFFFFFFFFFFFF AND SWAP1 POP SWAP2 SWAP1 POP JUMP JUMPDEST DUP2 PUSH1 0x1 DUP2 PUSH1 0x40 MLOAD PUSH2 0xA5B SWAP2 SWAP1 PUSH2 0x113B JUMP JUMPDEST SWAP1 DUP2 MSTORE PUSH1 0x20 ADD PUSH1 0x40 MLOAD DUP1 SWAP2 SUB SWAP1 KECCAK256 PUSH1 0x0 ADD PUSH1 0x0 SWAP1 SLOAD SWAP1 PUSH2 0x100 EXP SWAP1 DIV PUSH20 0xFFFFFFFFFFFFFFFFFFFFFFFFFFFFFFFFFFFFFFFF AND PUSH20 0xFFFFFFFFFFFFFFFFFFFFFFFFFFFFFFFFFFFFFFFF AND CALLER PUSH20 0xFFFFFFFFFFFFFFFFFFFFFFFFFFFFFFFFFFFFFFFF AND EQ PUSH2 0xAFA JUMPI PUSH1 0x40 MLOAD PUSH32 0x8C379A000000000000000000000000000000000000000000000000000000000 DUP2 MSTORE PUSH1 0x4 ADD PUSH2 0xAF1 SWAP1 PUSH2 0x11C4 JUMP JUMPDEST PUSH1 0x40 MLOAD DUP1 SWAP2 SUB SWAP1 REVERT JUMPDEST PUSH1 0x0 PUSH20 0xFFFFFFFFFFFFFFFFFFFFFFFFFFFFFFFFFFFFFFFF AND DUP3 PUSH20 0xFFFFFFFFFFFFFFFFFFFFFFFFFFFFFFFFFFFFFFFF AND SUB PUSH2 0xB69 JUMPI PUSH1 0x40 MLOAD PUSH32 0x8C379A000000000000000000000000000000000000000000000000000000000 DUP2 MSTORE PUSH1 0x4 ADD PUSH2 0xB60 SWAP1 PUSH2 0x175E JUMP JUMPDEST PUSH1 0x40 MLOAD DUP1 SWAP2 SUB SWAP1 REVERT JUMPDEST DUP2 PUSH1 0x1 DUP5 PUSH1 0x40 MLOAD PUSH2 0xB7A SWAP2 SWAP1 PUSH2 0x113B JUMP JUMPDEST SWAP1 DUP2 MSTORE PUSH1 0x20 ADD PUSH1 0x40 MLOAD DUP1 SWAP2 SUB SWAP1 KECCAK256 PUSH1 0x0 ADD PUSH1 0x0 PUSH2 0x100 EXP DUP2 SLOAD DUP2 PUSH20 0xFFFFFFFFFFFFFFFFFFFFFFFFFFFFFFFFFFFFFFFF MUL NOT AND SWAP1 DUP4 PUSH20 0xFFFFFFFFFFFFFFFFFFFFFFFFFFFFFFFFFFFFFFFF AND MUL OR SWAP1 SSTORE POP PUSH32 0x57B75B6D8A87A5A5FB23B8661E6576421516E045C4D3CDA7943D3127278E2154 DUP4 PUSH1 0x40 MLOAD PUSH2 0xBF8 SWAP2 SWAP1 PUSH2 0x17CA JUMP JUMPDEST PUSH1 0x40 MLOAD DUP1 SWAP2 SUB SWAP1 LOG1 POP POP POP JUMP JUMPDEST POP DUP1 SLOAD PUSH2 0xC11 SWAP1 PUSH2 0x1294 JUMP JUMPDEST PUSH1 0x0 DUP3 SSTORE DUP1 PUSH1 0x1F LT PUSH2 0xC23 JUMPI POP PUSH2 0xC42 JUMP JUMPDEST PUSH1 0x1F ADD PUSH1 0x20 SWAP1 DIV SWAP1 PUSH1 0x0 MSTORE PUSH1 0x20 PUSH1 0x0 KECCAK256 SWAP1 DUP2 ADD SWAP1 PUSH2 0xC41 SWAP2 SWAP1 PUSH2 0xC45 JUMP JUMPDEST JUMPDEST POP JUMP JUMPDEST JUMPDEST DUP1 DUP3 GT ISZERO PUSH2 0xC5E JUMPI PUSH1 0x0 DUP2 PUSH1 0x0 SWAP1 SSTORE POP PUSH1 0x1 ADD PUSH2 0xC46 JUMP JUMPDEST POP SWAP1 JUMP JUMPDEST PUSH1 0x0 PUSH1 0x40 MLOAD SWAP1 POP SWAP1 JUMP JUMPDEST PUSH1 0x0 DUP1 REVERT JUMPDEST PUSH1 0x0 DUP1 REVERT JUMPDEST PUSH1 0x0 DUP1 REVERT JUMPDEST PUSH1 0x0 DUP1 REVERT JUMPDEST PUSH1 0x0 PUSH1 0x1F NOT PUSH1 0x1F DUP4 ADD AND SWAP1 POP SWAP2 SWAP1 POP JUMP JUMPDEST PUSH32 0x4E487B7100000000000000000000000000000000000000000000000000000000 PUSH1 0x0 MSTORE PUSH1 0x41 PUSH1 0x4 MSTORE PUSH1 0x24 PUSH1 0x0 REVERT JUMPDEST PUSH2 0xCC9 DUP3 PUSH2 0xC80 JUMP JUMPDEST DUP2 ADD DUP2 DUP2 LT PUSH8 0xFFFFFFFFFFFFFFFF DUP3 GT OR ISZERO PUSH2 0xCE8 JUMPI PUSH2 0xCE7 PUSH2 0xC91 JUMP JUMPDEST JUMPDEST DUP1 PUSH1 0x40 MSTORE POP POP POP JUMP JUMPDEST PUSH1 0x0 PUSH2 0xCFB PUSH2 0xC62 JUMP JUMPDEST SWAP1 POP PUSH2 0xD07 DUP3 DUP3 PUSH2 0xCC0 JUMP JUMPDEST SWAP2 SWAP1 POP JUMP JUMPDEST PUSH1 0x0 PUSH8 0xFFFFFFFFFFFFFFFF DUP3 GT ISZERO PUSH2 0xD27 JUMPI PUSH2 0xD26 PUSH2 0xC91 JUMP JUMPDEST JUMPDEST PUSH2 0xD30 DUP3 PUSH2 0xC80 JUMP JUMPDEST SWAP1 POP PUSH1 0x20 DUP2 ADD SWAP1 POP SWAP2 SWAP1 POP JUMP JUMPDEST DUP3 DUP2 DUP4 CALLDATACOPY PUSH1 0x0 DUP4 DUP4 ADD MSTORE POP POP POP JUMP JUMPDEST PUSH1 0x0 PUSH2 0xD5F PUSH2 0xD5A DUP5 PUSH2 0xD0C JUMP JUMPDEST PUSH2 0xCF1 JUMP JUMPDEST SWAP1 POP DUP3 DUP2 MSTORE PUSH1 0x20 DUP2 ADD DUP5 DUP5 DUP5 ADD GT ISZERO PUSH2 0xD7B JUMPI PUSH2 0xD7A PUSH2 0xC7B JUMP JUMPDEST JUMPDEST PUSH2 0xD86 DUP5 DUP3 DUP6 PUSH2 0xD3D JUMP JUMPDEST POP SWAP4 SWAP3 POP POP POP JUMP JUMPDEST PUSH1 0x0 DUP3 PUSH1 0x1F DUP4 ADD SLT PUSH2 0xDA3 JUMPI PUSH2 0xDA2 PUSH2 0xC76 JUMP JUMPDEST JUMPDEST DUP2 CALLDATALOAD PUSH2 0xDB3 DUP5 DUP3 PUSH1 0x20 DUP7 ADD PUSH2 0xD4C JUMP JUMPDEST SWAP2 POP POP SWAP3 SWAP2 POP POP JUMP JUMPDEST PUSH1 0x0 PUSH1 0x20 DUP3 DUP5 SUB SLT ISZERO PUSH2 0xDD2 JUMPI PUSH2 0xDD1 PUSH2 0xC6C JUMP JUMPDEST JUMPDEST PUSH1 0x0 DUP3 ADD CALLDATALOAD PUSH8 0xFFFFFFFFFFFFFFFF DUP2 GT ISZERO PUSH2 0xDF0 JUMPI PUSH2 0xDEF PUSH2 0xC71 JUMP JUMPDEST JUMPDEST PUSH2 0xDFC DUP5 DUP3 DUP6 ADD PUSH2 0xD8E JUMP JUMPDEST SWAP2 POP POP SWAP3 SWAP2 POP POP JUMP JUMPDEST PUSH1 0x0 PUSH20 0xFFFFFFFFFFFFFFFFFFFFFFFFFFFFFFFFFFFFFFFF DUP3 AND SWAP1 POP SWAP2 SWAP1 POP JUMP JUMPDEST PUSH1 0x0 PUSH2 0xE30 DUP3 PUSH2 0xE05 JUMP JUMPDEST SWAP1 POP SWAP2 SWAP1 POP JUMP JUMPDEST PUSH2 0xE40 DUP2 PUSH2 0xE25 JUMP JUMPDEST DUP2 EQ PUSH2 0xE4B JUMPI PUSH1 0x0 DUP1 REVERT JUMPDEST POP JUMP JUMPDEST PUSH1 0x0 DUP2 CALLDATALOAD SWAP1 POP PUSH2 0xE5D DUP2 PUSH2 0xE37 JUMP JUMPDEST SWAP3 SWAP2 POP POP JUMP JUMPDEST PUSH1 0x0 DUP1 PUSH1 0x40 DUP4 DUP6 SUB SLT ISZERO PUSH2 0xE7A JUMPI PUSH2 0xE79 PUSH2 0xC6C JUMP JUMPDEST JUMPDEST PUSH1 0x0 DUP4 ADD CALLDATALOAD PUSH8 0xFFFFFFFFFFFFFFFF DUP2 GT ISZERO PUSH2 0xE98 JUMPI PUSH2 0xE97 PUSH2 0xC71 JUMP JUMPDEST JUMPDEST PUSH2 0xEA4 DUP6 DUP3 DUP7 ADD PUSH2 0xD8E JUMP JUMPDEST SWAP3 POP POP PUSH1 0x20 PUSH2 0xEB5 DUP6 DUP3 DUP7 ADD PUSH2 0xE4E JUMP JUMPDEST SWAP2 POP POP SWAP3 POP SWAP3 SWAP1 POP JUMP JUMPDEST PUSH1 0x0 DUP2 MLOAD SWAP1 POP SWAP2 SWAP1 POP JUMP JUMPDEST PUSH1 0x0 DUP3 DUP3 MSTORE PUSH1 0x20 DUP3 ADD SWAP1 POP SWAP3 SWAP2 POP POP JUMP JUMPDEST PUSH1 0x0 JUMPDEST DUP4 DUP2 LT ISZERO PUSH2 0xEF9 JUMPI DUP1 DUP3 ADD MLOAD DUP2 DUP5 ADD MSTORE PUSH1 0x20 DUP2 ADD SWAP1 POP PUSH2 0xEDE JUMP JUMPDEST PUSH1 0x0 DUP5 DUP5 ADD MSTORE POP POP POP POP JUMP JUMPDEST PUSH1 0x0 PUSH2 0xF10 DUP3 PUSH2 0xEBF JUMP JUMPDEST PUSH2 0xF1A DUP2 DUP6 PUSH2 0xECA JUMP JUMPDEST SWAP4 POP PUSH2 0xF2A DUP2 DUP6 PUSH1 0x20 DUP7 ADD PUSH2 0xEDB JUMP JUMPDEST PUSH2 0xF33 DUP2 PUSH2 0xC80 JUMP JUMPDEST DUP5 ADD SWAP2 POP POP SWAP3 SWAP2 POP POP JUMP JUMPDEST PUSH1 0x0 PUSH1 0x20 DUP3 ADD SWAP1 POP DUP2 DUP2 SUB PUSH1 0x0 DUP4 ADD MSTORE PUSH2 0xF58 DUP2 DUP5 PUSH2 0xF05 JUMP JUMPDEST SWAP1 POP SWAP3 SWAP2 POP POP JUMP JUMPDEST PUSH2 0xF69 DUP2 PUSH2 0xE25 JUMP JUMPDEST DUP3 MSTORE POP POP JUMP JUMPDEST PUSH1 0x0 PUSH1 0x20 DUP3 ADD SWAP1 POP PUSH2 0xF84 PUSH1 0x0 DUP4 ADD DUP5 PUSH2 0xF60 JUMP JUMPDEST SWAP3 SWAP2 POP POP JUMP JUMPDEST PUSH1 0x0 DUP2 SWAP1 POP SWAP2 SWAP1 POP JUMP JUMPDEST PUSH2 0xF9D DUP2 PUSH2 0xF8A JUMP JUMPDEST DUP3 MSTORE POP POP JUMP JUMPDEST PUSH1 0x0 PUSH1 0x20 DUP3 ADD SWAP1 POP PUSH2 0xFB8 PUSH1 0x0 DUP4 ADD DUP5 PUSH2 0xF94 JUMP JUMPDEST SWAP3 SWAP2 POP POP JUMP JUMPDEST PUSH1 0x0 DUP1 PUSH1 0x40 DUP4 DUP6 SUB SLT ISZERO PUSH2 0xFD5 JUMPI PUSH2 0xFD4 PUSH2 0xC6C JUMP JUMPDEST JUMPDEST PUSH1 0x0 DUP4 ADD CALLDATALOAD PUSH8 0xFFFFFFFFFFFFFFFF DUP2 GT ISZERO PUSH2 0xFF3 JUMPI PUSH2 0xFF2 PUSH2 0xC71 JUMP JUMPDEST JUMPDEST PUSH2 0xFFF DUP6 DUP3 DUP7 ADD PUSH2 0xD8E JUMP JUMPDEST SWAP3 POP POP PUSH1 0x20 DUP4 ADD CALLDATALOAD PUSH8 0xFFFFFFFFFFFFFFFF DUP2 GT ISZERO PUSH2 0x1020 JUMPI PUSH2 0x101F PUSH2 0xC71 JUMP JUMPDEST JUMPDEST PUSH2 0x102C DUP6 DUP3 DUP7 ADD PUSH2 0xD8E JUMP JUMPDEST SWAP2 POP POP SWAP3 POP SWAP3 SWAP1 POP JUMP JUMPDEST PUSH1 0x0 PUSH1 0x60 DUP3 ADD SWAP1 POP PUSH2 0x104B PUSH1 0x0 DUP4 ADD DUP7 PUSH2 0xF60 JUMP JUMPDEST PUSH2 0x1058 PUSH1 0x20 DUP4 ADD DUP6 PUSH2 0xF60 JUMP JUMPDEST DUP2 DUP2 SUB PUSH1 0x40 DUP4 ADD MSTORE PUSH2 0x106A DUP2 DUP5 PUSH2 0xF05 JUMP JUMPDEST SWAP1 POP SWAP5 SWAP4 POP POP POP POP JUMP JUMPDEST PUSH1 0x0 DUP1 PUSH1 0x0 PUSH1 0x60 DUP5 DUP7 SUB SLT ISZERO PUSH2 0x108D JUMPI PUSH2 0x108C PUSH2 0xC6C JUMP JUMPDEST JUMPDEST PUSH1 0x0 DUP5 ADD CALLDATALOAD PUSH8 0xFFFFFFFFFFFFFFFF DUP2 GT ISZERO PUSH2 0x10AB JUMPI PUSH2 0x10AA PUSH2 0xC71 JUMP JUMPDEST JUMPDEST PUSH2 0x10B7 DUP7 DUP3 DUP8 ADD PUSH2 0xD8E JUMP JUMPDEST SWAP4 POP POP PUSH1 0x20 PUSH2 0x10C8 DUP7 DUP3 DUP8 ADD PUSH2 0xE4E JUMP JUMPDEST SWAP3 POP POP PUSH1 0x40 DUP5 ADD CALLDATALOAD PUSH8 0xFFFFFFFFFFFFFFFF DUP2 GT ISZERO PUSH2 0x10E9 JUMPI PUSH2 0x10E8 PUSH2 0xC71 JUMP JUMPDEST JUMPDEST PUSH2 0x10F5 DUP7 DUP3 DUP8 ADD PUSH2 0xD8E JUMP JUMPDEST SWAP2 POP POP SWAP3 POP SWAP3 POP SWAP3 JUMP JUMPDEST PUSH1 0x0 DUP2 SWAP1 POP SWAP3 SWAP2 POP POP JUMP JUMPDEST PUSH1 0x0 PUSH2 0x1115 DUP3 PUSH2 0xEBF JUMP JUMPDEST PUSH2 0x111F DUP2 DUP6 PUSH2 0x10FF JUMP JUMPDEST SWAP4 POP PUSH2 0x112F DUP2 DUP6 PUSH1 0x20 DUP7 ADD PUSH2 0xEDB JUMP JUMPDEST DUP1 DUP5 ADD SWAP2 POP POP SWAP3 SWAP2 POP POP JUMP JUMPDEST PUSH1 0x0 PUSH2 0x1147 DUP3 DUP5 PUSH2 0x110A JUMP JUMPDEST SWAP2 POP DUP2 SWAP1 POP SWAP3 SWAP2 POP POP JUMP JUMPDEST PUSH32 0x4572726F723A2063616C6C6572206973206E6F742074686520636F6E74726163 PUSH1 0x0 DUP3 ADD MSTORE PUSH32 0x742773206F776E65720000000000000000000000000000000000000000000000 PUSH1 0x20 DUP3 ADD MSTORE POP JUMP JUMPDEST PUSH1 0x0 PUSH2 0x11AE PUSH1 0x29 DUP4 PUSH2 0xECA JUMP JUMPDEST SWAP2 POP PUSH2 0x11B9 DUP3 PUSH2 0x1152 JUMP JUMPDEST PUSH1 0x40 DUP3 ADD SWAP1 POP SWAP2 SWAP1 POP JUMP JUMPDEST PUSH1 0x0 PUSH1 0x20 DUP3 ADD SWAP1 POP DUP2 DUP2 SUB PUSH1 0x0 DUP4 ADD MSTORE PUSH2 0x11DD DUP2 PUSH2 0x11A1 JUMP JUMPDEST SWAP1 POP SWAP2 SWAP1 POP JUMP JUMPDEST PUSH32 0x6368616E676520436F6E74726163744164647265737300000000000000000000 PUSH1 0x0 DUP3 ADD MSTORE POP JUMP JUMPDEST PUSH1 0x0 PUSH2 0x121A PUSH1 0x16 DUP4 PUSH2 0xECA JUMP JUMPDEST SWAP2 POP PUSH2 0x1225 DUP3 PUSH2 0x11E4 JUMP JUMPDEST PUSH1 0x20 DUP3 ADD SWAP1 POP SWAP2 SWAP1 POP JUMP JUMPDEST PUSH1 0x0 PUSH1 0x40 DUP3 ADD SWAP1 POP DUP2 DUP2 SUB PUSH1 0x0 DUP4 ADD MSTORE PUSH2 0x124A DUP2 DUP5 PUSH2 0xF05 JUMP JUMPDEST SWAP1 POP DUP2 DUP2 SUB PUSH1 0x20 DUP4 ADD MSTORE PUSH2 0x125D DUP2 PUSH2 0x120D JUMP JUMPDEST SWAP1 POP SWAP3 SWAP2 POP POP JUMP JUMPDEST PUSH32 0x4E487B7100000000000000000000000000000000000000000000000000000000 PUSH1 0x0 MSTORE PUSH1 0x22 PUSH1 0x4 MSTORE PUSH1 0x24 PUSH1 0x0 REVERT JUMPDEST PUSH1 0x0 PUSH1 0x2 DUP3 DIV SWAP1 POP PUSH1 0x1 DUP3 AND DUP1 PUSH2 0x12AC JUMPI PUSH1 0x7F DUP3 AND SWAP2 POP JUMPDEST PUSH1 0x20 DUP3 LT DUP2 SUB PUSH2 0x12BF JUMPI PUSH2 0x12BE PUSH2 0x1265 JUMP JUMPDEST JUMPDEST POP SWAP2 SWAP1 POP JUMP JUMPDEST PUSH1 0x0 DUP2 SWAP1 POP DUP2 PUSH1 0x0 MSTORE PUSH1 0x20 PUSH1 0x0 KECCAK256 SWAP1 POP SWAP2 SWAP1 POP JUMP JUMPDEST PUSH1 0x0 PUSH1 0x20 PUSH1 0x1F DUP4 ADD DIV SWAP1 POP SWAP2 SWAP1 POP JUMP JUMPDEST PUSH1 0x0 DUP3 DUP3 SHL SWAP1 POP SWAP3 SWAP2 POP POP JUMP JUMPDEST PUSH1 0x0 PUSH1 0x8 DUP4 MUL PUSH2 0x1327 PUSH32 0xFFFFFFFFFFFFFFFFFFFFFFFFFFFFFFFFFFFFFFFFFFFFFFFFFFFFFFFFFFFFFFFF DUP3 PUSH2 0x12EA JUMP JUMPDEST PUSH2 0x1331 DUP7 DUP4 PUSH2 0x12EA JUMP JUMPDEST SWAP6 POP DUP1 NOT DUP5 AND SWAP4 POP DUP1 DUP7 AND DUP5 OR SWAP3 POP POP POP SWAP4 SWAP3 POP POP POP JUMP JUMPDEST PUSH1 0x0 DUP2 SWAP1 POP SWAP2 SWAP1 POP JUMP JUMPDEST PUSH1 0x0 PUSH2 0x136E PUSH2 0x1369 PUSH2 0x1364 DUP5 PUSH2 0xF8A JUMP JUMPDEST PUSH2 0x1349 JUMP JUMPDEST PUSH2 0xF8A JUMP JUMPDEST SWAP1 POP SWAP2 SWAP1 POP JUMP JUMPDEST PUSH1 0x0 DUP2 SWAP1 POP SWAP2 SWAP1 POP JUMP JUMPDEST PUSH2 0x1388 DUP4 PUSH2 0x1353 JUMP JUMPDEST PUSH2 0x139C PUSH2 0x1394 DUP3 PUSH2 0x1375 JUMP JUMPDEST DUP5 DUP5 SLOAD PUSH2 0x12F7 JUMP JUMPDEST DUP3 SSTORE POP POP POP POP JUMP JUMPDEST PUSH1 0x0 SWAP1 JUMP JUMPDEST PUSH2 0x13B1 PUSH2 0x13A4 JUMP JUMPDEST PUSH2 0x13BC DUP2 DUP5 DUP5 PUSH2 0x137F JUMP JUMPDEST POP POP POP JUMP JUMPDEST JUMPDEST DUP2 DUP2 LT ISZERO PUSH2 0x13E0 JUMPI PUSH2 0x13D5 PUSH1 0x0 DUP3 PUSH2 0x13A9 JUMP JUMPDEST PUSH1 0x1 DUP2 ADD SWAP1 POP PUSH2 0x13C2 JUMP JUMPDEST POP POP JUMP JUMPDEST PUSH1 0x1F DUP3 GT ISZERO PUSH2 0x1425 JUMPI PUSH2 0x13F6 DUP2 PUSH2 0x12C5 JUMP JUMPDEST PUSH2 0x13FF DUP5 PUSH2 0x12DA JUMP JUMPDEST DUP2 ADD PUSH1 0x20 DUP6 LT ISZERO PUSH2 0x140E JUMPI DUP2 SWAP1 POP JUMPDEST PUSH2 0x1422 PUSH2 0x141A DUP6 PUSH2 0x12DA JUMP JUMPDEST DUP4 ADD DUP3 PUSH2 0x13C1 JUMP JUMPDEST POP POP JUMPDEST POP POP POP JUMP JUMPDEST PUSH1 0x0 DUP3 DUP3 SHR SWAP1 POP SWAP3 SWAP2 POP POP JUMP JUMPDEST PUSH1 0x0 PUSH2 0x1448 PUSH1 0x0 NOT DUP5 PUSH1 0x8 MUL PUSH2 0x142A JUMP JUMPDEST NOT DUP1 DUP4 AND SWAP2 POP POP SWAP3 SWAP2 POP POP JUMP JUMPDEST PUSH1 0x0 PUSH2 0x1461 DUP4 DUP4 PUSH2 0x1437 JUMP JUMPDEST SWAP2 POP DUP3 PUSH1 0x2 MUL DUP3 OR SWAP1 POP SWAP3 SWAP2 POP POP JUMP JUMPDEST PUSH2 0x147A DUP3 PUSH2 0xEBF JUMP JUMPDEST PUSH8 0xFFFFFFFFFFFFFFFF DUP2 GT ISZERO PUSH2 0x1493 JUMPI PUSH2 0x1492 PUSH2 0xC91 JUMP JUMPDEST JUMPDEST PUSH2 0x149D DUP3 SLOAD PUSH2 0x1294 JUMP JUMPDEST PUSH2 0x14A8 DUP3 DUP3 DUP6 PUSH2 0x13E4 JUMP JUMPDEST PUSH1 0x0 PUSH1 0x20 SWAP1 POP PUSH1 0x1F DUP4 GT PUSH1 0x1 DUP2 EQ PUSH2 0x14DB JUMPI PUSH1 0x0 DUP5 ISZERO PUSH2 0x14C9 JUMPI DUP3 DUP8 ADD MLOAD SWAP1 POP JUMPDEST PUSH2 0x14D3 DUP6 DUP3 PUSH2 0x1455 JUMP JUMPDEST DUP7 SSTORE POP PUSH2 0x153B JUMP JUMPDEST PUSH1 0x1F NOT DUP5 AND PUSH2 0x14E9 DUP7 PUSH2 0x12C5 JUMP JUMPDEST PUSH1 0x0 JUMPDEST DUP3 DUP2 LT ISZERO PUSH2 0x1511 JUMPI DUP5 DUP10 ADD MLOAD DUP3 SSTORE PUSH1 0x1 DUP3 ADD SWAP2 POP PUSH1 0x20 DUP6 ADD SWAP5 POP PUSH1 0x20 DUP2 ADD SWAP1 POP PUSH2 0x14EC JUMP JUMPDEST DUP7 DUP4 LT ISZERO PUSH2 0x152E JUMPI DUP5 DUP10 ADD MLOAD PUSH2 0x152A PUSH1 0x1F DUP10 AND DUP3 PUSH2 0x1437 JUMP JUMPDEST DUP4 SSTORE POP JUMPDEST PUSH1 0x1 PUSH1 0x2 DUP9 MUL ADD DUP9 SSTORE POP POP POP JUMPDEST POP POP POP POP POP POP JUMP JUMPDEST PUSH32 0x6368616E6765206465736372697074696F6E0000000000000000000000000000 PUSH1 0x0 DUP3 ADD MSTORE POP JUMP JUMPDEST PUSH1 0x0 PUSH2 0x1579 PUSH1 0x12 DUP4 PUSH2 0xECA JUMP JUMPDEST SWAP2 POP PUSH2 0x1584 DUP3 PUSH2 0x1543 JUMP JUMPDEST PUSH1 0x20 DUP3 ADD SWAP1 POP SWAP2 SWAP1 POP JUMP JUMPDEST PUSH1 0x0 PUSH1 0x40 DUP3 ADD SWAP1 POP DUP2 DUP2 SUB PUSH1 0x0 DUP4 ADD MSTORE PUSH2 0x15A9 DUP2 DUP5 PUSH2 0xF05 JUMP JUMPDEST SWAP1 POP DUP2 DUP2 SUB PUSH1 0x20 DUP4 ADD MSTORE PUSH2 0x15BC DUP2 PUSH2 0x156C JUMP JUMPDEST SWAP1 POP SWAP3 SWAP2 POP POP JUMP JUMPDEST PUSH32 0x54686520636F6E747261637420697320616C7265616479207265676973746572 PUSH1 0x0 DUP3 ADD MSTORE PUSH32 0x6564210000000000000000000000000000000000000000000000000000000000 PUSH1 0x20 DUP3 ADD MSTORE POP JUMP JUMPDEST PUSH1 0x0 PUSH2 0x1620 PUSH1 0x23 DUP4 PUSH2 0xECA JUMP JUMPDEST SWAP2 POP PUSH2 0x162B DUP3 PUSH2 0x15C4 JUMP JUMPDEST PUSH1 0x40 DUP3 ADD SWAP1 POP SWAP2 SWAP1 POP JUMP JUMPDEST PUSH1 0x0 PUSH1 0x20 DUP3 ADD SWAP1 POP DUP2 DUP2 SUB PUSH1 0x0 DUP4 ADD MSTORE PUSH2 0x164F DUP2 PUSH2 0x1613 JUMP JUMPDEST SWAP1 POP SWAP2 SWAP1 POP JUMP JUMPDEST PUSH32 0x4E487B7100000000000000000000000000000000000000000000000000000000 PUSH1 0x0 MSTORE PUSH1 0x11 PUSH1 0x4 MSTORE PUSH1 0x24 PUSH1 0x0 REVERT JUMPDEST PUSH1 0x0 PUSH2 0x1690 DUP3 PUSH2 0xF8A JUMP JUMPDEST SWAP2 POP PUSH32 0xFFFFFFFFFFFFFFFFFFFFFFFFFFFFFFFFFFFFFFFFFFFFFFFFFFFFFFFFFFFFFFFF DUP3 SUB PUSH2 0x16C2 JUMPI PUSH2 0x16C1 PUSH2 0x1656 JUMP JUMPDEST JUMPDEST PUSH1 0x1 DUP3 ADD SWAP1 POP SWAP2 SWAP1 POP JUMP JUMPDEST PUSH1 0x0 PUSH1 0x60 DUP3 ADD SWAP1 POP DUP2 DUP2 SUB PUSH1 0x0 DUP4 ADD MSTORE PUSH2 0x16E7 DUP2 DUP7 PUSH2 0xF05 JUMP JUMPDEST SWAP1 POP PUSH2 0x16F6 PUSH1 0x20 DUP4 ADD DUP6 PUSH2 0xF60 JUMP JUMPDEST DUP2 DUP2 SUB PUSH1 0x40 DUP4 ADD MSTORE PUSH2 0x1708 DUP2 DUP5 PUSH2 0xF05 JUMP JUMPDEST SWAP1 POP SWAP5 SWAP4 POP POP POP POP JUMP JUMPDEST PUSH32 0x4572726F723A206E65774F776E65722069732061646472657373283029210000 PUSH1 0x0 DUP3 ADD MSTORE POP JUMP JUMPDEST PUSH1 0x0 PUSH2 0x1748 PUSH1 0x1E DUP4 PUSH2 0xECA JUMP JUMPDEST SWAP2 POP PUSH2 0x1753 DUP3 PUSH2 0x1712 JUMP JUMPDEST PUSH1 0x20 DUP3 ADD SWAP1 POP SWAP2 SWAP1 POP JUMP JUMPDEST PUSH1 0x0 PUSH1 0x20 DUP3 ADD SWAP1 POP DUP2 DUP2 SUB PUSH1 0x0 DUP4 ADD MSTORE PUSH2 0x1777 DUP2 PUSH2 0x173B JUMP JUMPDEST SWAP1 POP SWAP2 SWAP1 POP JUMP JUMPDEST PUSH32 0x6368616E676520436F6E74726163744F776E6572000000000000000000000000 PUSH1 0x0 DUP3 ADD MSTORE POP JUMP JUMPDEST PUSH1 0x0 PUSH2 0x17B4 PUSH1 0x14 DUP4 PUSH2 0xECA JUMP JUMPDEST SWAP2 POP PUSH2 0x17BF DUP3 PUSH2 0x177E JUMP JUMPDEST PUSH1 0x20 DUP3 ADD SWAP1 POP SWAP2 SWAP1 POP JUMP JUMPDEST PUSH1 0x0 PUSH1 0x40 DUP3 ADD SWAP1 POP DUP2 DUP2 SUB PUSH1 0x0 DUP4 ADD MSTORE PUSH2 0x17E4 DUP2 DUP5 PUSH2 0xF05 JUMP JUMPDEST SWAP1 POP DUP2 DUP2 SUB PUSH1 0x20 DUP4 ADD MSTORE PUSH2 0x17F7 DUP2 PUSH2 0x17A7 JUMP JUMPDEST SWAP1 POP SWAP3 SWAP2 POP POP JUMP INVALID LOG2 PUSH5 0x6970667358 0x22 SLT KECCAK256 0x1E 0x2D STOP PUSH18 0x8A591ADD062881FB40A9FC33B2490421558C 0x27 DUP5 0xD1 0x24 PUSH32 0xB6225CF49E64736F6C6343000812003300000000000000000000000000000000 "
				},
				"gasEstimates": {
					"creation": {
						"codeDepositCost": "1239400",
						"executionCost": "6302",
						"totalCost": "1245702"
					},
					"external": {
						"changeOwner(string,address)": "infinite",
						"getAddr(string)": "infinite",
						"getDescription(string)": "infinite",
						"getOwner(string)": "infinite",
						"numContracts()": "2518",
						"registerContract(string,address,string)": "infinite",
						"registeredContracts(string)": "infinite",
						"setAddr(string,address)": "infinite",
						"setDescription(string,string)": "infinite",
						"unregisterContract(string)": "infinite"
					}
				},
				"methodIdentifiers": {
					"changeOwner(string,address)": "d8f9d144",
					"getAddr(string)": "d502db97",
					"getDescription(string)": "45de2ca0",
					"getOwner(string)": "4aaf4a12",
					"numContracts()": "524d81d3",
					"registerContract(string,address,string)": "a738e975",
					"registeredContracts(string)": "98fd3835",
					"setAddr(string,address)": "213b9eb8",
					"setDescription(string,string)": "6755d456",
					"unregisterContract(string)": "035e7709"
				}
			},
			"storageLayout": {
				"storage": [
					{
						"astId": 10,
						"contract": "week9/Registry.sol:Registry",
						"label": "numContracts",
						"offset": 0,
						"slot": "0",
						"type": "t_uint256"
					},
					{
						"astId": 33,
						"contract": "week9/Registry.sol:Registry",
						"label": "registeredContracts",
						"offset": 0,
						"slot": "1",
						"type": "t_mapping(t_string_memory_ptr,t_struct(ContractInfo)8_storage)"
					}
				],
				"types": {
					"t_address": {
						"encoding": "inplace",
						"label": "address",
						"numberOfBytes": "20"
					},
					"t_mapping(t_string_memory_ptr,t_struct(ContractInfo)8_storage)": {
						"encoding": "mapping",
						"key": "t_string_memory_ptr",
						"label": "mapping(string => struct Registry.ContractInfo)",
						"numberOfBytes": "32",
						"value": "t_struct(ContractInfo)8_storage"
					},
					"t_string_memory_ptr": {
						"encoding": "bytes",
						"label": "string",
						"numberOfBytes": "32"
					},
					"t_string_storage": {
						"encoding": "bytes",
						"label": "string",
						"numberOfBytes": "32"
					},
					"t_struct(ContractInfo)8_storage": {
						"encoding": "inplace",
						"label": "struct Registry.ContractInfo",
						"members": [
							{
								"astId": 3,
								"contract": "week9/Registry.sol:Registry",
								"label": "contractOwner",
								"offset": 0,
								"slot": "0",
								"type": "t_address"
							},
							{
								"astId": 5,
								"contract": "week9/Registry.sol:Registry",
								"label": "contractAddress",
								"offset": 0,
								"slot": "1",
								"type": "t_address"
							},
							{
								"astId": 7,
								"contract": "week9/Registry.sol:Registry",
								"label": "description",
								"offset": 0,
								"slot": "2",
								"type": "t_string_storage"
							}
						],
						"numberOfBytes": "96"
					},
					"t_uint256": {
						"encoding": "inplace",
						"label": "uint256",
						"numberOfBytes": "32"
					}
				}
			},
			"userdoc": {
				"kind": "user",
				"methods": {},
				"version": 1
			}
		}
	}
}