{
	"week11/Ballot.sol": {
		"Ballot": {
			"abi": [
				{
					"inputs": [
						{
							"internalType": "uint256",
							"name": "numProposals",
							"type": "uint256"
						}
					],
					"stateMutability": "nonpayable",
					"type": "constructor"
				},
				{
					"inputs": [],
					"name": "advancedPhase",
					"outputs": [],
					"stateMutability": "nonpayable",
					"type": "function"
				},
				{
					"inputs": [],
					"name": "chairperson",
					"outputs": [
						{
							"internalType": "address",
							"name": "",
							"type": "address"
						}
					],
					"stateMutability": "view",
					"type": "function"
				},
				{
					"inputs": [],
					"name": "currentPhase",
					"outputs": [
						{
							"internalType": "enum Ballot.Phase",
							"name": "",
							"type": "uint8"
						}
					],
					"stateMutability": "view",
					"type": "function"
				},
				{
					"inputs": [
						{
							"internalType": "uint256",
							"name": "",
							"type": "uint256"
						}
					],
					"name": "proposals",
					"outputs": [
						{
							"internalType": "uint256",
							"name": "voteCount",
							"type": "uint256"
						}
					],
					"stateMutability": "view",
					"type": "function"
				},
				{
					"inputs": [],
					"name": "regWinner",
					"outputs": [
						{
							"internalType": "uint256",
							"name": "",
							"type": "uint256"
						}
					],
					"stateMutability": "view",
					"type": "function"
				},
				{
					"inputs": [
						{
							"internalType": "address",
							"name": "voter",
							"type": "address"
						}
					],
					"name": "register",
					"outputs": [],
					"stateMutability": "nonpayable",
					"type": "function"
				},
				{
					"inputs": [
						{
							"internalType": "uint256",
							"name": "proposal",
							"type": "uint256"
						}
					],
					"name": "vote",
					"outputs": [],
					"stateMutability": "nonpayable",
					"type": "function"
				},
				{
					"inputs": [
						{
							"internalType": "address",
							"name": "",
							"type": "address"
						}
					],
					"name": "voters",
					"outputs": [
						{
							"internalType": "uint256",
							"name": "weight",
							"type": "uint256"
						},
						{
							"internalType": "bool",
							"name": "voted",
							"type": "bool"
						},
						{
							"internalType": "uint256",
							"name": "vote",
							"type": "uint256"
						}
					],
					"stateMutability": "view",
					"type": "function"
				}
			],
			"devdoc": {
				"kind": "dev",
				"methods": {},
				"version": 1
			},
			"evm": {
				"assembly": "    /* \"week11/Ballot.sol\":72:2318  contract Ballot {... */\n  mstore(0x40, 0x80)\n    /* \"week11/Ballot.sol\":476:486  Phase.Init */\n  0x00\n    /* \"week11/Ballot.sol\":448:486  Phase public currentPhase = Phase.Init */\n  0x03\n  exp(0x0100, 0x00)\n  dup2\n  sload\n  dup2\n  0xff\n  mul\n  not\n  and\n  swap1\n  dup4\n  0x03\n  dup2\n  gt\n  iszero\n  tag_1\n  jumpi\n  tag_2\n  tag_3\n  jump\t// in\ntag_2:\ntag_1:\n  mul\n  or\n  swap1\n  sstore\n  pop\n    /* \"week11/Ballot.sol\":750:969  constructor(uint numProposals) {... */\n  callvalue\n  dup1\n  iszero\n  tag_4\n  jumpi\n  0x00\n  dup1\n  revert\ntag_4:\n  pop\n  mload(0x40)\n  sub(codesize, bytecodeSize)\n  dup1\n  bytecodeSize\n  dup4\n  codecopy\n  dup2\n  dup2\n  add\n  0x40\n  mstore\n  dup2\n  add\n  swap1\n  tag_5\n  swap2\n  swap1\n  tag_6\n  jump\t// in\ntag_5:\n    /* \"week11/Ballot.sol\":806:816  msg.sender */\n  caller\n    /* \"week11/Ballot.sol\":792:803  chairperson */\n  0x00\n  dup1\n    /* \"week11/Ballot.sol\":792:816  chairperson = msg.sender */\n  0x0100\n  exp\n  dup2\n  sload\n  dup2\n  0xffffffffffffffffffffffffffffffffffffffff\n  mul\n  not\n  and\n  swap1\n  dup4\n  0xffffffffffffffffffffffffffffffffffffffff\n  and\n  mul\n  or\n  swap1\n  sstore\n  pop\n    /* \"week11/Ballot.sol\":856:857  1 */\n  0x01\n    /* \"week11/Ballot.sol\":827:833  voters */\n  dup1\n    /* \"week11/Ballot.sol\":827:846  voters[chairperson] */\n  0x00\n    /* \"week11/Ballot.sol\":834:845  chairperson */\n  dup1\n  0x00\n  swap1\n  sload\n  swap1\n  0x0100\n  exp\n  swap1\n  div\n  0xffffffffffffffffffffffffffffffffffffffff\n  and\n    /* \"week11/Ballot.sol\":827:846  voters[chairperson] */\n  0xffffffffffffffffffffffffffffffffffffffff\n  and\n  0xffffffffffffffffffffffffffffffffffffffff\n  and\n  dup2\n  mstore\n  0x20\n  add\n  swap1\n  dup2\n  mstore\n  0x20\n  add\n  0x00\n  keccak256\n    /* \"week11/Ballot.sol\":827:853  voters[chairperson].weight */\n  0x00\n  add\n    /* \"week11/Ballot.sol\":827:857  voters[chairperson].weight = 1 */\n  dup2\n  swap1\n  sstore\n  pop\n    /* \"week11/Ballot.sol\":873:879  uint i */\n  0x00\n    /* \"week11/Ballot.sol\":868:962  for (uint i = 0; i < numProposals; i++) {... */\ntag_9:\n    /* \"week11/Ballot.sol\":889:901  numProposals */\n  dup2\n    /* \"week11/Ballot.sol\":885:886  i */\n  dup2\n    /* \"week11/Ballot.sol\":885:901  i < numProposals */\n  lt\n    /* \"week11/Ballot.sol\":868:962  for (uint i = 0; i < numProposals; i++) {... */\n  iszero\n  tag_10\n  jumpi\n    /* \"week11/Ballot.sol\":923:932  proposals */\n  0x02\n    /* \"week11/Ballot.sol\":938:949  Proposal(0) */\n  mload(0x40)\n  dup1\n  0x20\n  add\n  0x40\n  mstore\n  dup1\n    /* \"week11/Ballot.sol\":947:948  0 */\n  0x00\n    /* \"week11/Ballot.sol\":938:949  Proposal(0) */\n  dup2\n  mstore\n  pop\n    /* \"week11/Ballot.sol\":923:950  proposals.push(Proposal(0)) */\n  swap1\n  dup1\n  0x01\n  dup2\n  sload\n  add\n  dup1\n  dup3\n  sstore\n  dup1\n  swap2\n  pop\n  pop\n  0x01\n  swap1\n  sub\n  swap1\n  0x00\n  mstore\n  keccak256(0x00, 0x20)\n  add\n  0x00\n  swap1\n  swap2\n  swap1\n  swap2\n  swap1\n  swap2\n  pop\n  0x00\n  dup3\n  add\n  mload\n  dup2\n  0x00\n  add\n  sstore\n  pop\n  pop\n    /* \"week11/Ballot.sol\":903:906  i++ */\n  dup1\n  dup1\n  tag_13\n  swap1\n  tag_14\n  jump\t// in\ntag_13:\n  swap2\n  pop\n  pop\n    /* \"week11/Ballot.sol\":868:962  for (uint i = 0; i < numProposals; i++) {... */\n  jump(tag_9)\ntag_10:\n  pop\n    /* \"week11/Ballot.sol\":750:969  constructor(uint numProposals) {... */\n  pop\n    /* \"week11/Ballot.sol\":72:2318  contract Ballot {... */\n  jump(tag_15)\n    /* \"#utility.yul\":7:187   */\ntag_3:\n    /* \"#utility.yul\":55:132   */\n  0x4e487b7100000000000000000000000000000000000000000000000000000000\n    /* \"#utility.yul\":52:53   */\n  0x00\n    /* \"#utility.yul\":45:133   */\n  mstore\n    /* \"#utility.yul\":152:156   */\n  0x21\n    /* \"#utility.yul\":149:150   */\n  0x04\n    /* \"#utility.yul\":142:157   */\n  mstore\n    /* \"#utility.yul\":176:180   */\n  0x24\n    /* \"#utility.yul\":173:174   */\n  0x00\n    /* \"#utility.yul\":166:181   */\n  revert\n    /* \"#utility.yul\":274:391   */\ntag_17:\n    /* \"#utility.yul\":383:384   */\n  0x00\n    /* \"#utility.yul\":380:381   */\n  dup1\n    /* \"#utility.yul\":373:385   */\n  revert\n    /* \"#utility.yul\":520:597   */\ntag_19:\n    /* \"#utility.yul\":557:564   */\n  0x00\n    /* \"#utility.yul\":586:591   */\n  dup2\n    /* \"#utility.yul\":575:591   */\n  swap1\n  pop\n    /* \"#utility.yul\":520:597   */\n  swap2\n  swap1\n  pop\n  jump\t// out\n    /* \"#utility.yul\":603:725   */\ntag_20:\n    /* \"#utility.yul\":676:700   */\n  tag_30\n    /* \"#utility.yul\":694:699   */\n  dup2\n    /* \"#utility.yul\":676:700   */\n  tag_19\n  jump\t// in\ntag_30:\n    /* \"#utility.yul\":669:674   */\n  dup2\n    /* \"#utility.yul\":666:701   */\n  eq\n    /* \"#utility.yul\":656:719   */\n  tag_31\n  jumpi\n    /* \"#utility.yul\":715:716   */\n  0x00\n    /* \"#utility.yul\":712:713   */\n  dup1\n    /* \"#utility.yul\":705:717   */\n  revert\n    /* \"#utility.yul\":656:719   */\ntag_31:\n    /* \"#utility.yul\":603:725   */\n  pop\n  jump\t// out\n    /* \"#utility.yul\":731:874   */\ntag_21:\n    /* \"#utility.yul\":788:793   */\n  0x00\n    /* \"#utility.yul\":819:825   */\n  dup2\n    /* \"#utility.yul\":813:826   */\n  mload\n    /* \"#utility.yul\":804:826   */\n  swap1\n  pop\n    /* \"#utility.yul\":835:868   */\n  tag_33\n    /* \"#utility.yul\":862:867   */\n  dup2\n    /* \"#utility.yul\":835:868   */\n  tag_20\n  jump\t// in\ntag_33:\n    /* \"#utility.yul\":731:874   */\n  swap3\n  swap2\n  pop\n  pop\n  jump\t// out\n    /* \"#utility.yul\":880:1231   */\ntag_6:\n    /* \"#utility.yul\":950:956   */\n  0x00\n    /* \"#utility.yul\":999:1001   */\n  0x20\n    /* \"#utility.yul\":987:996   */\n  dup3\n    /* \"#utility.yul\":978:985   */\n  dup5\n    /* \"#utility.yul\":974:997   */\n  sub\n    /* \"#utility.yul\":970:1002   */\n  slt\n    /* \"#utility.yul\":967:1086   */\n  iszero\n  tag_35\n  jumpi\n    /* \"#utility.yul\":1005:1084   */\n  tag_36\n  tag_17\n  jump\t// in\ntag_36:\n    /* \"#utility.yul\":967:1086   */\ntag_35:\n    /* \"#utility.yul\":1125:1126   */\n  0x00\n    /* \"#utility.yul\":1150:1214   */\n  tag_37\n    /* \"#utility.yul\":1206:1213   */\n  dup5\n    /* \"#utility.yul\":1197:1203   */\n  dup3\n    /* \"#utility.yul\":1186:1195   */\n  dup6\n    /* \"#utility.yul\":1182:1204   */\n  add\n    /* \"#utility.yul\":1150:1214   */\n  tag_21\n  jump\t// in\ntag_37:\n    /* \"#utility.yul\":1140:1214   */\n  swap2\n  pop\n    /* \"#utility.yul\":1096:1224   */\n  pop\n    /* \"#utility.yul\":880:1231   */\n  swap3\n  swap2\n  pop\n  pop\n  jump\t// out\n    /* \"#utility.yul\":1237:1417   */\ntag_22:\n    /* \"#utility.yul\":1285:1362   */\n  0x4e487b7100000000000000000000000000000000000000000000000000000000\n    /* \"#utility.yul\":1282:1283   */\n  0x00\n    /* \"#utility.yul\":1275:1363   */\n  mstore\n    /* \"#utility.yul\":1382:1386   */\n  0x11\n    /* \"#utility.yul\":1379:1380   */\n  0x04\n    /* \"#utility.yul\":1372:1387   */\n  mstore\n    /* \"#utility.yul\":1406:1410   */\n  0x24\n    /* \"#utility.yul\":1403:1404   */\n  0x00\n    /* \"#utility.yul\":1396:1411   */\n  revert\n    /* \"#utility.yul\":1423:1656   */\ntag_14:\n    /* \"#utility.yul\":1462:1465   */\n  0x00\n    /* \"#utility.yul\":1485:1509   */\n  tag_40\n    /* \"#utility.yul\":1503:1508   */\n  dup3\n    /* \"#utility.yul\":1485:1509   */\n  tag_19\n  jump\t// in\ntag_40:\n    /* \"#utility.yul\":1476:1509   */\n  swap2\n  pop\n    /* \"#utility.yul\":1531:1597   */\n  0xffffffffffffffffffffffffffffffffffffffffffffffffffffffffffffffff\n    /* \"#utility.yul\":1524:1529   */\n  dup3\n    /* \"#utility.yul\":1521:1598   */\n  sub\n    /* \"#utility.yul\":1518:1621   */\n  tag_41\n  jumpi\n    /* \"#utility.yul\":1601:1619   */\n  tag_42\n  tag_22\n  jump\t// in\ntag_42:\n    /* \"#utility.yul\":1518:1621   */\ntag_41:\n    /* \"#utility.yul\":1648:1649   */\n  0x01\n    /* \"#utility.yul\":1641:1646   */\n  dup3\n    /* \"#utility.yul\":1637:1650   */\n  add\n    /* \"#utility.yul\":1630:1650   */\n  swap1\n  pop\n    /* \"#utility.yul\":1423:1656   */\n  swap2\n  swap1\n  pop\n  jump\t// out\n    /* \"week11/Ballot.sol\":72:2318  contract Ballot {... */\ntag_15:\n  dataSize(sub_0)\n  dup1\n  dataOffset(sub_0)\n  0x00\n  codecopy\n  0x00\n  return\nstop\n\nsub_0: assembly {\n        /* \"week11/Ballot.sol\":72:2318  contract Ballot {... */\n      mstore(0x40, 0x80)\n      callvalue\n      dup1\n      iszero\n      tag_1\n      jumpi\n      0x00\n      dup1\n      revert\n    tag_1:\n      pop\n      jumpi(tag_2, lt(calldatasize, 0x04))\n      shr(0xe0, calldataload(0x00))\n      dup1\n      0x4420e486\n      gt\n      tag_11\n      jumpi\n      dup1\n      0x4420e486\n      eq\n      tag_7\n      jumpi\n      dup1\n      0x7c939782\n      eq\n      tag_8\n      jumpi\n      dup1\n      0xa3ec138d\n      eq\n      tag_9\n      jumpi\n      dup1\n      0xe20b5171\n      eq\n      tag_10\n      jumpi\n      jump(tag_2)\n    tag_11:\n      dup1\n      0x0121b93f\n      eq\n      tag_3\n      jumpi\n      dup1\n      0x013cf08b\n      eq\n      tag_4\n      jumpi\n      dup1\n      0x055ad42e\n      eq\n      tag_5\n      jumpi\n      dup1\n      0x2e4176cf\n      eq\n      tag_6\n      jumpi\n    tag_2:\n      0x00\n      dup1\n      revert\n        /* \"week11/Ballot.sol\":1721:2020  function vote(uint proposal) public validPhase(Phase.Vote) validVoter {... */\n    tag_3:\n      tag_12\n      0x04\n      dup1\n      calldatasize\n      sub\n      dup2\n      add\n      swap1\n      tag_13\n      swap2\n      swap1\n      tag_14\n      jump\t// in\n    tag_13:\n      tag_15\n      jump\t// in\n    tag_12:\n      stop\n        /* \"week11/Ballot.sol\":329:356  Proposal[] public proposals */\n    tag_4:\n      tag_16\n      0x04\n      dup1\n      calldatasize\n      sub\n      dup2\n      add\n      swap1\n      tag_17\n      swap2\n      swap1\n      tag_14\n      jump\t// in\n    tag_17:\n      tag_18\n      jump\t// in\n    tag_16:\n      mload(0x40)\n      tag_19\n      swap2\n      swap1\n      tag_20\n      jump\t// in\n    tag_19:\n      mload(0x40)\n      dup1\n      swap2\n      sub\n      swap1\n      return\n        /* \"week11/Ballot.sol\":448:486  Phase public currentPhase = Phase.Init */\n    tag_5:\n      tag_21\n      tag_22\n      jump\t// in\n    tag_21:\n      mload(0x40)\n      tag_23\n      swap2\n      swap1\n      tag_24\n      jump\t// in\n    tag_23:\n      mload(0x40)\n      dup1\n      swap2\n      sub\n      swap1\n      return\n        /* \"week11/Ballot.sol\":242:268  address public chairperson */\n    tag_6:\n      tag_25\n      tag_26\n      jump\t// in\n    tag_25:\n      mload(0x40)\n      tag_27\n      swap2\n      swap1\n      tag_28\n      jump\t// in\n    tag_27:\n      mload(0x40)\n      dup1\n      swap2\n      sub\n      swap1\n      return\n        /* \"week11/Ballot.sol\":1502:1713  function register(address voter) public validPhase(Phase.Regs) onlyChair {... */\n    tag_7:\n      tag_29\n      0x04\n      dup1\n      calldatasize\n      sub\n      dup2\n      add\n      swap1\n      tag_30\n      swap2\n      swap1\n      tag_31\n      jump\t// in\n    tag_30:\n      tag_32\n      jump\t// in\n    tag_29:\n      stop\n        /* \"week11/Ballot.sol\":2030:2315  function regWinner() public validPhase(Phase.Done) view returns(uint) {... */\n    tag_8:\n      tag_33\n      tag_34\n      jump\t// in\n    tag_33:\n      mload(0x40)\n      tag_35\n      swap2\n      swap1\n      tag_20\n      jump\t// in\n    tag_35:\n      mload(0x40)\n      dup1\n      swap2\n      sub\n      swap1\n      return\n        /* \"week11/Ballot.sol\":277:316  mapping(address => Voter) public voters */\n    tag_9:\n      tag_36\n      0x04\n      dup1\n      calldatasize\n      sub\n      dup2\n      add\n      swap1\n      tag_37\n      swap2\n      swap1\n      tag_31\n      jump\t// in\n    tag_37:\n      tag_38\n      jump\t// in\n    tag_36:\n      mload(0x40)\n      tag_39\n      swap4\n      swap3\n      swap2\n      swap1\n      tag_40\n      jump\t// in\n    tag_39:\n      mload(0x40)\n      dup1\n      swap2\n      sub\n      swap1\n      return\n        /* \"week11/Ballot.sol\":977:1370  function advancedPhase() public onlyChair{... */\n    tag_10:\n      tag_41\n      tag_42\n      jump\t// in\n    tag_41:\n      stop\n        /* \"week11/Ballot.sol\":1721:2020  function vote(uint proposal) public validPhase(Phase.Vote) validVoter {... */\n    tag_15:\n        /* \"week11/Ballot.sol\":1768:1778  Phase.Vote */\n      0x02\n        /* \"week11/Ballot.sol\":1446:1454  reqPhase */\n      dup1\n        /* \"week11/Ballot.sol\":1432:1454  currentPhase==reqPhase */\n      0x03\n      dup2\n      gt\n      iszero\n      tag_44\n      jumpi\n      tag_45\n      tag_46\n      jump\t// in\n    tag_45:\n    tag_44:\n        /* \"week11/Ballot.sol\":1432:1444  currentPhase */\n      0x03\n      0x00\n      swap1\n      sload\n      swap1\n      0x0100\n      exp\n      swap1\n      div\n      0xff\n      and\n        /* \"week11/Ballot.sol\":1432:1454  currentPhase==reqPhase */\n      0x03\n      dup2\n      gt\n      iszero\n      tag_47\n      jumpi\n      tag_48\n      tag_46\n      jump\t// in\n    tag_48:\n    tag_47:\n      eq\n        /* \"week11/Ballot.sol\":1424:1474  require(currentPhase==reqPhase, \"currenPhase err\") */\n      tag_49\n      jumpi\n      mload(0x40)\n      0x08c379a000000000000000000000000000000000000000000000000000000000\n      dup2\n      mstore\n      0x04\n      add\n      tag_50\n      swap1\n      tag_51\n      jump\t// in\n    tag_50:\n      mload(0x40)\n      dup1\n      swap2\n      sub\n      swap1\n      revert\n    tag_49:\n        /* \"week11/Ballot.sol\":693:694  0 */\n      0x00\n        /* \"week11/Ballot.sol\":665:671  voters */\n      0x01\n        /* \"week11/Ballot.sol\":665:683  voters[msg.sender] */\n      0x00\n        /* \"week11/Ballot.sol\":672:682  msg.sender */\n      caller\n        /* \"week11/Ballot.sol\":665:683  voters[msg.sender] */\n      0xffffffffffffffffffffffffffffffffffffffff\n      and\n      0xffffffffffffffffffffffffffffffffffffffff\n      and\n      dup2\n      mstore\n      0x20\n      add\n      swap1\n      dup2\n      mstore\n      0x20\n      add\n      0x00\n      keccak256\n        /* \"week11/Ballot.sol\":665:690  voters[msg.sender].weight */\n      0x00\n      add\n      sload\n        /* \"week11/Ballot.sol\":665:694  voters[msg.sender].weight > 0 */\n      gt\n        /* \"week11/Ballot.sol\":657:722  require(voters[msg.sender].weight > 0, \"Not a registered voter.\") */\n      tag_53\n      jumpi\n      mload(0x40)\n      0x08c379a000000000000000000000000000000000000000000000000000000000\n      dup2\n      mstore\n      0x04\n      add\n      tag_54\n      swap1\n      tag_55\n      jump\t// in\n    tag_54:\n      mload(0x40)\n      dup1\n      swap2\n      sub\n      swap1\n      revert\n    tag_53:\n        /* \"week11/Ballot.sol\":1813:1819  voters */\n      0x01\n        /* \"week11/Ballot.sol\":1813:1831  voters[msg.sender] */\n      0x00\n        /* \"week11/Ballot.sol\":1820:1830  msg.sender */\n      caller\n        /* \"week11/Ballot.sol\":1813:1831  voters[msg.sender] */\n      0xffffffffffffffffffffffffffffffffffffffff\n      and\n      0xffffffffffffffffffffffffffffffffffffffff\n      and\n      dup2\n      mstore\n      0x20\n      add\n      swap1\n      dup2\n      mstore\n      0x20\n      add\n      0x00\n      keccak256\n        /* \"week11/Ballot.sol\":1813:1837  voters[msg.sender].voted */\n      0x01\n      add\n      0x00\n      swap1\n      sload\n      swap1\n      0x0100\n      exp\n      swap1\n      div\n      0xff\n      and\n        /* \"week11/Ballot.sol\":1812:1837  !voters[msg.sender].voted */\n      iszero\n        /* \"week11/Ballot.sol\":1804:1856  require(!voters[msg.sender].voted, \"Already voted.\") */\n      tag_57\n      jumpi\n      mload(0x40)\n      0x08c379a000000000000000000000000000000000000000000000000000000000\n      dup2\n      mstore\n      0x04\n      add\n      tag_58\n      swap1\n      tag_59\n      jump\t// in\n    tag_58:\n      mload(0x40)\n      dup1\n      swap2\n      sub\n      swap1\n      revert\n    tag_57:\n        /* \"week11/Ballot.sol\":1894:1898  true */\n      0x01\n        /* \"week11/Ballot.sol\":1867:1873  voters */\n      dup1\n        /* \"week11/Ballot.sol\":1867:1885  voters[msg.sender] */\n      0x00\n        /* \"week11/Ballot.sol\":1874:1884  msg.sender */\n      caller\n        /* \"week11/Ballot.sol\":1867:1885  voters[msg.sender] */\n      0xffffffffffffffffffffffffffffffffffffffff\n      and\n      0xffffffffffffffffffffffffffffffffffffffff\n      and\n      dup2\n      mstore\n      0x20\n      add\n      swap1\n      dup2\n      mstore\n      0x20\n      add\n      0x00\n      keccak256\n        /* \"week11/Ballot.sol\":1867:1891  voters[msg.sender].voted */\n      0x01\n      add\n      0x00\n        /* \"week11/Ballot.sol\":1867:1898  voters[msg.sender].voted = true */\n      0x0100\n      exp\n      dup2\n      sload\n      dup2\n      0xff\n      mul\n      not\n      and\n      swap1\n      dup4\n      iszero\n      iszero\n      mul\n      or\n      swap1\n      sstore\n      pop\n        /* \"week11/Ballot.sol\":1935:1943  proposal */\n      dup2\n        /* \"week11/Ballot.sol\":1909:1915  voters */\n      0x01\n        /* \"week11/Ballot.sol\":1909:1927  voters[msg.sender] */\n      0x00\n        /* \"week11/Ballot.sol\":1916:1926  msg.sender */\n      caller\n        /* \"week11/Ballot.sol\":1909:1927  voters[msg.sender] */\n      0xffffffffffffffffffffffffffffffffffffffff\n      and\n      0xffffffffffffffffffffffffffffffffffffffff\n      and\n      dup2\n      mstore\n      0x20\n      add\n      swap1\n      dup2\n      mstore\n      0x20\n      add\n      0x00\n      keccak256\n        /* \"week11/Ballot.sol\":1909:1932  voters[msg.sender].vote */\n      0x02\n      add\n        /* \"week11/Ballot.sol\":1909:1943  voters[msg.sender].vote = proposal */\n      dup2\n      swap1\n      sstore\n      pop\n        /* \"week11/Ballot.sol\":1987:1993  voters */\n      0x01\n        /* \"week11/Ballot.sol\":1987:2005  voters[msg.sender] */\n      0x00\n        /* \"week11/Ballot.sol\":1994:2004  msg.sender */\n      caller\n        /* \"week11/Ballot.sol\":1987:2005  voters[msg.sender] */\n      0xffffffffffffffffffffffffffffffffffffffff\n      and\n      0xffffffffffffffffffffffffffffffffffffffff\n      and\n      dup2\n      mstore\n      0x20\n      add\n      swap1\n      dup2\n      mstore\n      0x20\n      add\n      0x00\n      keccak256\n        /* \"week11/Ballot.sol\":1987:2012  voters[msg.sender].weight */\n      0x00\n      add\n      sload\n        /* \"week11/Ballot.sol\":1954:1963  proposals */\n      0x02\n        /* \"week11/Ballot.sol\":1964:1972  proposal */\n      dup4\n        /* \"week11/Ballot.sol\":1954:1973  proposals[proposal] */\n      dup2\n      sload\n      dup2\n      lt\n      tag_60\n      jumpi\n      tag_61\n      tag_62\n      jump\t// in\n    tag_61:\n    tag_60:\n      swap1\n      0x00\n      mstore\n      keccak256(0x00, 0x20)\n      add\n        /* \"week11/Ballot.sol\":1954:1983  proposals[proposal].voteCount */\n      0x00\n      add\n      0x00\n        /* \"week11/Ballot.sol\":1954:2012  proposals[proposal].voteCount += voters[msg.sender].weight */\n      dup3\n      dup3\n      sload\n      tag_64\n      swap2\n      swap1\n      tag_65\n      jump\t// in\n    tag_64:\n      swap3\n      pop\n      pop\n      dup2\n      swap1\n      sstore\n      pop\n        /* \"week11/Ballot.sol\":1721:2020  function vote(uint proposal) public validPhase(Phase.Vote) validVoter {... */\n      pop\n      pop\n      jump\t// out\n        /* \"week11/Ballot.sol\":329:356  Proposal[] public proposals */\n    tag_18:\n      0x02\n      dup2\n      dup2\n      sload\n      dup2\n      lt\n      tag_66\n      jumpi\n      0x00\n      dup1\n      revert\n    tag_66:\n      swap1\n      0x00\n      mstore\n      keccak256(0x00, 0x20)\n      add\n      0x00\n      swap2\n      pop\n      swap1\n      pop\n      dup1\n      0x00\n      add\n      sload\n      swap1\n      pop\n      dup2\n      jump\t// out\n        /* \"week11/Ballot.sol\":448:486  Phase public currentPhase = Phase.Init */\n    tag_22:\n      0x03\n      0x00\n      swap1\n      sload\n      swap1\n      0x0100\n      exp\n      swap1\n      div\n      0xff\n      and\n      dup2\n      jump\t// out\n        /* \"week11/Ballot.sol\":242:268  address public chairperson */\n    tag_26:\n      0x00\n      dup1\n      sload\n      swap1\n      0x0100\n      exp\n      swap1\n      div\n      0xffffffffffffffffffffffffffffffffffffffff\n      and\n      dup2\n      jump\t// out\n        /* \"week11/Ballot.sol\":1502:1713  function register(address voter) public validPhase(Phase.Regs) onlyChair {... */\n    tag_32:\n        /* \"week11/Ballot.sol\":1553:1563  Phase.Regs */\n      0x01\n        /* \"week11/Ballot.sol\":1446:1454  reqPhase */\n      dup1\n        /* \"week11/Ballot.sol\":1432:1454  currentPhase==reqPhase */\n      0x03\n      dup2\n      gt\n      iszero\n      tag_69\n      jumpi\n      tag_70\n      tag_46\n      jump\t// in\n    tag_70:\n    tag_69:\n        /* \"week11/Ballot.sol\":1432:1444  currentPhase */\n      0x03\n      0x00\n      swap1\n      sload\n      swap1\n      0x0100\n      exp\n      swap1\n      div\n      0xff\n      and\n        /* \"week11/Ballot.sol\":1432:1454  currentPhase==reqPhase */\n      0x03\n      dup2\n      gt\n      iszero\n      tag_71\n      jumpi\n      tag_72\n      tag_46\n      jump\t// in\n    tag_72:\n    tag_71:\n      eq\n        /* \"week11/Ballot.sol\":1424:1474  require(currentPhase==reqPhase, \"currenPhase err\") */\n      tag_73\n      jumpi\n      mload(0x40)\n      0x08c379a000000000000000000000000000000000000000000000000000000000\n      dup2\n      mstore\n      0x04\n      add\n      tag_74\n      swap1\n      tag_51\n      jump\t// in\n    tag_74:\n      mload(0x40)\n      dup1\n      swap2\n      sub\n      swap1\n      revert\n    tag_73:\n        /* \"week11/Ballot.sol\":549:560  chairperson */\n      0x00\n      dup1\n      sload\n      swap1\n      0x0100\n      exp\n      swap1\n      div\n      0xffffffffffffffffffffffffffffffffffffffff\n      and\n        /* \"week11/Ballot.sol\":535:560  msg.sender == chairperson */\n      0xffffffffffffffffffffffffffffffffffffffff\n      and\n        /* \"week11/Ballot.sol\":535:545  msg.sender */\n      caller\n        /* \"week11/Ballot.sol\":535:560  msg.sender == chairperson */\n      0xffffffffffffffffffffffffffffffffffffffff\n      and\n      eq\n        /* \"week11/Ballot.sol\":527:596  require(msg.sender == chairperson, \"Only chairperson can call this.\") */\n      tag_76\n      jumpi\n      mload(0x40)\n      0x08c379a000000000000000000000000000000000000000000000000000000000\n      dup2\n      mstore\n      0x04\n      add\n      tag_77\n      swap1\n      tag_78\n      jump\t// in\n    tag_77:\n      mload(0x40)\n      dup1\n      swap2\n      sub\n      swap1\n      revert\n    tag_76:\n        /* \"week11/Ballot.sol\":1609:1619  msg.sender */\n      caller\n        /* \"week11/Ballot.sol\":1600:1619  voter == msg.sender */\n      0xffffffffffffffffffffffffffffffffffffffff\n      and\n        /* \"week11/Ballot.sol\":1600:1605  voter */\n      dup3\n        /* \"week11/Ballot.sol\":1600:1619  voter == msg.sender */\n      0xffffffffffffffffffffffffffffffffffffffff\n      and\n      sub\n        /* \"week11/Ballot.sol\":1596:1671  if (voter == msg.sender){... */\n      tag_80\n      jumpi\n        /* \"week11/Ballot.sol\":1658:1659  2 */\n      0x02\n        /* \"week11/Ballot.sol\":1635:1641  voters */\n      0x01\n        /* \"week11/Ballot.sol\":1635:1648  voters[voter] */\n      0x00\n        /* \"week11/Ballot.sol\":1642:1647  voter */\n      dup5\n        /* \"week11/Ballot.sol\":1635:1648  voters[voter] */\n      0xffffffffffffffffffffffffffffffffffffffff\n      and\n      0xffffffffffffffffffffffffffffffffffffffff\n      and\n      dup2\n      mstore\n      0x20\n      add\n      swap1\n      dup2\n      mstore\n      0x20\n      add\n      0x00\n      keccak256\n        /* \"week11/Ballot.sol\":1635:1655  voters[voter].weight */\n      0x00\n      add\n        /* \"week11/Ballot.sol\":1635:1659  voters[voter].weight = 2 */\n      dup2\n      swap1\n      sstore\n      pop\n        /* \"week11/Ballot.sol\":1596:1671  if (voter == msg.sender){... */\n    tag_80:\n        /* \"week11/Ballot.sol\":1704:1705  1 */\n      0x01\n        /* \"week11/Ballot.sol\":1681:1687  voters */\n      dup1\n        /* \"week11/Ballot.sol\":1681:1694  voters[voter] */\n      0x00\n        /* \"week11/Ballot.sol\":1688:1693  voter */\n      dup5\n        /* \"week11/Ballot.sol\":1681:1694  voters[voter] */\n      0xffffffffffffffffffffffffffffffffffffffff\n      and\n      0xffffffffffffffffffffffffffffffffffffffff\n      and\n      dup2\n      mstore\n      0x20\n      add\n      swap1\n      dup2\n      mstore\n      0x20\n      add\n      0x00\n      keccak256\n        /* \"week11/Ballot.sol\":1681:1701  voters[voter].weight */\n      0x00\n      add\n        /* \"week11/Ballot.sol\":1681:1705  voters[voter].weight = 1 */\n      dup2\n      swap1\n      sstore\n      pop\n        /* \"week11/Ballot.sol\":1502:1713  function register(address voter) public validPhase(Phase.Regs) onlyChair {... */\n      pop\n      pop\n      jump\t// out\n        /* \"week11/Ballot.sol\":2030:2315  function regWinner() public validPhase(Phase.Done) view returns(uint) {... */\n    tag_34:\n        /* \"week11/Ballot.sol\":2094:2098  uint */\n      0x00\n        /* \"week11/Ballot.sol\":2069:2079  Phase.Done */\n      0x03\n        /* \"week11/Ballot.sol\":1446:1454  reqPhase */\n      dup1\n        /* \"week11/Ballot.sol\":1432:1454  currentPhase==reqPhase */\n      0x03\n      dup2\n      gt\n      iszero\n      tag_82\n      jumpi\n      tag_83\n      tag_46\n      jump\t// in\n    tag_83:\n    tag_82:\n        /* \"week11/Ballot.sol\":1432:1444  currentPhase */\n      0x03\n      0x00\n      swap1\n      sload\n      swap1\n      0x0100\n      exp\n      swap1\n      div\n      0xff\n      and\n        /* \"week11/Ballot.sol\":1432:1454  currentPhase==reqPhase */\n      0x03\n      dup2\n      gt\n      iszero\n      tag_84\n      jumpi\n      tag_85\n      tag_46\n      jump\t// in\n    tag_85:\n    tag_84:\n      eq\n        /* \"week11/Ballot.sol\":1424:1474  require(currentPhase==reqPhase, \"currenPhase err\") */\n      tag_86\n      jumpi\n      mload(0x40)\n      0x08c379a000000000000000000000000000000000000000000000000000000000\n      dup2\n      mstore\n      0x04\n      add\n      tag_87\n      swap1\n      tag_51\n      jump\t// in\n    tag_87:\n      mload(0x40)\n      dup1\n      swap2\n      sub\n      swap1\n      revert\n    tag_86:\n        /* \"week11/Ballot.sol\":2111:2119  uint max */\n      0x00\n        /* \"week11/Ballot.sol\":2134:2140  uint i */\n      dup1\n        /* \"week11/Ballot.sol\":2161:2162  0 */\n      0x00\n        /* \"week11/Ballot.sol\":2159:2162  i=0 */\n      swap1\n      pop\n        /* \"week11/Ballot.sol\":2154:2289  for (i=0; i< proposals.length; i++){... */\n    tag_89:\n        /* \"week11/Ballot.sol\":2167:2176  proposals */\n      0x02\n        /* \"week11/Ballot.sol\":2167:2183  proposals.length */\n      dup1\n      sload\n      swap1\n      pop\n        /* \"week11/Ballot.sol\":2164:2165  i */\n      dup2\n        /* \"week11/Ballot.sol\":2164:2183  i< proposals.length */\n      lt\n        /* \"week11/Ballot.sol\":2154:2289  for (i=0; i< proposals.length; i++){... */\n      iszero\n      tag_90\n      jumpi\n        /* \"week11/Ballot.sol\":2232:2235  max */\n      dup2\n        /* \"week11/Ballot.sol\":2207:2216  proposals */\n      0x02\n        /* \"week11/Ballot.sol\":2217:2218  i */\n      dup3\n        /* \"week11/Ballot.sol\":2207:2219  proposals[i] */\n      dup2\n      sload\n      dup2\n      lt\n      tag_92\n      jumpi\n      tag_93\n      tag_62\n      jump\t// in\n    tag_93:\n    tag_92:\n      swap1\n      0x00\n      mstore\n      keccak256(0x00, 0x20)\n      add\n        /* \"week11/Ballot.sol\":2207:2229  proposals[i].voteCount */\n      0x00\n      add\n      sload\n        /* \"week11/Ballot.sol\":2207:2235  proposals[i].voteCount > max */\n      gt\n        /* \"week11/Ballot.sol\":2204:2278  if(proposals[i].voteCount > max){... */\n      iszero\n      tag_95\n      jumpi\n        /* \"week11/Ballot.sol\":2261:2262  i */\n      dup1\n        /* \"week11/Ballot.sol\":2255:2262  max = i */\n      swap2\n      pop\n        /* \"week11/Ballot.sol\":2204:2278  if(proposals[i].voteCount > max){... */\n    tag_95:\n        /* \"week11/Ballot.sol\":2185:2188  i++ */\n      dup1\n      dup1\n      tag_96\n      swap1\n      tag_97\n      jump\t// in\n    tag_96:\n      swap2\n      pop\n      pop\n        /* \"week11/Ballot.sol\":2154:2289  for (i=0; i< proposals.length; i++){... */\n      jump(tag_89)\n    tag_90:\n        /* \"week11/Ballot.sol\":2306:2307  i */\n      dup1\n        /* \"week11/Ballot.sol\":2299:2307  return i */\n      swap4\n      pop\n      pop\n      pop\n        /* \"week11/Ballot.sol\":2030:2315  function regWinner() public validPhase(Phase.Done) view returns(uint) {... */\n      pop\n      swap1\n      jump\t// out\n        /* \"week11/Ballot.sol\":277:316  mapping(address => Voter) public voters */\n    tag_38:\n      mstore(0x20, 0x01)\n      dup1\n      0x00\n      mstore\n      keccak256(0x00, 0x40)\n      0x00\n      swap2\n      pop\n      swap1\n      pop\n      dup1\n      0x00\n      add\n      sload\n      swap1\n      dup1\n      0x01\n      add\n      0x00\n      swap1\n      sload\n      swap1\n      0x0100\n      exp\n      swap1\n      div\n      0xff\n      and\n      swap1\n      dup1\n      0x02\n      add\n      sload\n      swap1\n      pop\n      dup4\n      jump\t// out\n        /* \"week11/Ballot.sol\":977:1370  function advancedPhase() public onlyChair{... */\n    tag_42:\n        /* \"week11/Ballot.sol\":549:560  chairperson */\n      0x00\n      dup1\n      sload\n      swap1\n      0x0100\n      exp\n      swap1\n      div\n      0xffffffffffffffffffffffffffffffffffffffff\n      and\n        /* \"week11/Ballot.sol\":535:560  msg.sender == chairperson */\n      0xffffffffffffffffffffffffffffffffffffffff\n      and\n        /* \"week11/Ballot.sol\":535:545  msg.sender */\n      caller\n        /* \"week11/Ballot.sol\":535:560  msg.sender == chairperson */\n      0xffffffffffffffffffffffffffffffffffffffff\n      and\n      eq\n        /* \"week11/Ballot.sol\":527:596  require(msg.sender == chairperson, \"Only chairperson can call this.\") */\n      tag_99\n      jumpi\n      mload(0x40)\n      0x08c379a000000000000000000000000000000000000000000000000000000000\n      dup2\n      mstore\n      0x04\n      add\n      tag_100\n      swap1\n      tag_78\n      jump\t// in\n    tag_100:\n      mload(0x40)\n      dup1\n      swap2\n      sub\n      swap1\n      revert\n    tag_99:\n        /* \"week11/Ballot.sol\":1046:1056  Phase.Init */\n      0x00\n        /* \"week11/Ballot.sol\":1032:1056  currentPhase==Phase.Init */\n      0x03\n      dup2\n      gt\n      iszero\n      tag_102\n      jumpi\n      tag_103\n      tag_46\n      jump\t// in\n    tag_103:\n    tag_102:\n        /* \"week11/Ballot.sol\":1032:1044  currentPhase */\n      0x03\n      0x00\n      swap1\n      sload\n      swap1\n      0x0100\n      exp\n      swap1\n      div\n      0xff\n      and\n        /* \"week11/Ballot.sol\":1032:1056  currentPhase==Phase.Init */\n      0x03\n      dup2\n      gt\n      iszero\n      tag_104\n      jumpi\n      tag_105\n      tag_46\n      jump\t// in\n    tag_105:\n    tag_104:\n      sub\n        /* \"week11/Ballot.sol\":1029:1363  if(currentPhase==Phase.Init){... */\n      tag_106\n      jumpi\n        /* \"week11/Ballot.sol\":1085:1095  Phase.Regs */\n      0x01\n        /* \"week11/Ballot.sol\":1072:1084  currentPhase */\n      0x03\n      0x00\n        /* \"week11/Ballot.sol\":1072:1095  currentPhase=Phase.Regs */\n      0x0100\n      exp\n      dup2\n      sload\n      dup2\n      0xff\n      mul\n      not\n      and\n      swap1\n      dup4\n      0x03\n      dup2\n      gt\n      iszero\n      tag_107\n      jumpi\n      tag_108\n      tag_46\n      jump\t// in\n    tag_108:\n    tag_107:\n      mul\n      or\n      swap1\n      sstore\n      pop\n        /* \"week11/Ballot.sol\":1029:1363  if(currentPhase==Phase.Init){... */\n      jump(tag_109)\n    tag_106:\n        /* \"week11/Ballot.sol\":1141:1151  Phase.Regs */\n      0x01\n        /* \"week11/Ballot.sol\":1127:1151  currentPhase==Phase.Regs */\n      0x03\n      dup2\n      gt\n      iszero\n      tag_110\n      jumpi\n      tag_111\n      tag_46\n      jump\t// in\n    tag_111:\n    tag_110:\n        /* \"week11/Ballot.sol\":1127:1139  currentPhase */\n      0x03\n      0x00\n      swap1\n      sload\n      swap1\n      0x0100\n      exp\n      swap1\n      div\n      0xff\n      and\n        /* \"week11/Ballot.sol\":1127:1151  currentPhase==Phase.Regs */\n      0x03\n      dup2\n      gt\n      iszero\n      tag_112\n      jumpi\n      tag_113\n      tag_46\n      jump\t// in\n    tag_113:\n    tag_112:\n      sub\n        /* \"week11/Ballot.sol\":1124:1363  if(currentPhase==Phase.Regs){... */\n      tag_114\n      jumpi\n        /* \"week11/Ballot.sol\":1180:1190  Phase.Vote */\n      0x02\n        /* \"week11/Ballot.sol\":1167:1179  currentPhase */\n      0x03\n      0x00\n        /* \"week11/Ballot.sol\":1167:1190  currentPhase=Phase.Vote */\n      0x0100\n      exp\n      dup2\n      sload\n      dup2\n      0xff\n      mul\n      not\n      and\n      swap1\n      dup4\n      0x03\n      dup2\n      gt\n      iszero\n      tag_115\n      jumpi\n      tag_116\n      tag_46\n      jump\t// in\n    tag_116:\n    tag_115:\n      mul\n      or\n      swap1\n      sstore\n      pop\n        /* \"week11/Ballot.sol\":1124:1363  if(currentPhase==Phase.Regs){... */\n      jump(tag_117)\n    tag_114:\n        /* \"week11/Ballot.sol\":1236:1246  Phase.Vote */\n      0x02\n        /* \"week11/Ballot.sol\":1222:1246  currentPhase==Phase.Vote */\n      0x03\n      dup2\n      gt\n      iszero\n      tag_118\n      jumpi\n      tag_119\n      tag_46\n      jump\t// in\n    tag_119:\n    tag_118:\n        /* \"week11/Ballot.sol\":1222:1234  currentPhase */\n      0x03\n      0x00\n      swap1\n      sload\n      swap1\n      0x0100\n      exp\n      swap1\n      div\n      0xff\n      and\n        /* \"week11/Ballot.sol\":1222:1246  currentPhase==Phase.Vote */\n      0x03\n      dup2\n      gt\n      iszero\n      tag_120\n      jumpi\n      tag_121\n      tag_46\n      jump\t// in\n    tag_121:\n    tag_120:\n      sub\n        /* \"week11/Ballot.sol\":1219:1363  if(currentPhase==Phase.Vote){... */\n      tag_122\n      jumpi\n        /* \"week11/Ballot.sol\":1275:1285  Phase.Done */\n      0x03\n        /* \"week11/Ballot.sol\":1262:1274  currentPhase */\n      dup1\n      0x00\n        /* \"week11/Ballot.sol\":1262:1285  currentPhase=Phase.Done */\n      0x0100\n      exp\n      dup2\n      sload\n      dup2\n      0xff\n      mul\n      not\n      and\n      swap1\n      dup4\n      0x03\n      dup2\n      gt\n      iszero\n      tag_123\n      jumpi\n      tag_124\n      tag_46\n      jump\t// in\n    tag_124:\n    tag_123:\n      mul\n      or\n      swap1\n      sstore\n      pop\n        /* \"week11/Ballot.sol\":1219:1363  if(currentPhase==Phase.Vote){... */\n      jump(tag_125)\n    tag_122:\n        /* \"week11/Ballot.sol\":1341:1351  Phase.Init */\n      0x00\n        /* \"week11/Ballot.sol\":1328:1340  currentPhase */\n      0x03\n      0x00\n        /* \"week11/Ballot.sol\":1328:1351  currentPhase=Phase.Init */\n      0x0100\n      exp\n      dup2\n      sload\n      dup2\n      0xff\n      mul\n      not\n      and\n      swap1\n      dup4\n      0x03\n      dup2\n      gt\n      iszero\n      tag_126\n      jumpi\n      tag_127\n      tag_46\n      jump\t// in\n    tag_127:\n    tag_126:\n      mul\n      or\n      swap1\n      sstore\n      pop\n        /* \"week11/Ballot.sol\":1219:1363  if(currentPhase==Phase.Vote){... */\n    tag_125:\n        /* \"week11/Ballot.sol\":1124:1363  if(currentPhase==Phase.Regs){... */\n    tag_117:\n        /* \"week11/Ballot.sol\":1029:1363  if(currentPhase==Phase.Init){... */\n    tag_109:\n        /* \"week11/Ballot.sol\":977:1370  function advancedPhase() public onlyChair{... */\n      jump\t// out\n        /* \"#utility.yul\":88:205   */\n    tag_129:\n        /* \"#utility.yul\":197:198   */\n      0x00\n        /* \"#utility.yul\":194:195   */\n      dup1\n        /* \"#utility.yul\":187:199   */\n      revert\n        /* \"#utility.yul\":334:411   */\n    tag_131:\n        /* \"#utility.yul\":371:378   */\n      0x00\n        /* \"#utility.yul\":400:405   */\n      dup2\n        /* \"#utility.yul\":389:405   */\n      swap1\n      pop\n        /* \"#utility.yul\":334:411   */\n      swap2\n      swap1\n      pop\n      jump\t// out\n        /* \"#utility.yul\":417:539   */\n    tag_132:\n        /* \"#utility.yul\":490:514   */\n      tag_162\n        /* \"#utility.yul\":508:513   */\n      dup2\n        /* \"#utility.yul\":490:514   */\n      tag_131\n      jump\t// in\n    tag_162:\n        /* \"#utility.yul\":483:488   */\n      dup2\n        /* \"#utility.yul\":480:515   */\n      eq\n        /* \"#utility.yul\":470:533   */\n      tag_163\n      jumpi\n        /* \"#utility.yul\":529:530   */\n      0x00\n        /* \"#utility.yul\":526:527   */\n      dup1\n        /* \"#utility.yul\":519:531   */\n      revert\n        /* \"#utility.yul\":470:533   */\n    tag_163:\n        /* \"#utility.yul\":417:539   */\n      pop\n      jump\t// out\n        /* \"#utility.yul\":545:684   */\n    tag_133:\n        /* \"#utility.yul\":591:596   */\n      0x00\n        /* \"#utility.yul\":629:635   */\n      dup2\n        /* \"#utility.yul\":616:636   */\n      calldataload\n        /* \"#utility.yul\":607:636   */\n      swap1\n      pop\n        /* \"#utility.yul\":645:678   */\n      tag_165\n        /* \"#utility.yul\":672:677   */\n      dup2\n        /* \"#utility.yul\":645:678   */\n      tag_132\n      jump\t// in\n    tag_165:\n        /* \"#utility.yul\":545:684   */\n      swap3\n      swap2\n      pop\n      pop\n      jump\t// out\n        /* \"#utility.yul\":690:1019   */\n    tag_14:\n        /* \"#utility.yul\":749:755   */\n      0x00\n        /* \"#utility.yul\":798:800   */\n      0x20\n        /* \"#utility.yul\":786:795   */\n      dup3\n        /* \"#utility.yul\":777:784   */\n      dup5\n        /* \"#utility.yul\":773:796   */\n      sub\n        /* \"#utility.yul\":769:801   */\n      slt\n        /* \"#utility.yul\":766:885   */\n      iszero\n      tag_167\n      jumpi\n        /* \"#utility.yul\":804:883   */\n      tag_168\n      tag_129\n      jump\t// in\n    tag_168:\n        /* \"#utility.yul\":766:885   */\n    tag_167:\n        /* \"#utility.yul\":924:925   */\n      0x00\n        /* \"#utility.yul\":949:1002   */\n      tag_169\n        /* \"#utility.yul\":994:1001   */\n      dup5\n        /* \"#utility.yul\":985:991   */\n      dup3\n        /* \"#utility.yul\":974:983   */\n      dup6\n        /* \"#utility.yul\":970:992   */\n      add\n        /* \"#utility.yul\":949:1002   */\n      tag_133\n      jump\t// in\n    tag_169:\n        /* \"#utility.yul\":939:1002   */\n      swap2\n      pop\n        /* \"#utility.yul\":895:1012   */\n      pop\n        /* \"#utility.yul\":690:1019   */\n      swap3\n      swap2\n      pop\n      pop\n      jump\t// out\n        /* \"#utility.yul\":1025:1143   */\n    tag_134:\n        /* \"#utility.yul\":1112:1136   */\n      tag_171\n        /* \"#utility.yul\":1130:1135   */\n      dup2\n        /* \"#utility.yul\":1112:1136   */\n      tag_131\n      jump\t// in\n    tag_171:\n        /* \"#utility.yul\":1107:1110   */\n      dup3\n        /* \"#utility.yul\":1100:1137   */\n      mstore\n        /* \"#utility.yul\":1025:1143   */\n      pop\n      pop\n      jump\t// out\n        /* \"#utility.yul\":1149:1371   */\n    tag_20:\n        /* \"#utility.yul\":1242:1246   */\n      0x00\n        /* \"#utility.yul\":1280:1282   */\n      0x20\n        /* \"#utility.yul\":1269:1278   */\n      dup3\n        /* \"#utility.yul\":1265:1283   */\n      add\n        /* \"#utility.yul\":1257:1283   */\n      swap1\n      pop\n        /* \"#utility.yul\":1293:1364   */\n      tag_173\n        /* \"#utility.yul\":1361:1362   */\n      0x00\n        /* \"#utility.yul\":1350:1359   */\n      dup4\n        /* \"#utility.yul\":1346:1363   */\n      add\n        /* \"#utility.yul\":1337:1343   */\n      dup5\n        /* \"#utility.yul\":1293:1364   */\n      tag_134\n      jump\t// in\n    tag_173:\n        /* \"#utility.yul\":1149:1371   */\n      swap3\n      swap2\n      pop\n      pop\n      jump\t// out\n        /* \"#utility.yul\":1377:1557   */\n    tag_46:\n        /* \"#utility.yul\":1425:1502   */\n      0x4e487b7100000000000000000000000000000000000000000000000000000000\n        /* \"#utility.yul\":1422:1423   */\n      0x00\n        /* \"#utility.yul\":1415:1503   */\n      mstore\n        /* \"#utility.yul\":1522:1526   */\n      0x21\n        /* \"#utility.yul\":1519:1520   */\n      0x04\n        /* \"#utility.yul\":1512:1527   */\n      mstore\n        /* \"#utility.yul\":1546:1550   */\n      0x24\n        /* \"#utility.yul\":1543:1544   */\n      0x00\n        /* \"#utility.yul\":1536:1551   */\n      revert\n        /* \"#utility.yul\":1563:1676   */\n    tag_135:\n        /* \"#utility.yul\":1644:1645   */\n      0x04\n        /* \"#utility.yul\":1637:1642   */\n      dup2\n        /* \"#utility.yul\":1634:1646   */\n      lt\n        /* \"#utility.yul\":1624:1670   */\n      tag_176\n      jumpi\n        /* \"#utility.yul\":1650:1668   */\n      tag_177\n      tag_46\n      jump\t// in\n    tag_177:\n        /* \"#utility.yul\":1624:1670   */\n    tag_176:\n        /* \"#utility.yul\":1563:1676   */\n      pop\n      jump\t// out\n        /* \"#utility.yul\":1682:1809   */\n    tag_136:\n        /* \"#utility.yul\":1727:1734   */\n      0x00\n        /* \"#utility.yul\":1756:1761   */\n      dup2\n        /* \"#utility.yul\":1745:1761   */\n      swap1\n      pop\n        /* \"#utility.yul\":1762:1803   */\n      tag_179\n        /* \"#utility.yul\":1797:1802   */\n      dup3\n        /* \"#utility.yul\":1762:1803   */\n      tag_135\n      jump\t// in\n    tag_179:\n        /* \"#utility.yul\":1682:1809   */\n      swap2\n      swap1\n      pop\n      jump\t// out\n        /* \"#utility.yul\":1815:1942   */\n    tag_137:\n        /* \"#utility.yul\":1871:1880   */\n      0x00\n        /* \"#utility.yul\":1904:1936   */\n      tag_181\n        /* \"#utility.yul\":1930:1935   */\n      dup3\n        /* \"#utility.yul\":1904:1936   */\n      tag_136\n      jump\t// in\n    tag_181:\n        /* \"#utility.yul\":1891:1936   */\n      swap1\n      pop\n        /* \"#utility.yul\":1815:1942   */\n      swap2\n      swap1\n      pop\n      jump\t// out\n        /* \"#utility.yul\":1948:2091   */\n    tag_138:\n        /* \"#utility.yul\":2041:2084   */\n      tag_183\n        /* \"#utility.yul\":2078:2083   */\n      dup2\n        /* \"#utility.yul\":2041:2084   */\n      tag_137\n      jump\t// in\n    tag_183:\n        /* \"#utility.yul\":2036:2039   */\n      dup3\n        /* \"#utility.yul\":2029:2085   */\n      mstore\n        /* \"#utility.yul\":1948:2091   */\n      pop\n      pop\n      jump\t// out\n        /* \"#utility.yul\":2097:2331   */\n    tag_24:\n        /* \"#utility.yul\":2196:2200   */\n      0x00\n        /* \"#utility.yul\":2234:2236   */\n      0x20\n        /* \"#utility.yul\":2223:2232   */\n      dup3\n        /* \"#utility.yul\":2219:2237   */\n      add\n        /* \"#utility.yul\":2211:2237   */\n      swap1\n      pop\n        /* \"#utility.yul\":2247:2324   */\n      tag_185\n        /* \"#utility.yul\":2321:2322   */\n      0x00\n        /* \"#utility.yul\":2310:2319   */\n      dup4\n        /* \"#utility.yul\":2306:2323   */\n      add\n        /* \"#utility.yul\":2297:2303   */\n      dup5\n        /* \"#utility.yul\":2247:2324   */\n      tag_138\n      jump\t// in\n    tag_185:\n        /* \"#utility.yul\":2097:2331   */\n      swap3\n      swap2\n      pop\n      pop\n      jump\t// out\n        /* \"#utility.yul\":2337:2463   */\n    tag_139:\n        /* \"#utility.yul\":2374:2381   */\n      0x00\n        /* \"#utility.yul\":2414:2456   */\n      0xffffffffffffffffffffffffffffffffffffffff\n        /* \"#utility.yul\":2407:2412   */\n      dup3\n        /* \"#utility.yul\":2403:2457   */\n      and\n        /* \"#utility.yul\":2392:2457   */\n      swap1\n      pop\n        /* \"#utility.yul\":2337:2463   */\n      swap2\n      swap1\n      pop\n      jump\t// out\n        /* \"#utility.yul\":2469:2565   */\n    tag_140:\n        /* \"#utility.yul\":2506:2513   */\n      0x00\n        /* \"#utility.yul\":2535:2559   */\n      tag_188\n        /* \"#utility.yul\":2553:2558   */\n      dup3\n        /* \"#utility.yul\":2535:2559   */\n      tag_139\n      jump\t// in\n    tag_188:\n        /* \"#utility.yul\":2524:2559   */\n      swap1\n      pop\n        /* \"#utility.yul\":2469:2565   */\n      swap2\n      swap1\n      pop\n      jump\t// out\n        /* \"#utility.yul\":2571:2689   */\n    tag_141:\n        /* \"#utility.yul\":2658:2682   */\n      tag_190\n        /* \"#utility.yul\":2676:2681   */\n      dup2\n        /* \"#utility.yul\":2658:2682   */\n      tag_140\n      jump\t// in\n    tag_190:\n        /* \"#utility.yul\":2653:2656   */\n      dup3\n        /* \"#utility.yul\":2646:2683   */\n      mstore\n        /* \"#utility.yul\":2571:2689   */\n      pop\n      pop\n      jump\t// out\n        /* \"#utility.yul\":2695:2917   */\n    tag_28:\n        /* \"#utility.yul\":2788:2792   */\n      0x00\n        /* \"#utility.yul\":2826:2828   */\n      0x20\n        /* \"#utility.yul\":2815:2824   */\n      dup3\n        /* \"#utility.yul\":2811:2829   */\n      add\n        /* \"#utility.yul\":2803:2829   */\n      swap1\n      pop\n        /* \"#utility.yul\":2839:2910   */\n      tag_192\n        /* \"#utility.yul\":2907:2908   */\n      0x00\n        /* \"#utility.yul\":2896:2905   */\n      dup4\n        /* \"#utility.yul\":2892:2909   */\n      add\n        /* \"#utility.yul\":2883:2889   */\n      dup5\n        /* \"#utility.yul\":2839:2910   */\n      tag_141\n      jump\t// in\n    tag_192:\n        /* \"#utility.yul\":2695:2917   */\n      swap3\n      swap2\n      pop\n      pop\n      jump\t// out\n        /* \"#utility.yul\":2923:3045   */\n    tag_142:\n        /* \"#utility.yul\":2996:3020   */\n      tag_194\n        /* \"#utility.yul\":3014:3019   */\n      dup2\n        /* \"#utility.yul\":2996:3020   */\n      tag_140\n      jump\t// in\n    tag_194:\n        /* \"#utility.yul\":2989:2994   */\n      dup2\n        /* \"#utility.yul\":2986:3021   */\n      eq\n        /* \"#utility.yul\":2976:3039   */\n      tag_195\n      jumpi\n        /* \"#utility.yul\":3035:3036   */\n      0x00\n        /* \"#utility.yul\":3032:3033   */\n      dup1\n        /* \"#utility.yul\":3025:3037   */\n      revert\n        /* \"#utility.yul\":2976:3039   */\n    tag_195:\n        /* \"#utility.yul\":2923:3045   */\n      pop\n      jump\t// out\n        /* \"#utility.yul\":3051:3190   */\n    tag_143:\n        /* \"#utility.yul\":3097:3102   */\n      0x00\n        /* \"#utility.yul\":3135:3141   */\n      dup2\n        /* \"#utility.yul\":3122:3142   */\n      calldataload\n        /* \"#utility.yul\":3113:3142   */\n      swap1\n      pop\n        /* \"#utility.yul\":3151:3184   */\n      tag_197\n        /* \"#utility.yul\":3178:3183   */\n      dup2\n        /* \"#utility.yul\":3151:3184   */\n      tag_142\n      jump\t// in\n    tag_197:\n        /* \"#utility.yul\":3051:3190   */\n      swap3\n      swap2\n      pop\n      pop\n      jump\t// out\n        /* \"#utility.yul\":3196:3525   */\n    tag_31:\n        /* \"#utility.yul\":3255:3261   */\n      0x00\n        /* \"#utility.yul\":3304:3306   */\n      0x20\n        /* \"#utility.yul\":3292:3301   */\n      dup3\n        /* \"#utility.yul\":3283:3290   */\n      dup5\n        /* \"#utility.yul\":3279:3302   */\n      sub\n        /* \"#utility.yul\":3275:3307   */\n      slt\n        /* \"#utility.yul\":3272:3391   */\n      iszero\n      tag_199\n      jumpi\n        /* \"#utility.yul\":3310:3389   */\n      tag_200\n      tag_129\n      jump\t// in\n    tag_200:\n        /* \"#utility.yul\":3272:3391   */\n    tag_199:\n        /* \"#utility.yul\":3430:3431   */\n      0x00\n        /* \"#utility.yul\":3455:3508   */\n      tag_201\n        /* \"#utility.yul\":3500:3507   */\n      dup5\n        /* \"#utility.yul\":3491:3497   */\n      dup3\n        /* \"#utility.yul\":3480:3489   */\n      dup6\n        /* \"#utility.yul\":3476:3498   */\n      add\n        /* \"#utility.yul\":3455:3508   */\n      tag_143\n      jump\t// in\n    tag_201:\n        /* \"#utility.yul\":3445:3508   */\n      swap2\n      pop\n        /* \"#utility.yul\":3401:3518   */\n      pop\n        /* \"#utility.yul\":3196:3525   */\n      swap3\n      swap2\n      pop\n      pop\n      jump\t// out\n        /* \"#utility.yul\":3531:3621   */\n    tag_144:\n        /* \"#utility.yul\":3565:3572   */\n      0x00\n        /* \"#utility.yul\":3608:3613   */\n      dup2\n        /* \"#utility.yul\":3601:3614   */\n      iszero\n        /* \"#utility.yul\":3594:3615   */\n      iszero\n        /* \"#utility.yul\":3583:3615   */\n      swap1\n      pop\n        /* \"#utility.yul\":3531:3621   */\n      swap2\n      swap1\n      pop\n      jump\t// out\n        /* \"#utility.yul\":3627:3736   */\n    tag_145:\n        /* \"#utility.yul\":3708:3729   */\n      tag_204\n        /* \"#utility.yul\":3723:3728   */\n      dup2\n        /* \"#utility.yul\":3708:3729   */\n      tag_144\n      jump\t// in\n    tag_204:\n        /* \"#utility.yul\":3703:3706   */\n      dup3\n        /* \"#utility.yul\":3696:3730   */\n      mstore\n        /* \"#utility.yul\":3627:3736   */\n      pop\n      pop\n      jump\t// out\n        /* \"#utility.yul\":3742:4172   */\n    tag_40:\n        /* \"#utility.yul\":3885:3889   */\n      0x00\n        /* \"#utility.yul\":3923:3925   */\n      0x60\n        /* \"#utility.yul\":3912:3921   */\n      dup3\n        /* \"#utility.yul\":3908:3926   */\n      add\n        /* \"#utility.yul\":3900:3926   */\n      swap1\n      pop\n        /* \"#utility.yul\":3936:4007   */\n      tag_206\n        /* \"#utility.yul\":4004:4005   */\n      0x00\n        /* \"#utility.yul\":3993:4002   */\n      dup4\n        /* \"#utility.yul\":3989:4006   */\n      add\n        /* \"#utility.yul\":3980:3986   */\n      dup7\n        /* \"#utility.yul\":3936:4007   */\n      tag_134\n      jump\t// in\n    tag_206:\n        /* \"#utility.yul\":4017:4083   */\n      tag_207\n        /* \"#utility.yul\":4079:4081   */\n      0x20\n        /* \"#utility.yul\":4068:4077   */\n      dup4\n        /* \"#utility.yul\":4064:4082   */\n      add\n        /* \"#utility.yul\":4055:4061   */\n      dup6\n        /* \"#utility.yul\":4017:4083   */\n      tag_145\n      jump\t// in\n    tag_207:\n        /* \"#utility.yul\":4093:4165   */\n      tag_208\n        /* \"#utility.yul\":4161:4163   */\n      0x40\n        /* \"#utility.yul\":4150:4159   */\n      dup4\n        /* \"#utility.yul\":4146:4164   */\n      add\n        /* \"#utility.yul\":4137:4143   */\n      dup5\n        /* \"#utility.yul\":4093:4165   */\n      tag_134\n      jump\t// in\n    tag_208:\n        /* \"#utility.yul\":3742:4172   */\n      swap5\n      swap4\n      pop\n      pop\n      pop\n      pop\n      jump\t// out\n        /* \"#utility.yul\":4178:4347   */\n    tag_146:\n        /* \"#utility.yul\":4262:4273   */\n      0x00\n        /* \"#utility.yul\":4296:4302   */\n      dup3\n        /* \"#utility.yul\":4291:4294   */\n      dup3\n        /* \"#utility.yul\":4284:4303   */\n      mstore\n        /* \"#utility.yul\":4336:4340   */\n      0x20\n        /* \"#utility.yul\":4331:4334   */\n      dup3\n        /* \"#utility.yul\":4327:4341   */\n      add\n        /* \"#utility.yul\":4312:4341   */\n      swap1\n      pop\n        /* \"#utility.yul\":4178:4347   */\n      swap3\n      swap2\n      pop\n      pop\n      jump\t// out\n        /* \"#utility.yul\":4353:4518   */\n    tag_147:\n        /* \"#utility.yul\":4493:4510   */\n      0x63757272656e5068617365206572720000000000000000000000000000000000\n        /* \"#utility.yul\":4489:4490   */\n      0x00\n        /* \"#utility.yul\":4481:4487   */\n      dup3\n        /* \"#utility.yul\":4477:4491   */\n      add\n        /* \"#utility.yul\":4470:4511   */\n      mstore\n        /* \"#utility.yul\":4353:4518   */\n      pop\n      jump\t// out\n        /* \"#utility.yul\":4524:4890   */\n    tag_148:\n        /* \"#utility.yul\":4666:4669   */\n      0x00\n        /* \"#utility.yul\":4687:4754   */\n      tag_212\n        /* \"#utility.yul\":4751:4753   */\n      0x0f\n        /* \"#utility.yul\":4746:4749   */\n      dup4\n        /* \"#utility.yul\":4687:4754   */\n      tag_146\n      jump\t// in\n    tag_212:\n        /* \"#utility.yul\":4680:4754   */\n      swap2\n      pop\n        /* \"#utility.yul\":4763:4856   */\n      tag_213\n        /* \"#utility.yul\":4852:4855   */\n      dup3\n        /* \"#utility.yul\":4763:4856   */\n      tag_147\n      jump\t// in\n    tag_213:\n        /* \"#utility.yul\":4881:4883   */\n      0x20\n        /* \"#utility.yul\":4876:4879   */\n      dup3\n        /* \"#utility.yul\":4872:4884   */\n      add\n        /* \"#utility.yul\":4865:4884   */\n      swap1\n      pop\n        /* \"#utility.yul\":4524:4890   */\n      swap2\n      swap1\n      pop\n      jump\t// out\n        /* \"#utility.yul\":4896:5315   */\n    tag_51:\n        /* \"#utility.yul\":5062:5066   */\n      0x00\n        /* \"#utility.yul\":5100:5102   */\n      0x20\n        /* \"#utility.yul\":5089:5098   */\n      dup3\n        /* \"#utility.yul\":5085:5103   */\n      add\n        /* \"#utility.yul\":5077:5103   */\n      swap1\n      pop\n        /* \"#utility.yul\":5149:5158   */\n      dup2\n        /* \"#utility.yul\":5143:5147   */\n      dup2\n        /* \"#utility.yul\":5139:5159   */\n      sub\n        /* \"#utility.yul\":5135:5136   */\n      0x00\n        /* \"#utility.yul\":5124:5133   */\n      dup4\n        /* \"#utility.yul\":5120:5137   */\n      add\n        /* \"#utility.yul\":5113:5160   */\n      mstore\n        /* \"#utility.yul\":5177:5308   */\n      tag_215\n        /* \"#utility.yul\":5303:5307   */\n      dup2\n        /* \"#utility.yul\":5177:5308   */\n      tag_148\n      jump\t// in\n    tag_215:\n        /* \"#utility.yul\":5169:5308   */\n      swap1\n      pop\n        /* \"#utility.yul\":4896:5315   */\n      swap2\n      swap1\n      pop\n      jump\t// out\n        /* \"#utility.yul\":5321:5494   */\n    tag_149:\n        /* \"#utility.yul\":5461:5486   */\n      0x4e6f742061207265676973746572656420766f7465722e000000000000000000\n        /* \"#utility.yul\":5457:5458   */\n      0x00\n        /* \"#utility.yul\":5449:5455   */\n      dup3\n        /* \"#utility.yul\":5445:5459   */\n      add\n        /* \"#utility.yul\":5438:5487   */\n      mstore\n        /* \"#utility.yul\":5321:5494   */\n      pop\n      jump\t// out\n        /* \"#utility.yul\":5500:5866   */\n    tag_150:\n        /* \"#utility.yul\":5642:5645   */\n      0x00\n        /* \"#utility.yul\":5663:5730   */\n      tag_218\n        /* \"#utility.yul\":5727:5729   */\n      0x17\n        /* \"#utility.yul\":5722:5725   */\n      dup4\n        /* \"#utility.yul\":5663:5730   */\n      tag_146\n      jump\t// in\n    tag_218:\n        /* \"#utility.yul\":5656:5730   */\n      swap2\n      pop\n        /* \"#utility.yul\":5739:5832   */\n      tag_219\n        /* \"#utility.yul\":5828:5831   */\n      dup3\n        /* \"#utility.yul\":5739:5832   */\n      tag_149\n      jump\t// in\n    tag_219:\n        /* \"#utility.yul\":5857:5859   */\n      0x20\n        /* \"#utility.yul\":5852:5855   */\n      dup3\n        /* \"#utility.yul\":5848:5860   */\n      add\n        /* \"#utility.yul\":5841:5860   */\n      swap1\n      pop\n        /* \"#utility.yul\":5500:5866   */\n      swap2\n      swap1\n      pop\n      jump\t// out\n        /* \"#utility.yul\":5872:6291   */\n    tag_55:\n        /* \"#utility.yul\":6038:6042   */\n      0x00\n        /* \"#utility.yul\":6076:6078   */\n      0x20\n        /* \"#utility.yul\":6065:6074   */\n      dup3\n        /* \"#utility.yul\":6061:6079   */\n      add\n        /* \"#utility.yul\":6053:6079   */\n      swap1\n      pop\n        /* \"#utility.yul\":6125:6134   */\n      dup2\n        /* \"#utility.yul\":6119:6123   */\n      dup2\n        /* \"#utility.yul\":6115:6135   */\n      sub\n        /* \"#utility.yul\":6111:6112   */\n      0x00\n        /* \"#utility.yul\":6100:6109   */\n      dup4\n        /* \"#utility.yul\":6096:6113   */\n      add\n        /* \"#utility.yul\":6089:6136   */\n      mstore\n        /* \"#utility.yul\":6153:6284   */\n      tag_221\n        /* \"#utility.yul\":6279:6283   */\n      dup2\n        /* \"#utility.yul\":6153:6284   */\n      tag_150\n      jump\t// in\n    tag_221:\n        /* \"#utility.yul\":6145:6284   */\n      swap1\n      pop\n        /* \"#utility.yul\":5872:6291   */\n      swap2\n      swap1\n      pop\n      jump\t// out\n        /* \"#utility.yul\":6297:6461   */\n    tag_151:\n        /* \"#utility.yul\":6437:6453   */\n      0x416c726561647920766f7465642e000000000000000000000000000000000000\n        /* \"#utility.yul\":6433:6434   */\n      0x00\n        /* \"#utility.yul\":6425:6431   */\n      dup3\n        /* \"#utility.yul\":6421:6435   */\n      add\n        /* \"#utility.yul\":6414:6454   */\n      mstore\n        /* \"#utility.yul\":6297:6461   */\n      pop\n      jump\t// out\n        /* \"#utility.yul\":6467:6833   */\n    tag_152:\n        /* \"#utility.yul\":6609:6612   */\n      0x00\n        /* \"#utility.yul\":6630:6697   */\n      tag_224\n        /* \"#utility.yul\":6694:6696   */\n      0x0e\n        /* \"#utility.yul\":6689:6692   */\n      dup4\n        /* \"#utility.yul\":6630:6697   */\n      tag_146\n      jump\t// in\n    tag_224:\n        /* \"#utility.yul\":6623:6697   */\n      swap2\n      pop\n        /* \"#utility.yul\":6706:6799   */\n      tag_225\n        /* \"#utility.yul\":6795:6798   */\n      dup3\n        /* \"#utility.yul\":6706:6799   */\n      tag_151\n      jump\t// in\n    tag_225:\n        /* \"#utility.yul\":6824:6826   */\n      0x20\n        /* \"#utility.yul\":6819:6822   */\n      dup3\n        /* \"#utility.yul\":6815:6827   */\n      add\n        /* \"#utility.yul\":6808:6827   */\n      swap1\n      pop\n        /* \"#utility.yul\":6467:6833   */\n      swap2\n      swap1\n      pop\n      jump\t// out\n        /* \"#utility.yul\":6839:7258   */\n    tag_59:\n        /* \"#utility.yul\":7005:7009   */\n      0x00\n        /* \"#utility.yul\":7043:7045   */\n      0x20\n        /* \"#utility.yul\":7032:7041   */\n      dup3\n        /* \"#utility.yul\":7028:7046   */\n      add\n        /* \"#utility.yul\":7020:7046   */\n      swap1\n      pop\n        /* \"#utility.yul\":7092:7101   */\n      dup2\n        /* \"#utility.yul\":7086:7090   */\n      dup2\n        /* \"#utility.yul\":7082:7102   */\n      sub\n        /* \"#utility.yul\":7078:7079   */\n      0x00\n        /* \"#utility.yul\":7067:7076   */\n      dup4\n        /* \"#utility.yul\":7063:7080   */\n      add\n        /* \"#utility.yul\":7056:7103   */\n      mstore\n        /* \"#utility.yul\":7120:7251   */\n      tag_227\n        /* \"#utility.yul\":7246:7250   */\n      dup2\n        /* \"#utility.yul\":7120:7251   */\n      tag_152\n      jump\t// in\n    tag_227:\n        /* \"#utility.yul\":7112:7251   */\n      swap1\n      pop\n        /* \"#utility.yul\":6839:7258   */\n      swap2\n      swap1\n      pop\n      jump\t// out\n        /* \"#utility.yul\":7264:7444   */\n    tag_62:\n        /* \"#utility.yul\":7312:7389   */\n      0x4e487b7100000000000000000000000000000000000000000000000000000000\n        /* \"#utility.yul\":7309:7310   */\n      0x00\n        /* \"#utility.yul\":7302:7390   */\n      mstore\n        /* \"#utility.yul\":7409:7413   */\n      0x32\n        /* \"#utility.yul\":7406:7407   */\n      0x04\n        /* \"#utility.yul\":7399:7414   */\n      mstore\n        /* \"#utility.yul\":7433:7437   */\n      0x24\n        /* \"#utility.yul\":7430:7431   */\n      0x00\n        /* \"#utility.yul\":7423:7438   */\n      revert\n        /* \"#utility.yul\":7450:7630   */\n    tag_153:\n        /* \"#utility.yul\":7498:7575   */\n      0x4e487b7100000000000000000000000000000000000000000000000000000000\n        /* \"#utility.yul\":7495:7496   */\n      0x00\n        /* \"#utility.yul\":7488:7576   */\n      mstore\n        /* \"#utility.yul\":7595:7599   */\n      0x11\n        /* \"#utility.yul\":7592:7593   */\n      0x04\n        /* \"#utility.yul\":7585:7600   */\n      mstore\n        /* \"#utility.yul\":7619:7623   */\n      0x24\n        /* \"#utility.yul\":7616:7617   */\n      0x00\n        /* \"#utility.yul\":7609:7624   */\n      revert\n        /* \"#utility.yul\":7636:7827   */\n    tag_65:\n        /* \"#utility.yul\":7676:7679   */\n      0x00\n        /* \"#utility.yul\":7695:7715   */\n      tag_231\n        /* \"#utility.yul\":7713:7714   */\n      dup3\n        /* \"#utility.yul\":7695:7715   */\n      tag_131\n      jump\t// in\n    tag_231:\n        /* \"#utility.yul\":7690:7715   */\n      swap2\n      pop\n        /* \"#utility.yul\":7729:7749   */\n      tag_232\n        /* \"#utility.yul\":7747:7748   */\n      dup4\n        /* \"#utility.yul\":7729:7749   */\n      tag_131\n      jump\t// in\n    tag_232:\n        /* \"#utility.yul\":7724:7749   */\n      swap3\n      pop\n        /* \"#utility.yul\":7772:7773   */\n      dup3\n        /* \"#utility.yul\":7769:7770   */\n      dup3\n        /* \"#utility.yul\":7765:7774   */\n      add\n        /* \"#utility.yul\":7758:7774   */\n      swap1\n      pop\n        /* \"#utility.yul\":7793:7796   */\n      dup1\n        /* \"#utility.yul\":7790:7791   */\n      dup3\n        /* \"#utility.yul\":7787:7797   */\n      gt\n        /* \"#utility.yul\":7784:7820   */\n      iszero\n      tag_233\n      jumpi\n        /* \"#utility.yul\":7800:7818   */\n      tag_234\n      tag_153\n      jump\t// in\n    tag_234:\n        /* \"#utility.yul\":7784:7820   */\n    tag_233:\n        /* \"#utility.yul\":7636:7827   */\n      swap3\n      swap2\n      pop\n      pop\n      jump\t// out\n        /* \"#utility.yul\":7833:8014   */\n    tag_154:\n        /* \"#utility.yul\":7973:8006   */\n      0x4f6e6c79206368616972706572736f6e2063616e2063616c6c20746869732e00\n        /* \"#utility.yul\":7969:7970   */\n      0x00\n        /* \"#utility.yul\":7961:7967   */\n      dup3\n        /* \"#utility.yul\":7957:7971   */\n      add\n        /* \"#utility.yul\":7950:8007   */\n      mstore\n        /* \"#utility.yul\":7833:8014   */\n      pop\n      jump\t// out\n        /* \"#utility.yul\":8020:8386   */\n    tag_155:\n        /* \"#utility.yul\":8162:8165   */\n      0x00\n        /* \"#utility.yul\":8183:8250   */\n      tag_237\n        /* \"#utility.yul\":8247:8249   */\n      0x1f\n        /* \"#utility.yul\":8242:8245   */\n      dup4\n        /* \"#utility.yul\":8183:8250   */\n      tag_146\n      jump\t// in\n    tag_237:\n        /* \"#utility.yul\":8176:8250   */\n      swap2\n      pop\n        /* \"#utility.yul\":8259:8352   */\n      tag_238\n        /* \"#utility.yul\":8348:8351   */\n      dup3\n        /* \"#utility.yul\":8259:8352   */\n      tag_154\n      jump\t// in\n    tag_238:\n        /* \"#utility.yul\":8377:8379   */\n      0x20\n        /* \"#utility.yul\":8372:8375   */\n      dup3\n        /* \"#utility.yul\":8368:8380   */\n      add\n        /* \"#utility.yul\":8361:8380   */\n      swap1\n      pop\n        /* \"#utility.yul\":8020:8386   */\n      swap2\n      swap1\n      pop\n      jump\t// out\n        /* \"#utility.yul\":8392:8811   */\n    tag_78:\n        /* \"#utility.yul\":8558:8562   */\n      0x00\n        /* \"#utility.yul\":8596:8598   */\n      0x20\n        /* \"#utility.yul\":8585:8594   */\n      dup3\n        /* \"#utility.yul\":8581:8599   */\n      add\n        /* \"#utility.yul\":8573:8599   */\n      swap1\n      pop\n        /* \"#utility.yul\":8645:8654   */\n      dup2\n        /* \"#utility.yul\":8639:8643   */\n      dup2\n        /* \"#utility.yul\":8635:8655   */\n      sub\n        /* \"#utility.yul\":8631:8632   */\n      0x00\n        /* \"#utility.yul\":8620:8629   */\n      dup4\n        /* \"#utility.yul\":8616:8633   */\n      add\n        /* \"#utility.yul\":8609:8656   */\n      mstore\n        /* \"#utility.yul\":8673:8804   */\n      tag_240\n        /* \"#utility.yul\":8799:8803   */\n      dup2\n        /* \"#utility.yul\":8673:8804   */\n      tag_155\n      jump\t// in\n    tag_240:\n        /* \"#utility.yul\":8665:8804   */\n      swap1\n      pop\n        /* \"#utility.yul\":8392:8811   */\n      swap2\n      swap1\n      pop\n      jump\t// out\n        /* \"#utility.yul\":8817:9050   */\n    tag_97:\n        /* \"#utility.yul\":8856:8859   */\n      0x00\n        /* \"#utility.yul\":8879:8903   */\n      tag_242\n        /* \"#utility.yul\":8897:8902   */\n      dup3\n        /* \"#utility.yul\":8879:8903   */\n      tag_131\n      jump\t// in\n    tag_242:\n        /* \"#utility.yul\":8870:8903   */\n      swap2\n      pop\n        /* \"#utility.yul\":8925:8991   */\n      0xffffffffffffffffffffffffffffffffffffffffffffffffffffffffffffffff\n        /* \"#utility.yul\":8918:8923   */\n      dup3\n        /* \"#utility.yul\":8915:8992   */\n      sub\n        /* \"#utility.yul\":8912:9015   */\n      tag_243\n      jumpi\n        /* \"#utility.yul\":8995:9013   */\n      tag_244\n      tag_153\n      jump\t// in\n    tag_244:\n        /* \"#utility.yul\":8912:9015   */\n    tag_243:\n        /* \"#utility.yul\":9042:9043   */\n      0x01\n        /* \"#utility.yul\":9035:9040   */\n      dup3\n        /* \"#utility.yul\":9031:9044   */\n      add\n        /* \"#utility.yul\":9024:9044   */\n      swap1\n      pop\n        /* \"#utility.yul\":8817:9050   */\n      swap2\n      swap1\n      pop\n      jump\t// out\n\n    auxdata: 0xa26469706673582212202a2b3b8aa2ec3c5a1221c92db3af170347f082bb42e63ed4d5c1b110896d6c3f64736f6c63430008120033\n}\n",
				"bytecode": {
					"linkReferences": {},
					"object": "60806040526000600360006101000a81548160ff021916908360038111156200002d576200002c6200017a565b5b02179055503480156200003f57600080fd5b5060405162001112380380620011128339818101604052810190620000659190620001e9565b336000806101000a81548173ffffffffffffffffffffffffffffffffffffffff021916908373ffffffffffffffffffffffffffffffffffffffff16021790555060018060008060009054906101000a900473ffffffffffffffffffffffffffffffffffffffff1673ffffffffffffffffffffffffffffffffffffffff1673ffffffffffffffffffffffffffffffffffffffff1681526020019081526020016000206000018190555060005b81811015620001725760026040518060200160405280600081525090806001815401808255809150506001900390600052602060002001600090919091909150600082015181600001555050808062000169906200024a565b91505062000110565b505062000297565b7f4e487b7100000000000000000000000000000000000000000000000000000000600052602160045260246000fd5b600080fd5b6000819050919050565b620001c381620001ae565b8114620001cf57600080fd5b50565b600081519050620001e381620001b8565b92915050565b600060208284031215620002025762000201620001a9565b5b60006200021284828501620001d2565b91505092915050565b7f4e487b7100000000000000000000000000000000000000000000000000000000600052601160045260246000fd5b60006200025782620001ae565b91507fffffffffffffffffffffffffffffffffffffffffffffffffffffffffffffffff82036200028c576200028b6200021b565b5b600182019050919050565b610e6b80620002a76000396000f3fe608060405234801561001057600080fd5b50600436106100885760003560e01c80634420e4861161005b5780634420e486146101155780637c93978214610131578063a3ec138d1461014f578063e20b51711461018157610088565b80630121b93f1461008d578063013cf08b146100a9578063055ad42e146100d95780632e4176cf146100f7575b600080fd5b6100a760048036038101906100a291906109aa565b61018b565b005b6100c360048036038101906100be91906109aa565b610436565b6040516100d091906109e6565b60405180910390f35b6100e1610460565b6040516100ee9190610a78565b60405180910390f35b6100ff610473565b60405161010c9190610ad4565b60405180910390f35b61012f600480360381019061012a9190610b1b565b610497565b005b610139610663565b60405161014691906109e6565b60405180910390f35b61016960048036038101906101649190610b1b565b61073a565b60405161017893929190610b63565b60405180910390f35b610189610771565b005b60028060038111156101a05761019f610a01565b5b600360009054906101000a900460ff1660038111156101c2576101c1610a01565b5b14610202576040517f08c379a00000000000000000000000000000000000000000000000000000000081526004016101f990610bf7565b60405180910390fd5b6000600160003373ffffffffffffffffffffffffffffffffffffffff1673ffffffffffffffffffffffffffffffffffffffff1681526020019081526020016000206000015411610287576040517f08c379a000000000000000000000000000000000000000000000000000000000815260040161027e90610c63565b60405180910390fd5b600160003373ffffffffffffffffffffffffffffffffffffffff1673ffffffffffffffffffffffffffffffffffffffff16815260200190815260200160002060010160009054906101000a900460ff1615610317576040517f08c379a000000000000000000000000000000000000000000000000000000000815260040161030e90610ccf565b60405180910390fd5b60018060003373ffffffffffffffffffffffffffffffffffffffff1673ffffffffffffffffffffffffffffffffffffffff16815260200190815260200160002060010160006101000a81548160ff02191690831515021790555081600160003373ffffffffffffffffffffffffffffffffffffffff1673ffffffffffffffffffffffffffffffffffffffff16815260200190815260200160002060020181905550600160003373ffffffffffffffffffffffffffffffffffffffff1673ffffffffffffffffffffffffffffffffffffffff168152602001908152602001600020600001546002838154811061040f5761040e610cef565b5b90600052602060002001600001600082825461042b9190610d4d565b925050819055505050565b6002818154811061044657600080fd5b906000526020600020016000915090508060000154905081565b600360009054906101000a900460ff1681565b60008054906101000a900473ffffffffffffffffffffffffffffffffffffffff1681565b60018060038111156104ac576104ab610a01565b5b600360009054906101000a900460ff1660038111156104ce576104cd610a01565b5b1461050e576040517f08c379a000000000000000000000000000000000000000000000000000000000815260040161050590610bf7565b60405180910390fd5b60008054906101000a900473ffffffffffffffffffffffffffffffffffffffff1673ffffffffffffffffffffffffffffffffffffffff163373ffffffffffffffffffffffffffffffffffffffff161461059c576040517f08c379a000000000000000000000000000000000000000000000000000000000815260040161059390610dcd565b60405180910390fd5b3373ffffffffffffffffffffffffffffffffffffffff168273ffffffffffffffffffffffffffffffffffffffff1603610618576002600160008473ffffffffffffffffffffffffffffffffffffffff1673ffffffffffffffffffffffffffffffffffffffff168152602001908152602001600020600001819055505b60018060008473ffffffffffffffffffffffffffffffffffffffff1673ffffffffffffffffffffffffffffffffffffffff168152602001908152602001600020600001819055505050565b6000600380600381111561067a57610679610a01565b5b600360009054906101000a900460ff16600381111561069c5761069b610a01565b5b146106dc576040517f08c379a00000000000000000000000000000000000000000000000000000000081526004016106d390610bf7565b60405180910390fd5b600080600090505b60028054905081101561073157816002828154811061070657610705610cef565b5b9060005260206000200160000154111561071e578091505b808061072990610ded565b9150506106e4565b80935050505090565b60016020528060005260406000206000915090508060000154908060010160009054906101000a900460ff16908060020154905083565b60008054906101000a900473ffffffffffffffffffffffffffffffffffffffff1673ffffffffffffffffffffffffffffffffffffffff163373ffffffffffffffffffffffffffffffffffffffff16146107ff576040517f08c379a00000000000000000000000000000000000000000000000000000000081526004016107f690610dcd565b60405180910390fd5b6000600381111561081357610812610a01565b5b600360009054906101000a900460ff16600381111561083557610834610a01565b5b0361086a576001600360006101000a81548160ff021916908360038111156108605761085f610a01565b5b021790555061096d565b6001600381111561087e5761087d610a01565b5b600360009054906101000a900460ff1660038111156108a05761089f610a01565b5b036108d5576002600360006101000a81548160ff021916908360038111156108cb576108ca610a01565b5b021790555061096c565b600260038111156108e9576108e8610a01565b5b600360009054906101000a900460ff16600381111561090b5761090a610a01565b5b0361093f5760038060006101000a81548160ff0219169083600381111561093557610934610a01565b5b021790555061096b565b6000600360006101000a81548160ff0219169083600381111561096557610964610a01565b5b02179055505b5b5b565b600080fd5b6000819050919050565b61098781610974565b811461099257600080fd5b50565b6000813590506109a48161097e565b92915050565b6000602082840312156109c0576109bf61096f565b5b60006109ce84828501610995565b91505092915050565b6109e081610974565b82525050565b60006020820190506109fb60008301846109d7565b92915050565b7f4e487b7100000000000000000000000000000000000000000000000000000000600052602160045260246000fd5b60048110610a4157610a40610a01565b5b50565b6000819050610a5282610a30565b919050565b6000610a6282610a44565b9050919050565b610a7281610a57565b82525050565b6000602082019050610a8d6000830184610a69565b92915050565b600073ffffffffffffffffffffffffffffffffffffffff82169050919050565b6000610abe82610a93565b9050919050565b610ace81610ab3565b82525050565b6000602082019050610ae96000830184610ac5565b92915050565b610af881610ab3565b8114610b0357600080fd5b50565b600081359050610b1581610aef565b92915050565b600060208284031215610b3157610b3061096f565b5b6000610b3f84828501610b06565b91505092915050565b60008115159050919050565b610b5d81610b48565b82525050565b6000606082019050610b7860008301866109d7565b610b856020830185610b54565b610b9260408301846109d7565b949350505050565b600082825260208201905092915050565b7f63757272656e5068617365206572720000000000000000000000000000000000600082015250565b6000610be1600f83610b9a565b9150610bec82610bab565b602082019050919050565b60006020820190508181036000830152610c1081610bd4565b9050919050565b7f4e6f742061207265676973746572656420766f7465722e000000000000000000600082015250565b6000610c4d601783610b9a565b9150610c5882610c17565b602082019050919050565b60006020820190508181036000830152610c7c81610c40565b9050919050565b7f416c726561647920766f7465642e000000000000000000000000000000000000600082015250565b6000610cb9600e83610b9a565b9150610cc482610c83565b602082019050919050565b60006020820190508181036000830152610ce881610cac565b9050919050565b7f4e487b7100000000000000000000000000000000000000000000000000000000600052603260045260246000fd5b7f4e487b7100000000000000000000000000000000000000000000000000000000600052601160045260246000fd5b6000610d5882610974565b9150610d6383610974565b9250828201905080821115610d7b57610d7a610d1e565b5b92915050565b7f4f6e6c79206368616972706572736f6e2063616e2063616c6c20746869732e00600082015250565b6000610db7601f83610b9a565b9150610dc282610d81565b602082019050919050565b60006020820190508181036000830152610de681610daa565b9050919050565b6000610df882610974565b91507fffffffffffffffffffffffffffffffffffffffffffffffffffffffffffffffff8203610e2a57610e29610d1e565b5b60018201905091905056fea26469706673582212202a2b3b8aa2ec3c5a1221c92db3af170347f082bb42e63ed4d5c1b110896d6c3f64736f6c63430008120033",
					"opcodes": "PUSH1 0x80 PUSH1 0x40 MSTORE PUSH1 0x0 PUSH1 0x3 PUSH1 0x0 PUSH2 0x100 EXP DUP2 SLOAD DUP2 PUSH1 0xFF MUL NOT AND SWAP1 DUP4 PUSH1 0x3 DUP2 GT ISZERO PUSH3 0x2D JUMPI PUSH3 0x2C PUSH3 0x17A JUMP JUMPDEST JUMPDEST MUL OR SWAP1 SSTORE POP CALLVALUE DUP1 ISZERO PUSH3 0x3F JUMPI PUSH1 0x0 DUP1 REVERT JUMPDEST POP PUSH1 0x40 MLOAD PUSH3 0x1112 CODESIZE SUB DUP1 PUSH3 0x1112 DUP4 CODECOPY DUP2 DUP2 ADD PUSH1 0x40 MSTORE DUP2 ADD SWAP1 PUSH3 0x65 SWAP2 SWAP1 PUSH3 0x1E9 JUMP JUMPDEST CALLER PUSH1 0x0 DUP1 PUSH2 0x100 EXP DUP2 SLOAD DUP2 PUSH20 0xFFFFFFFFFFFFFFFFFFFFFFFFFFFFFFFFFFFFFFFF MUL NOT AND SWAP1 DUP4 PUSH20 0xFFFFFFFFFFFFFFFFFFFFFFFFFFFFFFFFFFFFFFFF AND MUL OR SWAP1 SSTORE POP PUSH1 0x1 DUP1 PUSH1 0x0 DUP1 PUSH1 0x0 SWAP1 SLOAD SWAP1 PUSH2 0x100 EXP SWAP1 DIV PUSH20 0xFFFFFFFFFFFFFFFFFFFFFFFFFFFFFFFFFFFFFFFF AND PUSH20 0xFFFFFFFFFFFFFFFFFFFFFFFFFFFFFFFFFFFFFFFF AND PUSH20 0xFFFFFFFFFFFFFFFFFFFFFFFFFFFFFFFFFFFFFFFF AND DUP2 MSTORE PUSH1 0x20 ADD SWAP1 DUP2 MSTORE PUSH1 0x20 ADD PUSH1 0x0 KECCAK256 PUSH1 0x0 ADD DUP2 SWAP1 SSTORE POP PUSH1 0x0 JUMPDEST DUP2 DUP2 LT ISZERO PUSH3 0x172 JUMPI PUSH1 0x2 PUSH1 0x40 MLOAD DUP1 PUSH1 0x20 ADD PUSH1 0x40 MSTORE DUP1 PUSH1 0x0 DUP2 MSTORE POP SWAP1 DUP1 PUSH1 0x1 DUP2 SLOAD ADD DUP1 DUP3 SSTORE DUP1 SWAP2 POP POP PUSH1 0x1 SWAP1 SUB SWAP1 PUSH1 0x0 MSTORE PUSH1 0x20 PUSH1 0x0 KECCAK256 ADD PUSH1 0x0 SWAP1 SWAP2 SWAP1 SWAP2 SWAP1 SWAP2 POP PUSH1 0x0 DUP3 ADD MLOAD DUP2 PUSH1 0x0 ADD SSTORE POP POP DUP1 DUP1 PUSH3 0x169 SWAP1 PUSH3 0x24A JUMP JUMPDEST SWAP2 POP POP PUSH3 0x110 JUMP JUMPDEST POP POP PUSH3 0x297 JUMP JUMPDEST PUSH32 0x4E487B7100000000000000000000000000000000000000000000000000000000 PUSH1 0x0 MSTORE PUSH1 0x21 PUSH1 0x4 MSTORE PUSH1 0x24 PUSH1 0x0 REVERT JUMPDEST PUSH1 0x0 DUP1 REVERT JUMPDEST PUSH1 0x0 DUP2 SWAP1 POP SWAP2 SWAP1 POP JUMP JUMPDEST PUSH3 0x1C3 DUP2 PUSH3 0x1AE JUMP JUMPDEST DUP2 EQ PUSH3 0x1CF JUMPI PUSH1 0x0 DUP1 REVERT JUMPDEST POP JUMP JUMPDEST PUSH1 0x0 DUP2 MLOAD SWAP1 POP PUSH3 0x1E3 DUP2 PUSH3 0x1B8 JUMP JUMPDEST SWAP3 SWAP2 POP POP JUMP JUMPDEST PUSH1 0x0 PUSH1 0x20 DUP3 DUP5 SUB SLT ISZERO PUSH3 0x202 JUMPI PUSH3 0x201 PUSH3 0x1A9 JUMP JUMPDEST JUMPDEST PUSH1 0x0 PUSH3 0x212 DUP5 DUP3 DUP6 ADD PUSH3 0x1D2 JUMP JUMPDEST SWAP2 POP POP SWAP3 SWAP2 POP POP JUMP JUMPDEST PUSH32 0x4E487B7100000000000000000000000000000000000000000000000000000000 PUSH1 0x0 MSTORE PUSH1 0x11 PUSH1 0x4 MSTORE PUSH1 0x24 PUSH1 0x0 REVERT JUMPDEST PUSH1 0x0 PUSH3 0x257 DUP3 PUSH3 0x1AE JUMP JUMPDEST SWAP2 POP PUSH32 0xFFFFFFFFFFFFFFFFFFFFFFFFFFFFFFFFFFFFFFFFFFFFFFFFFFFFFFFFFFFFFFFF DUP3 SUB PUSH3 0x28C JUMPI PUSH3 0x28B PUSH3 0x21B JUMP JUMPDEST JUMPDEST PUSH1 0x1 DUP3 ADD SWAP1 POP SWAP2 SWAP1 POP JUMP JUMPDEST PUSH2 0xE6B DUP1 PUSH3 0x2A7 PUSH1 0x0 CODECOPY PUSH1 0x0 RETURN INVALID PUSH1 0x80 PUSH1 0x40 MSTORE CALLVALUE DUP1 ISZERO PUSH2 0x10 JUMPI PUSH1 0x0 DUP1 REVERT JUMPDEST POP PUSH1 0x4 CALLDATASIZE LT PUSH2 0x88 JUMPI PUSH1 0x0 CALLDATALOAD PUSH1 0xE0 SHR DUP1 PUSH4 0x4420E486 GT PUSH2 0x5B JUMPI DUP1 PUSH4 0x4420E486 EQ PUSH2 0x115 JUMPI DUP1 PUSH4 0x7C939782 EQ PUSH2 0x131 JUMPI DUP1 PUSH4 0xA3EC138D EQ PUSH2 0x14F JUMPI DUP1 PUSH4 0xE20B5171 EQ PUSH2 0x181 JUMPI PUSH2 0x88 JUMP JUMPDEST DUP1 PUSH4 0x121B93F EQ PUSH2 0x8D JUMPI DUP1 PUSH4 0x13CF08B EQ PUSH2 0xA9 JUMPI DUP1 PUSH4 0x55AD42E EQ PUSH2 0xD9 JUMPI DUP1 PUSH4 0x2E4176CF EQ PUSH2 0xF7 JUMPI JUMPDEST PUSH1 0x0 DUP1 REVERT JUMPDEST PUSH2 0xA7 PUSH1 0x4 DUP1 CALLDATASIZE SUB DUP2 ADD SWAP1 PUSH2 0xA2 SWAP2 SWAP1 PUSH2 0x9AA JUMP JUMPDEST PUSH2 0x18B JUMP JUMPDEST STOP JUMPDEST PUSH2 0xC3 PUSH1 0x4 DUP1 CALLDATASIZE SUB DUP2 ADD SWAP1 PUSH2 0xBE SWAP2 SWAP1 PUSH2 0x9AA JUMP JUMPDEST PUSH2 0x436 JUMP JUMPDEST PUSH1 0x40 MLOAD PUSH2 0xD0 SWAP2 SWAP1 PUSH2 0x9E6 JUMP JUMPDEST PUSH1 0x40 MLOAD DUP1 SWAP2 SUB SWAP1 RETURN JUMPDEST PUSH2 0xE1 PUSH2 0x460 JUMP JUMPDEST PUSH1 0x40 MLOAD PUSH2 0xEE SWAP2 SWAP1 PUSH2 0xA78 JUMP JUMPDEST PUSH1 0x40 MLOAD DUP1 SWAP2 SUB SWAP1 RETURN JUMPDEST PUSH2 0xFF PUSH2 0x473 JUMP JUMPDEST PUSH1 0x40 MLOAD PUSH2 0x10C SWAP2 SWAP1 PUSH2 0xAD4 JUMP JUMPDEST PUSH1 0x40 MLOAD DUP1 SWAP2 SUB SWAP1 RETURN JUMPDEST PUSH2 0x12F PUSH1 0x4 DUP1 CALLDATASIZE SUB DUP2 ADD SWAP1 PUSH2 0x12A SWAP2 SWAP1 PUSH2 0xB1B JUMP JUMPDEST PUSH2 0x497 JUMP JUMPDEST STOP JUMPDEST PUSH2 0x139 PUSH2 0x663 JUMP JUMPDEST PUSH1 0x40 MLOAD PUSH2 0x146 SWAP2 SWAP1 PUSH2 0x9E6 JUMP JUMPDEST PUSH1 0x40 MLOAD DUP1 SWAP2 SUB SWAP1 RETURN JUMPDEST PUSH2 0x169 PUSH1 0x4 DUP1 CALLDATASIZE SUB DUP2 ADD SWAP1 PUSH2 0x164 SWAP2 SWAP1 PUSH2 0xB1B JUMP JUMPDEST PUSH2 0x73A JUMP JUMPDEST PUSH1 0x40 MLOAD PUSH2 0x178 SWAP4 SWAP3 SWAP2 SWAP1 PUSH2 0xB63 JUMP JUMPDEST PUSH1 0x40 MLOAD DUP1 SWAP2 SUB SWAP1 RETURN JUMPDEST PUSH2 0x189 PUSH2 0x771 JUMP JUMPDEST STOP JUMPDEST PUSH1 0x2 DUP1 PUSH1 0x3 DUP2 GT ISZERO PUSH2 0x1A0 JUMPI PUSH2 0x19F PUSH2 0xA01 JUMP JUMPDEST JUMPDEST PUSH1 0x3 PUSH1 0x0 SWAP1 SLOAD SWAP1 PUSH2 0x100 EXP SWAP1 DIV PUSH1 0xFF AND PUSH1 0x3 DUP2 GT ISZERO PUSH2 0x1C2 JUMPI PUSH2 0x1C1 PUSH2 0xA01 JUMP JUMPDEST JUMPDEST EQ PUSH2 0x202 JUMPI PUSH1 0x40 MLOAD PUSH32 0x8C379A000000000000000000000000000000000000000000000000000000000 DUP2 MSTORE PUSH1 0x4 ADD PUSH2 0x1F9 SWAP1 PUSH2 0xBF7 JUMP JUMPDEST PUSH1 0x40 MLOAD DUP1 SWAP2 SUB SWAP1 REVERT JUMPDEST PUSH1 0x0 PUSH1 0x1 PUSH1 0x0 CALLER PUSH20 0xFFFFFFFFFFFFFFFFFFFFFFFFFFFFFFFFFFFFFFFF AND PUSH20 0xFFFFFFFFFFFFFFFFFFFFFFFFFFFFFFFFFFFFFFFF AND DUP2 MSTORE PUSH1 0x20 ADD SWAP1 DUP2 MSTORE PUSH1 0x20 ADD PUSH1 0x0 KECCAK256 PUSH1 0x0 ADD SLOAD GT PUSH2 0x287 JUMPI PUSH1 0x40 MLOAD PUSH32 0x8C379A000000000000000000000000000000000000000000000000000000000 DUP2 MSTORE PUSH1 0x4 ADD PUSH2 0x27E SWAP1 PUSH2 0xC63 JUMP JUMPDEST PUSH1 0x40 MLOAD DUP1 SWAP2 SUB SWAP1 REVERT JUMPDEST PUSH1 0x1 PUSH1 0x0 CALLER PUSH20 0xFFFFFFFFFFFFFFFFFFFFFFFFFFFFFFFFFFFFFFFF AND PUSH20 0xFFFFFFFFFFFFFFFFFFFFFFFFFFFFFFFFFFFFFFFF AND DUP2 MSTORE PUSH1 0x20 ADD SWAP1 DUP2 MSTORE PUSH1 0x20 ADD PUSH1 0x0 KECCAK256 PUSH1 0x1 ADD PUSH1 0x0 SWAP1 SLOAD SWAP1 PUSH2 0x100 EXP SWAP1 DIV PUSH1 0xFF AND ISZERO PUSH2 0x317 JUMPI PUSH1 0x40 MLOAD PUSH32 0x8C379A000000000000000000000000000000000000000000000000000000000 DUP2 MSTORE PUSH1 0x4 ADD PUSH2 0x30E SWAP1 PUSH2 0xCCF JUMP JUMPDEST PUSH1 0x40 MLOAD DUP1 SWAP2 SUB SWAP1 REVERT JUMPDEST PUSH1 0x1 DUP1 PUSH1 0x0 CALLER PUSH20 0xFFFFFFFFFFFFFFFFFFFFFFFFFFFFFFFFFFFFFFFF AND PUSH20 0xFFFFFFFFFFFFFFFFFFFFFFFFFFFFFFFFFFFFFFFF AND DUP2 MSTORE PUSH1 0x20 ADD SWAP1 DUP2 MSTORE PUSH1 0x20 ADD PUSH1 0x0 KECCAK256 PUSH1 0x1 ADD PUSH1 0x0 PUSH2 0x100 EXP DUP2 SLOAD DUP2 PUSH1 0xFF MUL NOT AND SWAP1 DUP4 ISZERO ISZERO MUL OR SWAP1 SSTORE POP DUP2 PUSH1 0x1 PUSH1 0x0 CALLER PUSH20 0xFFFFFFFFFFFFFFFFFFFFFFFFFFFFFFFFFFFFFFFF AND PUSH20 0xFFFFFFFFFFFFFFFFFFFFFFFFFFFFFFFFFFFFFFFF AND DUP2 MSTORE PUSH1 0x20 ADD SWAP1 DUP2 MSTORE PUSH1 0x20 ADD PUSH1 0x0 KECCAK256 PUSH1 0x2 ADD DUP2 SWAP1 SSTORE POP PUSH1 0x1 PUSH1 0x0 CALLER PUSH20 0xFFFFFFFFFFFFFFFFFFFFFFFFFFFFFFFFFFFFFFFF AND PUSH20 0xFFFFFFFFFFFFFFFFFFFFFFFFFFFFFFFFFFFFFFFF AND DUP2 MSTORE PUSH1 0x20 ADD SWAP1 DUP2 MSTORE PUSH1 0x20 ADD PUSH1 0x0 KECCAK256 PUSH1 0x0 ADD SLOAD PUSH1 0x2 DUP4 DUP2 SLOAD DUP2 LT PUSH2 0x40F JUMPI PUSH2 0x40E PUSH2 0xCEF JUMP JUMPDEST JUMPDEST SWAP1 PUSH1 0x0 MSTORE PUSH1 0x20 PUSH1 0x0 KECCAK256 ADD PUSH1 0x0 ADD PUSH1 0x0 DUP3 DUP3 SLOAD PUSH2 0x42B SWAP2 SWAP1 PUSH2 0xD4D JUMP JUMPDEST SWAP3 POP POP DUP2 SWAP1 SSTORE POP POP POP JUMP JUMPDEST PUSH1 0x2 DUP2 DUP2 SLOAD DUP2 LT PUSH2 0x446 JUMPI PUSH1 0x0 DUP1 REVERT JUMPDEST SWAP1 PUSH1 0x0 MSTORE PUSH1 0x20 PUSH1 0x0 KECCAK256 ADD PUSH1 0x0 SWAP2 POP SWAP1 POP DUP1 PUSH1 0x0 ADD SLOAD SWAP1 POP DUP2 JUMP JUMPDEST PUSH1 0x3 PUSH1 0x0 SWAP1 SLOAD SWAP1 PUSH2 0x100 EXP SWAP1 DIV PUSH1 0xFF AND DUP2 JUMP JUMPDEST PUSH1 0x0 DUP1 SLOAD SWAP1 PUSH2 0x100 EXP SWAP1 DIV PUSH20 0xFFFFFFFFFFFFFFFFFFFFFFFFFFFFFFFFFFFFFFFF AND DUP2 JUMP JUMPDEST PUSH1 0x1 DUP1 PUSH1 0x3 DUP2 GT ISZERO PUSH2 0x4AC JUMPI PUSH2 0x4AB PUSH2 0xA01 JUMP JUMPDEST JUMPDEST PUSH1 0x3 PUSH1 0x0 SWAP1 SLOAD SWAP1 PUSH2 0x100 EXP SWAP1 DIV PUSH1 0xFF AND PUSH1 0x3 DUP2 GT ISZERO PUSH2 0x4CE JUMPI PUSH2 0x4CD PUSH2 0xA01 JUMP JUMPDEST JUMPDEST EQ PUSH2 0x50E JUMPI PUSH1 0x40 MLOAD PUSH32 0x8C379A000000000000000000000000000000000000000000000000000000000 DUP2 MSTORE PUSH1 0x4 ADD PUSH2 0x505 SWAP1 PUSH2 0xBF7 JUMP JUMPDEST PUSH1 0x40 MLOAD DUP1 SWAP2 SUB SWAP1 REVERT JUMPDEST PUSH1 0x0 DUP1 SLOAD SWAP1 PUSH2 0x100 EXP SWAP1 DIV PUSH20 0xFFFFFFFFFFFFFFFFFFFFFFFFFFFFFFFFFFFFFFFF AND PUSH20 0xFFFFFFFFFFFFFFFFFFFFFFFFFFFFFFFFFFFFFFFF AND CALLER PUSH20 0xFFFFFFFFFFFFFFFFFFFFFFFFFFFFFFFFFFFFFFFF AND EQ PUSH2 0x59C JUMPI PUSH1 0x40 MLOAD PUSH32 0x8C379A000000000000000000000000000000000000000000000000000000000 DUP2 MSTORE PUSH1 0x4 ADD PUSH2 0x593 SWAP1 PUSH2 0xDCD JUMP JUMPDEST PUSH1 0x40 MLOAD DUP1 SWAP2 SUB SWAP1 REVERT JUMPDEST CALLER PUSH20 0xFFFFFFFFFFFFFFFFFFFFFFFFFFFFFFFFFFFFFFFF AND DUP3 PUSH20 0xFFFFFFFFFFFFFFFFFFFFFFFFFFFFFFFFFFFFFFFF AND SUB PUSH2 0x618 JUMPI PUSH1 0x2 PUSH1 0x1 PUSH1 0x0 DUP5 PUSH20 0xFFFFFFFFFFFFFFFFFFFFFFFFFFFFFFFFFFFFFFFF AND PUSH20 0xFFFFFFFFFFFFFFFFFFFFFFFFFFFFFFFFFFFFFFFF AND DUP2 MSTORE PUSH1 0x20 ADD SWAP1 DUP2 MSTORE PUSH1 0x20 ADD PUSH1 0x0 KECCAK256 PUSH1 0x0 ADD DUP2 SWAP1 SSTORE POP JUMPDEST PUSH1 0x1 DUP1 PUSH1 0x0 DUP5 PUSH20 0xFFFFFFFFFFFFFFFFFFFFFFFFFFFFFFFFFFFFFFFF AND PUSH20 0xFFFFFFFFFFFFFFFFFFFFFFFFFFFFFFFFFFFFFFFF AND DUP2 MSTORE PUSH1 0x20 ADD SWAP1 DUP2 MSTORE PUSH1 0x20 ADD PUSH1 0x0 KECCAK256 PUSH1 0x0 ADD DUP2 SWAP1 SSTORE POP POP POP JUMP JUMPDEST PUSH1 0x0 PUSH1 0x3 DUP1 PUSH1 0x3 DUP2 GT ISZERO PUSH2 0x67A JUMPI PUSH2 0x679 PUSH2 0xA01 JUMP JUMPDEST JUMPDEST PUSH1 0x3 PUSH1 0x0 SWAP1 SLOAD SWAP1 PUSH2 0x100 EXP SWAP1 DIV PUSH1 0xFF AND PUSH1 0x3 DUP2 GT ISZERO PUSH2 0x69C JUMPI PUSH2 0x69B PUSH2 0xA01 JUMP JUMPDEST JUMPDEST EQ PUSH2 0x6DC JUMPI PUSH1 0x40 MLOAD PUSH32 0x8C379A000000000000000000000000000000000000000000000000000000000 DUP2 MSTORE PUSH1 0x4 ADD PUSH2 0x6D3 SWAP1 PUSH2 0xBF7 JUMP JUMPDEST PUSH1 0x40 MLOAD DUP1 SWAP2 SUB SWAP1 REVERT JUMPDEST PUSH1 0x0 DUP1 PUSH1 0x0 SWAP1 POP JUMPDEST PUSH1 0x2 DUP1 SLOAD SWAP1 POP DUP2 LT ISZERO PUSH2 0x731 JUMPI DUP2 PUSH1 0x2 DUP3 DUP2 SLOAD DUP2 LT PUSH2 0x706 JUMPI PUSH2 0x705 PUSH2 0xCEF JUMP JUMPDEST JUMPDEST SWAP1 PUSH1 0x0 MSTORE PUSH1 0x20 PUSH1 0x0 KECCAK256 ADD PUSH1 0x0 ADD SLOAD GT ISZERO PUSH2 0x71E JUMPI DUP1 SWAP2 POP JUMPDEST DUP1 DUP1 PUSH2 0x729 SWAP1 PUSH2 0xDED JUMP JUMPDEST SWAP2 POP POP PUSH2 0x6E4 JUMP JUMPDEST DUP1 SWAP4 POP POP POP POP SWAP1 JUMP JUMPDEST PUSH1 0x1 PUSH1 0x20 MSTORE DUP1 PUSH1 0x0 MSTORE PUSH1 0x40 PUSH1 0x0 KECCAK256 PUSH1 0x0 SWAP2 POP SWAP1 POP DUP1 PUSH1 0x0 ADD SLOAD SWAP1 DUP1 PUSH1 0x1 ADD PUSH1 0x0 SWAP1 SLOAD SWAP1 PUSH2 0x100 EXP SWAP1 DIV PUSH1 0xFF AND SWAP1 DUP1 PUSH1 0x2 ADD SLOAD SWAP1 POP DUP4 JUMP JUMPDEST PUSH1 0x0 DUP1 SLOAD SWAP1 PUSH2 0x100 EXP SWAP1 DIV PUSH20 0xFFFFFFFFFFFFFFFFFFFFFFFFFFFFFFFFFFFFFFFF AND PUSH20 0xFFFFFFFFFFFFFFFFFFFFFFFFFFFFFFFFFFFFFFFF AND CALLER PUSH20 0xFFFFFFFFFFFFFFFFFFFFFFFFFFFFFFFFFFFFFFFF AND EQ PUSH2 0x7FF JUMPI PUSH1 0x40 MLOAD PUSH32 0x8C379A000000000000000000000000000000000000000000000000000000000 DUP2 MSTORE PUSH1 0x4 ADD PUSH2 0x7F6 SWAP1 PUSH2 0xDCD JUMP JUMPDEST PUSH1 0x40 MLOAD DUP1 SWAP2 SUB SWAP1 REVERT JUMPDEST PUSH1 0x0 PUSH1 0x3 DUP2 GT ISZERO PUSH2 0x813 JUMPI PUSH2 0x812 PUSH2 0xA01 JUMP JUMPDEST JUMPDEST PUSH1 0x3 PUSH1 0x0 SWAP1 SLOAD SWAP1 PUSH2 0x100 EXP SWAP1 DIV PUSH1 0xFF AND PUSH1 0x3 DUP2 GT ISZERO PUSH2 0x835 JUMPI PUSH2 0x834 PUSH2 0xA01 JUMP JUMPDEST JUMPDEST SUB PUSH2 0x86A JUMPI PUSH1 0x1 PUSH1 0x3 PUSH1 0x0 PUSH2 0x100 EXP DUP2 SLOAD DUP2 PUSH1 0xFF MUL NOT AND SWAP1 DUP4 PUSH1 0x3 DUP2 GT ISZERO PUSH2 0x860 JUMPI PUSH2 0x85F PUSH2 0xA01 JUMP JUMPDEST JUMPDEST MUL OR SWAP1 SSTORE POP PUSH2 0x96D JUMP JUMPDEST PUSH1 0x1 PUSH1 0x3 DUP2 GT ISZERO PUSH2 0x87E JUMPI PUSH2 0x87D PUSH2 0xA01 JUMP JUMPDEST JUMPDEST PUSH1 0x3 PUSH1 0x0 SWAP1 SLOAD SWAP1 PUSH2 0x100 EXP SWAP1 DIV PUSH1 0xFF AND PUSH1 0x3 DUP2 GT ISZERO PUSH2 0x8A0 JUMPI PUSH2 0x89F PUSH2 0xA01 JUMP JUMPDEST JUMPDEST SUB PUSH2 0x8D5 JUMPI PUSH1 0x2 PUSH1 0x3 PUSH1 0x0 PUSH2 0x100 EXP DUP2 SLOAD DUP2 PUSH1 0xFF MUL NOT AND SWAP1 DUP4 PUSH1 0x3 DUP2 GT ISZERO PUSH2 0x8CB JUMPI PUSH2 0x8CA PUSH2 0xA01 JUMP JUMPDEST JUMPDEST MUL OR SWAP1 SSTORE POP PUSH2 0x96C JUMP JUMPDEST PUSH1 0x2 PUSH1 0x3 DUP2 GT ISZERO PUSH2 0x8E9 JUMPI PUSH2 0x8E8 PUSH2 0xA01 JUMP JUMPDEST JUMPDEST PUSH1 0x3 PUSH1 0x0 SWAP1 SLOAD SWAP1 PUSH2 0x100 EXP SWAP1 DIV PUSH1 0xFF AND PUSH1 0x3 DUP2 GT ISZERO PUSH2 0x90B JUMPI PUSH2 0x90A PUSH2 0xA01 JUMP JUMPDEST JUMPDEST SUB PUSH2 0x93F JUMPI PUSH1 0x3 DUP1 PUSH1 0x0 PUSH2 0x100 EXP DUP2 SLOAD DUP2 PUSH1 0xFF MUL NOT AND SWAP1 DUP4 PUSH1 0x3 DUP2 GT ISZERO PUSH2 0x935 JUMPI PUSH2 0x934 PUSH2 0xA01 JUMP JUMPDEST JUMPDEST MUL OR SWAP1 SSTORE POP PUSH2 0x96B JUMP JUMPDEST PUSH1 0x0 PUSH1 0x3 PUSH1 0x0 PUSH2 0x100 EXP DUP2 SLOAD DUP2 PUSH1 0xFF MUL NOT AND SWAP1 DUP4 PUSH1 0x3 DUP2 GT ISZERO PUSH2 0x965 JUMPI PUSH2 0x964 PUSH2 0xA01 JUMP JUMPDEST JUMPDEST MUL OR SWAP1 SSTORE POP JUMPDEST JUMPDEST JUMPDEST JUMP JUMPDEST PUSH1 0x0 DUP1 REVERT JUMPDEST PUSH1 0x0 DUP2 SWAP1 POP SWAP2 SWAP1 POP JUMP JUMPDEST PUSH2 0x987 DUP2 PUSH2 0x974 JUMP JUMPDEST DUP2 EQ PUSH2 0x992 JUMPI PUSH1 0x0 DUP1 REVERT JUMPDEST POP JUMP JUMPDEST PUSH1 0x0 DUP2 CALLDATALOAD SWAP1 POP PUSH2 0x9A4 DUP2 PUSH2 0x97E JUMP JUMPDEST SWAP3 SWAP2 POP POP JUMP JUMPDEST PUSH1 0x0 PUSH1 0x20 DUP3 DUP5 SUB SLT ISZERO PUSH2 0x9C0 JUMPI PUSH2 0x9BF PUSH2 0x96F JUMP JUMPDEST JUMPDEST PUSH1 0x0 PUSH2 0x9CE DUP5 DUP3 DUP6 ADD PUSH2 0x995 JUMP JUMPDEST SWAP2 POP POP SWAP3 SWAP2 POP POP JUMP JUMPDEST PUSH2 0x9E0 DUP2 PUSH2 0x974 JUMP JUMPDEST DUP3 MSTORE POP POP JUMP JUMPDEST PUSH1 0x0 PUSH1 0x20 DUP3 ADD SWAP1 POP PUSH2 0x9FB PUSH1 0x0 DUP4 ADD DUP5 PUSH2 0x9D7 JUMP JUMPDEST SWAP3 SWAP2 POP POP JUMP JUMPDEST PUSH32 0x4E487B7100000000000000000000000000000000000000000000000000000000 PUSH1 0x0 MSTORE PUSH1 0x21 PUSH1 0x4 MSTORE PUSH1 0x24 PUSH1 0x0 REVERT JUMPDEST PUSH1 0x4 DUP2 LT PUSH2 0xA41 JUMPI PUSH2 0xA40 PUSH2 0xA01 JUMP JUMPDEST JUMPDEST POP JUMP JUMPDEST PUSH1 0x0 DUP2 SWAP1 POP PUSH2 0xA52 DUP3 PUSH2 0xA30 JUMP JUMPDEST SWAP2 SWAP1 POP JUMP JUMPDEST PUSH1 0x0 PUSH2 0xA62 DUP3 PUSH2 0xA44 JUMP JUMPDEST SWAP1 POP SWAP2 SWAP1 POP JUMP JUMPDEST PUSH2 0xA72 DUP2 PUSH2 0xA57 JUMP JUMPDEST DUP3 MSTORE POP POP JUMP JUMPDEST PUSH1 0x0 PUSH1 0x20 DUP3 ADD SWAP1 POP PUSH2 0xA8D PUSH1 0x0 DUP4 ADD DUP5 PUSH2 0xA69 JUMP JUMPDEST SWAP3 SWAP2 POP POP JUMP JUMPDEST PUSH1 0x0 PUSH20 0xFFFFFFFFFFFFFFFFFFFFFFFFFFFFFFFFFFFFFFFF DUP3 AND SWAP1 POP SWAP2 SWAP1 POP JUMP JUMPDEST PUSH1 0x0 PUSH2 0xABE DUP3 PUSH2 0xA93 JUMP JUMPDEST SWAP1 POP SWAP2 SWAP1 POP JUMP JUMPDEST PUSH2 0xACE DUP2 PUSH2 0xAB3 JUMP JUMPDEST DUP3 MSTORE POP POP JUMP JUMPDEST PUSH1 0x0 PUSH1 0x20 DUP3 ADD SWAP1 POP PUSH2 0xAE9 PUSH1 0x0 DUP4 ADD DUP5 PUSH2 0xAC5 JUMP JUMPDEST SWAP3 SWAP2 POP POP JUMP JUMPDEST PUSH2 0xAF8 DUP2 PUSH2 0xAB3 JUMP JUMPDEST DUP2 EQ PUSH2 0xB03 JUMPI PUSH1 0x0 DUP1 REVERT JUMPDEST POP JUMP JUMPDEST PUSH1 0x0 DUP2 CALLDATALOAD SWAP1 POP PUSH2 0xB15 DUP2 PUSH2 0xAEF JUMP JUMPDEST SWAP3 SWAP2 POP POP JUMP JUMPDEST PUSH1 0x0 PUSH1 0x20 DUP3 DUP5 SUB SLT ISZERO PUSH2 0xB31 JUMPI PUSH2 0xB30 PUSH2 0x96F JUMP JUMPDEST JUMPDEST PUSH1 0x0 PUSH2 0xB3F DUP5 DUP3 DUP6 ADD PUSH2 0xB06 JUMP JUMPDEST SWAP2 POP POP SWAP3 SWAP2 POP POP JUMP JUMPDEST PUSH1 0x0 DUP2 ISZERO ISZERO SWAP1 POP SWAP2 SWAP1 POP JUMP JUMPDEST PUSH2 0xB5D DUP2 PUSH2 0xB48 JUMP JUMPDEST DUP3 MSTORE POP POP JUMP JUMPDEST PUSH1 0x0 PUSH1 0x60 DUP3 ADD SWAP1 POP PUSH2 0xB78 PUSH1 0x0 DUP4 ADD DUP7 PUSH2 0x9D7 JUMP JUMPDEST PUSH2 0xB85 PUSH1 0x20 DUP4 ADD DUP6 PUSH2 0xB54 JUMP JUMPDEST PUSH2 0xB92 PUSH1 0x40 DUP4 ADD DUP5 PUSH2 0x9D7 JUMP JUMPDEST SWAP5 SWAP4 POP POP POP POP JUMP JUMPDEST PUSH1 0x0 DUP3 DUP3 MSTORE PUSH1 0x20 DUP3 ADD SWAP1 POP SWAP3 SWAP2 POP POP JUMP JUMPDEST PUSH32 0x63757272656E5068617365206572720000000000000000000000000000000000 PUSH1 0x0 DUP3 ADD MSTORE POP JUMP JUMPDEST PUSH1 0x0 PUSH2 0xBE1 PUSH1 0xF DUP4 PUSH2 0xB9A JUMP JUMPDEST SWAP2 POP PUSH2 0xBEC DUP3 PUSH2 0xBAB JUMP JUMPDEST PUSH1 0x20 DUP3 ADD SWAP1 POP SWAP2 SWAP1 POP JUMP JUMPDEST PUSH1 0x0 PUSH1 0x20 DUP3 ADD SWAP1 POP DUP2 DUP2 SUB PUSH1 0x0 DUP4 ADD MSTORE PUSH2 0xC10 DUP2 PUSH2 0xBD4 JUMP JUMPDEST SWAP1 POP SWAP2 SWAP1 POP JUMP JUMPDEST PUSH32 0x4E6F742061207265676973746572656420766F7465722E000000000000000000 PUSH1 0x0 DUP3 ADD MSTORE POP JUMP JUMPDEST PUSH1 0x0 PUSH2 0xC4D PUSH1 0x17 DUP4 PUSH2 0xB9A JUMP JUMPDEST SWAP2 POP PUSH2 0xC58 DUP3 PUSH2 0xC17 JUMP JUMPDEST PUSH1 0x20 DUP3 ADD SWAP1 POP SWAP2 SWAP1 POP JUMP JUMPDEST PUSH1 0x0 PUSH1 0x20 DUP3 ADD SWAP1 POP DUP2 DUP2 SUB PUSH1 0x0 DUP4 ADD MSTORE PUSH2 0xC7C DUP2 PUSH2 0xC40 JUMP JUMPDEST SWAP1 POP SWAP2 SWAP1 POP JUMP JUMPDEST PUSH32 0x416C726561647920766F7465642E000000000000000000000000000000000000 PUSH1 0x0 DUP3 ADD MSTORE POP JUMP JUMPDEST PUSH1 0x0 PUSH2 0xCB9 PUSH1 0xE DUP4 PUSH2 0xB9A JUMP JUMPDEST SWAP2 POP PUSH2 0xCC4 DUP3 PUSH2 0xC83 JUMP JUMPDEST PUSH1 0x20 DUP3 ADD SWAP1 POP SWAP2 SWAP1 POP JUMP JUMPDEST PUSH1 0x0 PUSH1 0x20 DUP3 ADD SWAP1 POP DUP2 DUP2 SUB PUSH1 0x0 DUP4 ADD MSTORE PUSH2 0xCE8 DUP2 PUSH2 0xCAC JUMP JUMPDEST SWAP1 POP SWAP2 SWAP1 POP JUMP JUMPDEST PUSH32 0x4E487B7100000000000000000000000000000000000000000000000000000000 PUSH1 0x0 MSTORE PUSH1 0x32 PUSH1 0x4 MSTORE PUSH1 0x24 PUSH1 0x0 REVERT JUMPDEST PUSH32 0x4E487B7100000000000000000000000000000000000000000000000000000000 PUSH1 0x0 MSTORE PUSH1 0x11 PUSH1 0x4 MSTORE PUSH1 0x24 PUSH1 0x0 REVERT JUMPDEST PUSH1 0x0 PUSH2 0xD58 DUP3 PUSH2 0x974 JUMP JUMPDEST SWAP2 POP PUSH2 0xD63 DUP4 PUSH2 0x974 JUMP JUMPDEST SWAP3 POP DUP3 DUP3 ADD SWAP1 POP DUP1 DUP3 GT ISZERO PUSH2 0xD7B JUMPI PUSH2 0xD7A PUSH2 0xD1E JUMP JUMPDEST JUMPDEST SWAP3 SWAP2 POP POP JUMP JUMPDEST PUSH32 0x4F6E6C79206368616972706572736F6E2063616E2063616C6C20746869732E00 PUSH1 0x0 DUP3 ADD MSTORE POP JUMP JUMPDEST PUSH1 0x0 PUSH2 0xDB7 PUSH1 0x1F DUP4 PUSH2 0xB9A JUMP JUMPDEST SWAP2 POP PUSH2 0xDC2 DUP3 PUSH2 0xD81 JUMP JUMPDEST PUSH1 0x20 DUP3 ADD SWAP1 POP SWAP2 SWAP1 POP JUMP JUMPDEST PUSH1 0x0 PUSH1 0x20 DUP3 ADD SWAP1 POP DUP2 DUP2 SUB PUSH1 0x0 DUP4 ADD MSTORE PUSH2 0xDE6 DUP2 PUSH2 0xDAA JUMP JUMPDEST SWAP1 POP SWAP2 SWAP1 POP JUMP JUMPDEST PUSH1 0x0 PUSH2 0xDF8 DUP3 PUSH2 0x974 JUMP JUMPDEST SWAP2 POP PUSH32 0xFFFFFFFFFFFFFFFFFFFFFFFFFFFFFFFFFFFFFFFFFFFFFFFFFFFFFFFFFFFFFFFF DUP3 SUB PUSH2 0xE2A JUMPI PUSH2 0xE29 PUSH2 0xD1E JUMP JUMPDEST JUMPDEST PUSH1 0x1 DUP3 ADD SWAP1 POP SWAP2 SWAP1 POP JUMP INVALID LOG2 PUSH5 0x6970667358 0x22 SLT KECCAK256 0x2A 0x2B EXTCODESIZE DUP11 LOG2 0xEC EXTCODECOPY GAS SLT 0x21 0xC9 0x2D 0xB3 0xAF OR SUB SELFBALANCE CREATE DUP3 0xBB TIMESTAMP 0xE6 RETURNDATACOPY 0xD4 0xD5 0xC1 0xB1 LT DUP10 PUSH14 0x6C3F64736F6C6343000812003300 "
				},
				"gasEstimates": {
					"creation": {
						"codeDepositCost": "738200",
						"executionCost": "infinite",
						"totalCost": "infinite"
					},
					"external": {
						"advancedPhase()": "33310",
						"chairperson()": "2578",
						"currentPhase()": "2605",
						"proposals(uint256)": "infinite",
						"regWinner()": "infinite",
						"register(address)": "32192",
						"vote(uint256)": "infinite",
						"voters(address)": "infinite"
					}
				},
				"methodIdentifiers": {
					"advancedPhase()": "e20b5171",
					"chairperson()": "2e4176cf",
					"currentPhase()": "055ad42e",
					"proposals(uint256)": "013cf08b",
					"regWinner()": "7c939782",
					"register(address)": "4420e486",
					"vote(uint256)": "0121b93f",
					"voters(address)": "a3ec138d"
				}
			},
			"storageLayout": {
				"storage": [
					{
						"astId": 13,
						"contract": "week11/Ballot.sol:Ballot",
						"label": "chairperson",
						"offset": 0,
						"slot": "0",
						"type": "t_address"
					},
					{
						"astId": 18,
						"contract": "week11/Ballot.sol:Ballot",
						"label": "voters",
						"offset": 0,
						"slot": "1",
						"type": "t_mapping(t_address,t_struct(Voter)8_storage)"
					},
					{
						"astId": 22,
						"contract": "week11/Ballot.sol:Ballot",
						"label": "proposals",
						"offset": 0,
						"slot": "2",
						"type": "t_array(t_struct(Proposal)11_storage)dyn_storage"
					},
					{
						"astId": 32,
						"contract": "week11/Ballot.sol:Ballot",
						"label": "currentPhase",
						"offset": 0,
						"slot": "3",
						"type": "t_enum(Phase)27"
					}
				],
				"types": {
					"t_address": {
						"encoding": "inplace",
						"label": "address",
						"numberOfBytes": "20"
					},
					"t_array(t_struct(Proposal)11_storage)dyn_storage": {
						"base": "t_struct(Proposal)11_storage",
						"encoding": "dynamic_array",
						"label": "struct Ballot.Proposal[]",
						"numberOfBytes": "32"
					},
					"t_bool": {
						"encoding": "inplace",
						"label": "bool",
						"numberOfBytes": "1"
					},
					"t_enum(Phase)27": {
						"encoding": "inplace",
						"label": "enum Ballot.Phase",
						"numberOfBytes": "1"
					},
					"t_mapping(t_address,t_struct(Voter)8_storage)": {
						"encoding": "mapping",
						"key": "t_address",
						"label": "mapping(address => struct Ballot.Voter)",
						"numberOfBytes": "32",
						"value": "t_struct(Voter)8_storage"
					},
					"t_struct(Proposal)11_storage": {
						"encoding": "inplace",
						"label": "struct Ballot.Proposal",
						"members": [
							{
								"astId": 10,
								"contract": "week11/Ballot.sol:Ballot",
								"label": "voteCount",
								"offset": 0,
								"slot": "0",
								"type": "t_uint256"
							}
						],
						"numberOfBytes": "32"
					},
					"t_struct(Voter)8_storage": {
						"encoding": "inplace",
						"label": "struct Ballot.Voter",
						"members": [
							{
								"astId": 3,
								"contract": "week11/Ballot.sol:Ballot",
								"label": "weight",
								"offset": 0,
								"slot": "0",
								"type": "t_uint256"
							},
							{
								"astId": 5,
								"contract": "week11/Ballot.sol:Ballot",
								"label": "voted",
								"offset": 0,
								"slot": "1",
								"type": "t_bool"
							},
							{
								"astId": 7,
								"contract": "week11/Ballot.sol:Ballot",
								"label": "vote",
								"offset": 0,
								"slot": "2",
								"type": "t_uint256"
							}
						],
						"numberOfBytes": "96"
					},
					"t_uint256": {
						"encoding": "inplace",
						"label": "uint256",
						"numberOfBytes": "32"
					}
				}
			},
			"userdoc": {
				"kind": "user",
				"methods": {},
				"version": 1
			}
		}
	}
}