{
	"week12/ERC721StdToken.sol": {
		"ERC721StdNFT": {
			"abi": [
				{
					"inputs": [
						{
							"internalType": "string",
							"name": "_name",
							"type": "string"
						},
						{
							"internalType": "string",
							"name": "_symbol",
							"type": "string"
						}
					],
					"stateMutability": "nonpayable",
					"type": "constructor"
				},
				{
					"anonymous": false,
					"inputs": [
						{
							"indexed": true,
							"internalType": "address",
							"name": "_owner",
							"type": "address"
						},
						{
							"indexed": true,
							"internalType": "address",
							"name": "_approved",
							"type": "address"
						},
						{
							"indexed": true,
							"internalType": "uint256",
							"name": "_tokenId",
							"type": "uint256"
						}
					],
					"name": "Approval",
					"type": "event"
				},
				{
					"anonymous": false,
					"inputs": [
						{
							"indexed": true,
							"internalType": "address",
							"name": "_owner",
							"type": "address"
						},
						{
							"indexed": true,
							"internalType": "address",
							"name": "_operator",
							"type": "address"
						},
						{
							"indexed": false,
							"internalType": "bool",
							"name": "_approved",
							"type": "bool"
						}
					],
					"name": "ApprovalForAll",
					"type": "event"
				},
				{
					"anonymous": false,
					"inputs": [
						{
							"indexed": true,
							"internalType": "address",
							"name": "_from",
							"type": "address"
						},
						{
							"indexed": true,
							"internalType": "address",
							"name": "_to",
							"type": "address"
						},
						{
							"indexed": true,
							"internalType": "uint256",
							"name": "_tokenId",
							"type": "uint256"
						}
					],
					"name": "Transfer",
					"type": "event"
				},
				{
					"inputs": [
						{
							"internalType": "address",
							"name": "_approved",
							"type": "address"
						},
						{
							"internalType": "uint256",
							"name": "_tokenId",
							"type": "uint256"
						}
					],
					"name": "approve",
					"outputs": [],
					"stateMutability": "payable",
					"type": "function"
				},
				{
					"inputs": [
						{
							"internalType": "address",
							"name": "_owner",
							"type": "address"
						}
					],
					"name": "balanceOf",
					"outputs": [
						{
							"internalType": "uint256",
							"name": "",
							"type": "uint256"
						}
					],
					"stateMutability": "view",
					"type": "function"
				},
				{
					"inputs": [],
					"name": "founder",
					"outputs": [
						{
							"internalType": "address",
							"name": "",
							"type": "address"
						}
					],
					"stateMutability": "view",
					"type": "function"
				},
				{
					"inputs": [
						{
							"internalType": "uint256",
							"name": "_tokenId",
							"type": "uint256"
						}
					],
					"name": "getApproved",
					"outputs": [
						{
							"internalType": "address",
							"name": "",
							"type": "address"
						}
					],
					"stateMutability": "view",
					"type": "function"
				},
				{
					"inputs": [
						{
							"internalType": "address",
							"name": "_owner",
							"type": "address"
						},
						{
							"internalType": "address",
							"name": "_operator",
							"type": "address"
						}
					],
					"name": "isApprovedForAll",
					"outputs": [
						{
							"internalType": "bool",
							"name": "",
							"type": "bool"
						}
					],
					"stateMutability": "view",
					"type": "function"
				},
				{
					"inputs": [
						{
							"internalType": "address",
							"name": "to",
							"type": "address"
						},
						{
							"internalType": "uint256",
							"name": "tokenID",
							"type": "uint256"
						}
					],
					"name": "mintNFT",
					"outputs": [],
					"stateMutability": "nonpayable",
					"type": "function"
				},
				{
					"inputs": [],
					"name": "name",
					"outputs": [
						{
							"internalType": "string",
							"name": "",
							"type": "string"
						}
					],
					"stateMutability": "view",
					"type": "function"
				},
				{
					"inputs": [
						{
							"internalType": "uint256",
							"name": "_tokenId",
							"type": "uint256"
						}
					],
					"name": "ownerOf",
					"outputs": [
						{
							"internalType": "address",
							"name": "",
							"type": "address"
						}
					],
					"stateMutability": "view",
					"type": "function"
				},
				{
					"inputs": [
						{
							"internalType": "address",
							"name": "_from",
							"type": "address"
						},
						{
							"internalType": "address",
							"name": "_to",
							"type": "address"
						},
						{
							"internalType": "uint256",
							"name": "_tokenId",
							"type": "uint256"
						}
					],
					"name": "safeTransferFrom",
					"outputs": [],
					"stateMutability": "payable",
					"type": "function"
				},
				{
					"inputs": [
						{
							"internalType": "address",
							"name": "_from",
							"type": "address"
						},
						{
							"internalType": "address",
							"name": "_to",
							"type": "address"
						},
						{
							"internalType": "uint256",
							"name": "_tokenId",
							"type": "uint256"
						},
						{
							"internalType": "bytes",
							"name": "data",
							"type": "bytes"
						}
					],
					"name": "safeTransferFrom",
					"outputs": [],
					"stateMutability": "payable",
					"type": "function"
				},
				{
					"inputs": [
						{
							"internalType": "address",
							"name": "_operator",
							"type": "address"
						},
						{
							"internalType": "bool",
							"name": "_approved",
							"type": "bool"
						}
					],
					"name": "setApprovalForAll",
					"outputs": [],
					"stateMutability": "nonpayable",
					"type": "function"
				},
				{
					"inputs": [
						{
							"internalType": "bytes4",
							"name": "interfaceID",
							"type": "bytes4"
						}
					],
					"name": "supportsInterface",
					"outputs": [
						{
							"internalType": "bool",
							"name": "",
							"type": "bool"
						}
					],
					"stateMutability": "view",
					"type": "function"
				},
				{
					"inputs": [],
					"name": "symbol",
					"outputs": [
						{
							"internalType": "string",
							"name": "",
							"type": "string"
						}
					],
					"stateMutability": "view",
					"type": "function"
				},
				{
					"inputs": [
						{
							"internalType": "address",
							"name": "_from",
							"type": "address"
						},
						{
							"internalType": "address",
							"name": "_to",
							"type": "address"
						},
						{
							"internalType": "uint256",
							"name": "_tokenId",
							"type": "uint256"
						}
					],
					"name": "transferFrom",
					"outputs": [],
					"stateMutability": "payable",
					"type": "function"
				}
			],
			"devdoc": {
				"kind": "dev",
				"methods": {},
				"version": 1
			},
			"evm": {
				"assembly": "    /* \"week12/ERC721StdToken.sol\":2215:9433  contract ERC721StdNFT is ERC721 {... */\n  mstore(0x40, 0x80)\n    /* \"week12/ERC721StdToken.sol\":2932:3347  constructor (string memory _name, string memory _symbol){... */\n  callvalue\n  dup1\n  iszero\n  tag_1\n  jumpi\n  0x00\n  dup1\n  revert\ntag_1:\n  pop\n  mload(0x40)\n  sub(codesize, bytecodeSize)\n  dup1\n  bytecodeSize\n  dup4\n  codecopy\n  dup2\n  dup2\n  add\n  0x40\n  mstore\n  dup2\n  add\n  swap1\n  tag_2\n  swap2\n  swap1\n  tag_3\n  jump\t// in\ntag_2:\n    /* \"week12/ERC721StdToken.sol\":3009:3019  msg.sender */\n  caller\n    /* \"week12/ERC721StdToken.sol\":2999:3006  founder */\n  0x00\n  dup1\n    /* \"week12/ERC721StdToken.sol\":2999:3019  founder = msg.sender */\n  0x0100\n  exp\n  dup2\n  sload\n  dup2\n  0xffffffffffffffffffffffffffffffffffffffff\n  mul\n  not\n  and\n  swap1\n  dup4\n  0xffffffffffffffffffffffffffffffffffffffff\n  and\n  mul\n  or\n  swap1\n  sstore\n  pop\n    /* \"week12/ERC721StdToken.sol\":3097:3102  _name */\n  dup2\n    /* \"week12/ERC721StdToken.sol\":3090:3094  name */\n  0x05\n    /* \"week12/ERC721StdToken.sol\":3090:3102  name = _name */\n  swap1\n  dup2\n  tag_6\n  swap2\n  swap1\n  tag_7\n  jump\t// in\ntag_6:\n  pop\n    /* \"week12/ERC721StdToken.sol\":3146:3153  _symbol */\n  dup1\n    /* \"week12/ERC721StdToken.sol\":3137:3143  symbol */\n  0x06\n    /* \"week12/ERC721StdToken.sol\":3137:3153  symbol = _symbol */\n  swap1\n  dup2\n  tag_8\n  swap2\n  swap1\n  tag_7\n  jump\t// in\ntag_8:\n  pop\n    /* \"week12/ERC721StdToken.sol\":3193:3205  uint tokenID */\n  0x00\n    /* \"week12/ERC721StdToken.sol\":3208:3209  1 */\n  0x01\n    /* \"week12/ERC721StdToken.sol\":3193:3209  uint tokenID = 1 */\n  swap1\n  pop\n    /* \"week12/ERC721StdToken.sol\":3188:3340  for (uint tokenID = 1; tokenID <=5; tokenID++){ //1번~5번 tokenID를 배포자에게 자동 발행... */\ntag_9:\n    /* \"week12/ERC721StdToken.sol\":3221:3222  5 */\n  0x05\n    /* \"week12/ERC721StdToken.sol\":3211:3218  tokenID */\n  dup2\n    /* \"week12/ERC721StdToken.sol\":3211:3222  tokenID <=5 */\n  gt\n    /* \"week12/ERC721StdToken.sol\":3188:3340  for (uint tokenID = 1; tokenID <=5; tokenID++){ //1번~5번 tokenID를 배포자에게 자동 발행... */\n  tag_10\n  jumpi\n    /* \"week12/ERC721StdToken.sol\":3302:3328  _mint(msg.sender, tokenID) */\n  tag_12\n    /* \"week12/ERC721StdToken.sol\":3308:3318  msg.sender */\n  caller\n    /* \"week12/ERC721StdToken.sol\":3320:3327  tokenID */\n  dup3\n    /* \"week12/ERC721StdToken.sol\":3302:3307  _mint */\n  shl(0x20, tag_13)\n    /* \"week12/ERC721StdToken.sol\":3302:3328  _mint(msg.sender, tokenID) */\n  0x20\n  shr\n  jump\t// in\ntag_12:\n    /* \"week12/ERC721StdToken.sol\":3224:3233  tokenID++ */\n  dup1\n  dup1\n  tag_14\n  swap1\n  tag_15\n  jump\t// in\ntag_14:\n  swap2\n  pop\n  pop\n    /* \"week12/ERC721StdToken.sol\":3188:3340  for (uint tokenID = 1; tokenID <=5; tokenID++){ //1번~5번 tokenID를 배포자에게 자동 발행... */\n  jump(tag_9)\ntag_10:\n  pop\n    /* \"week12/ERC721StdToken.sol\":2932:3347  constructor (string memory _name, string memory _symbol){... */\n  pop\n  pop\n    /* \"week12/ERC721StdToken.sol\":2215:9433  contract ERC721StdNFT is ERC721 {... */\n  jump(tag_16)\n    /* \"week12/ERC721StdToken.sol\":3355:3851  function _mint(address to, uint id) internal {... */\ntag_13:\n    /* \"week12/ERC721StdToken.sol\":3431:3432  0 */\n  0x00\n    /* \"week12/ERC721StdToken.sol\":3419:3433  to!=address(0) */\n  0xffffffffffffffffffffffffffffffffffffffff\n  and\n    /* \"week12/ERC721StdToken.sol\":3419:3421  to */\n  dup3\n    /* \"week12/ERC721StdToken.sol\":3419:3433  to!=address(0) */\n  0xffffffffffffffffffffffffffffffffffffffff\n  and\n  sub\n    /* \"week12/ERC721StdToken.sol\":3411:3458  require(to!=address(0), \"mint to zero address\") */\n  tag_18\n  jumpi\n  mload(0x40)\n  0x08c379a000000000000000000000000000000000000000000000000000000000\n  dup2\n  mstore\n  0x04\n  add\n  tag_19\n  swap1\n  tag_20\n  jump\t// in\ntag_19:\n  mload(0x40)\n  dup1\n  swap2\n  sub\n  swap1\n  revert\ntag_18:\n    /* \"week12/ERC721StdToken.sol\":3537:3538  0 */\n  0x00\n    /* \"week12/ERC721StdToken.sol\":3513:3539  _ownerOf[id] == address(0) */\n  0xffffffffffffffffffffffffffffffffffffffff\n  and\n    /* \"week12/ERC721StdToken.sol\":3513:3521  _ownerOf */\n  0x01\n    /* \"week12/ERC721StdToken.sol\":3513:3525  _ownerOf[id] */\n  0x00\n    /* \"week12/ERC721StdToken.sol\":3522:3524  id */\n  dup4\n    /* \"week12/ERC721StdToken.sol\":3513:3525  _ownerOf[id] */\n  dup2\n  mstore\n  0x20\n  add\n  swap1\n  dup2\n  mstore\n  0x20\n  add\n  0x00\n  keccak256\n  0x00\n  swap1\n  sload\n  swap1\n  0x0100\n  exp\n  swap1\n  div\n  0xffffffffffffffffffffffffffffffffffffffff\n  and\n    /* \"week12/ERC721StdToken.sol\":3513:3539  _ownerOf[id] == address(0) */\n  0xffffffffffffffffffffffffffffffffffffffff\n  and\n  eq\n    /* \"week12/ERC721StdToken.sol\":3505:3558  require(_ownerOf[id] == address(0), \"already minted\") */\n  tag_21\n  jumpi\n  mload(0x40)\n  0x08c379a000000000000000000000000000000000000000000000000000000000\n  dup2\n  mstore\n  0x04\n  add\n  tag_22\n  swap1\n  tag_23\n  jump\t// in\ntag_22:\n  mload(0x40)\n  dup1\n  swap2\n  sub\n  swap1\n  revert\ntag_21:\n    /* \"week12/ERC721StdToken.sol\":3651:3661  _balanceOf */\n  0x02\n    /* \"week12/ERC721StdToken.sol\":3651:3665  _balanceOf[to] */\n  0x00\n    /* \"week12/ERC721StdToken.sol\":3662:3664  to */\n  dup4\n    /* \"week12/ERC721StdToken.sol\":3651:3665  _balanceOf[to] */\n  0xffffffffffffffffffffffffffffffffffffffff\n  and\n  0xffffffffffffffffffffffffffffffffffffffff\n  and\n  dup2\n  mstore\n  0x20\n  add\n  swap1\n  dup2\n  mstore\n  0x20\n  add\n  0x00\n  keccak256\n  0x00\n    /* \"week12/ERC721StdToken.sol\":3651:3667  _balanceOf[to]++ */\n  dup2\n  sload\n  dup1\n  swap3\n  swap2\n  swap1\n  tag_24\n  swap1\n  tag_15\n  jump\t// in\ntag_24:\n  swap2\n  swap1\n  pop\n  sstore\n  pop\n    /* \"week12/ERC721StdToken.sol\":3724:3726  to */\n  dup2\n    /* \"week12/ERC721StdToken.sol\":3709:3717  _ownerOf */\n  0x01\n    /* \"week12/ERC721StdToken.sol\":3709:3721  _ownerOf[id] */\n  0x00\n    /* \"week12/ERC721StdToken.sol\":3718:3720  id */\n  dup4\n    /* \"week12/ERC721StdToken.sol\":3709:3721  _ownerOf[id] */\n  dup2\n  mstore\n  0x20\n  add\n  swap1\n  dup2\n  mstore\n  0x20\n  add\n  0x00\n  keccak256\n  0x00\n    /* \"week12/ERC721StdToken.sol\":3709:3726  _ownerOf[id] = to */\n  0x0100\n  exp\n  dup2\n  sload\n  dup2\n  0xffffffffffffffffffffffffffffffffffffffff\n  mul\n  not\n  and\n  swap1\n  dup4\n  0xffffffffffffffffffffffffffffffffffffffff\n  and\n  mul\n  or\n  swap1\n  sstore\n  pop\n    /* \"week12/ERC721StdToken.sol\":3811:3813  id */\n  dup1\n    /* \"week12/ERC721StdToken.sol\":3807:3809  to */\n  dup3\n    /* \"week12/ERC721StdToken.sol\":3786:3814  Transfer(address(0), to, id) */\n  0xffffffffffffffffffffffffffffffffffffffff\n  and\n    /* \"week12/ERC721StdToken.sol\":3803:3804  0 */\n  0x00\n    /* \"week12/ERC721StdToken.sol\":3786:3814  Transfer(address(0), to, id) */\n  0xffffffffffffffffffffffffffffffffffffffff\n  and\n  0xddf252ad1be2c89b69c2b068fc378daa952ba7f163c4a11628f55a4df523b3ef\n  mload(0x40)\n  mload(0x40)\n  dup1\n  swap2\n  sub\n  swap1\n  log4\n    /* \"week12/ERC721StdToken.sol\":3355:3851  function _mint(address to, uint id) internal {... */\n  pop\n  pop\n  jump\t// out\n    /* \"#utility.yul\":7:82   */\ntag_25:\n    /* \"#utility.yul\":40:46   */\n  0x00\n    /* \"#utility.yul\":73:75   */\n  0x40\n    /* \"#utility.yul\":67:76   */\n  mload\n    /* \"#utility.yul\":57:76   */\n  swap1\n  pop\n    /* \"#utility.yul\":7:82   */\n  swap1\n  jump\t// out\n    /* \"#utility.yul\":88:205   */\ntag_26:\n    /* \"#utility.yul\":197:198   */\n  0x00\n    /* \"#utility.yul\":194:195   */\n  dup1\n    /* \"#utility.yul\":187:199   */\n  revert\n    /* \"#utility.yul\":211:328   */\ntag_27:\n    /* \"#utility.yul\":320:321   */\n  0x00\n    /* \"#utility.yul\":317:318   */\n  dup1\n    /* \"#utility.yul\":310:322   */\n  revert\n    /* \"#utility.yul\":334:451   */\ntag_28:\n    /* \"#utility.yul\":443:444   */\n  0x00\n    /* \"#utility.yul\":440:441   */\n  dup1\n    /* \"#utility.yul\":433:445   */\n  revert\n    /* \"#utility.yul\":457:574   */\ntag_29:\n    /* \"#utility.yul\":566:567   */\n  0x00\n    /* \"#utility.yul\":563:564   */\n  dup1\n    /* \"#utility.yul\":556:568   */\n  revert\n    /* \"#utility.yul\":580:682   */\ntag_30:\n    /* \"#utility.yul\":621:627   */\n  0x00\n    /* \"#utility.yul\":672:674   */\n  0x1f\n    /* \"#utility.yul\":668:675   */\n  not\n    /* \"#utility.yul\":663:665   */\n  0x1f\n    /* \"#utility.yul\":656:661   */\n  dup4\n    /* \"#utility.yul\":652:666   */\n  add\n    /* \"#utility.yul\":648:676   */\n  and\n    /* \"#utility.yul\":638:676   */\n  swap1\n  pop\n    /* \"#utility.yul\":580:682   */\n  swap2\n  swap1\n  pop\n  jump\t// out\n    /* \"#utility.yul\":688:868   */\ntag_31:\n    /* \"#utility.yul\":736:813   */\n  0x4e487b7100000000000000000000000000000000000000000000000000000000\n    /* \"#utility.yul\":733:734   */\n  0x00\n    /* \"#utility.yul\":726:814   */\n  mstore\n    /* \"#utility.yul\":833:837   */\n  0x41\n    /* \"#utility.yul\":830:831   */\n  0x04\n    /* \"#utility.yul\":823:838   */\n  mstore\n    /* \"#utility.yul\":857:861   */\n  0x24\n    /* \"#utility.yul\":854:855   */\n  0x00\n    /* \"#utility.yul\":847:862   */\n  revert\n    /* \"#utility.yul\":874:1155   */\ntag_32:\n    /* \"#utility.yul\":957:984   */\n  tag_72\n    /* \"#utility.yul\":979:983   */\n  dup3\n    /* \"#utility.yul\":957:984   */\n  tag_30\n  jump\t// in\ntag_72:\n    /* \"#utility.yul\":949:955   */\n  dup2\n    /* \"#utility.yul\":945:985   */\n  add\n    /* \"#utility.yul\":1087:1093   */\n  dup2\n    /* \"#utility.yul\":1075:1085   */\n  dup2\n    /* \"#utility.yul\":1072:1094   */\n  lt\n    /* \"#utility.yul\":1051:1069   */\n  0xffffffffffffffff\n    /* \"#utility.yul\":1039:1049   */\n  dup3\n    /* \"#utility.yul\":1036:1070   */\n  gt\n    /* \"#utility.yul\":1033:1095   */\n  or\n    /* \"#utility.yul\":1030:1118   */\n  iszero\n  tag_73\n  jumpi\n    /* \"#utility.yul\":1098:1116   */\n  tag_74\n  tag_31\n  jump\t// in\ntag_74:\n    /* \"#utility.yul\":1030:1118   */\ntag_73:\n    /* \"#utility.yul\":1138:1148   */\n  dup1\n    /* \"#utility.yul\":1134:1136   */\n  0x40\n    /* \"#utility.yul\":1127:1149   */\n  mstore\n    /* \"#utility.yul\":917:1155   */\n  pop\n    /* \"#utility.yul\":874:1155   */\n  pop\n  pop\n  jump\t// out\n    /* \"#utility.yul\":1161:1290   */\ntag_33:\n    /* \"#utility.yul\":1195:1201   */\n  0x00\n    /* \"#utility.yul\":1222:1242   */\n  tag_76\n  tag_25\n  jump\t// in\ntag_76:\n    /* \"#utility.yul\":1212:1242   */\n  swap1\n  pop\n    /* \"#utility.yul\":1251:1284   */\n  tag_77\n    /* \"#utility.yul\":1279:1283   */\n  dup3\n    /* \"#utility.yul\":1271:1277   */\n  dup3\n    /* \"#utility.yul\":1251:1284   */\n  tag_32\n  jump\t// in\ntag_77:\n    /* \"#utility.yul\":1161:1290   */\n  swap2\n  swap1\n  pop\n  jump\t// out\n    /* \"#utility.yul\":1296:1604   */\ntag_34:\n    /* \"#utility.yul\":1358:1362   */\n  0x00\n    /* \"#utility.yul\":1448:1466   */\n  0xffffffffffffffff\n    /* \"#utility.yul\":1440:1446   */\n  dup3\n    /* \"#utility.yul\":1437:1467   */\n  gt\n    /* \"#utility.yul\":1434:1490   */\n  iszero\n  tag_79\n  jumpi\n    /* \"#utility.yul\":1470:1488   */\n  tag_80\n  tag_31\n  jump\t// in\ntag_80:\n    /* \"#utility.yul\":1434:1490   */\ntag_79:\n    /* \"#utility.yul\":1508:1537   */\n  tag_81\n    /* \"#utility.yul\":1530:1536   */\n  dup3\n    /* \"#utility.yul\":1508:1537   */\n  tag_30\n  jump\t// in\ntag_81:\n    /* \"#utility.yul\":1500:1537   */\n  swap1\n  pop\n    /* \"#utility.yul\":1592:1596   */\n  0x20\n    /* \"#utility.yul\":1586:1590   */\n  dup2\n    /* \"#utility.yul\":1582:1597   */\n  add\n    /* \"#utility.yul\":1574:1597   */\n  swap1\n  pop\n    /* \"#utility.yul\":1296:1604   */\n  swap2\n  swap1\n  pop\n  jump\t// out\n    /* \"#utility.yul\":1610:1856   */\ntag_35:\n    /* \"#utility.yul\":1691:1692   */\n  0x00\n    /* \"#utility.yul\":1701:1814   */\ntag_83:\n    /* \"#utility.yul\":1715:1721   */\n  dup4\n    /* \"#utility.yul\":1712:1713   */\n  dup2\n    /* \"#utility.yul\":1709:1722   */\n  lt\n    /* \"#utility.yul\":1701:1814   */\n  iszero\n  tag_85\n  jumpi\n    /* \"#utility.yul\":1800:1801   */\n  dup1\n    /* \"#utility.yul\":1795:1798   */\n  dup3\n    /* \"#utility.yul\":1791:1802   */\n  add\n    /* \"#utility.yul\":1785:1803   */\n  mload\n    /* \"#utility.yul\":1781:1782   */\n  dup2\n    /* \"#utility.yul\":1776:1779   */\n  dup5\n    /* \"#utility.yul\":1772:1783   */\n  add\n    /* \"#utility.yul\":1765:1804   */\n  mstore\n    /* \"#utility.yul\":1737:1739   */\n  0x20\n    /* \"#utility.yul\":1734:1735   */\n  dup2\n    /* \"#utility.yul\":1730:1740   */\n  add\n    /* \"#utility.yul\":1725:1740   */\n  swap1\n  pop\n    /* \"#utility.yul\":1701:1814   */\n  jump(tag_83)\ntag_85:\n    /* \"#utility.yul\":1848:1849   */\n  0x00\n    /* \"#utility.yul\":1839:1845   */\n  dup5\n    /* \"#utility.yul\":1834:1837   */\n  dup5\n    /* \"#utility.yul\":1830:1846   */\n  add\n    /* \"#utility.yul\":1823:1850   */\n  mstore\n    /* \"#utility.yul\":1672:1856   */\n  pop\n    /* \"#utility.yul\":1610:1856   */\n  pop\n  pop\n  pop\n  jump\t// out\n    /* \"#utility.yul\":1862:2296   */\ntag_36:\n    /* \"#utility.yul\":1951:1956   */\n  0x00\n    /* \"#utility.yul\":1976:2042   */\n  tag_87\n    /* \"#utility.yul\":1992:2041   */\n  tag_88\n    /* \"#utility.yul\":2034:2040   */\n  dup5\n    /* \"#utility.yul\":1992:2041   */\n  tag_34\n  jump\t// in\ntag_88:\n    /* \"#utility.yul\":1976:2042   */\n  tag_33\n  jump\t// in\ntag_87:\n    /* \"#utility.yul\":1967:2042   */\n  swap1\n  pop\n    /* \"#utility.yul\":2065:2071   */\n  dup3\n    /* \"#utility.yul\":2058:2063   */\n  dup2\n    /* \"#utility.yul\":2051:2072   */\n  mstore\n    /* \"#utility.yul\":2103:2107   */\n  0x20\n    /* \"#utility.yul\":2096:2101   */\n  dup2\n    /* \"#utility.yul\":2092:2108   */\n  add\n    /* \"#utility.yul\":2141:2144   */\n  dup5\n    /* \"#utility.yul\":2132:2138   */\n  dup5\n    /* \"#utility.yul\":2127:2130   */\n  dup5\n    /* \"#utility.yul\":2123:2139   */\n  add\n    /* \"#utility.yul\":2120:2145   */\n  gt\n    /* \"#utility.yul\":2117:2229   */\n  iszero\n  tag_89\n  jumpi\n    /* \"#utility.yul\":2148:2227   */\n  tag_90\n  tag_29\n  jump\t// in\ntag_90:\n    /* \"#utility.yul\":2117:2229   */\ntag_89:\n    /* \"#utility.yul\":2238:2290   */\n  tag_91\n    /* \"#utility.yul\":2283:2289   */\n  dup5\n    /* \"#utility.yul\":2278:2281   */\n  dup3\n    /* \"#utility.yul\":2273:2276   */\n  dup6\n    /* \"#utility.yul\":2238:2290   */\n  tag_35\n  jump\t// in\ntag_91:\n    /* \"#utility.yul\":1957:2296   */\n  pop\n    /* \"#utility.yul\":1862:2296   */\n  swap4\n  swap3\n  pop\n  pop\n  pop\n  jump\t// out\n    /* \"#utility.yul\":2316:2671   */\ntag_37:\n    /* \"#utility.yul\":2383:2388   */\n  0x00\n    /* \"#utility.yul\":2432:2435   */\n  dup3\n    /* \"#utility.yul\":2425:2429   */\n  0x1f\n    /* \"#utility.yul\":2417:2423   */\n  dup4\n    /* \"#utility.yul\":2413:2430   */\n  add\n    /* \"#utility.yul\":2409:2436   */\n  slt\n    /* \"#utility.yul\":2399:2521   */\n  tag_93\n  jumpi\n    /* \"#utility.yul\":2440:2519   */\n  tag_94\n  tag_28\n  jump\t// in\ntag_94:\n    /* \"#utility.yul\":2399:2521   */\ntag_93:\n    /* \"#utility.yul\":2550:2556   */\n  dup2\n    /* \"#utility.yul\":2544:2557   */\n  mload\n    /* \"#utility.yul\":2575:2665   */\n  tag_95\n    /* \"#utility.yul\":2661:2664   */\n  dup5\n    /* \"#utility.yul\":2653:2659   */\n  dup3\n    /* \"#utility.yul\":2646:2650   */\n  0x20\n    /* \"#utility.yul\":2638:2644   */\n  dup7\n    /* \"#utility.yul\":2634:2651   */\n  add\n    /* \"#utility.yul\":2575:2665   */\n  tag_36\n  jump\t// in\ntag_95:\n    /* \"#utility.yul\":2566:2665   */\n  swap2\n  pop\n    /* \"#utility.yul\":2389:2671   */\n  pop\n    /* \"#utility.yul\":2316:2671   */\n  swap3\n  swap2\n  pop\n  pop\n  jump\t// out\n    /* \"#utility.yul\":2677:3530   */\ntag_3:\n    /* \"#utility.yul\":2776:2782   */\n  0x00\n    /* \"#utility.yul\":2784:2790   */\n  dup1\n    /* \"#utility.yul\":2833:2835   */\n  0x40\n    /* \"#utility.yul\":2821:2830   */\n  dup4\n    /* \"#utility.yul\":2812:2819   */\n  dup6\n    /* \"#utility.yul\":2808:2831   */\n  sub\n    /* \"#utility.yul\":2804:2836   */\n  slt\n    /* \"#utility.yul\":2801:2920   */\n  iszero\n  tag_97\n  jumpi\n    /* \"#utility.yul\":2839:2918   */\n  tag_98\n  tag_26\n  jump\t// in\ntag_98:\n    /* \"#utility.yul\":2801:2920   */\ntag_97:\n    /* \"#utility.yul\":2980:2981   */\n  0x00\n    /* \"#utility.yul\":2969:2978   */\n  dup4\n    /* \"#utility.yul\":2965:2982   */\n  add\n    /* \"#utility.yul\":2959:2983   */\n  mload\n    /* \"#utility.yul\":3010:3028   */\n  0xffffffffffffffff\n    /* \"#utility.yul\":3002:3008   */\n  dup2\n    /* \"#utility.yul\":2999:3029   */\n  gt\n    /* \"#utility.yul\":2996:3113   */\n  iszero\n  tag_99\n  jumpi\n    /* \"#utility.yul\":3032:3111   */\n  tag_100\n  tag_27\n  jump\t// in\ntag_100:\n    /* \"#utility.yul\":2996:3113   */\ntag_99:\n    /* \"#utility.yul\":3137:3211   */\n  tag_101\n    /* \"#utility.yul\":3203:3210   */\n  dup6\n    /* \"#utility.yul\":3194:3200   */\n  dup3\n    /* \"#utility.yul\":3183:3192   */\n  dup7\n    /* \"#utility.yul\":3179:3201   */\n  add\n    /* \"#utility.yul\":3137:3211   */\n  tag_37\n  jump\t// in\ntag_101:\n    /* \"#utility.yul\":3127:3211   */\n  swap3\n  pop\n    /* \"#utility.yul\":2930:3221   */\n  pop\n    /* \"#utility.yul\":3281:3283   */\n  0x20\n    /* \"#utility.yul\":3270:3279   */\n  dup4\n    /* \"#utility.yul\":3266:3284   */\n  add\n    /* \"#utility.yul\":3260:3285   */\n  mload\n    /* \"#utility.yul\":3312:3330   */\n  0xffffffffffffffff\n    /* \"#utility.yul\":3304:3310   */\n  dup2\n    /* \"#utility.yul\":3301:3331   */\n  gt\n    /* \"#utility.yul\":3298:3415   */\n  iszero\n  tag_102\n  jumpi\n    /* \"#utility.yul\":3334:3413   */\n  tag_103\n  tag_27\n  jump\t// in\ntag_103:\n    /* \"#utility.yul\":3298:3415   */\ntag_102:\n    /* \"#utility.yul\":3439:3513   */\n  tag_104\n    /* \"#utility.yul\":3505:3512   */\n  dup6\n    /* \"#utility.yul\":3496:3502   */\n  dup3\n    /* \"#utility.yul\":3485:3494   */\n  dup7\n    /* \"#utility.yul\":3481:3503   */\n  add\n    /* \"#utility.yul\":3439:3513   */\n  tag_37\n  jump\t// in\ntag_104:\n    /* \"#utility.yul\":3429:3513   */\n  swap2\n  pop\n    /* \"#utility.yul\":3231:3523   */\n  pop\n    /* \"#utility.yul\":2677:3530   */\n  swap3\n  pop\n  swap3\n  swap1\n  pop\n  jump\t// out\n    /* \"#utility.yul\":3536:3635   */\ntag_38:\n    /* \"#utility.yul\":3588:3594   */\n  0x00\n    /* \"#utility.yul\":3622:3627   */\n  dup2\n    /* \"#utility.yul\":3616:3628   */\n  mload\n    /* \"#utility.yul\":3606:3628   */\n  swap1\n  pop\n    /* \"#utility.yul\":3536:3635   */\n  swap2\n  swap1\n  pop\n  jump\t// out\n    /* \"#utility.yul\":3641:3821   */\ntag_39:\n    /* \"#utility.yul\":3689:3766   */\n  0x4e487b7100000000000000000000000000000000000000000000000000000000\n    /* \"#utility.yul\":3686:3687   */\n  0x00\n    /* \"#utility.yul\":3679:3767   */\n  mstore\n    /* \"#utility.yul\":3786:3790   */\n  0x22\n    /* \"#utility.yul\":3783:3784   */\n  0x04\n    /* \"#utility.yul\":3776:3791   */\n  mstore\n    /* \"#utility.yul\":3810:3814   */\n  0x24\n    /* \"#utility.yul\":3807:3808   */\n  0x00\n    /* \"#utility.yul\":3800:3815   */\n  revert\n    /* \"#utility.yul\":3827:4147   */\ntag_40:\n    /* \"#utility.yul\":3871:3877   */\n  0x00\n    /* \"#utility.yul\":3908:3909   */\n  0x02\n    /* \"#utility.yul\":3902:3906   */\n  dup3\n    /* \"#utility.yul\":3898:3910   */\n  div\n    /* \"#utility.yul\":3888:3910   */\n  swap1\n  pop\n    /* \"#utility.yul\":3955:3956   */\n  0x01\n    /* \"#utility.yul\":3949:3953   */\n  dup3\n    /* \"#utility.yul\":3945:3957   */\n  and\n    /* \"#utility.yul\":3976:3994   */\n  dup1\n    /* \"#utility.yul\":3966:4047   */\n  tag_108\n  jumpi\n    /* \"#utility.yul\":4032:4036   */\n  0x7f\n    /* \"#utility.yul\":4024:4030   */\n  dup3\n    /* \"#utility.yul\":4020:4037   */\n  and\n    /* \"#utility.yul\":4010:4037   */\n  swap2\n  pop\n    /* \"#utility.yul\":3966:4047   */\ntag_108:\n    /* \"#utility.yul\":4094:4096   */\n  0x20\n    /* \"#utility.yul\":4086:4092   */\n  dup3\n    /* \"#utility.yul\":4083:4097   */\n  lt\n    /* \"#utility.yul\":4063:4081   */\n  dup2\n    /* \"#utility.yul\":4060:4098   */\n  sub\n    /* \"#utility.yul\":4057:4141   */\n  tag_109\n  jumpi\n    /* \"#utility.yul\":4113:4131   */\n  tag_110\n  tag_39\n  jump\t// in\ntag_110:\n    /* \"#utility.yul\":4057:4141   */\ntag_109:\n    /* \"#utility.yul\":3878:4147   */\n  pop\n    /* \"#utility.yul\":3827:4147   */\n  swap2\n  swap1\n  pop\n  jump\t// out\n    /* \"#utility.yul\":4153:4294   */\ntag_41:\n    /* \"#utility.yul\":4202:4206   */\n  0x00\n    /* \"#utility.yul\":4225:4228   */\n  dup2\n    /* \"#utility.yul\":4217:4228   */\n  swap1\n  pop\n    /* \"#utility.yul\":4248:4251   */\n  dup2\n    /* \"#utility.yul\":4245:4246   */\n  0x00\n    /* \"#utility.yul\":4238:4252   */\n  mstore\n    /* \"#utility.yul\":4282:4286   */\n  0x20\n    /* \"#utility.yul\":4279:4280   */\n  0x00\n    /* \"#utility.yul\":4269:4287   */\n  keccak256\n    /* \"#utility.yul\":4261:4287   */\n  swap1\n  pop\n    /* \"#utility.yul\":4153:4294   */\n  swap2\n  swap1\n  pop\n  jump\t// out\n    /* \"#utility.yul\":4300:4393   */\ntag_42:\n    /* \"#utility.yul\":4337:4343   */\n  0x00\n    /* \"#utility.yul\":4384:4386   */\n  0x20\n    /* \"#utility.yul\":4379:4381   */\n  0x1f\n    /* \"#utility.yul\":4372:4377   */\n  dup4\n    /* \"#utility.yul\":4368:4382   */\n  add\n    /* \"#utility.yul\":4364:4387   */\n  div\n    /* \"#utility.yul\":4354:4387   */\n  swap1\n  pop\n    /* \"#utility.yul\":4300:4393   */\n  swap2\n  swap1\n  pop\n  jump\t// out\n    /* \"#utility.yul\":4399:4506   */\ntag_43:\n    /* \"#utility.yul\":4443:4451   */\n  0x00\n    /* \"#utility.yul\":4493:4498   */\n  dup3\n    /* \"#utility.yul\":4487:4491   */\n  dup3\n    /* \"#utility.yul\":4483:4499   */\n  shl\n    /* \"#utility.yul\":4462:4499   */\n  swap1\n  pop\n    /* \"#utility.yul\":4399:4506   */\n  swap3\n  swap2\n  pop\n  pop\n  jump\t// out\n    /* \"#utility.yul\":4512:4905   */\ntag_44:\n    /* \"#utility.yul\":4581:4587   */\n  0x00\n    /* \"#utility.yul\":4631:4632   */\n  0x08\n    /* \"#utility.yul\":4619:4629   */\n  dup4\n    /* \"#utility.yul\":4615:4633   */\n  mul\n    /* \"#utility.yul\":4654:4751   */\n  tag_115\n    /* \"#utility.yul\":4684:4750   */\n  0xffffffffffffffffffffffffffffffffffffffffffffffffffffffffffffffff\n    /* \"#utility.yul\":4673:4682   */\n  dup3\n    /* \"#utility.yul\":4654:4751   */\n  tag_43\n  jump\t// in\ntag_115:\n    /* \"#utility.yul\":4772:4811   */\n  tag_116\n    /* \"#utility.yul\":4802:4810   */\n  dup7\n    /* \"#utility.yul\":4791:4800   */\n  dup4\n    /* \"#utility.yul\":4772:4811   */\n  tag_43\n  jump\t// in\ntag_116:\n    /* \"#utility.yul\":4760:4811   */\n  swap6\n  pop\n    /* \"#utility.yul\":4844:4848   */\n  dup1\n    /* \"#utility.yul\":4840:4849   */\n  not\n    /* \"#utility.yul\":4833:4838   */\n  dup5\n    /* \"#utility.yul\":4829:4850   */\n  and\n    /* \"#utility.yul\":4820:4850   */\n  swap4\n  pop\n    /* \"#utility.yul\":4893:4897   */\n  dup1\n    /* \"#utility.yul\":4883:4891   */\n  dup7\n    /* \"#utility.yul\":4879:4898   */\n  and\n    /* \"#utility.yul\":4872:4877   */\n  dup5\n    /* \"#utility.yul\":4869:4899   */\n  or\n    /* \"#utility.yul\":4859:4899   */\n  swap3\n  pop\n    /* \"#utility.yul\":4588:4905   */\n  pop\n  pop\n    /* \"#utility.yul\":4512:4905   */\n  swap4\n  swap3\n  pop\n  pop\n  pop\n  jump\t// out\n    /* \"#utility.yul\":4911:4988   */\ntag_45:\n    /* \"#utility.yul\":4948:4955   */\n  0x00\n    /* \"#utility.yul\":4977:4982   */\n  dup2\n    /* \"#utility.yul\":4966:4982   */\n  swap1\n  pop\n    /* \"#utility.yul\":4911:4988   */\n  swap2\n  swap1\n  pop\n  jump\t// out\n    /* \"#utility.yul\":4994:5054   */\ntag_46:\n    /* \"#utility.yul\":5022:5025   */\n  0x00\n    /* \"#utility.yul\":5043:5048   */\n  dup2\n    /* \"#utility.yul\":5036:5048   */\n  swap1\n  pop\n    /* \"#utility.yul\":4994:5054   */\n  swap2\n  swap1\n  pop\n  jump\t// out\n    /* \"#utility.yul\":5060:5202   */\ntag_47:\n    /* \"#utility.yul\":5110:5119   */\n  0x00\n    /* \"#utility.yul\":5143:5196   */\n  tag_120\n    /* \"#utility.yul\":5161:5195   */\n  tag_121\n    /* \"#utility.yul\":5170:5194   */\n  tag_122\n    /* \"#utility.yul\":5188:5193   */\n  dup5\n    /* \"#utility.yul\":5170:5194   */\n  tag_45\n  jump\t// in\ntag_122:\n    /* \"#utility.yul\":5161:5195   */\n  tag_46\n  jump\t// in\ntag_121:\n    /* \"#utility.yul\":5143:5196   */\n  tag_45\n  jump\t// in\ntag_120:\n    /* \"#utility.yul\":5130:5196   */\n  swap1\n  pop\n    /* \"#utility.yul\":5060:5202   */\n  swap2\n  swap1\n  pop\n  jump\t// out\n    /* \"#utility.yul\":5208:5283   */\ntag_48:\n    /* \"#utility.yul\":5251:5254   */\n  0x00\n    /* \"#utility.yul\":5272:5277   */\n  dup2\n    /* \"#utility.yul\":5265:5277   */\n  swap1\n  pop\n    /* \"#utility.yul\":5208:5283   */\n  swap2\n  swap1\n  pop\n  jump\t// out\n    /* \"#utility.yul\":5289:5558   */\ntag_49:\n    /* \"#utility.yul\":5399:5438   */\n  tag_125\n    /* \"#utility.yul\":5430:5437   */\n  dup4\n    /* \"#utility.yul\":5399:5438   */\n  tag_47\n  jump\t// in\ntag_125:\n    /* \"#utility.yul\":5460:5551   */\n  tag_126\n    /* \"#utility.yul\":5509:5550   */\n  tag_127\n    /* \"#utility.yul\":5533:5549   */\n  dup3\n    /* \"#utility.yul\":5509:5550   */\n  tag_48\n  jump\t// in\ntag_127:\n    /* \"#utility.yul\":5501:5507   */\n  dup5\n    /* \"#utility.yul\":5494:5498   */\n  dup5\n    /* \"#utility.yul\":5488:5499   */\n  sload\n    /* \"#utility.yul\":5460:5551   */\n  tag_44\n  jump\t// in\ntag_126:\n    /* \"#utility.yul\":5454:5458   */\n  dup3\n    /* \"#utility.yul\":5447:5552   */\n  sstore\n    /* \"#utility.yul\":5365:5558   */\n  pop\n    /* \"#utility.yul\":5289:5558   */\n  pop\n  pop\n  pop\n  jump\t// out\n    /* \"#utility.yul\":5564:5637   */\ntag_50:\n    /* \"#utility.yul\":5609:5612   */\n  0x00\n    /* \"#utility.yul\":5564:5637   */\n  swap1\n  jump\t// out\n    /* \"#utility.yul\":5643:5832   */\ntag_51:\n    /* \"#utility.yul\":5720:5752   */\n  tag_130\n  tag_50\n  jump\t// in\ntag_130:\n    /* \"#utility.yul\":5761:5826   */\n  tag_131\n    /* \"#utility.yul\":5819:5825   */\n  dup2\n    /* \"#utility.yul\":5811:5817   */\n  dup5\n    /* \"#utility.yul\":5805:5809   */\n  dup5\n    /* \"#utility.yul\":5761:5826   */\n  tag_49\n  jump\t// in\ntag_131:\n    /* \"#utility.yul\":5696:5832   */\n  pop\n    /* \"#utility.yul\":5643:5832   */\n  pop\n  pop\n  jump\t// out\n    /* \"#utility.yul\":5838:6024   */\ntag_52:\n    /* \"#utility.yul\":5898:6018   */\ntag_133:\n    /* \"#utility.yul\":5915:5918   */\n  dup2\n    /* \"#utility.yul\":5908:5913   */\n  dup2\n    /* \"#utility.yul\":5905:5919   */\n  lt\n    /* \"#utility.yul\":5898:6018   */\n  iszero\n  tag_135\n  jumpi\n    /* \"#utility.yul\":5969:6008   */\n  tag_136\n    /* \"#utility.yul\":6006:6007   */\n  0x00\n    /* \"#utility.yul\":5999:6004   */\n  dup3\n    /* \"#utility.yul\":5969:6008   */\n  tag_51\n  jump\t// in\ntag_136:\n    /* \"#utility.yul\":5942:5943   */\n  0x01\n    /* \"#utility.yul\":5935:5940   */\n  dup2\n    /* \"#utility.yul\":5931:5944   */\n  add\n    /* \"#utility.yul\":5922:5944   */\n  swap1\n  pop\n    /* \"#utility.yul\":5898:6018   */\n  jump(tag_133)\ntag_135:\n    /* \"#utility.yul\":5838:6024   */\n  pop\n  pop\n  jump\t// out\n    /* \"#utility.yul\":6030:6573   */\ntag_53:\n    /* \"#utility.yul\":6131:6133   */\n  0x1f\n    /* \"#utility.yul\":6126:6129   */\n  dup3\n    /* \"#utility.yul\":6123:6134   */\n  gt\n    /* \"#utility.yul\":6120:6566   */\n  iszero\n  tag_138\n  jumpi\n    /* \"#utility.yul\":6165:6203   */\n  tag_139\n    /* \"#utility.yul\":6197:6202   */\n  dup2\n    /* \"#utility.yul\":6165:6203   */\n  tag_41\n  jump\t// in\ntag_139:\n    /* \"#utility.yul\":6249:6278   */\n  tag_140\n    /* \"#utility.yul\":6267:6277   */\n  dup5\n    /* \"#utility.yul\":6249:6278   */\n  tag_42\n  jump\t// in\ntag_140:\n    /* \"#utility.yul\":6239:6247   */\n  dup2\n    /* \"#utility.yul\":6235:6279   */\n  add\n    /* \"#utility.yul\":6432:6434   */\n  0x20\n    /* \"#utility.yul\":6420:6430   */\n  dup6\n    /* \"#utility.yul\":6417:6435   */\n  lt\n    /* \"#utility.yul\":6414:6463   */\n  iszero\n  tag_141\n  jumpi\n    /* \"#utility.yul\":6453:6461   */\n  dup2\n    /* \"#utility.yul\":6438:6461   */\n  swap1\n  pop\n    /* \"#utility.yul\":6414:6463   */\ntag_141:\n    /* \"#utility.yul\":6476:6556   */\n  tag_142\n    /* \"#utility.yul\":6532:6554   */\n  tag_143\n    /* \"#utility.yul\":6550:6553   */\n  dup6\n    /* \"#utility.yul\":6532:6554   */\n  tag_42\n  jump\t// in\ntag_143:\n    /* \"#utility.yul\":6522:6530   */\n  dup4\n    /* \"#utility.yul\":6518:6555   */\n  add\n    /* \"#utility.yul\":6505:6516   */\n  dup3\n    /* \"#utility.yul\":6476:6556   */\n  tag_52\n  jump\t// in\ntag_142:\n    /* \"#utility.yul\":6135:6566   */\n  pop\n  pop\n    /* \"#utility.yul\":6120:6566   */\ntag_138:\n    /* \"#utility.yul\":6030:6573   */\n  pop\n  pop\n  pop\n  jump\t// out\n    /* \"#utility.yul\":6579:6696   */\ntag_54:\n    /* \"#utility.yul\":6633:6641   */\n  0x00\n    /* \"#utility.yul\":6683:6688   */\n  dup3\n    /* \"#utility.yul\":6677:6681   */\n  dup3\n    /* \"#utility.yul\":6673:6689   */\n  shr\n    /* \"#utility.yul\":6652:6689   */\n  swap1\n  pop\n    /* \"#utility.yul\":6579:6696   */\n  swap3\n  swap2\n  pop\n  pop\n  jump\t// out\n    /* \"#utility.yul\":6702:6871   */\ntag_55:\n    /* \"#utility.yul\":6746:6752   */\n  0x00\n    /* \"#utility.yul\":6779:6830   */\n  tag_146\n    /* \"#utility.yul\":6827:6828   */\n  0x00\n    /* \"#utility.yul\":6823:6829   */\n  not\n    /* \"#utility.yul\":6815:6820   */\n  dup5\n    /* \"#utility.yul\":6812:6813   */\n  0x08\n    /* \"#utility.yul\":6808:6821   */\n  mul\n    /* \"#utility.yul\":6779:6830   */\n  tag_54\n  jump\t// in\ntag_146:\n    /* \"#utility.yul\":6775:6831   */\n  not\n    /* \"#utility.yul\":6860:6864   */\n  dup1\n    /* \"#utility.yul\":6854:6858   */\n  dup4\n    /* \"#utility.yul\":6850:6865   */\n  and\n    /* \"#utility.yul\":6840:6865   */\n  swap2\n  pop\n    /* \"#utility.yul\":6753:6871   */\n  pop\n    /* \"#utility.yul\":6702:6871   */\n  swap3\n  swap2\n  pop\n  pop\n  jump\t// out\n    /* \"#utility.yul\":6876:7171   */\ntag_56:\n    /* \"#utility.yul\":6952:6956   */\n  0x00\n    /* \"#utility.yul\":7098:7127   */\n  tag_148\n    /* \"#utility.yul\":7123:7126   */\n  dup4\n    /* \"#utility.yul\":7117:7121   */\n  dup4\n    /* \"#utility.yul\":7098:7127   */\n  tag_55\n  jump\t// in\ntag_148:\n    /* \"#utility.yul\":7090:7127   */\n  swap2\n  pop\n    /* \"#utility.yul\":7160:7163   */\n  dup3\n    /* \"#utility.yul\":7157:7158   */\n  0x02\n    /* \"#utility.yul\":7153:7164   */\n  mul\n    /* \"#utility.yul\":7147:7151   */\n  dup3\n    /* \"#utility.yul\":7144:7165   */\n  or\n    /* \"#utility.yul\":7136:7165   */\n  swap1\n  pop\n    /* \"#utility.yul\":6876:7171   */\n  swap3\n  swap2\n  pop\n  pop\n  jump\t// out\n    /* \"#utility.yul\":7176:8571   */\ntag_7:\n    /* \"#utility.yul\":7293:7330   */\n  tag_150\n    /* \"#utility.yul\":7326:7329   */\n  dup3\n    /* \"#utility.yul\":7293:7330   */\n  tag_38\n  jump\t// in\ntag_150:\n    /* \"#utility.yul\":7395:7413   */\n  0xffffffffffffffff\n    /* \"#utility.yul\":7387:7393   */\n  dup2\n    /* \"#utility.yul\":7384:7414   */\n  gt\n    /* \"#utility.yul\":7381:7437   */\n  iszero\n  tag_151\n  jumpi\n    /* \"#utility.yul\":7417:7435   */\n  tag_152\n  tag_31\n  jump\t// in\ntag_152:\n    /* \"#utility.yul\":7381:7437   */\ntag_151:\n    /* \"#utility.yul\":7461:7499   */\n  tag_153\n    /* \"#utility.yul\":7493:7497   */\n  dup3\n    /* \"#utility.yul\":7487:7498   */\n  sload\n    /* \"#utility.yul\":7461:7499   */\n  tag_40\n  jump\t// in\ntag_153:\n    /* \"#utility.yul\":7546:7613   */\n  tag_154\n    /* \"#utility.yul\":7606:7612   */\n  dup3\n    /* \"#utility.yul\":7598:7604   */\n  dup3\n    /* \"#utility.yul\":7592:7596   */\n  dup6\n    /* \"#utility.yul\":7546:7613   */\n  tag_53\n  jump\t// in\ntag_154:\n    /* \"#utility.yul\":7640:7641   */\n  0x00\n    /* \"#utility.yul\":7664:7668   */\n  0x20\n    /* \"#utility.yul\":7651:7668   */\n  swap1\n  pop\n    /* \"#utility.yul\":7696:7698   */\n  0x1f\n    /* \"#utility.yul\":7688:7694   */\n  dup4\n    /* \"#utility.yul\":7685:7699   */\n  gt\n    /* \"#utility.yul\":7713:7714   */\n  0x01\n    /* \"#utility.yul\":7708:8326   */\n  dup2\n  eq\n  tag_156\n  jumpi\n    /* \"#utility.yul\":8370:8371   */\n  0x00\n    /* \"#utility.yul\":8387:8393   */\n  dup5\n    /* \"#utility.yul\":8384:8461   */\n  iszero\n  tag_157\n  jumpi\n    /* \"#utility.yul\":8436:8445   */\n  dup3\n    /* \"#utility.yul\":8431:8434   */\n  dup8\n    /* \"#utility.yul\":8427:8446   */\n  add\n    /* \"#utility.yul\":8421:8447   */\n  mload\n    /* \"#utility.yul\":8412:8447   */\n  swap1\n  pop\n    /* \"#utility.yul\":8384:8461   */\ntag_157:\n    /* \"#utility.yul\":8487:8554   */\n  tag_158\n    /* \"#utility.yul\":8547:8553   */\n  dup6\n    /* \"#utility.yul\":8540:8545   */\n  dup3\n    /* \"#utility.yul\":8487:8554   */\n  tag_56\n  jump\t// in\ntag_158:\n    /* \"#utility.yul\":8481:8485   */\n  dup7\n    /* \"#utility.yul\":8474:8555   */\n  sstore\n    /* \"#utility.yul\":8343:8565   */\n  pop\n    /* \"#utility.yul\":7678:8565   */\n  jump(tag_155)\n    /* \"#utility.yul\":7708:8326   */\ntag_156:\n    /* \"#utility.yul\":7760:7764   */\n  0x1f\n    /* \"#utility.yul\":7756:7765   */\n  not\n    /* \"#utility.yul\":7748:7754   */\n  dup5\n    /* \"#utility.yul\":7744:7766   */\n  and\n    /* \"#utility.yul\":7794:7831   */\n  tag_159\n    /* \"#utility.yul\":7826:7830   */\n  dup7\n    /* \"#utility.yul\":7794:7831   */\n  tag_41\n  jump\t// in\ntag_159:\n    /* \"#utility.yul\":7853:7854   */\n  0x00\n    /* \"#utility.yul\":7867:8075   */\ntag_160:\n    /* \"#utility.yul\":7881:7888   */\n  dup3\n    /* \"#utility.yul\":7878:7879   */\n  dup2\n    /* \"#utility.yul\":7875:7889   */\n  lt\n    /* \"#utility.yul\":7867:8075   */\n  iszero\n  tag_162\n  jumpi\n    /* \"#utility.yul\":7960:7969   */\n  dup5\n    /* \"#utility.yul\":7955:7958   */\n  dup10\n    /* \"#utility.yul\":7951:7970   */\n  add\n    /* \"#utility.yul\":7945:7971   */\n  mload\n    /* \"#utility.yul\":7937:7943   */\n  dup3\n    /* \"#utility.yul\":7930:7972   */\n  sstore\n    /* \"#utility.yul\":8011:8012   */\n  0x01\n    /* \"#utility.yul\":8003:8009   */\n  dup3\n    /* \"#utility.yul\":7999:8013   */\n  add\n    /* \"#utility.yul\":7989:8013   */\n  swap2\n  pop\n    /* \"#utility.yul\":8058:8060   */\n  0x20\n    /* \"#utility.yul\":8047:8056   */\n  dup6\n    /* \"#utility.yul\":8043:8061   */\n  add\n    /* \"#utility.yul\":8030:8061   */\n  swap5\n  pop\n    /* \"#utility.yul\":7904:7908   */\n  0x20\n    /* \"#utility.yul\":7901:7902   */\n  dup2\n    /* \"#utility.yul\":7897:7909   */\n  add\n    /* \"#utility.yul\":7892:7909   */\n  swap1\n  pop\n    /* \"#utility.yul\":7867:8075   */\n  jump(tag_160)\ntag_162:\n    /* \"#utility.yul\":8103:8109   */\n  dup7\n    /* \"#utility.yul\":8094:8101   */\n  dup4\n    /* \"#utility.yul\":8091:8110   */\n  lt\n    /* \"#utility.yul\":8088:8267   */\n  iszero\n  tag_163\n  jumpi\n    /* \"#utility.yul\":8161:8170   */\n  dup5\n    /* \"#utility.yul\":8156:8159   */\n  dup10\n    /* \"#utility.yul\":8152:8171   */\n  add\n    /* \"#utility.yul\":8146:8172   */\n  mload\n    /* \"#utility.yul\":8204:8252   */\n  tag_164\n    /* \"#utility.yul\":8246:8250   */\n  0x1f\n    /* \"#utility.yul\":8238:8244   */\n  dup10\n    /* \"#utility.yul\":8234:8251   */\n  and\n    /* \"#utility.yul\":8223:8232   */\n  dup3\n    /* \"#utility.yul\":8204:8252   */\n  tag_55\n  jump\t// in\ntag_164:\n    /* \"#utility.yul\":8196:8202   */\n  dup4\n    /* \"#utility.yul\":8189:8253   */\n  sstore\n    /* \"#utility.yul\":8111:8267   */\n  pop\n    /* \"#utility.yul\":8088:8267   */\ntag_163:\n    /* \"#utility.yul\":8313:8314   */\n  0x01\n    /* \"#utility.yul\":8309:8310   */\n  0x02\n    /* \"#utility.yul\":8301:8307   */\n  dup9\n    /* \"#utility.yul\":8297:8311   */\n  mul\n    /* \"#utility.yul\":8293:8315   */\n  add\n    /* \"#utility.yul\":8287:8291   */\n  dup9\n    /* \"#utility.yul\":8280:8316   */\n  sstore\n    /* \"#utility.yul\":7715:8326   */\n  pop\n  pop\n  pop\n    /* \"#utility.yul\":7678:8565   */\ntag_155:\n  pop\n    /* \"#utility.yul\":7268:8571   */\n  pop\n  pop\n  pop\n    /* \"#utility.yul\":7176:8571   */\n  pop\n  pop\n  jump\t// out\n    /* \"#utility.yul\":8577:8757   */\ntag_57:\n    /* \"#utility.yul\":8625:8702   */\n  0x4e487b7100000000000000000000000000000000000000000000000000000000\n    /* \"#utility.yul\":8622:8623   */\n  0x00\n    /* \"#utility.yul\":8615:8703   */\n  mstore\n    /* \"#utility.yul\":8722:8726   */\n  0x11\n    /* \"#utility.yul\":8719:8720   */\n  0x04\n    /* \"#utility.yul\":8712:8727   */\n  mstore\n    /* \"#utility.yul\":8746:8750   */\n  0x24\n    /* \"#utility.yul\":8743:8744   */\n  0x00\n    /* \"#utility.yul\":8736:8751   */\n  revert\n    /* \"#utility.yul\":8763:8996   */\ntag_15:\n    /* \"#utility.yul\":8802:8805   */\n  0x00\n    /* \"#utility.yul\":8825:8849   */\n  tag_167\n    /* \"#utility.yul\":8843:8848   */\n  dup3\n    /* \"#utility.yul\":8825:8849   */\n  tag_45\n  jump\t// in\ntag_167:\n    /* \"#utility.yul\":8816:8849   */\n  swap2\n  pop\n    /* \"#utility.yul\":8871:8937   */\n  0xffffffffffffffffffffffffffffffffffffffffffffffffffffffffffffffff\n    /* \"#utility.yul\":8864:8869   */\n  dup3\n    /* \"#utility.yul\":8861:8938   */\n  sub\n    /* \"#utility.yul\":8858:8961   */\n  tag_168\n  jumpi\n    /* \"#utility.yul\":8941:8959   */\n  tag_169\n  tag_57\n  jump\t// in\ntag_169:\n    /* \"#utility.yul\":8858:8961   */\ntag_168:\n    /* \"#utility.yul\":8988:8989   */\n  0x01\n    /* \"#utility.yul\":8981:8986   */\n  dup3\n    /* \"#utility.yul\":8977:8990   */\n  add\n    /* \"#utility.yul\":8970:8990   */\n  swap1\n  pop\n    /* \"#utility.yul\":8763:8996   */\n  swap2\n  swap1\n  pop\n  jump\t// out\n    /* \"#utility.yul\":9002:9171   */\ntag_58:\n    /* \"#utility.yul\":9086:9097   */\n  0x00\n    /* \"#utility.yul\":9120:9126   */\n  dup3\n    /* \"#utility.yul\":9115:9118   */\n  dup3\n    /* \"#utility.yul\":9108:9127   */\n  mstore\n    /* \"#utility.yul\":9160:9164   */\n  0x20\n    /* \"#utility.yul\":9155:9158   */\n  dup3\n    /* \"#utility.yul\":9151:9165   */\n  add\n    /* \"#utility.yul\":9136:9165   */\n  swap1\n  pop\n    /* \"#utility.yul\":9002:9171   */\n  swap3\n  swap2\n  pop\n  pop\n  jump\t// out\n    /* \"#utility.yul\":9177:9347   */\ntag_59:\n    /* \"#utility.yul\":9317:9339   */\n  0x6d696e7420746f207a65726f2061646472657373000000000000000000000000\n    /* \"#utility.yul\":9313:9314   */\n  0x00\n    /* \"#utility.yul\":9305:9311   */\n  dup3\n    /* \"#utility.yul\":9301:9315   */\n  add\n    /* \"#utility.yul\":9294:9340   */\n  mstore\n    /* \"#utility.yul\":9177:9347   */\n  pop\n  jump\t// out\n    /* \"#utility.yul\":9353:9719   */\ntag_60:\n    /* \"#utility.yul\":9495:9498   */\n  0x00\n    /* \"#utility.yul\":9516:9583   */\n  tag_173\n    /* \"#utility.yul\":9580:9582   */\n  0x14\n    /* \"#utility.yul\":9575:9578   */\n  dup4\n    /* \"#utility.yul\":9516:9583   */\n  tag_58\n  jump\t// in\ntag_173:\n    /* \"#utility.yul\":9509:9583   */\n  swap2\n  pop\n    /* \"#utility.yul\":9592:9685   */\n  tag_174\n    /* \"#utility.yul\":9681:9684   */\n  dup3\n    /* \"#utility.yul\":9592:9685   */\n  tag_59\n  jump\t// in\ntag_174:\n    /* \"#utility.yul\":9710:9712   */\n  0x20\n    /* \"#utility.yul\":9705:9708   */\n  dup3\n    /* \"#utility.yul\":9701:9713   */\n  add\n    /* \"#utility.yul\":9694:9713   */\n  swap1\n  pop\n    /* \"#utility.yul\":9353:9719   */\n  swap2\n  swap1\n  pop\n  jump\t// out\n    /* \"#utility.yul\":9725:10144   */\ntag_20:\n    /* \"#utility.yul\":9891:9895   */\n  0x00\n    /* \"#utility.yul\":9929:9931   */\n  0x20\n    /* \"#utility.yul\":9918:9927   */\n  dup3\n    /* \"#utility.yul\":9914:9932   */\n  add\n    /* \"#utility.yul\":9906:9932   */\n  swap1\n  pop\n    /* \"#utility.yul\":9978:9987   */\n  dup2\n    /* \"#utility.yul\":9972:9976   */\n  dup2\n    /* \"#utility.yul\":9968:9988   */\n  sub\n    /* \"#utility.yul\":9964:9965   */\n  0x00\n    /* \"#utility.yul\":9953:9962   */\n  dup4\n    /* \"#utility.yul\":9949:9966   */\n  add\n    /* \"#utility.yul\":9942:9989   */\n  mstore\n    /* \"#utility.yul\":10006:10137   */\n  tag_176\n    /* \"#utility.yul\":10132:10136   */\n  dup2\n    /* \"#utility.yul\":10006:10137   */\n  tag_60\n  jump\t// in\ntag_176:\n    /* \"#utility.yul\":9998:10137   */\n  swap1\n  pop\n    /* \"#utility.yul\":9725:10144   */\n  swap2\n  swap1\n  pop\n  jump\t// out\n    /* \"#utility.yul\":10150:10314   */\ntag_61:\n    /* \"#utility.yul\":10290:10306   */\n  0x616c7265616479206d696e746564000000000000000000000000000000000000\n    /* \"#utility.yul\":10286:10287   */\n  0x00\n    /* \"#utility.yul\":10278:10284   */\n  dup3\n    /* \"#utility.yul\":10274:10288   */\n  add\n    /* \"#utility.yul\":10267:10307   */\n  mstore\n    /* \"#utility.yul\":10150:10314   */\n  pop\n  jump\t// out\n    /* \"#utility.yul\":10320:10686   */\ntag_62:\n    /* \"#utility.yul\":10462:10465   */\n  0x00\n    /* \"#utility.yul\":10483:10550   */\n  tag_179\n    /* \"#utility.yul\":10547:10549   */\n  0x0e\n    /* \"#utility.yul\":10542:10545   */\n  dup4\n    /* \"#utility.yul\":10483:10550   */\n  tag_58\n  jump\t// in\ntag_179:\n    /* \"#utility.yul\":10476:10550   */\n  swap2\n  pop\n    /* \"#utility.yul\":10559:10652   */\n  tag_180\n    /* \"#utility.yul\":10648:10651   */\n  dup3\n    /* \"#utility.yul\":10559:10652   */\n  tag_61\n  jump\t// in\ntag_180:\n    /* \"#utility.yul\":10677:10679   */\n  0x20\n    /* \"#utility.yul\":10672:10675   */\n  dup3\n    /* \"#utility.yul\":10668:10680   */\n  add\n    /* \"#utility.yul\":10661:10680   */\n  swap1\n  pop\n    /* \"#utility.yul\":10320:10686   */\n  swap2\n  swap1\n  pop\n  jump\t// out\n    /* \"#utility.yul\":10692:11111   */\ntag_23:\n    /* \"#utility.yul\":10858:10862   */\n  0x00\n    /* \"#utility.yul\":10896:10898   */\n  0x20\n    /* \"#utility.yul\":10885:10894   */\n  dup3\n    /* \"#utility.yul\":10881:10899   */\n  add\n    /* \"#utility.yul\":10873:10899   */\n  swap1\n  pop\n    /* \"#utility.yul\":10945:10954   */\n  dup2\n    /* \"#utility.yul\":10939:10943   */\n  dup2\n    /* \"#utility.yul\":10935:10955   */\n  sub\n    /* \"#utility.yul\":10931:10932   */\n  0x00\n    /* \"#utility.yul\":10920:10929   */\n  dup4\n    /* \"#utility.yul\":10916:10933   */\n  add\n    /* \"#utility.yul\":10909:10956   */\n  mstore\n    /* \"#utility.yul\":10973:11104   */\n  tag_182\n    /* \"#utility.yul\":11099:11103   */\n  dup2\n    /* \"#utility.yul\":10973:11104   */\n  tag_62\n  jump\t// in\ntag_182:\n    /* \"#utility.yul\":10965:11104   */\n  swap1\n  pop\n    /* \"#utility.yul\":10692:11111   */\n  swap2\n  swap1\n  pop\n  jump\t// out\n    /* \"week12/ERC721StdToken.sol\":2215:9433  contract ERC721StdNFT is ERC721 {... */\ntag_16:\n  dataSize(sub_0)\n  dup1\n  dataOffset(sub_0)\n  0x00\n  codecopy\n  0x00\n  return\nstop\n\nsub_0: assembly {\n        /* \"week12/ERC721StdToken.sol\":2215:9433  contract ERC721StdNFT is ERC721 {... */\n      mstore(0x40, 0x80)\n      jumpi(tag_1, lt(calldatasize, 0x04))\n      shr(0xe0, calldataload(0x00))\n      dup1\n      0x4d853ee5\n      gt\n      tag_16\n      jumpi\n      dup1\n      0x95d89b41\n      gt\n      tag_17\n      jumpi\n      dup1\n      0x95d89b41\n      eq\n      tag_12\n      jumpi\n      dup1\n      0xa22cb465\n      eq\n      tag_13\n      jumpi\n      dup1\n      0xb88d4fde\n      eq\n      tag_14\n      jumpi\n      dup1\n      0xe985e9c5\n      eq\n      tag_15\n      jumpi\n      jump(tag_1)\n    tag_17:\n      dup1\n      0x4d853ee5\n      eq\n      tag_9\n      jumpi\n      dup1\n      0x6352211e\n      eq\n      tag_10\n      jumpi\n      dup1\n      0x70a08231\n      eq\n      tag_11\n      jumpi\n      jump(tag_1)\n    tag_16:\n      dup1\n      0x095ea7b3\n      gt\n      tag_18\n      jumpi\n      dup1\n      0x095ea7b3\n      eq\n      tag_5\n      jumpi\n      dup1\n      0x23b872dd\n      eq\n      tag_6\n      jumpi\n      dup1\n      0x3c168eab\n      eq\n      tag_7\n      jumpi\n      dup1\n      0x42842e0e\n      eq\n      tag_8\n      jumpi\n      jump(tag_1)\n    tag_18:\n      dup1\n      0x01ffc9a7\n      eq\n      tag_2\n      jumpi\n      dup1\n      0x06fdde03\n      eq\n      tag_3\n      jumpi\n      dup1\n      0x081812fc\n      eq\n      tag_4\n      jumpi\n    tag_1:\n      0x00\n      dup1\n      revert\n        /* \"week12/ERC721StdToken.sol\":9194:9430  function supportsInterface(bytes4 interfaceID) external view returns (bool){... */\n    tag_2:\n      callvalue\n      dup1\n      iszero\n      tag_19\n      jumpi\n      0x00\n      dup1\n      revert\n    tag_19:\n      pop\n      tag_20\n      0x04\n      dup1\n      calldatasize\n      sub\n      dup2\n      add\n      swap1\n      tag_21\n      swap2\n      swap1\n      tag_22\n      jump\t// in\n    tag_21:\n      tag_23\n      jump\t// in\n    tag_20:\n      mload(0x40)\n      tag_24\n      swap2\n      swap1\n      tag_25\n      jump\t// in\n    tag_24:\n      mload(0x40)\n      dup1\n      swap2\n      sub\n      swap1\n      return\n        /* \"week12/ERC721StdToken.sol\":2844:2862  string public name */\n    tag_3:\n      callvalue\n      dup1\n      iszero\n      tag_26\n      jumpi\n      0x00\n      dup1\n      revert\n    tag_26:\n      pop\n      tag_27\n      tag_28\n      jump\t// in\n    tag_27:\n      mload(0x40)\n      tag_29\n      swap2\n      swap1\n      tag_30\n      jump\t// in\n    tag_29:\n      mload(0x40)\n      dup1\n      swap2\n      sub\n      swap1\n      return\n        /* \"week12/ERC721StdToken.sol\":4880:5203  function getApproved(uint256 _tokenId) external view returns (address) {... */\n    tag_4:\n      callvalue\n      dup1\n      iszero\n      tag_31\n      jumpi\n      0x00\n      dup1\n      revert\n    tag_31:\n      pop\n      tag_32\n      0x04\n      dup1\n      calldatasize\n      sub\n      dup2\n      add\n      swap1\n      tag_33\n      swap2\n      swap1\n      tag_34\n      jump\t// in\n    tag_33:\n      tag_35\n      jump\t// in\n    tag_32:\n      mload(0x40)\n      tag_36\n      swap2\n      swap1\n      tag_37\n      jump\t// in\n    tag_36:\n      mload(0x40)\n      dup1\n      swap2\n      sub\n      swap1\n      return\n        /* \"week12/ERC721StdToken.sol\":5618:6204  function approve(address _approved, uint256 _tokenId) external payable {... */\n    tag_5:\n      tag_38\n      0x04\n      dup1\n      calldatasize\n      sub\n      dup2\n      add\n      swap1\n      tag_39\n      swap2\n      swap1\n      tag_40\n      jump\t// in\n    tag_39:\n      tag_41\n      jump\t// in\n    tag_38:\n      stop\n        /* \"week12/ERC721StdToken.sol\":6786:6925  function transferFrom(address _from, address _to, uint256 _tokenId) external payable {... */\n    tag_6:\n      tag_42\n      0x04\n      dup1\n      calldatasize\n      sub\n      dup2\n      add\n      swap1\n      tag_43\n      swap2\n      swap1\n      tag_44\n      jump\t// in\n    tag_43:\n      tag_45\n      jump\t// in\n    tag_42:\n      stop\n        /* \"week12/ERC721StdToken.sol\":3859:4016  function mintNFT(address to, uint256 tokenID) public {... */\n    tag_7:\n      callvalue\n      dup1\n      iszero\n      tag_46\n      jumpi\n      0x00\n      dup1\n      revert\n    tag_46:\n      pop\n      tag_47\n      0x04\n      dup1\n      calldatasize\n      sub\n      dup2\n      add\n      swap1\n      tag_48\n      swap2\n      swap1\n      tag_40\n      jump\t// in\n    tag_48:\n      tag_49\n      jump\t// in\n    tag_47:\n      stop\n        /* \"week12/ERC721StdToken.sol\":8580:9186  function safeTransferFrom(address _from, address _to, uint256 _tokenId) external payable{... */\n    tag_8:\n      tag_50\n      0x04\n      dup1\n      calldatasize\n      sub\n      dup2\n      add\n      swap1\n      tag_51\n      swap2\n      swap1\n      tag_44\n      jump\t// in\n    tag_51:\n      tag_52\n      jump\t// in\n    tag_50:\n      stop\n        /* \"week12/ERC721StdToken.sol\":2254:2276  address public founder */\n    tag_9:\n      callvalue\n      dup1\n      iszero\n      tag_53\n      jumpi\n      0x00\n      dup1\n      revert\n    tag_53:\n      pop\n      tag_54\n      tag_55\n      jump\t// in\n    tag_54:\n      mload(0x40)\n      tag_56\n      swap2\n      swap1\n      tag_37\n      jump\t// in\n    tag_56:\n      mload(0x40)\n      dup1\n      swap2\n      sub\n      swap1\n      return\n        /* \"week12/ERC721StdToken.sol\":4085:4382  function ownerOf(uint256 _tokenId) external view returns (address){... */\n    tag_10:\n      callvalue\n      dup1\n      iszero\n      tag_57\n      jumpi\n      0x00\n      dup1\n      revert\n    tag_57:\n      pop\n      tag_58\n      0x04\n      dup1\n      calldatasize\n      sub\n      dup2\n      add\n      swap1\n      tag_59\n      swap2\n      swap1\n      tag_34\n      jump\t// in\n    tag_59:\n      tag_60\n      jump\t// in\n    tag_58:\n      mload(0x40)\n      tag_61\n      swap2\n      swap1\n      tag_37\n      jump\t// in\n    tag_61:\n      mload(0x40)\n      dup1\n      swap2\n      sub\n      swap1\n      return\n        /* \"week12/ERC721StdToken.sol\":4444:4784  function balanceOf(address _owner) external view returns (uint256){... */\n    tag_11:\n      callvalue\n      dup1\n      iszero\n      tag_62\n      jumpi\n      0x00\n      dup1\n      revert\n    tag_62:\n      pop\n      tag_63\n      0x04\n      dup1\n      calldatasize\n      sub\n      dup2\n      add\n      swap1\n      tag_64\n      swap2\n      swap1\n      tag_65\n      jump\t// in\n    tag_64:\n      tag_66\n      jump\t// in\n    tag_63:\n      mload(0x40)\n      tag_67\n      swap2\n      swap1\n      tag_68\n      jump\t// in\n    tag_67:\n      mload(0x40)\n      dup1\n      swap2\n      sub\n      swap1\n      return\n        /* \"week12/ERC721StdToken.sol\":2886:2906  string public symbol */\n    tag_12:\n      callvalue\n      dup1\n      iszero\n      tag_69\n      jumpi\n      0x00\n      dup1\n      revert\n    tag_69:\n      pop\n      tag_70\n      tag_71\n      jump\t// in\n    tag_70:\n      mload(0x40)\n      tag_72\n      swap2\n      swap1\n      tag_30\n      jump\t// in\n    tag_72:\n      mload(0x40)\n      dup1\n      swap2\n      sub\n      swap1\n      return\n        /* \"week12/ERC721StdToken.sol\":6311:6697  function setApprovalForAll(address _operator, bool _approved) external { // _operator에게 모든 토큰에 대한 전송 권한 부여 여부 설정... */\n    tag_13:\n      callvalue\n      dup1\n      iszero\n      tag_73\n      jumpi\n      0x00\n      dup1\n      revert\n    tag_73:\n      pop\n      tag_74\n      0x04\n      dup1\n      calldatasize\n      sub\n      dup2\n      add\n      swap1\n      tag_75\n      swap2\n      swap1\n      tag_76\n      jump\t// in\n    tag_75:\n      tag_77\n      jump\t// in\n    tag_74:\n      stop\n        /* \"week12/ERC721StdToken.sol\":7943:8572  function safeTransferFrom(address _from, address _to, uint256 _tokenId, bytes calldata data) external payable{... */\n    tag_14:\n      tag_78\n      0x04\n      dup1\n      calldatasize\n      sub\n      dup2\n      add\n      swap1\n      tag_79\n      swap2\n      swap1\n      tag_80\n      jump\t// in\n    tag_79:\n      tag_81\n      jump\t// in\n    tag_78:\n      stop\n        /* \"week12/ERC721StdToken.sol\":5336:5529  function isApprovedForAll(address _owner, address _operator) external view returns (bool){... */\n    tag_15:\n      callvalue\n      dup1\n      iszero\n      tag_82\n      jumpi\n      0x00\n      dup1\n      revert\n    tag_82:\n      pop\n      tag_83\n      0x04\n      dup1\n      calldatasize\n      sub\n      dup2\n      add\n      swap1\n      tag_84\n      swap2\n      swap1\n      tag_85\n      jump\t// in\n    tag_84:\n      tag_86\n      jump\t// in\n    tag_83:\n      mload(0x40)\n      tag_87\n      swap2\n      swap1\n      tag_25\n      jump\t// in\n    tag_87:\n      mload(0x40)\n      dup1\n      swap2\n      sub\n      swap1\n      return\n        /* \"week12/ERC721StdToken.sol\":9194:9430  function supportsInterface(bytes4 interfaceID) external view returns (bool){... */\n    tag_23:\n        /* \"week12/ERC721StdToken.sol\":9264:9268  bool */\n      0x00\n        /* \"week12/ERC721StdToken.sol\":9302:9326  type(ERC721).interfaceId */\n      0x80ac58cd00000000000000000000000000000000000000000000000000000000\n        /* \"week12/ERC721StdToken.sol\":9287:9326  interfaceID == type(ERC721).interfaceId */\n      not(0xffffffffffffffffffffffffffffffffffffffffffffffffffffffff)\n      and\n        /* \"week12/ERC721StdToken.sol\":9287:9298  interfaceID */\n      dup3\n        /* \"week12/ERC721StdToken.sol\":9287:9326  interfaceID == type(ERC721).interfaceId */\n      not(0xffffffffffffffffffffffffffffffffffffffffffffffffffffffff)\n      and\n      eq\n        /* \"week12/ERC721StdToken.sol\":9287:9422  interfaceID == type(ERC721).interfaceId || // 기본 ERC721 인터페이스 지원... */\n      dup1\n      tag_89\n      jumpi\n      pop\n        /* \"week12/ERC721StdToken.sol\":9398:9422  type(ERC165).interfaceId */\n      0x01ffc9a700000000000000000000000000000000000000000000000000000000\n        /* \"week12/ERC721StdToken.sol\":9383:9422  interfaceID == type(ERC165).interfaceId */\n      not(0xffffffffffffffffffffffffffffffffffffffffffffffffffffffff)\n      and\n        /* \"week12/ERC721StdToken.sol\":9383:9394  interfaceID */\n      dup3\n        /* \"week12/ERC721StdToken.sol\":9383:9422  interfaceID == type(ERC165).interfaceId */\n      not(0xffffffffffffffffffffffffffffffffffffffffffffffffffffffff)\n      and\n      eq\n        /* \"week12/ERC721StdToken.sol\":9287:9422  interfaceID == type(ERC721).interfaceId || // 기본 ERC721 인터페이스 지원... */\n    tag_89:\n        /* \"week12/ERC721StdToken.sol\":9280:9422  return interfaceID == type(ERC721).interfaceId || // 기본 ERC721 인터페이스 지원... */\n      swap1\n      pop\n        /* \"week12/ERC721StdToken.sol\":9194:9430  function supportsInterface(bytes4 interfaceID) external view returns (bool){... */\n      swap2\n      swap1\n      pop\n      jump\t// out\n        /* \"week12/ERC721StdToken.sol\":2844:2862  string public name */\n    tag_28:\n      0x05\n      dup1\n      sload\n      tag_90\n      swap1\n      tag_91\n      jump\t// in\n    tag_90:\n      dup1\n      0x1f\n      add\n      0x20\n      dup1\n      swap2\n      div\n      mul\n      0x20\n      add\n      mload(0x40)\n      swap1\n      dup2\n      add\n      0x40\n      mstore\n      dup1\n      swap3\n      swap2\n      swap1\n      dup2\n      dup2\n      mstore\n      0x20\n      add\n      dup3\n      dup1\n      sload\n      tag_92\n      swap1\n      tag_91\n      jump\t// in\n    tag_92:\n      dup1\n      iszero\n      tag_93\n      jumpi\n      dup1\n      0x1f\n      lt\n      tag_94\n      jumpi\n      0x0100\n      dup1\n      dup4\n      sload\n      div\n      mul\n      dup4\n      mstore\n      swap2\n      0x20\n      add\n      swap2\n      jump(tag_93)\n    tag_94:\n      dup3\n      add\n      swap2\n      swap1\n      0x00\n      mstore\n      keccak256(0x00, 0x20)\n      swap1\n    tag_95:\n      dup2\n      sload\n      dup2\n      mstore\n      swap1\n      0x01\n      add\n      swap1\n      0x20\n      add\n      dup1\n      dup4\n      gt\n      tag_95\n      jumpi\n      dup3\n      swap1\n      sub\n      0x1f\n      and\n      dup3\n      add\n      swap2\n    tag_93:\n      pop\n      pop\n      pop\n      pop\n      pop\n      dup2\n      jump\t// out\n        /* \"week12/ERC721StdToken.sol\":4880:5203  function getApproved(uint256 _tokenId) external view returns (address) {... */\n    tag_35:\n        /* \"week12/ERC721StdToken.sol\":4942:4949  address */\n      0x00\n        /* \"week12/ERC721StdToken.sol\":5000:5001  0 */\n      dup1\n        /* \"week12/ERC721StdToken.sol\":4970:5002  _ownerOf[_tokenId] != address(0) */\n      0xffffffffffffffffffffffffffffffffffffffff\n      and\n        /* \"week12/ERC721StdToken.sol\":4970:4978  _ownerOf */\n      0x01\n        /* \"week12/ERC721StdToken.sol\":4970:4988  _ownerOf[_tokenId] */\n      0x00\n        /* \"week12/ERC721StdToken.sol\":4979:4987  _tokenId */\n      dup5\n        /* \"week12/ERC721StdToken.sol\":4970:4988  _ownerOf[_tokenId] */\n      dup2\n      mstore\n      0x20\n      add\n      swap1\n      dup2\n      mstore\n      0x20\n      add\n      0x00\n      keccak256\n      0x00\n      swap1\n      sload\n      swap1\n      0x0100\n      exp\n      swap1\n      div\n      0xffffffffffffffffffffffffffffffffffffffff\n      and\n        /* \"week12/ERC721StdToken.sol\":4970:5002  _ownerOf[_tokenId] != address(0) */\n      0xffffffffffffffffffffffffffffffffffffffff\n      and\n      sub\n        /* \"week12/ERC721StdToken.sol\":4962:5043  require(_ownerOf[_tokenId] != address(0), \"approved query for nonexistent token\") */\n      tag_97\n      jumpi\n      mload(0x40)\n      0x08c379a000000000000000000000000000000000000000000000000000000000\n      dup2\n      mstore\n      0x04\n      add\n      tag_98\n      swap1\n      tag_99\n      jump\t// in\n    tag_98:\n      mload(0x40)\n      dup1\n      swap2\n      sub\n      swap1\n      revert\n    tag_97:\n        /* \"week12/ERC721StdToken.sol\":5104:5114  _approvals */\n      0x03\n        /* \"week12/ERC721StdToken.sol\":5104:5124  _approvals[_tokenId] */\n      0x00\n        /* \"week12/ERC721StdToken.sol\":5115:5123  _tokenId */\n      dup4\n        /* \"week12/ERC721StdToken.sol\":5104:5124  _approvals[_tokenId] */\n      dup2\n      mstore\n      0x20\n      add\n      swap1\n      dup2\n      mstore\n      0x20\n      add\n      0x00\n      keccak256\n      0x00\n      swap1\n      sload\n      swap1\n      0x0100\n      exp\n      swap1\n      div\n      0xffffffffffffffffffffffffffffffffffffffff\n      and\n        /* \"week12/ERC721StdToken.sol\":5097:5124  return _approvals[_tokenId] */\n      swap1\n      pop\n        /* \"week12/ERC721StdToken.sol\":4880:5203  function getApproved(uint256 _tokenId) external view returns (address) {... */\n      swap2\n      swap1\n      pop\n      jump\t// out\n        /* \"week12/ERC721StdToken.sol\":5618:6204  function approve(address _approved, uint256 _tokenId) external payable {... */\n    tag_41:\n        /* \"week12/ERC721StdToken.sol\":5700:5713  address owner */\n      0x00\n        /* \"week12/ERC721StdToken.sol\":5716:5724  _ownerOf */\n      0x01\n        /* \"week12/ERC721StdToken.sol\":5716:5734  _ownerOf[_tokenId] */\n      0x00\n        /* \"week12/ERC721StdToken.sol\":5725:5733  _tokenId */\n      dup4\n        /* \"week12/ERC721StdToken.sol\":5716:5734  _ownerOf[_tokenId] */\n      dup2\n      mstore\n      0x20\n      add\n      swap1\n      dup2\n      mstore\n      0x20\n      add\n      0x00\n      keccak256\n      0x00\n      swap1\n      sload\n      swap1\n      0x0100\n      exp\n      swap1\n      div\n      0xffffffffffffffffffffffffffffffffffffffff\n      and\n        /* \"week12/ERC721StdToken.sol\":5700:5734  address owner = _ownerOf[_tokenId] */\n      swap1\n      pop\n        /* \"week12/ERC721StdToken.sol\":5908:5913  owner */\n      dup1\n        /* \"week12/ERC721StdToken.sol\":5894:5913  msg.sender == owner */\n      0xffffffffffffffffffffffffffffffffffffffff\n      and\n        /* \"week12/ERC721StdToken.sol\":5894:5904  msg.sender */\n      caller\n        /* \"week12/ERC721StdToken.sol\":5894:5913  msg.sender == owner */\n      0xffffffffffffffffffffffffffffffffffffffff\n      and\n      eq\n        /* \"week12/ERC721StdToken.sol\":5894:5954  msg.sender == owner || _operatorApprovals[owner][msg.sender] */\n      dup1\n      tag_101\n      jumpi\n      pop\n        /* \"week12/ERC721StdToken.sol\":5917:5935  _operatorApprovals */\n      0x04\n        /* \"week12/ERC721StdToken.sol\":5917:5942  _operatorApprovals[owner] */\n      0x00\n        /* \"week12/ERC721StdToken.sol\":5936:5941  owner */\n      dup3\n        /* \"week12/ERC721StdToken.sol\":5917:5942  _operatorApprovals[owner] */\n      0xffffffffffffffffffffffffffffffffffffffff\n      and\n      0xffffffffffffffffffffffffffffffffffffffff\n      and\n      dup2\n      mstore\n      0x20\n      add\n      swap1\n      dup2\n      mstore\n      0x20\n      add\n      0x00\n      keccak256\n        /* \"week12/ERC721StdToken.sol\":5917:5954  _operatorApprovals[owner][msg.sender] */\n      0x00\n        /* \"week12/ERC721StdToken.sol\":5943:5953  msg.sender */\n      caller\n        /* \"week12/ERC721StdToken.sol\":5917:5954  _operatorApprovals[owner][msg.sender] */\n      0xffffffffffffffffffffffffffffffffffffffff\n      and\n      0xffffffffffffffffffffffffffffffffffffffff\n      and\n      dup2\n      mstore\n      0x20\n      add\n      swap1\n      dup2\n      mstore\n      0x20\n      add\n      0x00\n      keccak256\n      0x00\n      swap1\n      sload\n      swap1\n      0x0100\n      exp\n      swap1\n      div\n      0xff\n      and\n        /* \"week12/ERC721StdToken.sol\":5894:5954  msg.sender == owner || _operatorApprovals[owner][msg.sender] */\n    tag_101:\n        /* \"week12/ERC721StdToken.sol\":5797:5996  require( // 토큰 소유자나 승인된 운영자만 호출가능하도록 설정... */\n      tag_102\n      jumpi\n      mload(0x40)\n      0x08c379a000000000000000000000000000000000000000000000000000000000\n      dup2\n      mstore\n      0x04\n      add\n      tag_103\n      swap1\n      tag_104\n      jump\t// in\n    tag_103:\n      mload(0x40)\n      dup1\n      swap2\n      sub\n      swap1\n      revert\n    tag_102:\n        /* \"week12/ERC721StdToken.sol\":6030:6039  _approved */\n      dup3\n        /* \"week12/ERC721StdToken.sol\":6007:6017  _approvals */\n      0x03\n        /* \"week12/ERC721StdToken.sol\":6007:6027  _approvals[_tokenId] */\n      0x00\n        /* \"week12/ERC721StdToken.sol\":6018:6026  _tokenId */\n      dup5\n        /* \"week12/ERC721StdToken.sol\":6007:6027  _approvals[_tokenId] */\n      dup2\n      mstore\n      0x20\n      add\n      swap1\n      dup2\n      mstore\n      0x20\n      add\n      0x00\n      keccak256\n      0x00\n        /* \"week12/ERC721StdToken.sol\":6007:6039  _approvals[_tokenId] = _approved */\n      0x0100\n      exp\n      dup2\n      sload\n      dup2\n      0xffffffffffffffffffffffffffffffffffffffff\n      mul\n      not\n      and\n      swap1\n      dup4\n      0xffffffffffffffffffffffffffffffffffffffff\n      and\n      mul\n      or\n      swap1\n      sstore\n      pop\n        /* \"week12/ERC721StdToken.sol\":6158:6166  _tokenId */\n      dup2\n        /* \"week12/ERC721StdToken.sol\":6147:6156  _approved */\n      dup4\n        /* \"week12/ERC721StdToken.sol\":6131:6167  Approval(owner, _approved, _tokenId) */\n      0xffffffffffffffffffffffffffffffffffffffff\n      and\n        /* \"week12/ERC721StdToken.sol\":6140:6145  owner */\n      dup3\n        /* \"week12/ERC721StdToken.sol\":6131:6167  Approval(owner, _approved, _tokenId) */\n      0xffffffffffffffffffffffffffffffffffffffff\n      and\n      0x8c5be1e5ebec7d5bd14f71427d1e84f3dd0314c0f7b2291e5b200ac8c7c3b925\n      mload(0x40)\n      mload(0x40)\n      dup1\n      swap2\n      sub\n      swap1\n      log4\n        /* \"week12/ERC721StdToken.sol\":5689:6204  {... */\n      pop\n        /* \"week12/ERC721StdToken.sol\":5618:6204  function approve(address _approved, uint256 _tokenId) external payable {... */\n      pop\n      pop\n      jump\t// out\n        /* \"week12/ERC721StdToken.sol\":6786:6925  function transferFrom(address _from, address _to, uint256 _tokenId) external payable {... */\n    tag_45:\n        /* \"week12/ERC721StdToken.sol\":6882:6917  _transferFrom(_from, _to, _tokenId) */\n      tag_106\n        /* \"week12/ERC721StdToken.sol\":6896:6901  _from */\n      dup4\n        /* \"week12/ERC721StdToken.sol\":6903:6906  _to */\n      dup4\n        /* \"week12/ERC721StdToken.sol\":6908:6916  _tokenId */\n      dup4\n        /* \"week12/ERC721StdToken.sol\":6882:6895  _transferFrom */\n      tag_107\n        /* \"week12/ERC721StdToken.sol\":6882:6917  _transferFrom(_from, _to, _tokenId) */\n      jump\t// in\n    tag_106:\n        /* \"week12/ERC721StdToken.sol\":6786:6925  function transferFrom(address _from, address _to, uint256 _tokenId) external payable {... */\n      pop\n      pop\n      pop\n      jump\t// out\n        /* \"week12/ERC721StdToken.sol\":3859:4016  function mintNFT(address to, uint256 tokenID) public {... */\n    tag_49:\n        /* \"week12/ERC721StdToken.sol\":3943:3950  founder */\n      0x00\n      dup1\n      sload\n      swap1\n      0x0100\n      exp\n      swap1\n      div\n      0xffffffffffffffffffffffffffffffffffffffff\n      and\n        /* \"week12/ERC721StdToken.sol\":3931:3950  msg.sender==founder */\n      0xffffffffffffffffffffffffffffffffffffffff\n      and\n        /* \"week12/ERC721StdToken.sol\":3931:3941  msg.sender */\n      caller\n        /* \"week12/ERC721StdToken.sol\":3931:3950  msg.sender==founder */\n      0xffffffffffffffffffffffffffffffffffffffff\n      and\n      eq\n        /* \"week12/ERC721StdToken.sol\":3923:3979  require(msg.sender==founder, \"not an authorized minter\") */\n      tag_109\n      jumpi\n      mload(0x40)\n      0x08c379a000000000000000000000000000000000000000000000000000000000\n      dup2\n      mstore\n      0x04\n      add\n      tag_110\n      swap1\n      tag_111\n      jump\t// in\n    tag_110:\n      mload(0x40)\n      dup1\n      swap2\n      sub\n      swap1\n      revert\n    tag_109:\n        /* \"week12/ERC721StdToken.sol\":3990:4008  _mint(to, tokenID) */\n      tag_112\n        /* \"week12/ERC721StdToken.sol\":3996:3998  to */\n      dup3\n        /* \"week12/ERC721StdToken.sol\":4000:4007  tokenID */\n      dup3\n        /* \"week12/ERC721StdToken.sol\":3990:3995  _mint */\n      tag_113\n        /* \"week12/ERC721StdToken.sol\":3990:4008  _mint(to, tokenID) */\n      jump\t// in\n    tag_112:\n        /* \"week12/ERC721StdToken.sol\":3859:4016  function mintNFT(address to, uint256 tokenID) public {... */\n      pop\n      pop\n      jump\t// out\n        /* \"week12/ERC721StdToken.sol\":8580:9186  function safeTransferFrom(address _from, address _to, uint256 _tokenId) external payable{... */\n    tag_52:\n        /* \"week12/ERC721StdToken.sol\":8679:8714  _transferFrom(_from, _to, _tokenId) */\n      tag_115\n        /* \"week12/ERC721StdToken.sol\":8693:8698  _from */\n      dup4\n        /* \"week12/ERC721StdToken.sol\":8700:8703  _to */\n      dup4\n        /* \"week12/ERC721StdToken.sol\":8705:8713  _tokenId */\n      dup4\n        /* \"week12/ERC721StdToken.sol\":8679:8692  _transferFrom */\n      tag_107\n        /* \"week12/ERC721StdToken.sol\":8679:8714  _transferFrom(_from, _to, _tokenId) */\n      jump\t// in\n    tag_115:\n        /* \"week12/ERC721StdToken.sol\":8841:8842  0 */\n      0x00\n        /* \"week12/ERC721StdToken.sol\":8822:8825  _to */\n      dup3\n        /* \"week12/ERC721StdToken.sol\":8822:8837  _to.code.length */\n      0xffffffffffffffffffffffffffffffffffffffff\n      and\n      extcodesize\n        /* \"week12/ERC721StdToken.sol\":8822:8842  _to.code.length == 0 */\n      eq\n        /* \"week12/ERC721StdToken.sol\":8822:9040  _to.code.length == 0 || // 받는 주소에 코드가 없으면 (EOA 지갑)... */\n      dup1\n      tag_116\n      jumpi\n      pop\n        /* \"week12/ERC721StdToken.sol\":8990:9040  ERC721TokenReceiver(_to).onERC721Received.selector */\n      shl(0xe0, 0x150b7a02)\n        /* \"week12/ERC721StdToken.sol\":8912:9040  ERC721TokenReceiver(_to).onERC721Received(msg.sender, _from, _tokenId, \"\") == ERC721TokenReceiver(_to).onERC721Received.selector */\n      not(0xffffffffffffffffffffffffffffffffffffffffffffffffffffffff)\n      and\n        /* \"week12/ERC721StdToken.sol\":8932:8935  _to */\n      dup3\n        /* \"week12/ERC721StdToken.sol\":8912:8953  ERC721TokenReceiver(_to).onERC721Received */\n      0xffffffffffffffffffffffffffffffffffffffff\n      and\n      0x150b7a02\n        /* \"week12/ERC721StdToken.sol\":8954:8964  msg.sender */\n      caller\n        /* \"week12/ERC721StdToken.sol\":8966:8971  _from */\n      dup7\n        /* \"week12/ERC721StdToken.sol\":8973:8981  _tokenId */\n      dup6\n        /* \"week12/ERC721StdToken.sol\":8912:8986  ERC721TokenReceiver(_to).onERC721Received(msg.sender, _from, _tokenId, \"\") */\n      mload(0x40)\n      dup5\n      0xffffffff\n      and\n      0xe0\n      shl\n      dup2\n      mstore\n      0x04\n      add\n      tag_117\n      swap4\n      swap3\n      swap2\n      swap1\n      tag_118\n      jump\t// in\n    tag_117:\n      0x20\n      mload(0x40)\n      dup1\n      dup4\n      sub\n      dup2\n      0x00\n      dup8\n      gas\n      call\n      iszero\n      dup1\n      iszero\n      tag_120\n      jumpi\n      returndatasize\n      0x00\n      dup1\n      returndatacopy\n      revert(0x00, returndatasize)\n    tag_120:\n      pop\n      pop\n      pop\n      pop\n      mload(0x40)\n      returndatasize\n      not(0x1f)\n      0x1f\n      dup3\n      add\n      and\n      dup3\n      add\n      dup1\n      0x40\n      mstore\n      pop\n      dup2\n      add\n      swap1\n      tag_121\n      swap2\n      swap1\n      tag_122\n      jump\t// in\n    tag_121:\n        /* \"week12/ERC721StdToken.sol\":8912:9040  ERC721TokenReceiver(_to).onERC721Received(msg.sender, _from, _tokenId, \"\") == ERC721TokenReceiver(_to).onERC721Received.selector */\n      not(0xffffffffffffffffffffffffffffffffffffffffffffffffffffffff)\n      and\n      eq\n        /* \"week12/ERC721StdToken.sol\":8822:9040  _to.code.length == 0 || // 받는 주소에 코드가 없으면 (EOA 지갑)... */\n    tag_116:\n        /* \"week12/ERC721StdToken.sol\":8800:9178  require(... */\n      tag_123\n      jumpi\n      mload(0x40)\n      0x08c379a000000000000000000000000000000000000000000000000000000000\n      dup2\n      mstore\n      0x04\n      add\n      tag_124\n      swap1\n      tag_125\n      jump\t// in\n    tag_124:\n      mload(0x40)\n      dup1\n      swap2\n      sub\n      swap1\n      revert\n    tag_123:\n        /* \"week12/ERC721StdToken.sol\":8580:9186  function safeTransferFrom(address _from, address _to, uint256 _tokenId) external payable{... */\n      pop\n      pop\n      pop\n      jump\t// out\n        /* \"week12/ERC721StdToken.sol\":2254:2276  address public founder */\n    tag_55:\n      0x00\n      dup1\n      sload\n      swap1\n      0x0100\n      exp\n      swap1\n      div\n      0xffffffffffffffffffffffffffffffffffffffff\n      and\n      dup2\n      jump\t// out\n        /* \"week12/ERC721StdToken.sol\":4085:4382  function ownerOf(uint256 _tokenId) external view returns (address){... */\n    tag_60:\n        /* \"week12/ERC721StdToken.sol\":4143:4150  address */\n      0x00\n        /* \"week12/ERC721StdToken.sol\":4162:4175  address owner */\n      dup1\n        /* \"week12/ERC721StdToken.sol\":4178:4186  _ownerOf */\n      0x01\n        /* \"week12/ERC721StdToken.sol\":4178:4196  _ownerOf[_tokenId] */\n      0x00\n        /* \"week12/ERC721StdToken.sol\":4187:4195  _tokenId */\n      dup5\n        /* \"week12/ERC721StdToken.sol\":4178:4196  _ownerOf[_tokenId] */\n      dup2\n      mstore\n      0x20\n      add\n      swap1\n      dup2\n      mstore\n      0x20\n      add\n      0x00\n      keccak256\n      0x00\n      swap1\n      sload\n      swap1\n      0x0100\n      exp\n      swap1\n      div\n      0xffffffffffffffffffffffffffffffffffffffff\n      and\n        /* \"week12/ERC721StdToken.sol\":4162:4196  address owner = _ownerOf[_tokenId] */\n      swap1\n      pop\n        /* \"week12/ERC721StdToken.sol\":4257:4258  0 */\n      0x00\n        /* \"week12/ERC721StdToken.sol\":4240:4259  owner != address(0) */\n      0xffffffffffffffffffffffffffffffffffffffff\n      and\n        /* \"week12/ERC721StdToken.sol\":4240:4245  owner */\n      dup2\n        /* \"week12/ERC721StdToken.sol\":4240:4259  owner != address(0) */\n      0xffffffffffffffffffffffffffffffffffffffff\n      and\n      sub\n        /* \"week12/ERC721StdToken.sol\":4232:4283  require(owner != address(0), \"token doesn't exist\") */\n      tag_127\n      jumpi\n      mload(0x40)\n      0x08c379a000000000000000000000000000000000000000000000000000000000\n      dup2\n      mstore\n      0x04\n      add\n      tag_128\n      swap1\n      tag_129\n      jump\t// in\n    tag_128:\n      mload(0x40)\n      dup1\n      swap2\n      sub\n      swap1\n      revert\n    tag_127:\n        /* \"week12/ERC721StdToken.sol\":4369:4374  owner */\n      dup1\n        /* \"week12/ERC721StdToken.sol\":4362:4374  return owner */\n      swap2\n      pop\n      pop\n        /* \"week12/ERC721StdToken.sol\":4085:4382  function ownerOf(uint256 _tokenId) external view returns (address){... */\n      swap2\n      swap1\n      pop\n      jump\t// out\n        /* \"week12/ERC721StdToken.sol\":4444:4784  function balanceOf(address _owner) external view returns (uint256){... */\n    tag_66:\n        /* \"week12/ERC721StdToken.sol\":4502:4509  uint256 */\n      0x00\n        /* \"week12/ERC721StdToken.sol\":4545:4546  0 */\n      dup1\n        /* \"week12/ERC721StdToken.sol\":4529:4547  _owner!=address(0) */\n      0xffffffffffffffffffffffffffffffffffffffff\n      and\n        /* \"week12/ERC721StdToken.sol\":4529:4535  _owner */\n      dup3\n        /* \"week12/ERC721StdToken.sol\":4529:4547  _owner!=address(0) */\n      0xffffffffffffffffffffffffffffffffffffffff\n      and\n      sub\n        /* \"week12/ERC721StdToken.sol\":4521:4586  require(_owner!=address(0), \"balance query for the zero address\") */\n      tag_131\n      jumpi\n      mload(0x40)\n      0x08c379a000000000000000000000000000000000000000000000000000000000\n      dup2\n      mstore\n      0x04\n      add\n      tag_132\n      swap1\n      tag_133\n      jump\t// in\n    tag_132:\n      mload(0x40)\n      dup1\n      swap2\n      sub\n      swap1\n      revert\n    tag_131:\n        /* \"week12/ERC721StdToken.sol\":4711:4721  _balanceOf */\n      0x02\n        /* \"week12/ERC721StdToken.sol\":4711:4729  _balanceOf[_owner] */\n      0x00\n        /* \"week12/ERC721StdToken.sol\":4722:4728  _owner */\n      dup4\n        /* \"week12/ERC721StdToken.sol\":4711:4729  _balanceOf[_owner] */\n      0xffffffffffffffffffffffffffffffffffffffff\n      and\n      0xffffffffffffffffffffffffffffffffffffffff\n      and\n      dup2\n      mstore\n      0x20\n      add\n      swap1\n      dup2\n      mstore\n      0x20\n      add\n      0x00\n      keccak256\n      sload\n        /* \"week12/ERC721StdToken.sol\":4704:4729  return _balanceOf[_owner] */\n      swap1\n      pop\n        /* \"week12/ERC721StdToken.sol\":4444:4784  function balanceOf(address _owner) external view returns (uint256){... */\n      swap2\n      swap1\n      pop\n      jump\t// out\n        /* \"week12/ERC721StdToken.sol\":2886:2906  string public symbol */\n    tag_71:\n      0x06\n      dup1\n      sload\n      tag_134\n      swap1\n      tag_91\n      jump\t// in\n    tag_134:\n      dup1\n      0x1f\n      add\n      0x20\n      dup1\n      swap2\n      div\n      mul\n      0x20\n      add\n      mload(0x40)\n      swap1\n      dup2\n      add\n      0x40\n      mstore\n      dup1\n      swap3\n      swap2\n      swap1\n      dup2\n      dup2\n      mstore\n      0x20\n      add\n      dup3\n      dup1\n      sload\n      tag_135\n      swap1\n      tag_91\n      jump\t// in\n    tag_135:\n      dup1\n      iszero\n      tag_136\n      jumpi\n      dup1\n      0x1f\n      lt\n      tag_137\n      jumpi\n      0x0100\n      dup1\n      dup4\n      sload\n      div\n      mul\n      dup4\n      mstore\n      swap2\n      0x20\n      add\n      swap2\n      jump(tag_136)\n    tag_137:\n      dup3\n      add\n      swap2\n      swap1\n      0x00\n      mstore\n      keccak256(0x00, 0x20)\n      swap1\n    tag_138:\n      dup2\n      sload\n      dup2\n      mstore\n      swap1\n      0x01\n      add\n      swap1\n      0x20\n      add\n      dup1\n      dup4\n      gt\n      tag_138\n      jumpi\n      dup3\n      swap1\n      sub\n      0x1f\n      and\n      dup3\n      add\n      swap2\n    tag_136:\n      pop\n      pop\n      pop\n      pop\n      pop\n      dup2\n      jump\t// out\n        /* \"week12/ERC721StdToken.sol\":6311:6697  function setApprovalForAll(address _operator, bool _approved) external { // _operator에게 모든 토큰에 대한 전송 권한 부여 여부 설정... */\n    tag_77:\n        /* \"week12/ERC721StdToken.sol\":6515:6524  _approved */\n      dup1\n        /* \"week12/ERC721StdToken.sol\":6471:6489  _operatorApprovals */\n      0x04\n        /* \"week12/ERC721StdToken.sol\":6471:6501  _operatorApprovals[msg.sender] */\n      0x00\n        /* \"week12/ERC721StdToken.sol\":6490:6500  msg.sender */\n      caller\n        /* \"week12/ERC721StdToken.sol\":6471:6501  _operatorApprovals[msg.sender] */\n      0xffffffffffffffffffffffffffffffffffffffff\n      and\n      0xffffffffffffffffffffffffffffffffffffffff\n      and\n      dup2\n      mstore\n      0x20\n      add\n      swap1\n      dup2\n      mstore\n      0x20\n      add\n      0x00\n      keccak256\n        /* \"week12/ERC721StdToken.sol\":6471:6512  _operatorApprovals[msg.sender][_operator] */\n      0x00\n        /* \"week12/ERC721StdToken.sol\":6502:6511  _operator */\n      dup5\n        /* \"week12/ERC721StdToken.sol\":6471:6512  _operatorApprovals[msg.sender][_operator] */\n      0xffffffffffffffffffffffffffffffffffffffff\n      and\n      0xffffffffffffffffffffffffffffffffffffffff\n      and\n      dup2\n      mstore\n      0x20\n      add\n      swap1\n      dup2\n      mstore\n      0x20\n      add\n      0x00\n      keccak256\n      0x00\n        /* \"week12/ERC721StdToken.sol\":6471:6524  _operatorApprovals[msg.sender][_operator] = _approved */\n      0x0100\n      exp\n      dup2\n      sload\n      dup2\n      0xff\n      mul\n      not\n      and\n      swap1\n      dup4\n      iszero\n      iszero\n      mul\n      or\n      swap1\n      sstore\n      pop\n        /* \"week12/ERC721StdToken.sol\":6668:6677  _operator */\n      dup2\n        /* \"week12/ERC721StdToken.sol\":6641:6689  ApprovalForAll(msg.sender, _operator, _approved) */\n      0xffffffffffffffffffffffffffffffffffffffff\n      and\n        /* \"week12/ERC721StdToken.sol\":6656:6666  msg.sender */\n      caller\n        /* \"week12/ERC721StdToken.sol\":6641:6689  ApprovalForAll(msg.sender, _operator, _approved) */\n      0xffffffffffffffffffffffffffffffffffffffff\n      and\n      0x17307eab39ab6107e8899845ad3d59bd9653f200f220920489ca2b5937696c31\n        /* \"week12/ERC721StdToken.sol\":6679:6688  _approved */\n      dup4\n        /* \"week12/ERC721StdToken.sol\":6641:6689  ApprovalForAll(msg.sender, _operator, _approved) */\n      mload(0x40)\n      tag_140\n      swap2\n      swap1\n      tag_25\n      jump\t// in\n    tag_140:\n      mload(0x40)\n      dup1\n      swap2\n      sub\n      swap1\n      log3\n        /* \"week12/ERC721StdToken.sol\":6311:6697  function setApprovalForAll(address _operator, bool _approved) external { // _operator에게 모든 토큰에 대한 전송 권한 부여 여부 설정... */\n      pop\n      pop\n      jump\t// out\n        /* \"week12/ERC721StdToken.sol\":7943:8572  function safeTransferFrom(address _from, address _to, uint256 _tokenId, bytes calldata data) external payable{... */\n    tag_81:\n        /* \"week12/ERC721StdToken.sol\":8063:8098  _transferFrom(_from, _to, _tokenId) */\n      tag_142\n        /* \"week12/ERC721StdToken.sol\":8077:8082  _from */\n      dup6\n        /* \"week12/ERC721StdToken.sol\":8084:8087  _to */\n      dup6\n        /* \"week12/ERC721StdToken.sol\":8089:8097  _tokenId */\n      dup6\n        /* \"week12/ERC721StdToken.sol\":8063:8076  _transferFrom */\n      tag_107\n        /* \"week12/ERC721StdToken.sol\":8063:8098  _transferFrom(_from, _to, _tokenId) */\n      jump\t// in\n    tag_142:\n        /* \"week12/ERC721StdToken.sol\":8225:8226  0 */\n      0x00\n        /* \"week12/ERC721StdToken.sol\":8206:8209  _to */\n      dup5\n        /* \"week12/ERC721StdToken.sol\":8206:8221  _to.code.length */\n      0xffffffffffffffffffffffffffffffffffffffff\n      and\n      extcodesize\n        /* \"week12/ERC721StdToken.sol\":8206:8226  _to.code.length == 0 */\n      eq\n        /* \"week12/ERC721StdToken.sol\":8206:8426  _to.code.length == 0 || // 받는 주소에 코드가 없으면 (EOA 지갑)... */\n      dup1\n      tag_143\n      jumpi\n      pop\n        /* \"week12/ERC721StdToken.sol\":8376:8426  ERC721TokenReceiver(_to).onERC721Received.selector */\n      shl(0xe0, 0x150b7a02)\n        /* \"week12/ERC721StdToken.sol\":8296:8426  ERC721TokenReceiver(_to).onERC721Received(msg.sender, _from, _tokenId, data) == ERC721TokenReceiver(_to).onERC721Received.selector */\n      not(0xffffffffffffffffffffffffffffffffffffffffffffffffffffffff)\n      and\n        /* \"week12/ERC721StdToken.sol\":8316:8319  _to */\n      dup5\n        /* \"week12/ERC721StdToken.sol\":8296:8337  ERC721TokenReceiver(_to).onERC721Received */\n      0xffffffffffffffffffffffffffffffffffffffff\n      and\n      0x150b7a02\n        /* \"week12/ERC721StdToken.sol\":8338:8348  msg.sender */\n      caller\n        /* \"week12/ERC721StdToken.sol\":8350:8355  _from */\n      dup9\n        /* \"week12/ERC721StdToken.sol\":8357:8365  _tokenId */\n      dup8\n        /* \"week12/ERC721StdToken.sol\":8367:8371  data */\n      dup8\n      dup8\n        /* \"week12/ERC721StdToken.sol\":8296:8372  ERC721TokenReceiver(_to).onERC721Received(msg.sender, _from, _tokenId, data) */\n      mload(0x40)\n      dup7\n      0xffffffff\n      and\n      0xe0\n      shl\n      dup2\n      mstore\n      0x04\n      add\n      tag_144\n      swap6\n      swap5\n      swap4\n      swap3\n      swap2\n      swap1\n      tag_145\n      jump\t// in\n    tag_144:\n      0x20\n      mload(0x40)\n      dup1\n      dup4\n      sub\n      dup2\n      0x00\n      dup8\n      gas\n      call\n      iszero\n      dup1\n      iszero\n      tag_147\n      jumpi\n      returndatasize\n      0x00\n      dup1\n      returndatacopy\n      revert(0x00, returndatasize)\n    tag_147:\n      pop\n      pop\n      pop\n      pop\n      mload(0x40)\n      returndatasize\n      not(0x1f)\n      0x1f\n      dup3\n      add\n      and\n      dup3\n      add\n      dup1\n      0x40\n      mstore\n      pop\n      dup2\n      add\n      swap1\n      tag_148\n      swap2\n      swap1\n      tag_122\n      jump\t// in\n    tag_148:\n        /* \"week12/ERC721StdToken.sol\":8296:8426  ERC721TokenReceiver(_to).onERC721Received(msg.sender, _from, _tokenId, data) == ERC721TokenReceiver(_to).onERC721Received.selector */\n      not(0xffffffffffffffffffffffffffffffffffffffffffffffffffffffff)\n      and\n      eq\n        /* \"week12/ERC721StdToken.sol\":8206:8426  _to.code.length == 0 || // 받는 주소에 코드가 없으면 (EOA 지갑)... */\n    tag_143:\n        /* \"week12/ERC721StdToken.sol\":8184:8564  require(... */\n      tag_149\n      jumpi\n      mload(0x40)\n      0x08c379a000000000000000000000000000000000000000000000000000000000\n      dup2\n      mstore\n      0x04\n      add\n      tag_150\n      swap1\n      tag_125\n      jump\t// in\n    tag_150:\n      mload(0x40)\n      dup1\n      swap2\n      sub\n      swap1\n      revert\n    tag_149:\n        /* \"week12/ERC721StdToken.sol\":7943:8572  function safeTransferFrom(address _from, address _to, uint256 _tokenId, bytes calldata data) external payable{... */\n      pop\n      pop\n      pop\n      pop\n      pop\n      jump\t// out\n        /* \"week12/ERC721StdToken.sol\":5336:5529  function isApprovedForAll(address _owner, address _operator) external view returns (bool){... */\n    tag_86:\n        /* \"week12/ERC721StdToken.sol\":5420:5424  bool */\n      0x00\n        /* \"week12/ERC721StdToken.sol\":5443:5461  _operatorApprovals */\n      0x04\n        /* \"week12/ERC721StdToken.sol\":5443:5470  _operatorApprovals[ _owner] */\n      0x00\n        /* \"week12/ERC721StdToken.sol\":5463:5469  _owner */\n      dup5\n        /* \"week12/ERC721StdToken.sol\":5443:5470  _operatorApprovals[ _owner] */\n      0xffffffffffffffffffffffffffffffffffffffff\n      and\n      0xffffffffffffffffffffffffffffffffffffffff\n      and\n      dup2\n      mstore\n      0x20\n      add\n      swap1\n      dup2\n      mstore\n      0x20\n      add\n      0x00\n      keccak256\n        /* \"week12/ERC721StdToken.sol\":5443:5481  _operatorApprovals[ _owner][_operator] */\n      0x00\n        /* \"week12/ERC721StdToken.sol\":5471:5480  _operator */\n      dup4\n        /* \"week12/ERC721StdToken.sol\":5443:5481  _operatorApprovals[ _owner][_operator] */\n      0xffffffffffffffffffffffffffffffffffffffff\n      and\n      0xffffffffffffffffffffffffffffffffffffffff\n      and\n      dup2\n      mstore\n      0x20\n      add\n      swap1\n      dup2\n      mstore\n      0x20\n      add\n      0x00\n      keccak256\n      0x00\n      swap1\n      sload\n      swap1\n      0x0100\n      exp\n      swap1\n      div\n      0xff\n      and\n        /* \"week12/ERC721StdToken.sol\":5436:5481  return _operatorApprovals[ _owner][_operator] */\n      swap1\n      pop\n        /* \"week12/ERC721StdToken.sol\":5336:5529  function isApprovedForAll(address _owner, address _operator) external view returns (bool){... */\n      swap3\n      swap2\n      pop\n      pop\n      jump\t// out\n        /* \"week12/ERC721StdToken.sol\":6933:7935  function _transferFrom(address _from, address _to, uint256 _tokenId) private {... */\n    tag_107:\n        /* \"week12/ERC721StdToken.sol\":7021:7034  address owner */\n      0x00\n        /* \"week12/ERC721StdToken.sol\":7037:7045  _ownerOf */\n      0x01\n        /* \"week12/ERC721StdToken.sol\":7037:7055  _ownerOf[_tokenId] */\n      0x00\n        /* \"week12/ERC721StdToken.sol\":7046:7054  _tokenId */\n      dup4\n        /* \"week12/ERC721StdToken.sol\":7037:7055  _ownerOf[_tokenId] */\n      dup2\n      mstore\n      0x20\n      add\n      swap1\n      dup2\n      mstore\n      0x20\n      add\n      0x00\n      keccak256\n      0x00\n      swap1\n      sload\n      swap1\n      0x0100\n      exp\n      swap1\n      div\n      0xffffffffffffffffffffffffffffffffffffffff\n      and\n        /* \"week12/ERC721StdToken.sol\":7021:7055  address owner = _ownerOf[_tokenId] */\n      swap1\n      pop\n        /* \"week12/ERC721StdToken.sol\":7135:7140  owner */\n      dup1\n        /* \"week12/ERC721StdToken.sol\":7126:7140  _from == owner */\n      0xffffffffffffffffffffffffffffffffffffffff\n      and\n        /* \"week12/ERC721StdToken.sol\":7126:7131  _from */\n      dup5\n        /* \"week12/ERC721StdToken.sol\":7126:7140  _from == owner */\n      0xffffffffffffffffffffffffffffffffffffffff\n      and\n      eq\n        /* \"week12/ERC721StdToken.sol\":7118:7156  require(_from == owner, \"from!=owner\") */\n      tag_153\n      jumpi\n      mload(0x40)\n      0x08c379a000000000000000000000000000000000000000000000000000000000\n      dup2\n      mstore\n      0x04\n      add\n      tag_154\n      swap1\n      tag_155\n      jump\t// in\n    tag_154:\n      mload(0x40)\n      dup1\n      swap2\n      sub\n      swap1\n      revert\n    tag_153:\n        /* \"week12/ERC721StdToken.sol\":7236:7237  0 */\n      0x00\n        /* \"week12/ERC721StdToken.sol\":7223:7238  _to!=address(0) */\n      0xffffffffffffffffffffffffffffffffffffffff\n      and\n        /* \"week12/ERC721StdToken.sol\":7223:7226  _to */\n      dup4\n        /* \"week12/ERC721StdToken.sol\":7223:7238  _to!=address(0) */\n      0xffffffffffffffffffffffffffffffffffffffff\n      and\n      sub\n        /* \"week12/ERC721StdToken.sol\":7215:7267  require(_to!=address(0), \"transfer to zero address\") */\n      tag_156\n      jumpi\n      mload(0x40)\n      0x08c379a000000000000000000000000000000000000000000000000000000000\n      dup2\n      mstore\n      0x04\n      add\n      tag_157\n      swap1\n      tag_158\n      jump\t// in\n    tag_157:\n      mload(0x40)\n      dup1\n      swap2\n      sub\n      swap1\n      revert\n    tag_156:\n        /* \"week12/ERC721StdToken.sol\":7417:7422  owner */\n      dup1\n        /* \"week12/ERC721StdToken.sol\":7403:7422  msg.sender == owner */\n      0xffffffffffffffffffffffffffffffffffffffff\n      and\n        /* \"week12/ERC721StdToken.sol\":7403:7413  msg.sender */\n      caller\n        /* \"week12/ERC721StdToken.sol\":7403:7422  msg.sender == owner */\n      0xffffffffffffffffffffffffffffffffffffffff\n      and\n      eq\n        /* \"week12/ERC721StdToken.sol\":7403:7460  msg.sender == owner || msg.sender == _approvals[_tokenId] */\n      dup1\n      tag_159\n      jumpi\n      pop\n        /* \"week12/ERC721StdToken.sol\":7440:7450  _approvals */\n      0x03\n        /* \"week12/ERC721StdToken.sol\":7440:7460  _approvals[_tokenId] */\n      0x00\n        /* \"week12/ERC721StdToken.sol\":7451:7459  _tokenId */\n      dup4\n        /* \"week12/ERC721StdToken.sol\":7440:7460  _approvals[_tokenId] */\n      dup2\n      mstore\n      0x20\n      add\n      swap1\n      dup2\n      mstore\n      0x20\n      add\n      0x00\n      keccak256\n      0x00\n      swap1\n      sload\n      swap1\n      0x0100\n      exp\n      swap1\n      div\n      0xffffffffffffffffffffffffffffffffffffffff\n      and\n        /* \"week12/ERC721StdToken.sol\":7426:7460  msg.sender == _approvals[_tokenId] */\n      0xffffffffffffffffffffffffffffffffffffffff\n      and\n        /* \"week12/ERC721StdToken.sol\":7426:7436  msg.sender */\n      caller\n        /* \"week12/ERC721StdToken.sol\":7426:7460  msg.sender == _approvals[_tokenId] */\n      0xffffffffffffffffffffffffffffffffffffffff\n      and\n      eq\n        /* \"week12/ERC721StdToken.sol\":7403:7460  msg.sender == owner || msg.sender == _approvals[_tokenId] */\n    tag_159:\n        /* \"week12/ERC721StdToken.sol\":7403:7501  msg.sender == owner || msg.sender == _approvals[_tokenId] || _operatorApprovals[owner][msg.sender] */\n      dup1\n      tag_160\n      jumpi\n      pop\n        /* \"week12/ERC721StdToken.sol\":7464:7482  _operatorApprovals */\n      0x04\n        /* \"week12/ERC721StdToken.sol\":7464:7489  _operatorApprovals[owner] */\n      0x00\n        /* \"week12/ERC721StdToken.sol\":7483:7488  owner */\n      dup3\n        /* \"week12/ERC721StdToken.sol\":7464:7489  _operatorApprovals[owner] */\n      0xffffffffffffffffffffffffffffffffffffffff\n      and\n      0xffffffffffffffffffffffffffffffffffffffff\n      and\n      dup2\n      mstore\n      0x20\n      add\n      swap1\n      dup2\n      mstore\n      0x20\n      add\n      0x00\n      keccak256\n        /* \"week12/ERC721StdToken.sol\":7464:7501  _operatorApprovals[owner][msg.sender] */\n      0x00\n        /* \"week12/ERC721StdToken.sol\":7490:7500  msg.sender */\n      caller\n        /* \"week12/ERC721StdToken.sol\":7464:7501  _operatorApprovals[owner][msg.sender] */\n      0xffffffffffffffffffffffffffffffffffffffff\n      and\n      0xffffffffffffffffffffffffffffffffffffffff\n      and\n      dup2\n      mstore\n      0x20\n      add\n      swap1\n      dup2\n      mstore\n      0x20\n      add\n      0x00\n      keccak256\n      0x00\n      swap1\n      sload\n      swap1\n      0x0100\n      exp\n      swap1\n      div\n      0xff\n      and\n        /* \"week12/ERC721StdToken.sol\":7403:7501  msg.sender == owner || msg.sender == _approvals[_tokenId] || _operatorApprovals[owner][msg.sender] */\n    tag_160:\n        /* \"week12/ERC721StdToken.sol\":7395:7560  require(msg.sender == owner || msg.sender == _approvals[_tokenId] || _operatorApprovals[owner][msg.sender], ... */\n      tag_161\n      jumpi\n      mload(0x40)\n      0x08c379a000000000000000000000000000000000000000000000000000000000\n      dup2\n      mstore\n      0x04\n      add\n      tag_162\n      swap1\n      tag_163\n      jump\t// in\n    tag_162:\n      mload(0x40)\n      dup1\n      swap2\n      sub\n      swap1\n      revert\n    tag_161:\n        /* \"week12/ERC721StdToken.sol\":7573:7583  _balanceOf */\n      0x02\n        /* \"week12/ERC721StdToken.sol\":7573:7590  _balanceOf[_from] */\n      0x00\n        /* \"week12/ERC721StdToken.sol\":7584:7589  _from */\n      dup6\n        /* \"week12/ERC721StdToken.sol\":7573:7590  _balanceOf[_from] */\n      0xffffffffffffffffffffffffffffffffffffffff\n      and\n      0xffffffffffffffffffffffffffffffffffffffff\n      and\n      dup2\n      mstore\n      0x20\n      add\n      swap1\n      dup2\n      mstore\n      0x20\n      add\n      0x00\n      keccak256\n      0x00\n        /* \"week12/ERC721StdToken.sol\":7573:7592  _balanceOf[_from]-- */\n      dup2\n      sload\n      dup1\n      swap3\n      swap2\n      swap1\n      tag_164\n      swap1\n      tag_165\n      jump\t// in\n    tag_164:\n      swap2\n      swap1\n      pop\n      sstore\n      pop\n        /* \"week12/ERC721StdToken.sol\":7647:7657  _balanceOf */\n      0x02\n        /* \"week12/ERC721StdToken.sol\":7647:7662  _balanceOf[_to] */\n      0x00\n        /* \"week12/ERC721StdToken.sol\":7658:7661  _to */\n      dup5\n        /* \"week12/ERC721StdToken.sol\":7647:7662  _balanceOf[_to] */\n      0xffffffffffffffffffffffffffffffffffffffff\n      and\n      0xffffffffffffffffffffffffffffffffffffffff\n      and\n      dup2\n      mstore\n      0x20\n      add\n      swap1\n      dup2\n      mstore\n      0x20\n      add\n      0x00\n      keccak256\n      0x00\n        /* \"week12/ERC721StdToken.sol\":7647:7664  _balanceOf[_to]++ */\n      dup2\n      sload\n      dup1\n      swap3\n      swap2\n      swap1\n      tag_166\n      swap1\n      tag_167\n      jump\t// in\n    tag_166:\n      swap2\n      swap1\n      pop\n      sstore\n      pop\n        /* \"week12/ERC721StdToken.sol\":7737:7740  _to */\n      dup3\n        /* \"week12/ERC721StdToken.sol\":7716:7724  _ownerOf */\n      0x01\n        /* \"week12/ERC721StdToken.sol\":7716:7734  _ownerOf[_tokenId] */\n      0x00\n        /* \"week12/ERC721StdToken.sol\":7725:7733  _tokenId */\n      dup5\n        /* \"week12/ERC721StdToken.sol\":7716:7734  _ownerOf[_tokenId] */\n      dup2\n      mstore\n      0x20\n      add\n      swap1\n      dup2\n      mstore\n      0x20\n      add\n      0x00\n      keccak256\n      0x00\n        /* \"week12/ERC721StdToken.sol\":7716:7740  _ownerOf[_tokenId] = _to */\n      0x0100\n      exp\n      dup2\n      sload\n      dup2\n      0xffffffffffffffffffffffffffffffffffffffff\n      mul\n      not\n      and\n      swap1\n      dup4\n      0xffffffffffffffffffffffffffffffffffffffff\n      and\n      mul\n      or\n      swap1\n      sstore\n      pop\n        /* \"week12/ERC721StdToken.sol\":7810:7820  _approvals */\n      0x03\n        /* \"week12/ERC721StdToken.sol\":7810:7830  _approvals[_tokenId] */\n      0x00\n        /* \"week12/ERC721StdToken.sol\":7821:7829  _tokenId */\n      dup4\n        /* \"week12/ERC721StdToken.sol\":7810:7830  _approvals[_tokenId] */\n      dup2\n      mstore\n      0x20\n      add\n      swap1\n      dup2\n      mstore\n      0x20\n      add\n      0x00\n      keccak256\n      0x00\n        /* \"week12/ERC721StdToken.sol\":7803:7830  delete _approvals[_tokenId] */\n      0x0100\n      exp\n      dup2\n      sload\n      swap1\n      0xffffffffffffffffffffffffffffffffffffffff\n      mul\n      not\n      and\n      swap1\n      sstore\n        /* \"week12/ERC721StdToken.sol\":7889:7897  _tokenId */\n      dup2\n        /* \"week12/ERC721StdToken.sol\":7884:7887  _to */\n      dup4\n        /* \"week12/ERC721StdToken.sol\":7868:7898  Transfer(_from, _to, _tokenId) */\n      0xffffffffffffffffffffffffffffffffffffffff\n      and\n        /* \"week12/ERC721StdToken.sol\":7877:7882  _from */\n      dup6\n        /* \"week12/ERC721StdToken.sol\":7868:7898  Transfer(_from, _to, _tokenId) */\n      0xffffffffffffffffffffffffffffffffffffffff\n      and\n      0xddf252ad1be2c89b69c2b068fc378daa952ba7f163c4a11628f55a4df523b3ef\n      mload(0x40)\n      mload(0x40)\n      dup1\n      swap2\n      sub\n      swap1\n      log4\n        /* \"week12/ERC721StdToken.sol\":7010:7935  {... */\n      pop\n        /* \"week12/ERC721StdToken.sol\":6933:7935  function _transferFrom(address _from, address _to, uint256 _tokenId) private {... */\n      pop\n      pop\n      pop\n      jump\t// out\n        /* \"week12/ERC721StdToken.sol\":3355:3851  function _mint(address to, uint id) internal {... */\n    tag_113:\n        /* \"week12/ERC721StdToken.sol\":3431:3432  0 */\n      0x00\n        /* \"week12/ERC721StdToken.sol\":3419:3433  to!=address(0) */\n      0xffffffffffffffffffffffffffffffffffffffff\n      and\n        /* \"week12/ERC721StdToken.sol\":3419:3421  to */\n      dup3\n        /* \"week12/ERC721StdToken.sol\":3419:3433  to!=address(0) */\n      0xffffffffffffffffffffffffffffffffffffffff\n      and\n      sub\n        /* \"week12/ERC721StdToken.sol\":3411:3458  require(to!=address(0), \"mint to zero address\") */\n      tag_169\n      jumpi\n      mload(0x40)\n      0x08c379a000000000000000000000000000000000000000000000000000000000\n      dup2\n      mstore\n      0x04\n      add\n      tag_170\n      swap1\n      tag_171\n      jump\t// in\n    tag_170:\n      mload(0x40)\n      dup1\n      swap2\n      sub\n      swap1\n      revert\n    tag_169:\n        /* \"week12/ERC721StdToken.sol\":3537:3538  0 */\n      0x00\n        /* \"week12/ERC721StdToken.sol\":3513:3539  _ownerOf[id] == address(0) */\n      0xffffffffffffffffffffffffffffffffffffffff\n      and\n        /* \"week12/ERC721StdToken.sol\":3513:3521  _ownerOf */\n      0x01\n        /* \"week12/ERC721StdToken.sol\":3513:3525  _ownerOf[id] */\n      0x00\n        /* \"week12/ERC721StdToken.sol\":3522:3524  id */\n      dup4\n        /* \"week12/ERC721StdToken.sol\":3513:3525  _ownerOf[id] */\n      dup2\n      mstore\n      0x20\n      add\n      swap1\n      dup2\n      mstore\n      0x20\n      add\n      0x00\n      keccak256\n      0x00\n      swap1\n      sload\n      swap1\n      0x0100\n      exp\n      swap1\n      div\n      0xffffffffffffffffffffffffffffffffffffffff\n      and\n        /* \"week12/ERC721StdToken.sol\":3513:3539  _ownerOf[id] == address(0) */\n      0xffffffffffffffffffffffffffffffffffffffff\n      and\n      eq\n        /* \"week12/ERC721StdToken.sol\":3505:3558  require(_ownerOf[id] == address(0), \"already minted\") */\n      tag_172\n      jumpi\n      mload(0x40)\n      0x08c379a000000000000000000000000000000000000000000000000000000000\n      dup2\n      mstore\n      0x04\n      add\n      tag_173\n      swap1\n      tag_174\n      jump\t// in\n    tag_173:\n      mload(0x40)\n      dup1\n      swap2\n      sub\n      swap1\n      revert\n    tag_172:\n        /* \"week12/ERC721StdToken.sol\":3651:3661  _balanceOf */\n      0x02\n        /* \"week12/ERC721StdToken.sol\":3651:3665  _balanceOf[to] */\n      0x00\n        /* \"week12/ERC721StdToken.sol\":3662:3664  to */\n      dup4\n        /* \"week12/ERC721StdToken.sol\":3651:3665  _balanceOf[to] */\n      0xffffffffffffffffffffffffffffffffffffffff\n      and\n      0xffffffffffffffffffffffffffffffffffffffff\n      and\n      dup2\n      mstore\n      0x20\n      add\n      swap1\n      dup2\n      mstore\n      0x20\n      add\n      0x00\n      keccak256\n      0x00\n        /* \"week12/ERC721StdToken.sol\":3651:3667  _balanceOf[to]++ */\n      dup2\n      sload\n      dup1\n      swap3\n      swap2\n      swap1\n      tag_175\n      swap1\n      tag_167\n      jump\t// in\n    tag_175:\n      swap2\n      swap1\n      pop\n      sstore\n      pop\n        /* \"week12/ERC721StdToken.sol\":3724:3726  to */\n      dup2\n        /* \"week12/ERC721StdToken.sol\":3709:3717  _ownerOf */\n      0x01\n        /* \"week12/ERC721StdToken.sol\":3709:3721  _ownerOf[id] */\n      0x00\n        /* \"week12/ERC721StdToken.sol\":3718:3720  id */\n      dup4\n        /* \"week12/ERC721StdToken.sol\":3709:3721  _ownerOf[id] */\n      dup2\n      mstore\n      0x20\n      add\n      swap1\n      dup2\n      mstore\n      0x20\n      add\n      0x00\n      keccak256\n      0x00\n        /* \"week12/ERC721StdToken.sol\":3709:3726  _ownerOf[id] = to */\n      0x0100\n      exp\n      dup2\n      sload\n      dup2\n      0xffffffffffffffffffffffffffffffffffffffff\n      mul\n      not\n      and\n      swap1\n      dup4\n      0xffffffffffffffffffffffffffffffffffffffff\n      and\n      mul\n      or\n      swap1\n      sstore\n      pop\n        /* \"week12/ERC721StdToken.sol\":3811:3813  id */\n      dup1\n        /* \"week12/ERC721StdToken.sol\":3807:3809  to */\n      dup3\n        /* \"week12/ERC721StdToken.sol\":3786:3814  Transfer(address(0), to, id) */\n      0xffffffffffffffffffffffffffffffffffffffff\n      and\n        /* \"week12/ERC721StdToken.sol\":3803:3804  0 */\n      0x00\n        /* \"week12/ERC721StdToken.sol\":3786:3814  Transfer(address(0), to, id) */\n      0xffffffffffffffffffffffffffffffffffffffff\n      and\n      0xddf252ad1be2c89b69c2b068fc378daa952ba7f163c4a11628f55a4df523b3ef\n      mload(0x40)\n      mload(0x40)\n      dup1\n      swap2\n      sub\n      swap1\n      log4\n        /* \"week12/ERC721StdToken.sol\":3355:3851  function _mint(address to, uint id) internal {... */\n      pop\n      pop\n      jump\t// out\n        /* \"#utility.yul\":88:205   */\n    tag_177:\n        /* \"#utility.yul\":197:198   */\n      0x00\n        /* \"#utility.yul\":194:195   */\n      dup1\n        /* \"#utility.yul\":187:199   */\n      revert\n        /* \"#utility.yul\":211:328   */\n    tag_178:\n        /* \"#utility.yul\":320:321   */\n      0x00\n        /* \"#utility.yul\":317:318   */\n      dup1\n        /* \"#utility.yul\":310:322   */\n      revert\n        /* \"#utility.yul\":334:483   */\n    tag_179:\n        /* \"#utility.yul\":370:377   */\n      0x00\n        /* \"#utility.yul\":410:476   */\n      0xffffffff00000000000000000000000000000000000000000000000000000000\n        /* \"#utility.yul\":403:408   */\n      dup3\n        /* \"#utility.yul\":399:477   */\n      and\n        /* \"#utility.yul\":388:477   */\n      swap1\n      pop\n        /* \"#utility.yul\":334:483   */\n      swap2\n      swap1\n      pop\n      jump\t// out\n        /* \"#utility.yul\":489:609   */\n    tag_180:\n        /* \"#utility.yul\":561:584   */\n      tag_240\n        /* \"#utility.yul\":578:583   */\n      dup2\n        /* \"#utility.yul\":561:584   */\n      tag_179\n      jump\t// in\n    tag_240:\n        /* \"#utility.yul\":554:559   */\n      dup2\n        /* \"#utility.yul\":551:585   */\n      eq\n        /* \"#utility.yul\":541:603   */\n      tag_241\n      jumpi\n        /* \"#utility.yul\":599:600   */\n      0x00\n        /* \"#utility.yul\":596:597   */\n      dup1\n        /* \"#utility.yul\":589:601   */\n      revert\n        /* \"#utility.yul\":541:603   */\n    tag_241:\n        /* \"#utility.yul\":489:609   */\n      pop\n      jump\t// out\n        /* \"#utility.yul\":615:752   */\n    tag_181:\n        /* \"#utility.yul\":660:665   */\n      0x00\n        /* \"#utility.yul\":698:704   */\n      dup2\n        /* \"#utility.yul\":685:705   */\n      calldataload\n        /* \"#utility.yul\":676:705   */\n      swap1\n      pop\n        /* \"#utility.yul\":714:746   */\n      tag_243\n        /* \"#utility.yul\":740:745   */\n      dup2\n        /* \"#utility.yul\":714:746   */\n      tag_180\n      jump\t// in\n    tag_243:\n        /* \"#utility.yul\":615:752   */\n      swap3\n      swap2\n      pop\n      pop\n      jump\t// out\n        /* \"#utility.yul\":758:1085   */\n    tag_22:\n        /* \"#utility.yul\":816:822   */\n      0x00\n        /* \"#utility.yul\":865:867   */\n      0x20\n        /* \"#utility.yul\":853:862   */\n      dup3\n        /* \"#utility.yul\":844:851   */\n      dup5\n        /* \"#utility.yul\":840:863   */\n      sub\n        /* \"#utility.yul\":836:868   */\n      slt\n        /* \"#utility.yul\":833:952   */\n      iszero\n      tag_245\n      jumpi\n        /* \"#utility.yul\":871:950   */\n      tag_246\n      tag_177\n      jump\t// in\n    tag_246:\n        /* \"#utility.yul\":833:952   */\n    tag_245:\n        /* \"#utility.yul\":991:992   */\n      0x00\n        /* \"#utility.yul\":1016:1068   */\n      tag_247\n        /* \"#utility.yul\":1060:1067   */\n      dup5\n        /* \"#utility.yul\":1051:1057   */\n      dup3\n        /* \"#utility.yul\":1040:1049   */\n      dup6\n        /* \"#utility.yul\":1036:1058   */\n      add\n        /* \"#utility.yul\":1016:1068   */\n      tag_181\n      jump\t// in\n    tag_247:\n        /* \"#utility.yul\":1006:1068   */\n      swap2\n      pop\n        /* \"#utility.yul\":962:1078   */\n      pop\n        /* \"#utility.yul\":758:1085   */\n      swap3\n      swap2\n      pop\n      pop\n      jump\t// out\n        /* \"#utility.yul\":1091:1181   */\n    tag_182:\n        /* \"#utility.yul\":1125:1132   */\n      0x00\n        /* \"#utility.yul\":1168:1173   */\n      dup2\n        /* \"#utility.yul\":1161:1174   */\n      iszero\n        /* \"#utility.yul\":1154:1175   */\n      iszero\n        /* \"#utility.yul\":1143:1175   */\n      swap1\n      pop\n        /* \"#utility.yul\":1091:1181   */\n      swap2\n      swap1\n      pop\n      jump\t// out\n        /* \"#utility.yul\":1187:1296   */\n    tag_183:\n        /* \"#utility.yul\":1268:1289   */\n      tag_250\n        /* \"#utility.yul\":1283:1288   */\n      dup2\n        /* \"#utility.yul\":1268:1289   */\n      tag_182\n      jump\t// in\n    tag_250:\n        /* \"#utility.yul\":1263:1266   */\n      dup3\n        /* \"#utility.yul\":1256:1290   */\n      mstore\n        /* \"#utility.yul\":1187:1296   */\n      pop\n      pop\n      jump\t// out\n        /* \"#utility.yul\":1302:1512   */\n    tag_25:\n        /* \"#utility.yul\":1389:1393   */\n      0x00\n        /* \"#utility.yul\":1427:1429   */\n      0x20\n        /* \"#utility.yul\":1416:1425   */\n      dup3\n        /* \"#utility.yul\":1412:1430   */\n      add\n        /* \"#utility.yul\":1404:1430   */\n      swap1\n      pop\n        /* \"#utility.yul\":1440:1505   */\n      tag_252\n        /* \"#utility.yul\":1502:1503   */\n      0x00\n        /* \"#utility.yul\":1491:1500   */\n      dup4\n        /* \"#utility.yul\":1487:1504   */\n      add\n        /* \"#utility.yul\":1478:1484   */\n      dup5\n        /* \"#utility.yul\":1440:1505   */\n      tag_183\n      jump\t// in\n    tag_252:\n        /* \"#utility.yul\":1302:1512   */\n      swap3\n      swap2\n      pop\n      pop\n      jump\t// out\n        /* \"#utility.yul\":1518:1617   */\n    tag_184:\n        /* \"#utility.yul\":1570:1576   */\n      0x00\n        /* \"#utility.yul\":1604:1609   */\n      dup2\n        /* \"#utility.yul\":1598:1610   */\n      mload\n        /* \"#utility.yul\":1588:1610   */\n      swap1\n      pop\n        /* \"#utility.yul\":1518:1617   */\n      swap2\n      swap1\n      pop\n      jump\t// out\n        /* \"#utility.yul\":1623:1792   */\n    tag_185:\n        /* \"#utility.yul\":1707:1718   */\n      0x00\n        /* \"#utility.yul\":1741:1747   */\n      dup3\n        /* \"#utility.yul\":1736:1739   */\n      dup3\n        /* \"#utility.yul\":1729:1748   */\n      mstore\n        /* \"#utility.yul\":1781:1785   */\n      0x20\n        /* \"#utility.yul\":1776:1779   */\n      dup3\n        /* \"#utility.yul\":1772:1786   */\n      add\n        /* \"#utility.yul\":1757:1786   */\n      swap1\n      pop\n        /* \"#utility.yul\":1623:1792   */\n      swap3\n      swap2\n      pop\n      pop\n      jump\t// out\n        /* \"#utility.yul\":1798:2044   */\n    tag_186:\n        /* \"#utility.yul\":1879:1880   */\n      0x00\n        /* \"#utility.yul\":1889:2002   */\n    tag_256:\n        /* \"#utility.yul\":1903:1909   */\n      dup4\n        /* \"#utility.yul\":1900:1901   */\n      dup2\n        /* \"#utility.yul\":1897:1910   */\n      lt\n        /* \"#utility.yul\":1889:2002   */\n      iszero\n      tag_258\n      jumpi\n        /* \"#utility.yul\":1988:1989   */\n      dup1\n        /* \"#utility.yul\":1983:1986   */\n      dup3\n        /* \"#utility.yul\":1979:1990   */\n      add\n        /* \"#utility.yul\":1973:1991   */\n      mload\n        /* \"#utility.yul\":1969:1970   */\n      dup2\n        /* \"#utility.yul\":1964:1967   */\n      dup5\n        /* \"#utility.yul\":1960:1971   */\n      add\n        /* \"#utility.yul\":1953:1992   */\n      mstore\n        /* \"#utility.yul\":1925:1927   */\n      0x20\n        /* \"#utility.yul\":1922:1923   */\n      dup2\n        /* \"#utility.yul\":1918:1928   */\n      add\n        /* \"#utility.yul\":1913:1928   */\n      swap1\n      pop\n        /* \"#utility.yul\":1889:2002   */\n      jump(tag_256)\n    tag_258:\n        /* \"#utility.yul\":2036:2037   */\n      0x00\n        /* \"#utility.yul\":2027:2033   */\n      dup5\n        /* \"#utility.yul\":2022:2025   */\n      dup5\n        /* \"#utility.yul\":2018:2034   */\n      add\n        /* \"#utility.yul\":2011:2038   */\n      mstore\n        /* \"#utility.yul\":1860:2044   */\n      pop\n        /* \"#utility.yul\":1798:2044   */\n      pop\n      pop\n      pop\n      jump\t// out\n        /* \"#utility.yul\":2050:2152   */\n    tag_187:\n        /* \"#utility.yul\":2091:2097   */\n      0x00\n        /* \"#utility.yul\":2142:2144   */\n      0x1f\n        /* \"#utility.yul\":2138:2145   */\n      not\n        /* \"#utility.yul\":2133:2135   */\n      0x1f\n        /* \"#utility.yul\":2126:2131   */\n      dup4\n        /* \"#utility.yul\":2122:2136   */\n      add\n        /* \"#utility.yul\":2118:2146   */\n      and\n        /* \"#utility.yul\":2108:2146   */\n      swap1\n      pop\n        /* \"#utility.yul\":2050:2152   */\n      swap2\n      swap1\n      pop\n      jump\t// out\n        /* \"#utility.yul\":2158:2535   */\n    tag_188:\n        /* \"#utility.yul\":2246:2249   */\n      0x00\n        /* \"#utility.yul\":2274:2313   */\n      tag_261\n        /* \"#utility.yul\":2307:2312   */\n      dup3\n        /* \"#utility.yul\":2274:2313   */\n      tag_184\n      jump\t// in\n    tag_261:\n        /* \"#utility.yul\":2329:2400   */\n      tag_262\n        /* \"#utility.yul\":2393:2399   */\n      dup2\n        /* \"#utility.yul\":2388:2391   */\n      dup6\n        /* \"#utility.yul\":2329:2400   */\n      tag_185\n      jump\t// in\n    tag_262:\n        /* \"#utility.yul\":2322:2400   */\n      swap4\n      pop\n        /* \"#utility.yul\":2409:2474   */\n      tag_263\n        /* \"#utility.yul\":2467:2473   */\n      dup2\n        /* \"#utility.yul\":2462:2465   */\n      dup6\n        /* \"#utility.yul\":2455:2459   */\n      0x20\n        /* \"#utility.yul\":2448:2453   */\n      dup7\n        /* \"#utility.yul\":2444:2460   */\n      add\n        /* \"#utility.yul\":2409:2474   */\n      tag_186\n      jump\t// in\n    tag_263:\n        /* \"#utility.yul\":2499:2528   */\n      tag_264\n        /* \"#utility.yul\":2521:2527   */\n      dup2\n        /* \"#utility.yul\":2499:2528   */\n      tag_187\n      jump\t// in\n    tag_264:\n        /* \"#utility.yul\":2494:2497   */\n      dup5\n        /* \"#utility.yul\":2490:2529   */\n      add\n        /* \"#utility.yul\":2483:2529   */\n      swap2\n      pop\n        /* \"#utility.yul\":2250:2535   */\n      pop\n        /* \"#utility.yul\":2158:2535   */\n      swap3\n      swap2\n      pop\n      pop\n      jump\t// out\n        /* \"#utility.yul\":2541:2854   */\n    tag_30:\n        /* \"#utility.yul\":2654:2658   */\n      0x00\n        /* \"#utility.yul\":2692:2694   */\n      0x20\n        /* \"#utility.yul\":2681:2690   */\n      dup3\n        /* \"#utility.yul\":2677:2695   */\n      add\n        /* \"#utility.yul\":2669:2695   */\n      swap1\n      pop\n        /* \"#utility.yul\":2741:2750   */\n      dup2\n        /* \"#utility.yul\":2735:2739   */\n      dup2\n        /* \"#utility.yul\":2731:2751   */\n      sub\n        /* \"#utility.yul\":2727:2728   */\n      0x00\n        /* \"#utility.yul\":2716:2725   */\n      dup4\n        /* \"#utility.yul\":2712:2729   */\n      add\n        /* \"#utility.yul\":2705:2752   */\n      mstore\n        /* \"#utility.yul\":2769:2847   */\n      tag_266\n        /* \"#utility.yul\":2842:2846   */\n      dup2\n        /* \"#utility.yul\":2833:2839   */\n      dup5\n        /* \"#utility.yul\":2769:2847   */\n      tag_188\n      jump\t// in\n    tag_266:\n        /* \"#utility.yul\":2761:2847   */\n      swap1\n      pop\n        /* \"#utility.yul\":2541:2854   */\n      swap3\n      swap2\n      pop\n      pop\n      jump\t// out\n        /* \"#utility.yul\":2860:2937   */\n    tag_189:\n        /* \"#utility.yul\":2897:2904   */\n      0x00\n        /* \"#utility.yul\":2926:2931   */\n      dup2\n        /* \"#utility.yul\":2915:2931   */\n      swap1\n      pop\n        /* \"#utility.yul\":2860:2937   */\n      swap2\n      swap1\n      pop\n      jump\t// out\n        /* \"#utility.yul\":2943:3065   */\n    tag_190:\n        /* \"#utility.yul\":3016:3040   */\n      tag_269\n        /* \"#utility.yul\":3034:3039   */\n      dup2\n        /* \"#utility.yul\":3016:3040   */\n      tag_189\n      jump\t// in\n    tag_269:\n        /* \"#utility.yul\":3009:3014   */\n      dup2\n        /* \"#utility.yul\":3006:3041   */\n      eq\n        /* \"#utility.yul\":2996:3059   */\n      tag_270\n      jumpi\n        /* \"#utility.yul\":3055:3056   */\n      0x00\n        /* \"#utility.yul\":3052:3053   */\n      dup1\n        /* \"#utility.yul\":3045:3057   */\n      revert\n        /* \"#utility.yul\":2996:3059   */\n    tag_270:\n        /* \"#utility.yul\":2943:3065   */\n      pop\n      jump\t// out\n        /* \"#utility.yul\":3071:3210   */\n    tag_191:\n        /* \"#utility.yul\":3117:3122   */\n      0x00\n        /* \"#utility.yul\":3155:3161   */\n      dup2\n        /* \"#utility.yul\":3142:3162   */\n      calldataload\n        /* \"#utility.yul\":3133:3162   */\n      swap1\n      pop\n        /* \"#utility.yul\":3171:3204   */\n      tag_272\n        /* \"#utility.yul\":3198:3203   */\n      dup2\n        /* \"#utility.yul\":3171:3204   */\n      tag_190\n      jump\t// in\n    tag_272:\n        /* \"#utility.yul\":3071:3210   */\n      swap3\n      swap2\n      pop\n      pop\n      jump\t// out\n        /* \"#utility.yul\":3216:3545   */\n    tag_34:\n        /* \"#utility.yul\":3275:3281   */\n      0x00\n        /* \"#utility.yul\":3324:3326   */\n      0x20\n        /* \"#utility.yul\":3312:3321   */\n      dup3\n        /* \"#utility.yul\":3303:3310   */\n      dup5\n        /* \"#utility.yul\":3299:3322   */\n      sub\n        /* \"#utility.yul\":3295:3327   */\n      slt\n        /* \"#utility.yul\":3292:3411   */\n      iszero\n      tag_274\n      jumpi\n        /* \"#utility.yul\":3330:3409   */\n      tag_275\n      tag_177\n      jump\t// in\n    tag_275:\n        /* \"#utility.yul\":3292:3411   */\n    tag_274:\n        /* \"#utility.yul\":3450:3451   */\n      0x00\n        /* \"#utility.yul\":3475:3528   */\n      tag_276\n        /* \"#utility.yul\":3520:3527   */\n      dup5\n        /* \"#utility.yul\":3511:3517   */\n      dup3\n        /* \"#utility.yul\":3500:3509   */\n      dup6\n        /* \"#utility.yul\":3496:3518   */\n      add\n        /* \"#utility.yul\":3475:3528   */\n      tag_191\n      jump\t// in\n    tag_276:\n        /* \"#utility.yul\":3465:3528   */\n      swap2\n      pop\n        /* \"#utility.yul\":3421:3538   */\n      pop\n        /* \"#utility.yul\":3216:3545   */\n      swap3\n      swap2\n      pop\n      pop\n      jump\t// out\n        /* \"#utility.yul\":3551:3677   */\n    tag_192:\n        /* \"#utility.yul\":3588:3595   */\n      0x00\n        /* \"#utility.yul\":3628:3670   */\n      0xffffffffffffffffffffffffffffffffffffffff\n        /* \"#utility.yul\":3621:3626   */\n      dup3\n        /* \"#utility.yul\":3617:3671   */\n      and\n        /* \"#utility.yul\":3606:3671   */\n      swap1\n      pop\n        /* \"#utility.yul\":3551:3677   */\n      swap2\n      swap1\n      pop\n      jump\t// out\n        /* \"#utility.yul\":3683:3779   */\n    tag_193:\n        /* \"#utility.yul\":3720:3727   */\n      0x00\n        /* \"#utility.yul\":3749:3773   */\n      tag_279\n        /* \"#utility.yul\":3767:3772   */\n      dup3\n        /* \"#utility.yul\":3749:3773   */\n      tag_192\n      jump\t// in\n    tag_279:\n        /* \"#utility.yul\":3738:3773   */\n      swap1\n      pop\n        /* \"#utility.yul\":3683:3779   */\n      swap2\n      swap1\n      pop\n      jump\t// out\n        /* \"#utility.yul\":3785:3903   */\n    tag_194:\n        /* \"#utility.yul\":3872:3896   */\n      tag_281\n        /* \"#utility.yul\":3890:3895   */\n      dup2\n        /* \"#utility.yul\":3872:3896   */\n      tag_193\n      jump\t// in\n    tag_281:\n        /* \"#utility.yul\":3867:3870   */\n      dup3\n        /* \"#utility.yul\":3860:3897   */\n      mstore\n        /* \"#utility.yul\":3785:3903   */\n      pop\n      pop\n      jump\t// out\n        /* \"#utility.yul\":3909:4131   */\n    tag_37:\n        /* \"#utility.yul\":4002:4006   */\n      0x00\n        /* \"#utility.yul\":4040:4042   */\n      0x20\n        /* \"#utility.yul\":4029:4038   */\n      dup3\n        /* \"#utility.yul\":4025:4043   */\n      add\n        /* \"#utility.yul\":4017:4043   */\n      swap1\n      pop\n        /* \"#utility.yul\":4053:4124   */\n      tag_283\n        /* \"#utility.yul\":4121:4122   */\n      0x00\n        /* \"#utility.yul\":4110:4119   */\n      dup4\n        /* \"#utility.yul\":4106:4123   */\n      add\n        /* \"#utility.yul\":4097:4103   */\n      dup5\n        /* \"#utility.yul\":4053:4124   */\n      tag_194\n      jump\t// in\n    tag_283:\n        /* \"#utility.yul\":3909:4131   */\n      swap3\n      swap2\n      pop\n      pop\n      jump\t// out\n        /* \"#utility.yul\":4137:4259   */\n    tag_195:\n        /* \"#utility.yul\":4210:4234   */\n      tag_285\n        /* \"#utility.yul\":4228:4233   */\n      dup2\n        /* \"#utility.yul\":4210:4234   */\n      tag_193\n      jump\t// in\n    tag_285:\n        /* \"#utility.yul\":4203:4208   */\n      dup2\n        /* \"#utility.yul\":4200:4235   */\n      eq\n        /* \"#utility.yul\":4190:4253   */\n      tag_286\n      jumpi\n        /* \"#utility.yul\":4249:4250   */\n      0x00\n        /* \"#utility.yul\":4246:4247   */\n      dup1\n        /* \"#utility.yul\":4239:4251   */\n      revert\n        /* \"#utility.yul\":4190:4253   */\n    tag_286:\n        /* \"#utility.yul\":4137:4259   */\n      pop\n      jump\t// out\n        /* \"#utility.yul\":4265:4404   */\n    tag_196:\n        /* \"#utility.yul\":4311:4316   */\n      0x00\n        /* \"#utility.yul\":4349:4355   */\n      dup2\n        /* \"#utility.yul\":4336:4356   */\n      calldataload\n        /* \"#utility.yul\":4327:4356   */\n      swap1\n      pop\n        /* \"#utility.yul\":4365:4398   */\n      tag_288\n        /* \"#utility.yul\":4392:4397   */\n      dup2\n        /* \"#utility.yul\":4365:4398   */\n      tag_195\n      jump\t// in\n    tag_288:\n        /* \"#utility.yul\":4265:4404   */\n      swap3\n      swap2\n      pop\n      pop\n      jump\t// out\n        /* \"#utility.yul\":4410:4884   */\n    tag_40:\n        /* \"#utility.yul\":4478:4484   */\n      0x00\n        /* \"#utility.yul\":4486:4492   */\n      dup1\n        /* \"#utility.yul\":4535:4537   */\n      0x40\n        /* \"#utility.yul\":4523:4532   */\n      dup4\n        /* \"#utility.yul\":4514:4521   */\n      dup6\n        /* \"#utility.yul\":4510:4533   */\n      sub\n        /* \"#utility.yul\":4506:4538   */\n      slt\n        /* \"#utility.yul\":4503:4622   */\n      iszero\n      tag_290\n      jumpi\n        /* \"#utility.yul\":4541:4620   */\n      tag_291\n      tag_177\n      jump\t// in\n    tag_291:\n        /* \"#utility.yul\":4503:4622   */\n    tag_290:\n        /* \"#utility.yul\":4661:4662   */\n      0x00\n        /* \"#utility.yul\":4686:4739   */\n      tag_292\n        /* \"#utility.yul\":4731:4738   */\n      dup6\n        /* \"#utility.yul\":4722:4728   */\n      dup3\n        /* \"#utility.yul\":4711:4720   */\n      dup7\n        /* \"#utility.yul\":4707:4729   */\n      add\n        /* \"#utility.yul\":4686:4739   */\n      tag_196\n      jump\t// in\n    tag_292:\n        /* \"#utility.yul\":4676:4739   */\n      swap3\n      pop\n        /* \"#utility.yul\":4632:4749   */\n      pop\n        /* \"#utility.yul\":4788:4790   */\n      0x20\n        /* \"#utility.yul\":4814:4867   */\n      tag_293\n        /* \"#utility.yul\":4859:4866   */\n      dup6\n        /* \"#utility.yul\":4850:4856   */\n      dup3\n        /* \"#utility.yul\":4839:4848   */\n      dup7\n        /* \"#utility.yul\":4835:4857   */\n      add\n        /* \"#utility.yul\":4814:4867   */\n      tag_191\n      jump\t// in\n    tag_293:\n        /* \"#utility.yul\":4804:4867   */\n      swap2\n      pop\n        /* \"#utility.yul\":4759:4877   */\n      pop\n        /* \"#utility.yul\":4410:4884   */\n      swap3\n      pop\n      swap3\n      swap1\n      pop\n      jump\t// out\n        /* \"#utility.yul\":4890:5509   */\n    tag_44:\n        /* \"#utility.yul\":4967:4973   */\n      0x00\n        /* \"#utility.yul\":4975:4981   */\n      dup1\n        /* \"#utility.yul\":4983:4989   */\n      0x00\n        /* \"#utility.yul\":5032:5034   */\n      0x60\n        /* \"#utility.yul\":5020:5029   */\n      dup5\n        /* \"#utility.yul\":5011:5018   */\n      dup7\n        /* \"#utility.yul\":5007:5030   */\n      sub\n        /* \"#utility.yul\":5003:5035   */\n      slt\n        /* \"#utility.yul\":5000:5119   */\n      iszero\n      tag_295\n      jumpi\n        /* \"#utility.yul\":5038:5117   */\n      tag_296\n      tag_177\n      jump\t// in\n    tag_296:\n        /* \"#utility.yul\":5000:5119   */\n    tag_295:\n        /* \"#utility.yul\":5158:5159   */\n      0x00\n        /* \"#utility.yul\":5183:5236   */\n      tag_297\n        /* \"#utility.yul\":5228:5235   */\n      dup7\n        /* \"#utility.yul\":5219:5225   */\n      dup3\n        /* \"#utility.yul\":5208:5217   */\n      dup8\n        /* \"#utility.yul\":5204:5226   */\n      add\n        /* \"#utility.yul\":5183:5236   */\n      tag_196\n      jump\t// in\n    tag_297:\n        /* \"#utility.yul\":5173:5236   */\n      swap4\n      pop\n        /* \"#utility.yul\":5129:5246   */\n      pop\n        /* \"#utility.yul\":5285:5287   */\n      0x20\n        /* \"#utility.yul\":5311:5364   */\n      tag_298\n        /* \"#utility.yul\":5356:5363   */\n      dup7\n        /* \"#utility.yul\":5347:5353   */\n      dup3\n        /* \"#utility.yul\":5336:5345   */\n      dup8\n        /* \"#utility.yul\":5332:5354   */\n      add\n        /* \"#utility.yul\":5311:5364   */\n      tag_196\n      jump\t// in\n    tag_298:\n        /* \"#utility.yul\":5301:5364   */\n      swap3\n      pop\n        /* \"#utility.yul\":5256:5374   */\n      pop\n        /* \"#utility.yul\":5413:5415   */\n      0x40\n        /* \"#utility.yul\":5439:5492   */\n      tag_299\n        /* \"#utility.yul\":5484:5491   */\n      dup7\n        /* \"#utility.yul\":5475:5481   */\n      dup3\n        /* \"#utility.yul\":5464:5473   */\n      dup8\n        /* \"#utility.yul\":5460:5482   */\n      add\n        /* \"#utility.yul\":5439:5492   */\n      tag_191\n      jump\t// in\n    tag_299:\n        /* \"#utility.yul\":5429:5492   */\n      swap2\n      pop\n        /* \"#utility.yul\":5384:5502   */\n      pop\n        /* \"#utility.yul\":4890:5509   */\n      swap3\n      pop\n      swap3\n      pop\n      swap3\n      jump\t// out\n        /* \"#utility.yul\":5515:5844   */\n    tag_65:\n        /* \"#utility.yul\":5574:5580   */\n      0x00\n        /* \"#utility.yul\":5623:5625   */\n      0x20\n        /* \"#utility.yul\":5611:5620   */\n      dup3\n        /* \"#utility.yul\":5602:5609   */\n      dup5\n        /* \"#utility.yul\":5598:5621   */\n      sub\n        /* \"#utility.yul\":5594:5626   */\n      slt\n        /* \"#utility.yul\":5591:5710   */\n      iszero\n      tag_301\n      jumpi\n        /* \"#utility.yul\":5629:5708   */\n      tag_302\n      tag_177\n      jump\t// in\n    tag_302:\n        /* \"#utility.yul\":5591:5710   */\n    tag_301:\n        /* \"#utility.yul\":5749:5750   */\n      0x00\n        /* \"#utility.yul\":5774:5827   */\n      tag_303\n        /* \"#utility.yul\":5819:5826   */\n      dup5\n        /* \"#utility.yul\":5810:5816   */\n      dup3\n        /* \"#utility.yul\":5799:5808   */\n      dup6\n        /* \"#utility.yul\":5795:5817   */\n      add\n        /* \"#utility.yul\":5774:5827   */\n      tag_196\n      jump\t// in\n    tag_303:\n        /* \"#utility.yul\":5764:5827   */\n      swap2\n      pop\n        /* \"#utility.yul\":5720:5837   */\n      pop\n        /* \"#utility.yul\":5515:5844   */\n      swap3\n      swap2\n      pop\n      pop\n      jump\t// out\n        /* \"#utility.yul\":5850:5968   */\n    tag_197:\n        /* \"#utility.yul\":5937:5961   */\n      tag_305\n        /* \"#utility.yul\":5955:5960   */\n      dup2\n        /* \"#utility.yul\":5937:5961   */\n      tag_189\n      jump\t// in\n    tag_305:\n        /* \"#utility.yul\":5932:5935   */\n      dup3\n        /* \"#utility.yul\":5925:5962   */\n      mstore\n        /* \"#utility.yul\":5850:5968   */\n      pop\n      pop\n      jump\t// out\n        /* \"#utility.yul\":5974:6196   */\n    tag_68:\n        /* \"#utility.yul\":6067:6071   */\n      0x00\n        /* \"#utility.yul\":6105:6107   */\n      0x20\n        /* \"#utility.yul\":6094:6103   */\n      dup3\n        /* \"#utility.yul\":6090:6108   */\n      add\n        /* \"#utility.yul\":6082:6108   */\n      swap1\n      pop\n        /* \"#utility.yul\":6118:6189   */\n      tag_307\n        /* \"#utility.yul\":6186:6187   */\n      0x00\n        /* \"#utility.yul\":6175:6184   */\n      dup4\n        /* \"#utility.yul\":6171:6188   */\n      add\n        /* \"#utility.yul\":6162:6168   */\n      dup5\n        /* \"#utility.yul\":6118:6189   */\n      tag_197\n      jump\t// in\n    tag_307:\n        /* \"#utility.yul\":5974:6196   */\n      swap3\n      swap2\n      pop\n      pop\n      jump\t// out\n        /* \"#utility.yul\":6202:6318   */\n    tag_198:\n        /* \"#utility.yul\":6272:6293   */\n      tag_309\n        /* \"#utility.yul\":6287:6292   */\n      dup2\n        /* \"#utility.yul\":6272:6293   */\n      tag_182\n      jump\t// in\n    tag_309:\n        /* \"#utility.yul\":6265:6270   */\n      dup2\n        /* \"#utility.yul\":6262:6294   */\n      eq\n        /* \"#utility.yul\":6252:6312   */\n      tag_310\n      jumpi\n        /* \"#utility.yul\":6308:6309   */\n      0x00\n        /* \"#utility.yul\":6305:6306   */\n      dup1\n        /* \"#utility.yul\":6298:6310   */\n      revert\n        /* \"#utility.yul\":6252:6312   */\n    tag_310:\n        /* \"#utility.yul\":6202:6318   */\n      pop\n      jump\t// out\n        /* \"#utility.yul\":6324:6457   */\n    tag_199:\n        /* \"#utility.yul\":6367:6372   */\n      0x00\n        /* \"#utility.yul\":6405:6411   */\n      dup2\n        /* \"#utility.yul\":6392:6412   */\n      calldataload\n        /* \"#utility.yul\":6383:6412   */\n      swap1\n      pop\n        /* \"#utility.yul\":6421:6451   */\n      tag_312\n        /* \"#utility.yul\":6445:6450   */\n      dup2\n        /* \"#utility.yul\":6421:6451   */\n      tag_198\n      jump\t// in\n    tag_312:\n        /* \"#utility.yul\":6324:6457   */\n      swap3\n      swap2\n      pop\n      pop\n      jump\t// out\n        /* \"#utility.yul\":6463:6931   */\n    tag_76:\n        /* \"#utility.yul\":6528:6534   */\n      0x00\n        /* \"#utility.yul\":6536:6542   */\n      dup1\n        /* \"#utility.yul\":6585:6587   */\n      0x40\n        /* \"#utility.yul\":6573:6582   */\n      dup4\n        /* \"#utility.yul\":6564:6571   */\n      dup6\n        /* \"#utility.yul\":6560:6583   */\n      sub\n        /* \"#utility.yul\":6556:6588   */\n      slt\n        /* \"#utility.yul\":6553:6672   */\n      iszero\n      tag_314\n      jumpi\n        /* \"#utility.yul\":6591:6670   */\n      tag_315\n      tag_177\n      jump\t// in\n    tag_315:\n        /* \"#utility.yul\":6553:6672   */\n    tag_314:\n        /* \"#utility.yul\":6711:6712   */\n      0x00\n        /* \"#utility.yul\":6736:6789   */\n      tag_316\n        /* \"#utility.yul\":6781:6788   */\n      dup6\n        /* \"#utility.yul\":6772:6778   */\n      dup3\n        /* \"#utility.yul\":6761:6770   */\n      dup7\n        /* \"#utility.yul\":6757:6779   */\n      add\n        /* \"#utility.yul\":6736:6789   */\n      tag_196\n      jump\t// in\n    tag_316:\n        /* \"#utility.yul\":6726:6789   */\n      swap3\n      pop\n        /* \"#utility.yul\":6682:6799   */\n      pop\n        /* \"#utility.yul\":6838:6840   */\n      0x20\n        /* \"#utility.yul\":6864:6914   */\n      tag_317\n        /* \"#utility.yul\":6906:6913   */\n      dup6\n        /* \"#utility.yul\":6897:6903   */\n      dup3\n        /* \"#utility.yul\":6886:6895   */\n      dup7\n        /* \"#utility.yul\":6882:6904   */\n      add\n        /* \"#utility.yul\":6864:6914   */\n      tag_199\n      jump\t// in\n    tag_317:\n        /* \"#utility.yul\":6854:6914   */\n      swap2\n      pop\n        /* \"#utility.yul\":6809:6924   */\n      pop\n        /* \"#utility.yul\":6463:6931   */\n      swap3\n      pop\n      swap3\n      swap1\n      pop\n      jump\t// out\n        /* \"#utility.yul\":6937:7054   */\n    tag_200:\n        /* \"#utility.yul\":7046:7047   */\n      0x00\n        /* \"#utility.yul\":7043:7044   */\n      dup1\n        /* \"#utility.yul\":7036:7048   */\n      revert\n        /* \"#utility.yul\":7060:7177   */\n    tag_201:\n        /* \"#utility.yul\":7169:7170   */\n      0x00\n        /* \"#utility.yul\":7166:7167   */\n      dup1\n        /* \"#utility.yul\":7159:7171   */\n      revert\n        /* \"#utility.yul\":7183:7300   */\n    tag_202:\n        /* \"#utility.yul\":7292:7293   */\n      0x00\n        /* \"#utility.yul\":7289:7290   */\n      dup1\n        /* \"#utility.yul\":7282:7294   */\n      revert\n        /* \"#utility.yul\":7319:7871   */\n    tag_203:\n        /* \"#utility.yul\":7376:7384   */\n      0x00\n        /* \"#utility.yul\":7386:7392   */\n      dup1\n        /* \"#utility.yul\":7436:7439   */\n      dup4\n        /* \"#utility.yul\":7429:7433   */\n      0x1f\n        /* \"#utility.yul\":7421:7427   */\n      dup5\n        /* \"#utility.yul\":7417:7434   */\n      add\n        /* \"#utility.yul\":7413:7440   */\n      slt\n        /* \"#utility.yul\":7403:7525   */\n      tag_322\n      jumpi\n        /* \"#utility.yul\":7444:7523   */\n      tag_323\n      tag_200\n      jump\t// in\n    tag_323:\n        /* \"#utility.yul\":7403:7525   */\n    tag_322:\n        /* \"#utility.yul\":7557:7563   */\n      dup3\n        /* \"#utility.yul\":7544:7564   */\n      calldataload\n        /* \"#utility.yul\":7534:7564   */\n      swap1\n      pop\n        /* \"#utility.yul\":7587:7605   */\n      0xffffffffffffffff\n        /* \"#utility.yul\":7579:7585   */\n      dup2\n        /* \"#utility.yul\":7576:7606   */\n      gt\n        /* \"#utility.yul\":7573:7690   */\n      iszero\n      tag_324\n      jumpi\n        /* \"#utility.yul\":7609:7688   */\n      tag_325\n      tag_201\n      jump\t// in\n    tag_325:\n        /* \"#utility.yul\":7573:7690   */\n    tag_324:\n        /* \"#utility.yul\":7723:7727   */\n      0x20\n        /* \"#utility.yul\":7715:7721   */\n      dup4\n        /* \"#utility.yul\":7711:7728   */\n      add\n        /* \"#utility.yul\":7699:7728   */\n      swap2\n      pop\n        /* \"#utility.yul\":7777:7780   */\n      dup4\n        /* \"#utility.yul\":7769:7773   */\n      0x01\n        /* \"#utility.yul\":7761:7767   */\n      dup3\n        /* \"#utility.yul\":7757:7774   */\n      mul\n        /* \"#utility.yul\":7747:7755   */\n      dup4\n        /* \"#utility.yul\":7743:7775   */\n      add\n        /* \"#utility.yul\":7740:7781   */\n      gt\n        /* \"#utility.yul\":7737:7865   */\n      iszero\n      tag_326\n      jumpi\n        /* \"#utility.yul\":7784:7863   */\n      tag_327\n      tag_202\n      jump\t// in\n    tag_327:\n        /* \"#utility.yul\":7737:7865   */\n    tag_326:\n        /* \"#utility.yul\":7319:7871   */\n      swap3\n      pop\n      swap3\n      swap1\n      pop\n      jump\t// out\n        /* \"#utility.yul\":7877:8840   */\n    tag_80:\n        /* \"#utility.yul\":7974:7980   */\n      0x00\n        /* \"#utility.yul\":7982:7988   */\n      dup1\n        /* \"#utility.yul\":7990:7996   */\n      0x00\n        /* \"#utility.yul\":7998:8004   */\n      dup1\n        /* \"#utility.yul\":8006:8012   */\n      0x00\n        /* \"#utility.yul\":8055:8058   */\n      0x80\n        /* \"#utility.yul\":8043:8052   */\n      dup7\n        /* \"#utility.yul\":8034:8041   */\n      dup9\n        /* \"#utility.yul\":8030:8053   */\n      sub\n        /* \"#utility.yul\":8026:8059   */\n      slt\n        /* \"#utility.yul\":8023:8143   */\n      iszero\n      tag_329\n      jumpi\n        /* \"#utility.yul\":8062:8141   */\n      tag_330\n      tag_177\n      jump\t// in\n    tag_330:\n        /* \"#utility.yul\":8023:8143   */\n    tag_329:\n        /* \"#utility.yul\":8182:8183   */\n      0x00\n        /* \"#utility.yul\":8207:8260   */\n      tag_331\n        /* \"#utility.yul\":8252:8259   */\n      dup9\n        /* \"#utility.yul\":8243:8249   */\n      dup3\n        /* \"#utility.yul\":8232:8241   */\n      dup10\n        /* \"#utility.yul\":8228:8250   */\n      add\n        /* \"#utility.yul\":8207:8260   */\n      tag_196\n      jump\t// in\n    tag_331:\n        /* \"#utility.yul\":8197:8260   */\n      swap6\n      pop\n        /* \"#utility.yul\":8153:8270   */\n      pop\n        /* \"#utility.yul\":8309:8311   */\n      0x20\n        /* \"#utility.yul\":8335:8388   */\n      tag_332\n        /* \"#utility.yul\":8380:8387   */\n      dup9\n        /* \"#utility.yul\":8371:8377   */\n      dup3\n        /* \"#utility.yul\":8360:8369   */\n      dup10\n        /* \"#utility.yul\":8356:8378   */\n      add\n        /* \"#utility.yul\":8335:8388   */\n      tag_196\n      jump\t// in\n    tag_332:\n        /* \"#utility.yul\":8325:8388   */\n      swap5\n      pop\n        /* \"#utility.yul\":8280:8398   */\n      pop\n        /* \"#utility.yul\":8437:8439   */\n      0x40\n        /* \"#utility.yul\":8463:8516   */\n      tag_333\n        /* \"#utility.yul\":8508:8515   */\n      dup9\n        /* \"#utility.yul\":8499:8505   */\n      dup3\n        /* \"#utility.yul\":8488:8497   */\n      dup10\n        /* \"#utility.yul\":8484:8506   */\n      add\n        /* \"#utility.yul\":8463:8516   */\n      tag_191\n      jump\t// in\n    tag_333:\n        /* \"#utility.yul\":8453:8516   */\n      swap4\n      pop\n        /* \"#utility.yul\":8408:8526   */\n      pop\n        /* \"#utility.yul\":8593:8595   */\n      0x60\n        /* \"#utility.yul\":8582:8591   */\n      dup7\n        /* \"#utility.yul\":8578:8596   */\n      add\n        /* \"#utility.yul\":8565:8597   */\n      calldataload\n        /* \"#utility.yul\":8624:8642   */\n      0xffffffffffffffff\n        /* \"#utility.yul\":8616:8622   */\n      dup2\n        /* \"#utility.yul\":8613:8643   */\n      gt\n        /* \"#utility.yul\":8610:8727   */\n      iszero\n      tag_334\n      jumpi\n        /* \"#utility.yul\":8646:8725   */\n      tag_335\n      tag_178\n      jump\t// in\n    tag_335:\n        /* \"#utility.yul\":8610:8727   */\n    tag_334:\n        /* \"#utility.yul\":8759:8823   */\n      tag_336\n        /* \"#utility.yul\":8815:8822   */\n      dup9\n        /* \"#utility.yul\":8806:8812   */\n      dup3\n        /* \"#utility.yul\":8795:8804   */\n      dup10\n        /* \"#utility.yul\":8791:8813   */\n      add\n        /* \"#utility.yul\":8759:8823   */\n      tag_203\n      jump\t// in\n    tag_336:\n        /* \"#utility.yul\":8741:8823   */\n      swap3\n      pop\n      swap3\n      pop\n        /* \"#utility.yul\":8536:8833   */\n      pop\n        /* \"#utility.yul\":7877:8840   */\n      swap3\n      swap6\n      pop\n      swap3\n      swap6\n      swap1\n      swap4\n      pop\n      jump\t// out\n        /* \"#utility.yul\":8846:9320   */\n    tag_85:\n        /* \"#utility.yul\":8914:8920   */\n      0x00\n        /* \"#utility.yul\":8922:8928   */\n      dup1\n        /* \"#utility.yul\":8971:8973   */\n      0x40\n        /* \"#utility.yul\":8959:8968   */\n      dup4\n        /* \"#utility.yul\":8950:8957   */\n      dup6\n        /* \"#utility.yul\":8946:8969   */\n      sub\n        /* \"#utility.yul\":8942:8974   */\n      slt\n        /* \"#utility.yul\":8939:9058   */\n      iszero\n      tag_338\n      jumpi\n        /* \"#utility.yul\":8977:9056   */\n      tag_339\n      tag_177\n      jump\t// in\n    tag_339:\n        /* \"#utility.yul\":8939:9058   */\n    tag_338:\n        /* \"#utility.yul\":9097:9098   */\n      0x00\n        /* \"#utility.yul\":9122:9175   */\n      tag_340\n        /* \"#utility.yul\":9167:9174   */\n      dup6\n        /* \"#utility.yul\":9158:9164   */\n      dup3\n        /* \"#utility.yul\":9147:9156   */\n      dup7\n        /* \"#utility.yul\":9143:9165   */\n      add\n        /* \"#utility.yul\":9122:9175   */\n      tag_196\n      jump\t// in\n    tag_340:\n        /* \"#utility.yul\":9112:9175   */\n      swap3\n      pop\n        /* \"#utility.yul\":9068:9185   */\n      pop\n        /* \"#utility.yul\":9224:9226   */\n      0x20\n        /* \"#utility.yul\":9250:9303   */\n      tag_341\n        /* \"#utility.yul\":9295:9302   */\n      dup6\n        /* \"#utility.yul\":9286:9292   */\n      dup3\n        /* \"#utility.yul\":9275:9284   */\n      dup7\n        /* \"#utility.yul\":9271:9293   */\n      add\n        /* \"#utility.yul\":9250:9303   */\n      tag_196\n      jump\t// in\n    tag_341:\n        /* \"#utility.yul\":9240:9303   */\n      swap2\n      pop\n        /* \"#utility.yul\":9195:9313   */\n      pop\n        /* \"#utility.yul\":8846:9320   */\n      swap3\n      pop\n      swap3\n      swap1\n      pop\n      jump\t// out\n        /* \"#utility.yul\":9326:9506   */\n    tag_204:\n        /* \"#utility.yul\":9374:9451   */\n      0x4e487b7100000000000000000000000000000000000000000000000000000000\n        /* \"#utility.yul\":9371:9372   */\n      0x00\n        /* \"#utility.yul\":9364:9452   */\n      mstore\n        /* \"#utility.yul\":9471:9475   */\n      0x22\n        /* \"#utility.yul\":9468:9469   */\n      0x04\n        /* \"#utility.yul\":9461:9476   */\n      mstore\n        /* \"#utility.yul\":9495:9499   */\n      0x24\n        /* \"#utility.yul\":9492:9493   */\n      0x00\n        /* \"#utility.yul\":9485:9500   */\n      revert\n        /* \"#utility.yul\":9512:9832   */\n    tag_91:\n        /* \"#utility.yul\":9556:9562   */\n      0x00\n        /* \"#utility.yul\":9593:9594   */\n      0x02\n        /* \"#utility.yul\":9587:9591   */\n      dup3\n        /* \"#utility.yul\":9583:9595   */\n      div\n        /* \"#utility.yul\":9573:9595   */\n      swap1\n      pop\n        /* \"#utility.yul\":9640:9641   */\n      0x01\n        /* \"#utility.yul\":9634:9638   */\n      dup3\n        /* \"#utility.yul\":9630:9642   */\n      and\n        /* \"#utility.yul\":9661:9679   */\n      dup1\n        /* \"#utility.yul\":9651:9732   */\n      tag_344\n      jumpi\n        /* \"#utility.yul\":9717:9721   */\n      0x7f\n        /* \"#utility.yul\":9709:9715   */\n      dup3\n        /* \"#utility.yul\":9705:9722   */\n      and\n        /* \"#utility.yul\":9695:9722   */\n      swap2\n      pop\n        /* \"#utility.yul\":9651:9732   */\n    tag_344:\n        /* \"#utility.yul\":9779:9781   */\n      0x20\n        /* \"#utility.yul\":9771:9777   */\n      dup3\n        /* \"#utility.yul\":9768:9782   */\n      lt\n        /* \"#utility.yul\":9748:9766   */\n      dup2\n        /* \"#utility.yul\":9745:9783   */\n      sub\n        /* \"#utility.yul\":9742:9826   */\n      tag_345\n      jumpi\n        /* \"#utility.yul\":9798:9816   */\n      tag_346\n      tag_204\n      jump\t// in\n    tag_346:\n        /* \"#utility.yul\":9742:9826   */\n    tag_345:\n        /* \"#utility.yul\":9563:9832   */\n      pop\n        /* \"#utility.yul\":9512:9832   */\n      swap2\n      swap1\n      pop\n      jump\t// out\n        /* \"#utility.yul\":9838:10061   */\n    tag_205:\n        /* \"#utility.yul\":9978:10012   */\n      0x617070726f76656420717565727920666f72206e6f6e6578697374656e742074\n        /* \"#utility.yul\":9974:9975   */\n      0x00\n        /* \"#utility.yul\":9966:9972   */\n      dup3\n        /* \"#utility.yul\":9962:9976   */\n      add\n        /* \"#utility.yul\":9955:10013   */\n      mstore\n        /* \"#utility.yul\":10047:10053   */\n      0x6f6b656e00000000000000000000000000000000000000000000000000000000\n        /* \"#utility.yul\":10042:10044   */\n      0x20\n        /* \"#utility.yul\":10034:10040   */\n      dup3\n        /* \"#utility.yul\":10030:10045   */\n      add\n        /* \"#utility.yul\":10023:10054   */\n      mstore\n        /* \"#utility.yul\":9838:10061   */\n      pop\n      jump\t// out\n        /* \"#utility.yul\":10067:10433   */\n    tag_206:\n        /* \"#utility.yul\":10209:10212   */\n      0x00\n        /* \"#utility.yul\":10230:10297   */\n      tag_349\n        /* \"#utility.yul\":10294:10296   */\n      0x24\n        /* \"#utility.yul\":10289:10292   */\n      dup4\n        /* \"#utility.yul\":10230:10297   */\n      tag_185\n      jump\t// in\n    tag_349:\n        /* \"#utility.yul\":10223:10297   */\n      swap2\n      pop\n        /* \"#utility.yul\":10306:10399   */\n      tag_350\n        /* \"#utility.yul\":10395:10398   */\n      dup3\n        /* \"#utility.yul\":10306:10399   */\n      tag_205\n      jump\t// in\n    tag_350:\n        /* \"#utility.yul\":10424:10426   */\n      0x40\n        /* \"#utility.yul\":10419:10422   */\n      dup3\n        /* \"#utility.yul\":10415:10427   */\n      add\n        /* \"#utility.yul\":10408:10427   */\n      swap1\n      pop\n        /* \"#utility.yul\":10067:10433   */\n      swap2\n      swap1\n      pop\n      jump\t// out\n        /* \"#utility.yul\":10439:10858   */\n    tag_99:\n        /* \"#utility.yul\":10605:10609   */\n      0x00\n        /* \"#utility.yul\":10643:10645   */\n      0x20\n        /* \"#utility.yul\":10632:10641   */\n      dup3\n        /* \"#utility.yul\":10628:10646   */\n      add\n        /* \"#utility.yul\":10620:10646   */\n      swap1\n      pop\n        /* \"#utility.yul\":10692:10701   */\n      dup2\n        /* \"#utility.yul\":10686:10690   */\n      dup2\n        /* \"#utility.yul\":10682:10702   */\n      sub\n        /* \"#utility.yul\":10678:10679   */\n      0x00\n        /* \"#utility.yul\":10667:10676   */\n      dup4\n        /* \"#utility.yul\":10663:10680   */\n      add\n        /* \"#utility.yul\":10656:10703   */\n      mstore\n        /* \"#utility.yul\":10720:10851   */\n      tag_352\n        /* \"#utility.yul\":10846:10850   */\n      dup2\n        /* \"#utility.yul\":10720:10851   */\n      tag_206\n      jump\t// in\n    tag_352:\n        /* \"#utility.yul\":10712:10851   */\n      swap1\n      pop\n        /* \"#utility.yul\":10439:10858   */\n      swap2\n      swap1\n      pop\n      jump\t// out\n        /* \"#utility.yul\":10864:11028   */\n    tag_207:\n        /* \"#utility.yul\":11004:11020   */\n      0x6e6f7420617574686f72697a6564000000000000000000000000000000000000\n        /* \"#utility.yul\":11000:11001   */\n      0x00\n        /* \"#utility.yul\":10992:10998   */\n      dup3\n        /* \"#utility.yul\":10988:11002   */\n      add\n        /* \"#utility.yul\":10981:11021   */\n      mstore\n        /* \"#utility.yul\":10864:11028   */\n      pop\n      jump\t// out\n        /* \"#utility.yul\":11034:11400   */\n    tag_208:\n        /* \"#utility.yul\":11176:11179   */\n      0x00\n        /* \"#utility.yul\":11197:11264   */\n      tag_355\n        /* \"#utility.yul\":11261:11263   */\n      0x0e\n        /* \"#utility.yul\":11256:11259   */\n      dup4\n        /* \"#utility.yul\":11197:11264   */\n      tag_185\n      jump\t// in\n    tag_355:\n        /* \"#utility.yul\":11190:11264   */\n      swap2\n      pop\n        /* \"#utility.yul\":11273:11366   */\n      tag_356\n        /* \"#utility.yul\":11362:11365   */\n      dup3\n        /* \"#utility.yul\":11273:11366   */\n      tag_207\n      jump\t// in\n    tag_356:\n        /* \"#utility.yul\":11391:11393   */\n      0x20\n        /* \"#utility.yul\":11386:11389   */\n      dup3\n        /* \"#utility.yul\":11382:11394   */\n      add\n        /* \"#utility.yul\":11375:11394   */\n      swap1\n      pop\n        /* \"#utility.yul\":11034:11400   */\n      swap2\n      swap1\n      pop\n      jump\t// out\n        /* \"#utility.yul\":11406:11825   */\n    tag_104:\n        /* \"#utility.yul\":11572:11576   */\n      0x00\n        /* \"#utility.yul\":11610:11612   */\n      0x20\n        /* \"#utility.yul\":11599:11608   */\n      dup3\n        /* \"#utility.yul\":11595:11613   */\n      add\n        /* \"#utility.yul\":11587:11613   */\n      swap1\n      pop\n        /* \"#utility.yul\":11659:11668   */\n      dup2\n        /* \"#utility.yul\":11653:11657   */\n      dup2\n        /* \"#utility.yul\":11649:11669   */\n      sub\n        /* \"#utility.yul\":11645:11646   */\n      0x00\n        /* \"#utility.yul\":11634:11643   */\n      dup4\n        /* \"#utility.yul\":11630:11647   */\n      add\n        /* \"#utility.yul\":11623:11670   */\n      mstore\n        /* \"#utility.yul\":11687:11818   */\n      tag_358\n        /* \"#utility.yul\":11813:11817   */\n      dup2\n        /* \"#utility.yul\":11687:11818   */\n      tag_208\n      jump\t// in\n    tag_358:\n        /* \"#utility.yul\":11679:11818   */\n      swap1\n      pop\n        /* \"#utility.yul\":11406:11825   */\n      swap2\n      swap1\n      pop\n      jump\t// out\n        /* \"#utility.yul\":11831:12005   */\n    tag_209:\n        /* \"#utility.yul\":11971:11997   */\n      0x6e6f7420616e20617574686f72697a6564206d696e7465720000000000000000\n        /* \"#utility.yul\":11967:11968   */\n      0x00\n        /* \"#utility.yul\":11959:11965   */\n      dup3\n        /* \"#utility.yul\":11955:11969   */\n      add\n        /* \"#utility.yul\":11948:11998   */\n      mstore\n        /* \"#utility.yul\":11831:12005   */\n      pop\n      jump\t// out\n        /* \"#utility.yul\":12011:12377   */\n    tag_210:\n        /* \"#utility.yul\":12153:12156   */\n      0x00\n        /* \"#utility.yul\":12174:12241   */\n      tag_361\n        /* \"#utility.yul\":12238:12240   */\n      0x18\n        /* \"#utility.yul\":12233:12236   */\n      dup4\n        /* \"#utility.yul\":12174:12241   */\n      tag_185\n      jump\t// in\n    tag_361:\n        /* \"#utility.yul\":12167:12241   */\n      swap2\n      pop\n        /* \"#utility.yul\":12250:12343   */\n      tag_362\n        /* \"#utility.yul\":12339:12342   */\n      dup3\n        /* \"#utility.yul\":12250:12343   */\n      tag_209\n      jump\t// in\n    tag_362:\n        /* \"#utility.yul\":12368:12370   */\n      0x20\n        /* \"#utility.yul\":12363:12366   */\n      dup3\n        /* \"#utility.yul\":12359:12371   */\n      add\n        /* \"#utility.yul\":12352:12371   */\n      swap1\n      pop\n        /* \"#utility.yul\":12011:12377   */\n      swap2\n      swap1\n      pop\n      jump\t// out\n        /* \"#utility.yul\":12383:12802   */\n    tag_111:\n        /* \"#utility.yul\":12549:12553   */\n      0x00\n        /* \"#utility.yul\":12587:12589   */\n      0x20\n        /* \"#utility.yul\":12576:12585   */\n      dup3\n        /* \"#utility.yul\":12572:12590   */\n      add\n        /* \"#utility.yul\":12564:12590   */\n      swap1\n      pop\n        /* \"#utility.yul\":12636:12645   */\n      dup2\n        /* \"#utility.yul\":12630:12634   */\n      dup2\n        /* \"#utility.yul\":12626:12646   */\n      sub\n        /* \"#utility.yul\":12622:12623   */\n      0x00\n        /* \"#utility.yul\":12611:12620   */\n      dup4\n        /* \"#utility.yul\":12607:12624   */\n      add\n        /* \"#utility.yul\":12600:12647   */\n      mstore\n        /* \"#utility.yul\":12664:12795   */\n      tag_364\n        /* \"#utility.yul\":12790:12794   */\n      dup2\n        /* \"#utility.yul\":12664:12795   */\n      tag_210\n      jump\t// in\n    tag_364:\n        /* \"#utility.yul\":12656:12795   */\n      swap1\n      pop\n        /* \"#utility.yul\":12383:12802   */\n      swap2\n      swap1\n      pop\n      jump\t// out\n        /* \"#utility.yul\":12808:12976   */\n    tag_211:\n        /* \"#utility.yul\":12891:12902   */\n      0x00\n        /* \"#utility.yul\":12925:12931   */\n      dup3\n        /* \"#utility.yul\":12920:12923   */\n      dup3\n        /* \"#utility.yul\":12913:12932   */\n      mstore\n        /* \"#utility.yul\":12965:12969   */\n      0x20\n        /* \"#utility.yul\":12960:12963   */\n      dup3\n        /* \"#utility.yul\":12956:12970   */\n      add\n        /* \"#utility.yul\":12941:12970   */\n      swap1\n      pop\n        /* \"#utility.yul\":12808:12976   */\n      swap3\n      swap2\n      pop\n      pop\n      jump\t// out\n        /* \"#utility.yul\":12982:13096   */\n    tag_212:\n      pop\n      jump\t// out\n        /* \"#utility.yul\":13102:13464   */\n    tag_213:\n        /* \"#utility.yul\":13243:13246   */\n      0x00\n        /* \"#utility.yul\":13264:13329   */\n      tag_368\n        /* \"#utility.yul\":13327:13328   */\n      0x00\n        /* \"#utility.yul\":13322:13325   */\n      dup4\n        /* \"#utility.yul\":13264:13329   */\n      tag_211\n      jump\t// in\n    tag_368:\n        /* \"#utility.yul\":13257:13329   */\n      swap2\n      pop\n        /* \"#utility.yul\":13338:13431   */\n      tag_369\n        /* \"#utility.yul\":13427:13430   */\n      dup3\n        /* \"#utility.yul\":13338:13431   */\n      tag_212\n      jump\t// in\n    tag_369:\n        /* \"#utility.yul\":13456:13457   */\n      0x00\n        /* \"#utility.yul\":13451:13454   */\n      dup3\n        /* \"#utility.yul\":13447:13458   */\n      add\n        /* \"#utility.yul\":13440:13458   */\n      swap1\n      pop\n        /* \"#utility.yul\":13102:13464   */\n      swap2\n      swap1\n      pop\n      jump\t// out\n        /* \"#utility.yul\":13470:14218   */\n    tag_118:\n        /* \"#utility.yul\":13719:13723   */\n      0x00\n        /* \"#utility.yul\":13757:13760   */\n      0x80\n        /* \"#utility.yul\":13746:13755   */\n      dup3\n        /* \"#utility.yul\":13742:13761   */\n      add\n        /* \"#utility.yul\":13734:13761   */\n      swap1\n      pop\n        /* \"#utility.yul\":13771:13842   */\n      tag_371\n        /* \"#utility.yul\":13839:13840   */\n      0x00\n        /* \"#utility.yul\":13828:13837   */\n      dup4\n        /* \"#utility.yul\":13824:13841   */\n      add\n        /* \"#utility.yul\":13815:13821   */\n      dup7\n        /* \"#utility.yul\":13771:13842   */\n      tag_194\n      jump\t// in\n    tag_371:\n        /* \"#utility.yul\":13852:13924   */\n      tag_372\n        /* \"#utility.yul\":13920:13922   */\n      0x20\n        /* \"#utility.yul\":13909:13918   */\n      dup4\n        /* \"#utility.yul\":13905:13923   */\n      add\n        /* \"#utility.yul\":13896:13902   */\n      dup6\n        /* \"#utility.yul\":13852:13924   */\n      tag_194\n      jump\t// in\n    tag_372:\n        /* \"#utility.yul\":13934:14006   */\n      tag_373\n        /* \"#utility.yul\":14002:14004   */\n      0x40\n        /* \"#utility.yul\":13991:14000   */\n      dup4\n        /* \"#utility.yul\":13987:14005   */\n      add\n        /* \"#utility.yul\":13978:13984   */\n      dup5\n        /* \"#utility.yul\":13934:14006   */\n      tag_197\n      jump\t// in\n    tag_373:\n        /* \"#utility.yul\":14053:14062   */\n      dup2\n        /* \"#utility.yul\":14047:14051   */\n      dup2\n        /* \"#utility.yul\":14043:14063   */\n      sub\n        /* \"#utility.yul\":14038:14040   */\n      0x60\n        /* \"#utility.yul\":14027:14036   */\n      dup4\n        /* \"#utility.yul\":14023:14041   */\n      add\n        /* \"#utility.yul\":14016:14064   */\n      mstore\n        /* \"#utility.yul\":14081:14211   */\n      tag_374\n        /* \"#utility.yul\":14206:14210   */\n      dup2\n        /* \"#utility.yul\":14081:14211   */\n      tag_213\n      jump\t// in\n    tag_374:\n        /* \"#utility.yul\":14073:14211   */\n      swap1\n      pop\n        /* \"#utility.yul\":13470:14218   */\n      swap5\n      swap4\n      pop\n      pop\n      pop\n      pop\n      jump\t// out\n        /* \"#utility.yul\":14224:14365   */\n    tag_214:\n        /* \"#utility.yul\":14280:14285   */\n      0x00\n        /* \"#utility.yul\":14311:14317   */\n      dup2\n        /* \"#utility.yul\":14305:14318   */\n      mload\n        /* \"#utility.yul\":14296:14318   */\n      swap1\n      pop\n        /* \"#utility.yul\":14327:14359   */\n      tag_376\n        /* \"#utility.yul\":14353:14358   */\n      dup2\n        /* \"#utility.yul\":14327:14359   */\n      tag_180\n      jump\t// in\n    tag_376:\n        /* \"#utility.yul\":14224:14365   */\n      swap3\n      swap2\n      pop\n      pop\n      jump\t// out\n        /* \"#utility.yul\":14371:14720   */\n    tag_122:\n        /* \"#utility.yul\":14440:14446   */\n      0x00\n        /* \"#utility.yul\":14489:14491   */\n      0x20\n        /* \"#utility.yul\":14477:14486   */\n      dup3\n        /* \"#utility.yul\":14468:14475   */\n      dup5\n        /* \"#utility.yul\":14464:14487   */\n      sub\n        /* \"#utility.yul\":14460:14492   */\n      slt\n        /* \"#utility.yul\":14457:14576   */\n      iszero\n      tag_378\n      jumpi\n        /* \"#utility.yul\":14495:14574   */\n      tag_379\n      tag_177\n      jump\t// in\n    tag_379:\n        /* \"#utility.yul\":14457:14576   */\n    tag_378:\n        /* \"#utility.yul\":14615:14616   */\n      0x00\n        /* \"#utility.yul\":14640:14703   */\n      tag_380\n        /* \"#utility.yul\":14695:14702   */\n      dup5\n        /* \"#utility.yul\":14686:14692   */\n      dup3\n        /* \"#utility.yul\":14675:14684   */\n      dup6\n        /* \"#utility.yul\":14671:14693   */\n      add\n        /* \"#utility.yul\":14640:14703   */\n      tag_214\n      jump\t// in\n    tag_380:\n        /* \"#utility.yul\":14630:14703   */\n      swap2\n      pop\n        /* \"#utility.yul\":14586:14713   */\n      pop\n        /* \"#utility.yul\":14371:14720   */\n      swap3\n      swap2\n      pop\n      pop\n      jump\t// out\n        /* \"#utility.yul\":14726:14892   */\n    tag_215:\n        /* \"#utility.yul\":14866:14884   */\n      0x756e7361666520726563697069656e7400000000000000000000000000000000\n        /* \"#utility.yul\":14862:14863   */\n      0x00\n        /* \"#utility.yul\":14854:14860   */\n      dup3\n        /* \"#utility.yul\":14850:14864   */\n      add\n        /* \"#utility.yul\":14843:14885   */\n      mstore\n        /* \"#utility.yul\":14726:14892   */\n      pop\n      jump\t// out\n        /* \"#utility.yul\":14898:15264   */\n    tag_216:\n        /* \"#utility.yul\":15040:15043   */\n      0x00\n        /* \"#utility.yul\":15061:15128   */\n      tag_383\n        /* \"#utility.yul\":15125:15127   */\n      0x10\n        /* \"#utility.yul\":15120:15123   */\n      dup4\n        /* \"#utility.yul\":15061:15128   */\n      tag_185\n      jump\t// in\n    tag_383:\n        /* \"#utility.yul\":15054:15128   */\n      swap2\n      pop\n        /* \"#utility.yul\":15137:15230   */\n      tag_384\n        /* \"#utility.yul\":15226:15229   */\n      dup3\n        /* \"#utility.yul\":15137:15230   */\n      tag_215\n      jump\t// in\n    tag_384:\n        /* \"#utility.yul\":15255:15257   */\n      0x20\n        /* \"#utility.yul\":15250:15253   */\n      dup3\n        /* \"#utility.yul\":15246:15258   */\n      add\n        /* \"#utility.yul\":15239:15258   */\n      swap1\n      pop\n        /* \"#utility.yul\":14898:15264   */\n      swap2\n      swap1\n      pop\n      jump\t// out\n        /* \"#utility.yul\":15270:15689   */\n    tag_125:\n        /* \"#utility.yul\":15436:15440   */\n      0x00\n        /* \"#utility.yul\":15474:15476   */\n      0x20\n        /* \"#utility.yul\":15463:15472   */\n      dup3\n        /* \"#utility.yul\":15459:15477   */\n      add\n        /* \"#utility.yul\":15451:15477   */\n      swap1\n      pop\n        /* \"#utility.yul\":15523:15532   */\n      dup2\n        /* \"#utility.yul\":15517:15521   */\n      dup2\n        /* \"#utility.yul\":15513:15533   */\n      sub\n        /* \"#utility.yul\":15509:15510   */\n      0x00\n        /* \"#utility.yul\":15498:15507   */\n      dup4\n        /* \"#utility.yul\":15494:15511   */\n      add\n        /* \"#utility.yul\":15487:15534   */\n      mstore\n        /* \"#utility.yul\":15551:15682   */\n      tag_386\n        /* \"#utility.yul\":15677:15681   */\n      dup2\n        /* \"#utility.yul\":15551:15682   */\n      tag_216\n      jump\t// in\n    tag_386:\n        /* \"#utility.yul\":15543:15682   */\n      swap1\n      pop\n        /* \"#utility.yul\":15270:15689   */\n      swap2\n      swap1\n      pop\n      jump\t// out\n        /* \"#utility.yul\":15695:15864   */\n    tag_217:\n        /* \"#utility.yul\":15835:15856   */\n      0x746f6b656e20646f65736e277420657869737400000000000000000000000000\n        /* \"#utility.yul\":15831:15832   */\n      0x00\n        /* \"#utility.yul\":15823:15829   */\n      dup3\n        /* \"#utility.yul\":15819:15833   */\n      add\n        /* \"#utility.yul\":15812:15857   */\n      mstore\n        /* \"#utility.yul\":15695:15864   */\n      pop\n      jump\t// out\n        /* \"#utility.yul\":15870:16236   */\n    tag_218:\n        /* \"#utility.yul\":16012:16015   */\n      0x00\n        /* \"#utility.yul\":16033:16100   */\n      tag_389\n        /* \"#utility.yul\":16097:16099   */\n      0x13\n        /* \"#utility.yul\":16092:16095   */\n      dup4\n        /* \"#utility.yul\":16033:16100   */\n      tag_185\n      jump\t// in\n    tag_389:\n        /* \"#utility.yul\":16026:16100   */\n      swap2\n      pop\n        /* \"#utility.yul\":16109:16202   */\n      tag_390\n        /* \"#utility.yul\":16198:16201   */\n      dup3\n        /* \"#utility.yul\":16109:16202   */\n      tag_217\n      jump\t// in\n    tag_390:\n        /* \"#utility.yul\":16227:16229   */\n      0x20\n        /* \"#utility.yul\":16222:16225   */\n      dup3\n        /* \"#utility.yul\":16218:16230   */\n      add\n        /* \"#utility.yul\":16211:16230   */\n      swap1\n      pop\n        /* \"#utility.yul\":15870:16236   */\n      swap2\n      swap1\n      pop\n      jump\t// out\n        /* \"#utility.yul\":16242:16661   */\n    tag_129:\n        /* \"#utility.yul\":16408:16412   */\n      0x00\n        /* \"#utility.yul\":16446:16448   */\n      0x20\n        /* \"#utility.yul\":16435:16444   */\n      dup3\n        /* \"#utility.yul\":16431:16449   */\n      add\n        /* \"#utility.yul\":16423:16449   */\n      swap1\n      pop\n        /* \"#utility.yul\":16495:16504   */\n      dup2\n        /* \"#utility.yul\":16489:16493   */\n      dup2\n        /* \"#utility.yul\":16485:16505   */\n      sub\n        /* \"#utility.yul\":16481:16482   */\n      0x00\n        /* \"#utility.yul\":16470:16479   */\n      dup4\n        /* \"#utility.yul\":16466:16483   */\n      add\n        /* \"#utility.yul\":16459:16506   */\n      mstore\n        /* \"#utility.yul\":16523:16654   */\n      tag_392\n        /* \"#utility.yul\":16649:16653   */\n      dup2\n        /* \"#utility.yul\":16523:16654   */\n      tag_218\n      jump\t// in\n    tag_392:\n        /* \"#utility.yul\":16515:16654   */\n      swap1\n      pop\n        /* \"#utility.yul\":16242:16661   */\n      swap2\n      swap1\n      pop\n      jump\t// out\n        /* \"#utility.yul\":16667:16888   */\n    tag_219:\n        /* \"#utility.yul\":16807:16841   */\n      0x62616c616e636520717565727920666f7220746865207a65726f206164647265\n        /* \"#utility.yul\":16803:16804   */\n      0x00\n        /* \"#utility.yul\":16795:16801   */\n      dup3\n        /* \"#utility.yul\":16791:16805   */\n      add\n        /* \"#utility.yul\":16784:16842   */\n      mstore\n        /* \"#utility.yul\":16876:16880   */\n      0x7373000000000000000000000000000000000000000000000000000000000000\n        /* \"#utility.yul\":16871:16873   */\n      0x20\n        /* \"#utility.yul\":16863:16869   */\n      dup3\n        /* \"#utility.yul\":16859:16874   */\n      add\n        /* \"#utility.yul\":16852:16881   */\n      mstore\n        /* \"#utility.yul\":16667:16888   */\n      pop\n      jump\t// out\n        /* \"#utility.yul\":16894:17260   */\n    tag_220:\n        /* \"#utility.yul\":17036:17039   */\n      0x00\n        /* \"#utility.yul\":17057:17124   */\n      tag_395\n        /* \"#utility.yul\":17121:17123   */\n      0x22\n        /* \"#utility.yul\":17116:17119   */\n      dup4\n        /* \"#utility.yul\":17057:17124   */\n      tag_185\n      jump\t// in\n    tag_395:\n        /* \"#utility.yul\":17050:17124   */\n      swap2\n      pop\n        /* \"#utility.yul\":17133:17226   */\n      tag_396\n        /* \"#utility.yul\":17222:17225   */\n      dup3\n        /* \"#utility.yul\":17133:17226   */\n      tag_219\n      jump\t// in\n    tag_396:\n        /* \"#utility.yul\":17251:17253   */\n      0x40\n        /* \"#utility.yul\":17246:17249   */\n      dup3\n        /* \"#utility.yul\":17242:17254   */\n      add\n        /* \"#utility.yul\":17235:17254   */\n      swap1\n      pop\n        /* \"#utility.yul\":16894:17260   */\n      swap2\n      swap1\n      pop\n      jump\t// out\n        /* \"#utility.yul\":17266:17685   */\n    tag_133:\n        /* \"#utility.yul\":17432:17436   */\n      0x00\n        /* \"#utility.yul\":17470:17472   */\n      0x20\n        /* \"#utility.yul\":17459:17468   */\n      dup3\n        /* \"#utility.yul\":17455:17473   */\n      add\n        /* \"#utility.yul\":17447:17473   */\n      swap1\n      pop\n        /* \"#utility.yul\":17519:17528   */\n      dup2\n        /* \"#utility.yul\":17513:17517   */\n      dup2\n        /* \"#utility.yul\":17509:17529   */\n      sub\n        /* \"#utility.yul\":17505:17506   */\n      0x00\n        /* \"#utility.yul\":17494:17503   */\n      dup4\n        /* \"#utility.yul\":17490:17507   */\n      add\n        /* \"#utility.yul\":17483:17530   */\n      mstore\n        /* \"#utility.yul\":17547:17678   */\n      tag_398\n        /* \"#utility.yul\":17673:17677   */\n      dup2\n        /* \"#utility.yul\":17547:17678   */\n      tag_220\n      jump\t// in\n    tag_398:\n        /* \"#utility.yul\":17539:17678   */\n      swap1\n      pop\n        /* \"#utility.yul\":17266:17685   */\n      swap2\n      swap1\n      pop\n      jump\t// out\n        /* \"#utility.yul\":17691:17837   */\n    tag_221:\n        /* \"#utility.yul\":17788:17794   */\n      dup3\n        /* \"#utility.yul\":17783:17786   */\n      dup2\n        /* \"#utility.yul\":17778:17781   */\n      dup4\n        /* \"#utility.yul\":17765:17795   */\n      calldatacopy\n        /* \"#utility.yul\":17829:17830   */\n      0x00\n        /* \"#utility.yul\":17820:17826   */\n      dup4\n        /* \"#utility.yul\":17815:17818   */\n      dup4\n        /* \"#utility.yul\":17811:17827   */\n      add\n        /* \"#utility.yul\":17804:17831   */\n      mstore\n        /* \"#utility.yul\":17691:17837   */\n      pop\n      pop\n      pop\n      jump\t// out\n        /* \"#utility.yul\":17865:18179   */\n    tag_222:\n        /* \"#utility.yul\":17961:17964   */\n      0x00\n        /* \"#utility.yul\":17982:18052   */\n      tag_401\n        /* \"#utility.yul\":18045:18051   */\n      dup4\n        /* \"#utility.yul\":18040:18043   */\n      dup6\n        /* \"#utility.yul\":17982:18052   */\n      tag_211\n      jump\t// in\n    tag_401:\n        /* \"#utility.yul\":17975:18052   */\n      swap4\n      pop\n        /* \"#utility.yul\":18062:18118   */\n      tag_402\n        /* \"#utility.yul\":18111:18117   */\n      dup4\n        /* \"#utility.yul\":18106:18109   */\n      dup6\n        /* \"#utility.yul\":18099:18104   */\n      dup5\n        /* \"#utility.yul\":18062:18118   */\n      tag_221\n      jump\t// in\n    tag_402:\n        /* \"#utility.yul\":18143:18172   */\n      tag_403\n        /* \"#utility.yul\":18165:18171   */\n      dup4\n        /* \"#utility.yul\":18143:18172   */\n      tag_187\n      jump\t// in\n    tag_403:\n        /* \"#utility.yul\":18138:18141   */\n      dup5\n        /* \"#utility.yul\":18134:18173   */\n      add\n        /* \"#utility.yul\":18127:18173   */\n      swap1\n      pop\n        /* \"#utility.yul\":17865:18179   */\n      swap4\n      swap3\n      pop\n      pop\n      pop\n      jump\t// out\n        /* \"#utility.yul\":18185:18845   */\n    tag_145:\n        /* \"#utility.yul\":18390:18394   */\n      0x00\n        /* \"#utility.yul\":18428:18431   */\n      0x80\n        /* \"#utility.yul\":18417:18426   */\n      dup3\n        /* \"#utility.yul\":18413:18432   */\n      add\n        /* \"#utility.yul\":18405:18432   */\n      swap1\n      pop\n        /* \"#utility.yul\":18442:18513   */\n      tag_405\n        /* \"#utility.yul\":18510:18511   */\n      0x00\n        /* \"#utility.yul\":18499:18508   */\n      dup4\n        /* \"#utility.yul\":18495:18512   */\n      add\n        /* \"#utility.yul\":18486:18492   */\n      dup9\n        /* \"#utility.yul\":18442:18513   */\n      tag_194\n      jump\t// in\n    tag_405:\n        /* \"#utility.yul\":18523:18595   */\n      tag_406\n        /* \"#utility.yul\":18591:18593   */\n      0x20\n        /* \"#utility.yul\":18580:18589   */\n      dup4\n        /* \"#utility.yul\":18576:18594   */\n      add\n        /* \"#utility.yul\":18567:18573   */\n      dup8\n        /* \"#utility.yul\":18523:18595   */\n      tag_194\n      jump\t// in\n    tag_406:\n        /* \"#utility.yul\":18605:18677   */\n      tag_407\n        /* \"#utility.yul\":18673:18675   */\n      0x40\n        /* \"#utility.yul\":18662:18671   */\n      dup4\n        /* \"#utility.yul\":18658:18676   */\n      add\n        /* \"#utility.yul\":18649:18655   */\n      dup7\n        /* \"#utility.yul\":18605:18677   */\n      tag_197\n      jump\t// in\n    tag_407:\n        /* \"#utility.yul\":18724:18733   */\n      dup2\n        /* \"#utility.yul\":18718:18722   */\n      dup2\n        /* \"#utility.yul\":18714:18734   */\n      sub\n        /* \"#utility.yul\":18709:18711   */\n      0x60\n        /* \"#utility.yul\":18698:18707   */\n      dup4\n        /* \"#utility.yul\":18694:18712   */\n      add\n        /* \"#utility.yul\":18687:18735   */\n      mstore\n        /* \"#utility.yul\":18752:18838   */\n      tag_408\n        /* \"#utility.yul\":18833:18837   */\n      dup2\n        /* \"#utility.yul\":18824:18830   */\n      dup5\n        /* \"#utility.yul\":18816:18822   */\n      dup7\n        /* \"#utility.yul\":18752:18838   */\n      tag_222\n      jump\t// in\n    tag_408:\n        /* \"#utility.yul\":18744:18838   */\n      swap1\n      pop\n        /* \"#utility.yul\":18185:18845   */\n      swap7\n      swap6\n      pop\n      pop\n      pop\n      pop\n      pop\n      pop\n      jump\t// out\n        /* \"#utility.yul\":18851:19012   */\n    tag_223:\n        /* \"#utility.yul\":18991:19004   */\n      0x66726f6d213d6f776e6572000000000000000000000000000000000000000000\n        /* \"#utility.yul\":18987:18988   */\n      0x00\n        /* \"#utility.yul\":18979:18985   */\n      dup3\n        /* \"#utility.yul\":18975:18989   */\n      add\n        /* \"#utility.yul\":18968:19005   */\n      mstore\n        /* \"#utility.yul\":18851:19012   */\n      pop\n      jump\t// out\n        /* \"#utility.yul\":19018:19384   */\n    tag_224:\n        /* \"#utility.yul\":19160:19163   */\n      0x00\n        /* \"#utility.yul\":19181:19248   */\n      tag_411\n        /* \"#utility.yul\":19245:19247   */\n      0x0b\n        /* \"#utility.yul\":19240:19243   */\n      dup4\n        /* \"#utility.yul\":19181:19248   */\n      tag_185\n      jump\t// in\n    tag_411:\n        /* \"#utility.yul\":19174:19248   */\n      swap2\n      pop\n        /* \"#utility.yul\":19257:19350   */\n      tag_412\n        /* \"#utility.yul\":19346:19349   */\n      dup3\n        /* \"#utility.yul\":19257:19350   */\n      tag_223\n      jump\t// in\n    tag_412:\n        /* \"#utility.yul\":19375:19377   */\n      0x20\n        /* \"#utility.yul\":19370:19373   */\n      dup3\n        /* \"#utility.yul\":19366:19378   */\n      add\n        /* \"#utility.yul\":19359:19378   */\n      swap1\n      pop\n        /* \"#utility.yul\":19018:19384   */\n      swap2\n      swap1\n      pop\n      jump\t// out\n        /* \"#utility.yul\":19390:19809   */\n    tag_155:\n        /* \"#utility.yul\":19556:19560   */\n      0x00\n        /* \"#utility.yul\":19594:19596   */\n      0x20\n        /* \"#utility.yul\":19583:19592   */\n      dup3\n        /* \"#utility.yul\":19579:19597   */\n      add\n        /* \"#utility.yul\":19571:19597   */\n      swap1\n      pop\n        /* \"#utility.yul\":19643:19652   */\n      dup2\n        /* \"#utility.yul\":19637:19641   */\n      dup2\n        /* \"#utility.yul\":19633:19653   */\n      sub\n        /* \"#utility.yul\":19629:19630   */\n      0x00\n        /* \"#utility.yul\":19618:19627   */\n      dup4\n        /* \"#utility.yul\":19614:19631   */\n      add\n        /* \"#utility.yul\":19607:19654   */\n      mstore\n        /* \"#utility.yul\":19671:19802   */\n      tag_414\n        /* \"#utility.yul\":19797:19801   */\n      dup2\n        /* \"#utility.yul\":19671:19802   */\n      tag_224\n      jump\t// in\n    tag_414:\n        /* \"#utility.yul\":19663:19802   */\n      swap1\n      pop\n        /* \"#utility.yul\":19390:19809   */\n      swap2\n      swap1\n      pop\n      jump\t// out\n        /* \"#utility.yul\":19815:19989   */\n    tag_225:\n        /* \"#utility.yul\":19955:19981   */\n      0x7472616e7366657220746f207a65726f20616464726573730000000000000000\n        /* \"#utility.yul\":19951:19952   */\n      0x00\n        /* \"#utility.yul\":19943:19949   */\n      dup3\n        /* \"#utility.yul\":19939:19953   */\n      add\n        /* \"#utility.yul\":19932:19982   */\n      mstore\n        /* \"#utility.yul\":19815:19989   */\n      pop\n      jump\t// out\n        /* \"#utility.yul\":19995:20361   */\n    tag_226:\n        /* \"#utility.yul\":20137:20140   */\n      0x00\n        /* \"#utility.yul\":20158:20225   */\n      tag_417\n        /* \"#utility.yul\":20222:20224   */\n      0x18\n        /* \"#utility.yul\":20217:20220   */\n      dup4\n        /* \"#utility.yul\":20158:20225   */\n      tag_185\n      jump\t// in\n    tag_417:\n        /* \"#utility.yul\":20151:20225   */\n      swap2\n      pop\n        /* \"#utility.yul\":20234:20327   */\n      tag_418\n        /* \"#utility.yul\":20323:20326   */\n      dup3\n        /* \"#utility.yul\":20234:20327   */\n      tag_225\n      jump\t// in\n    tag_418:\n        /* \"#utility.yul\":20352:20354   */\n      0x20\n        /* \"#utility.yul\":20347:20350   */\n      dup3\n        /* \"#utility.yul\":20343:20355   */\n      add\n        /* \"#utility.yul\":20336:20355   */\n      swap1\n      pop\n        /* \"#utility.yul\":19995:20361   */\n      swap2\n      swap1\n      pop\n      jump\t// out\n        /* \"#utility.yul\":20367:20786   */\n    tag_158:\n        /* \"#utility.yul\":20533:20537   */\n      0x00\n        /* \"#utility.yul\":20571:20573   */\n      0x20\n        /* \"#utility.yul\":20560:20569   */\n      dup3\n        /* \"#utility.yul\":20556:20574   */\n      add\n        /* \"#utility.yul\":20548:20574   */\n      swap1\n      pop\n        /* \"#utility.yul\":20620:20629   */\n      dup2\n        /* \"#utility.yul\":20614:20618   */\n      dup2\n        /* \"#utility.yul\":20610:20630   */\n      sub\n        /* \"#utility.yul\":20606:20607   */\n      0x00\n        /* \"#utility.yul\":20595:20604   */\n      dup4\n        /* \"#utility.yul\":20591:20608   */\n      add\n        /* \"#utility.yul\":20584:20631   */\n      mstore\n        /* \"#utility.yul\":20648:20779   */\n      tag_420\n        /* \"#utility.yul\":20774:20778   */\n      dup2\n        /* \"#utility.yul\":20648:20779   */\n      tag_226\n      jump\t// in\n    tag_420:\n        /* \"#utility.yul\":20640:20779   */\n      swap1\n      pop\n        /* \"#utility.yul\":20367:20786   */\n      swap2\n      swap1\n      pop\n      jump\t// out\n        /* \"#utility.yul\":20792:21031   */\n    tag_227:\n        /* \"#utility.yul\":20932:20966   */\n      0x6d73672e73656e646572206e6f7420696e207b6f776e65722c206f7065726174\n        /* \"#utility.yul\":20928:20929   */\n      0x00\n        /* \"#utility.yul\":20920:20926   */\n      dup3\n        /* \"#utility.yul\":20916:20930   */\n      add\n        /* \"#utility.yul\":20909:20967   */\n      mstore\n        /* \"#utility.yul\":21005:21019   */\n      0x6f722c20617070726f7665640000000000000000000000000000000000000000\n        /* \"#utility.yul\":21000:21002   */\n      0x20\n        /* \"#utility.yul\":20992:20998   */\n      dup3\n        /* \"#utility.yul\":20988:21003   */\n      add\n        /* \"#utility.yul\":20981:21020   */\n      mstore\n        /* \"#utility.yul\":20792:21031   */\n      pop\n      jump\t// out\n        /* \"#utility.yul\":21041:21423   */\n    tag_228:\n        /* \"#utility.yul\":21183:21186   */\n      0x00\n        /* \"#utility.yul\":21208:21275   */\n      tag_423\n        /* \"#utility.yul\":21272:21274   */\n      0x2c\n        /* \"#utility.yul\":21267:21270   */\n      dup4\n        /* \"#utility.yul\":21208:21275   */\n      tag_185\n      jump\t// in\n    tag_423:\n        /* \"#utility.yul\":21201:21275   */\n      swap2\n      pop\n        /* \"#utility.yul\":21288:21381   */\n      tag_424\n        /* \"#utility.yul\":21377:21380   */\n      dup3\n        /* \"#utility.yul\":21288:21381   */\n      tag_227\n      jump\t// in\n    tag_424:\n        /* \"#utility.yul\":21410:21412   */\n      0x40\n        /* \"#utility.yul\":21405:21408   */\n      dup3\n        /* \"#utility.yul\":21401:21413   */\n      add\n        /* \"#utility.yul\":21394:21413   */\n      swap1\n      pop\n        /* \"#utility.yul\":21041:21423   */\n      swap2\n      swap1\n      pop\n      jump\t// out\n        /* \"#utility.yul\":21433:21868   */\n    tag_163:\n        /* \"#utility.yul\":21599:21603   */\n      0x00\n        /* \"#utility.yul\":21641:21643   */\n      0x20\n        /* \"#utility.yul\":21630:21639   */\n      dup3\n        /* \"#utility.yul\":21626:21644   */\n      add\n        /* \"#utility.yul\":21618:21644   */\n      swap1\n      pop\n        /* \"#utility.yul\":21694:21703   */\n      dup2\n        /* \"#utility.yul\":21688:21692   */\n      dup2\n        /* \"#utility.yul\":21684:21704   */\n      sub\n        /* \"#utility.yul\":21680:21681   */\n      0x00\n        /* \"#utility.yul\":21669:21678   */\n      dup4\n        /* \"#utility.yul\":21665:21682   */\n      add\n        /* \"#utility.yul\":21658:21705   */\n      mstore\n        /* \"#utility.yul\":21726:21857   */\n      tag_426\n        /* \"#utility.yul\":21852:21856   */\n      dup2\n        /* \"#utility.yul\":21726:21857   */\n      tag_228\n      jump\t// in\n    tag_426:\n        /* \"#utility.yul\":21718:21857   */\n      swap1\n      pop\n        /* \"#utility.yul\":21433:21868   */\n      swap2\n      swap1\n      pop\n      jump\t// out\n        /* \"#utility.yul\":21878:22074   */\n    tag_229:\n        /* \"#utility.yul\":21930:22007   */\n      0x4e487b7100000000000000000000000000000000000000000000000000000000\n        /* \"#utility.yul\":21927:21928   */\n      0x00\n        /* \"#utility.yul\":21920:22008   */\n      mstore\n        /* \"#utility.yul\":22031:22035   */\n      0x11\n        /* \"#utility.yul\":22028:22029   */\n      0x04\n        /* \"#utility.yul\":22021:22036   */\n      mstore\n        /* \"#utility.yul\":22059:22063   */\n      0x24\n        /* \"#utility.yul\":22056:22057   */\n      0x00\n        /* \"#utility.yul\":22049:22064   */\n      revert\n        /* \"#utility.yul\":22084:22271   */\n    tag_165:\n        /* \"#utility.yul\":22123:22126   */\n      0x00\n        /* \"#utility.yul\":22150:22174   */\n      tag_429\n        /* \"#utility.yul\":22168:22173   */\n      dup3\n        /* \"#utility.yul\":22150:22174   */\n      tag_189\n      jump\t// in\n    tag_429:\n        /* \"#utility.yul\":22141:22174   */\n      swap2\n      pop\n        /* \"#utility.yul\":22200:22204   */\n      0x00\n        /* \"#utility.yul\":22193:22198   */\n      dup3\n        /* \"#utility.yul\":22190:22205   */\n      sub\n        /* \"#utility.yul\":22187:22228   */\n      tag_430\n      jumpi\n        /* \"#utility.yul\":22208:22226   */\n      tag_431\n      tag_229\n      jump\t// in\n    tag_431:\n        /* \"#utility.yul\":22187:22228   */\n    tag_430:\n        /* \"#utility.yul\":22259:22260   */\n      0x01\n        /* \"#utility.yul\":22252:22257   */\n      dup3\n        /* \"#utility.yul\":22248:22261   */\n      sub\n        /* \"#utility.yul\":22241:22261   */\n      swap1\n      pop\n        /* \"#utility.yul\":22084:22271   */\n      swap2\n      swap1\n      pop\n      jump\t// out\n        /* \"#utility.yul\":22281:22530   */\n    tag_167:\n        /* \"#utility.yul\":22320:22323   */\n      0x00\n        /* \"#utility.yul\":22347:22371   */\n      tag_433\n        /* \"#utility.yul\":22365:22370   */\n      dup3\n        /* \"#utility.yul\":22347:22371   */\n      tag_189\n      jump\t// in\n    tag_433:\n        /* \"#utility.yul\":22338:22371   */\n      swap2\n      pop\n        /* \"#utility.yul\":22397:22463   */\n      0xffffffffffffffffffffffffffffffffffffffffffffffffffffffffffffffff\n        /* \"#utility.yul\":22390:22395   */\n      dup3\n        /* \"#utility.yul\":22387:22464   */\n      sub\n        /* \"#utility.yul\":22384:22487   */\n      tag_434\n      jumpi\n        /* \"#utility.yul\":22467:22485   */\n      tag_435\n      tag_229\n      jump\t// in\n    tag_435:\n        /* \"#utility.yul\":22384:22487   */\n    tag_434:\n        /* \"#utility.yul\":22518:22519   */\n      0x01\n        /* \"#utility.yul\":22511:22516   */\n      dup3\n        /* \"#utility.yul\":22507:22520   */\n      add\n        /* \"#utility.yul\":22500:22520   */\n      swap1\n      pop\n        /* \"#utility.yul\":22281:22530   */\n      swap2\n      swap1\n      pop\n      jump\t// out\n        /* \"#utility.yul\":22540:22718   */\n    tag_230:\n        /* \"#utility.yul\":22684:22706   */\n      0x6d696e7420746f207a65726f2061646472657373000000000000000000000000\n        /* \"#utility.yul\":22680:22681   */\n      0x00\n        /* \"#utility.yul\":22672:22678   */\n      dup3\n        /* \"#utility.yul\":22668:22682   */\n      add\n        /* \"#utility.yul\":22661:22707   */\n      mstore\n        /* \"#utility.yul\":22540:22718   */\n      pop\n      jump\t// out\n        /* \"#utility.yul\":22728:23110   */\n    tag_231:\n        /* \"#utility.yul\":22870:22873   */\n      0x00\n        /* \"#utility.yul\":22895:22962   */\n      tag_438\n        /* \"#utility.yul\":22959:22961   */\n      0x14\n        /* \"#utility.yul\":22954:22957   */\n      dup4\n        /* \"#utility.yul\":22895:22962   */\n      tag_185\n      jump\t// in\n    tag_438:\n        /* \"#utility.yul\":22888:22962   */\n      swap2\n      pop\n        /* \"#utility.yul\":22975:23068   */\n      tag_439\n        /* \"#utility.yul\":23064:23067   */\n      dup3\n        /* \"#utility.yul\":22975:23068   */\n      tag_230\n      jump\t// in\n    tag_439:\n        /* \"#utility.yul\":23097:23099   */\n      0x20\n        /* \"#utility.yul\":23092:23095   */\n      dup3\n        /* \"#utility.yul\":23088:23100   */\n      add\n        /* \"#utility.yul\":23081:23100   */\n      swap1\n      pop\n        /* \"#utility.yul\":22728:23110   */\n      swap2\n      swap1\n      pop\n      jump\t// out\n        /* \"#utility.yul\":23120:23555   */\n    tag_171:\n        /* \"#utility.yul\":23286:23290   */\n      0x00\n        /* \"#utility.yul\":23328:23330   */\n      0x20\n        /* \"#utility.yul\":23317:23326   */\n      dup3\n        /* \"#utility.yul\":23313:23331   */\n      add\n        /* \"#utility.yul\":23305:23331   */\n      swap1\n      pop\n        /* \"#utility.yul\":23381:23390   */\n      dup2\n        /* \"#utility.yul\":23375:23379   */\n      dup2\n        /* \"#utility.yul\":23371:23391   */\n      sub\n        /* \"#utility.yul\":23367:23368   */\n      0x00\n        /* \"#utility.yul\":23356:23365   */\n      dup4\n        /* \"#utility.yul\":23352:23369   */\n      add\n        /* \"#utility.yul\":23345:23392   */\n      mstore\n        /* \"#utility.yul\":23413:23544   */\n      tag_441\n        /* \"#utility.yul\":23539:23543   */\n      dup2\n        /* \"#utility.yul\":23413:23544   */\n      tag_231\n      jump\t// in\n    tag_441:\n        /* \"#utility.yul\":23405:23544   */\n      swap1\n      pop\n        /* \"#utility.yul\":23120:23555   */\n      swap2\n      swap1\n      pop\n      jump\t// out\n        /* \"#utility.yul\":23565:23737   */\n    tag_232:\n        /* \"#utility.yul\":23709:23725   */\n      0x616c7265616479206d696e746564000000000000000000000000000000000000\n        /* \"#utility.yul\":23705:23706   */\n      0x00\n        /* \"#utility.yul\":23697:23703   */\n      dup3\n        /* \"#utility.yul\":23693:23707   */\n      add\n        /* \"#utility.yul\":23686:23726   */\n      mstore\n        /* \"#utility.yul\":23565:23737   */\n      pop\n      jump\t// out\n        /* \"#utility.yul\":23747:24129   */\n    tag_233:\n        /* \"#utility.yul\":23889:23892   */\n      0x00\n        /* \"#utility.yul\":23914:23981   */\n      tag_444\n        /* \"#utility.yul\":23978:23980   */\n      0x0e\n        /* \"#utility.yul\":23973:23976   */\n      dup4\n        /* \"#utility.yul\":23914:23981   */\n      tag_185\n      jump\t// in\n    tag_444:\n        /* \"#utility.yul\":23907:23981   */\n      swap2\n      pop\n        /* \"#utility.yul\":23994:24087   */\n      tag_445\n        /* \"#utility.yul\":24083:24086   */\n      dup3\n        /* \"#utility.yul\":23994:24087   */\n      tag_232\n      jump\t// in\n    tag_445:\n        /* \"#utility.yul\":24116:24118   */\n      0x20\n        /* \"#utility.yul\":24111:24114   */\n      dup3\n        /* \"#utility.yul\":24107:24119   */\n      add\n        /* \"#utility.yul\":24100:24119   */\n      swap1\n      pop\n        /* \"#utility.yul\":23747:24129   */\n      swap2\n      swap1\n      pop\n      jump\t// out\n        /* \"#utility.yul\":24139:24574   */\n    tag_174:\n        /* \"#utility.yul\":24305:24309   */\n      0x00\n        /* \"#utility.yul\":24347:24349   */\n      0x20\n        /* \"#utility.yul\":24336:24345   */\n      dup3\n        /* \"#utility.yul\":24332:24350   */\n      add\n        /* \"#utility.yul\":24324:24350   */\n      swap1\n      pop\n        /* \"#utility.yul\":24400:24409   */\n      dup2\n        /* \"#utility.yul\":24394:24398   */\n      dup2\n        /* \"#utility.yul\":24390:24410   */\n      sub\n        /* \"#utility.yul\":24386:24387   */\n      0x00\n        /* \"#utility.yul\":24375:24384   */\n      dup4\n        /* \"#utility.yul\":24371:24388   */\n      add\n        /* \"#utility.yul\":24364:24411   */\n      mstore\n        /* \"#utility.yul\":24432:24563   */\n      tag_447\n        /* \"#utility.yul\":24558:24562   */\n      dup2\n        /* \"#utility.yul\":24432:24563   */\n      tag_233\n      jump\t// in\n    tag_447:\n        /* \"#utility.yul\":24424:24563   */\n      swap1\n      pop\n        /* \"#utility.yul\":24139:24574   */\n      swap2\n      swap1\n      pop\n      jump\t// out\n\n    auxdata: 0xa2646970667358221220e8a6cdb176ee6238ca66a053b997bb2b57e7fa30ab7cf9c0f27b83731c16dceb64736f6c63430008120033\n}\n",
				"bytecode": {
					"linkReferences": {},
					"object": "60806040523480156200001157600080fd5b5060405162002ab738038062002ab783398181016040528101906200003791906200048f565b336000806101000a81548173ffffffffffffffffffffffffffffffffffffffff021916908373ffffffffffffffffffffffffffffffffffffffff16021790555081600590816200008891906200075f565b5080600690816200009a91906200075f565b506000600190505b60058111620000d357620000bd3382620000dc60201b60201c565b8080620000ca9062000875565b915050620000a2565b505050620009b7565b600073ffffffffffffffffffffffffffffffffffffffff168273ffffffffffffffffffffffffffffffffffffffff16036200014e576040517f08c379a0000000000000000000000000000000000000000000000000000000008152600401620001459062000923565b60405180910390fd5b600073ffffffffffffffffffffffffffffffffffffffff166001600083815260200190815260200160002060009054906101000a900473ffffffffffffffffffffffffffffffffffffffff1673ffffffffffffffffffffffffffffffffffffffff1614620001f3576040517f08c379a0000000000000000000000000000000000000000000000000000000008152600401620001ea9062000995565b60405180910390fd5b600260008373ffffffffffffffffffffffffffffffffffffffff1673ffffffffffffffffffffffffffffffffffffffff1681526020019081526020016000206000815480929190620002459062000875565b9190505550816001600083815260200190815260200160002060006101000a81548173ffffffffffffffffffffffffffffffffffffffff021916908373ffffffffffffffffffffffffffffffffffffffff160217905550808273ffffffffffffffffffffffffffffffffffffffff16600073ffffffffffffffffffffffffffffffffffffffff167fddf252ad1be2c89b69c2b068fc378daa952ba7f163c4a11628f55a4df523b3ef60405160405180910390a45050565b6000604051905090565b600080fd5b600080fd5b600080fd5b600080fd5b6000601f19601f8301169050919050565b7f4e487b7100000000000000000000000000000000000000000000000000000000600052604160045260246000fd5b62000365826200031a565b810181811067ffffffffffffffff821117156200038757620003866200032b565b5b80604052505050565b60006200039c620002fc565b9050620003aa82826200035a565b919050565b600067ffffffffffffffff821115620003cd57620003cc6200032b565b5b620003d8826200031a565b9050602081019050919050565b60005b8381101562000405578082015181840152602081019050620003e8565b60008484015250505050565b6000620004286200042284620003af565b62000390565b90508281526020810184848401111562000447576200044662000315565b5b62000454848285620003e5565b509392505050565b600082601f83011262000474576200047362000310565b5b81516200048684826020860162000411565b91505092915050565b60008060408385031215620004a957620004a862000306565b5b600083015167ffffffffffffffff811115620004ca57620004c96200030b565b5b620004d8858286016200045c565b925050602083015167ffffffffffffffff811115620004fc57620004fb6200030b565b5b6200050a858286016200045c565b9150509250929050565b600081519050919050565b7f4e487b7100000000000000000000000000000000000000000000000000000000600052602260045260246000fd5b600060028204905060018216806200056757607f821691505b6020821081036200057d576200057c6200051f565b5b50919050565b60008190508160005260206000209050919050565b60006020601f8301049050919050565b600082821b905092915050565b600060088302620005e77fffffffffffffffffffffffffffffffffffffffffffffffffffffffffffffffff82620005a8565b620005f38683620005a8565b95508019841693508086168417925050509392505050565b6000819050919050565b6000819050919050565b6000620006406200063a62000634846200060b565b62000615565b6200060b565b9050919050565b6000819050919050565b6200065c836200061f565b620006746200066b8262000647565b848454620005b5565b825550505050565b600090565b6200068b6200067c565b6200069881848462000651565b505050565b5b81811015620006c057620006b460008262000681565b6001810190506200069e565b5050565b601f8211156200070f57620006d98162000583565b620006e48462000598565b81016020851015620006f4578190505b6200070c620007038562000598565b8301826200069d565b50505b505050565b600082821c905092915050565b6000620007346000198460080262000714565b1980831691505092915050565b60006200074f838362000721565b9150826002028217905092915050565b6200076a8262000514565b67ffffffffffffffff8111156200078657620007856200032b565b5b6200079282546200054e565b6200079f828285620006c4565b600060209050601f831160018114620007d75760008415620007c2578287015190505b620007ce858262000741565b8655506200083e565b601f198416620007e78662000583565b60005b828110156200081157848901518255600182019150602085019450602081019050620007ea565b868310156200083157848901516200082d601f89168262000721565b8355505b6001600288020188555050505b505050505050565b7f4e487b7100000000000000000000000000000000000000000000000000000000600052601160045260246000fd5b600062000882826200060b565b91507fffffffffffffffffffffffffffffffffffffffffffffffffffffffffffffffff8203620008b757620008b662000846565b5b600182019050919050565b600082825260208201905092915050565b7f6d696e7420746f207a65726f2061646472657373000000000000000000000000600082015250565b60006200090b601483620008c2565b91506200091882620008d3565b602082019050919050565b600060208201905081810360008301526200093e81620008fc565b9050919050565b7f616c7265616479206d696e746564000000000000000000000000000000000000600082015250565b60006200097d600e83620008c2565b91506200098a8262000945565b602082019050919050565b60006020820190508181036000830152620009b0816200096e565b9050919050565b6120f080620009c76000396000f3fe6080604052600436106100dd5760003560e01c80634d853ee51161007f57806395d89b411161005957806395d89b41146102a9578063a22cb465146102d4578063b88d4fde146102fd578063e985e9c514610319576100dd565b80634d853ee5146102045780636352211e1461022f57806370a082311461026c576100dd565b8063095ea7b3116100bb578063095ea7b31461018757806323b872dd146101a35780633c168eab146101bf57806342842e0e146101e8576100dd565b806301ffc9a7146100e257806306fdde031461011f578063081812fc1461014a575b600080fd5b3480156100ee57600080fd5b50610109600480360381019061010491906114d4565b610356565b604051610116919061151c565b60405180910390f35b34801561012b57600080fd5b50610134610428565b60405161014191906115c7565b60405180910390f35b34801561015657600080fd5b50610171600480360381019061016c919061161f565b6104b6565b60405161017e919061168d565b60405180910390f35b6101a1600480360381019061019c91906116d4565b610594565b005b6101bd60048036038101906101b89190611714565b61077d565b005b3480156101cb57600080fd5b506101e660048036038101906101e191906116d4565b61078d565b005b61020260048036038101906101fd9190611714565b610829565b005b34801561021057600080fd5b50610219610961565b604051610226919061168d565b60405180910390f35b34801561023b57600080fd5b506102566004803603810190610251919061161f565b610985565b604051610263919061168d565b60405180910390f35b34801561027857600080fd5b50610293600480360381019061028e9190611767565b610a36565b6040516102a091906117a3565b60405180910390f35b3480156102b557600080fd5b506102be610aed565b6040516102cb91906115c7565b60405180910390f35b3480156102e057600080fd5b506102fb60048036038101906102f691906117ea565b610b7b565b005b6103176004803603810190610312919061188f565b610c78565b005b34801561032557600080fd5b50610340600480360381019061033b9190611917565b610db6565b60405161034d919061151c565b60405180910390f35b60007f80ac58cd000000000000000000000000000000000000000000000000000000007bffffffffffffffffffffffffffffffffffffffffffffffffffffffff1916827bffffffffffffffffffffffffffffffffffffffffffffffffffffffff1916148061042157507f01ffc9a7000000000000000000000000000000000000000000000000000000007bffffffffffffffffffffffffffffffffffffffffffffffffffffffff1916827bffffffffffffffffffffffffffffffffffffffffffffffffffffffff1916145b9050919050565b6005805461043590611986565b80601f016020809104026020016040519081016040528092919081815260200182805461046190611986565b80156104ae5780601f10610483576101008083540402835291602001916104ae565b820191906000526020600020905b81548152906001019060200180831161049157829003601f168201915b505050505081565b60008073ffffffffffffffffffffffffffffffffffffffff166001600084815260200190815260200160002060009054906101000a900473ffffffffffffffffffffffffffffffffffffffff1673ffffffffffffffffffffffffffffffffffffffff1603610559576040517f08c379a000000000000000000000000000000000000000000000000000000000815260040161055090611a29565b60405180910390fd5b6003600083815260200190815260200160002060009054906101000a900473ffffffffffffffffffffffffffffffffffffffff169050919050565b60006001600083815260200190815260200160002060009054906101000a900473ffffffffffffffffffffffffffffffffffffffff1690508073ffffffffffffffffffffffffffffffffffffffff163373ffffffffffffffffffffffffffffffffffffffff16148061068c5750600460008273ffffffffffffffffffffffffffffffffffffffff1673ffffffffffffffffffffffffffffffffffffffff16815260200190815260200160002060003373ffffffffffffffffffffffffffffffffffffffff1673ffffffffffffffffffffffffffffffffffffffff16815260200190815260200160002060009054906101000a900460ff165b6106cb576040517f08c379a00000000000000000000000000000000000000000000000000000000081526004016106c290611a95565b60405180910390fd5b826003600084815260200190815260200160002060006101000a81548173ffffffffffffffffffffffffffffffffffffffff021916908373ffffffffffffffffffffffffffffffffffffffff160217905550818373ffffffffffffffffffffffffffffffffffffffff168273ffffffffffffffffffffffffffffffffffffffff167f8c5be1e5ebec7d5bd14f71427d1e84f3dd0314c0f7b2291e5b200ac8c7c3b92560405160405180910390a4505050565b610788838383610e4a565b505050565b60008054906101000a900473ffffffffffffffffffffffffffffffffffffffff1673ffffffffffffffffffffffffffffffffffffffff163373ffffffffffffffffffffffffffffffffffffffff161461081b576040517f08c379a000000000000000000000000000000000000000000000000000000000815260040161081290611b01565b60405180910390fd5b610825828261125a565b5050565b610834838383610e4a565b60008273ffffffffffffffffffffffffffffffffffffffff163b148061091d575063150b7a0260e01b7bffffffffffffffffffffffffffffffffffffffffffffffffffffffff19168273ffffffffffffffffffffffffffffffffffffffff1663150b7a023386856040518463ffffffff1660e01b81526004016108b993929190611b58565b6020604051808303816000875af11580156108d8573d6000803e3d6000fd5b505050506040513d601f19601f820116820180604052508101906108fc9190611bb7565b7bffffffffffffffffffffffffffffffffffffffffffffffffffffffff1916145b61095c576040517f08c379a000000000000000000000000000000000000000000000000000000000815260040161095390611c30565b60405180910390fd5b505050565b60008054906101000a900473ffffffffffffffffffffffffffffffffffffffff1681565b6000806001600084815260200190815260200160002060009054906101000a900473ffffffffffffffffffffffffffffffffffffffff169050600073ffffffffffffffffffffffffffffffffffffffff168173ffffffffffffffffffffffffffffffffffffffff1603610a2d576040517f08c379a0000000000000000000000000000000000000000000000000000000008152600401610a2490611c9c565b60405180910390fd5b80915050919050565b60008073ffffffffffffffffffffffffffffffffffffffff168273ffffffffffffffffffffffffffffffffffffffff1603610aa6576040517f08c379a0000000000000000000000000000000000000000000000000000000008152600401610a9d90611d2e565b60405180910390fd5b600260008373ffffffffffffffffffffffffffffffffffffffff1673ffffffffffffffffffffffffffffffffffffffff168152602001908152602001600020549050919050565b60068054610afa90611986565b80601f0160208091040260200160405190810160405280929190818152602001828054610b2690611986565b8015610b735780601f10610b4857610100808354040283529160200191610b73565b820191906000526020600020905b815481529060010190602001808311610b5657829003601f168201915b505050505081565b80600460003373ffffffffffffffffffffffffffffffffffffffff1673ffffffffffffffffffffffffffffffffffffffff16815260200190815260200160002060008473ffffffffffffffffffffffffffffffffffffffff1673ffffffffffffffffffffffffffffffffffffffff16815260200190815260200160002060006101000a81548160ff0219169083151502179055508173ffffffffffffffffffffffffffffffffffffffff163373ffffffffffffffffffffffffffffffffffffffff167f17307eab39ab6107e8899845ad3d59bd9653f200f220920489ca2b5937696c3183604051610c6c919061151c565b60405180910390a35050565b610c83858585610e4a565b60008473ffffffffffffffffffffffffffffffffffffffff163b1480610d70575063150b7a0260e01b7bffffffffffffffffffffffffffffffffffffffffffffffffffffffff19168473ffffffffffffffffffffffffffffffffffffffff1663150b7a0233888787876040518663ffffffff1660e01b8152600401610d0c959493929190611d8a565b6020604051808303816000875af1158015610d2b573d6000803e3d6000fd5b505050506040513d601f19601f82011682018060405250810190610d4f9190611bb7565b7bffffffffffffffffffffffffffffffffffffffffffffffffffffffff1916145b610daf576040517f08c379a0000000000000000000000000000000000000000000000000000000008152600401610da690611c30565b60405180910390fd5b5050505050565b6000600460008473ffffffffffffffffffffffffffffffffffffffff1673ffffffffffffffffffffffffffffffffffffffff16815260200190815260200160002060008373ffffffffffffffffffffffffffffffffffffffff1673ffffffffffffffffffffffffffffffffffffffff16815260200190815260200160002060009054906101000a900460ff16905092915050565b60006001600083815260200190815260200160002060009054906101000a900473ffffffffffffffffffffffffffffffffffffffff1690508073ffffffffffffffffffffffffffffffffffffffff168473ffffffffffffffffffffffffffffffffffffffff1614610ef0576040517f08c379a0000000000000000000000000000000000000000000000000000000008152600401610ee790611e24565b60405180910390fd5b600073ffffffffffffffffffffffffffffffffffffffff168373ffffffffffffffffffffffffffffffffffffffff1603610f5f576040517f08c379a0000000000000000000000000000000000000000000000000000000008152600401610f5690611e90565b60405180910390fd5b8073ffffffffffffffffffffffffffffffffffffffff163373ffffffffffffffffffffffffffffffffffffffff161480610ff757506003600083815260200190815260200160002060009054906101000a900473ffffffffffffffffffffffffffffffffffffffff1673ffffffffffffffffffffffffffffffffffffffff163373ffffffffffffffffffffffffffffffffffffffff16145b806110885750600460008273ffffffffffffffffffffffffffffffffffffffff1673ffffffffffffffffffffffffffffffffffffffff16815260200190815260200160002060003373ffffffffffffffffffffffffffffffffffffffff1673ffffffffffffffffffffffffffffffffffffffff16815260200190815260200160002060009054906101000a900460ff165b6110c7576040517f08c379a00000000000000000000000000000000000000000000000000000000081526004016110be90611f22565b60405180910390fd5b600260008573ffffffffffffffffffffffffffffffffffffffff1673ffffffffffffffffffffffffffffffffffffffff168152602001908152602001600020600081548092919061111790611f71565b9190505550600260008473ffffffffffffffffffffffffffffffffffffffff1673ffffffffffffffffffffffffffffffffffffffff168152602001908152602001600020600081548092919061116c90611f9a565b9190505550826001600084815260200190815260200160002060006101000a81548173ffffffffffffffffffffffffffffffffffffffff021916908373ffffffffffffffffffffffffffffffffffffffff1602179055506003600083815260200190815260200160002060006101000a81549073ffffffffffffffffffffffffffffffffffffffff0219169055818373ffffffffffffffffffffffffffffffffffffffff168573ffffffffffffffffffffffffffffffffffffffff167fddf252ad1be2c89b69c2b068fc378daa952ba7f163c4a11628f55a4df523b3ef60405160405180910390a450505050565b600073ffffffffffffffffffffffffffffffffffffffff168273ffffffffffffffffffffffffffffffffffffffff16036112c9576040517f08c379a00000000000000000000000000000000000000000000000000000000081526004016112c09061202e565b60405180910390fd5b600073ffffffffffffffffffffffffffffffffffffffff166001600083815260200190815260200160002060009054906101000a900473ffffffffffffffffffffffffffffffffffffffff1673ffffffffffffffffffffffffffffffffffffffff161461136b576040517f08c379a00000000000000000000000000000000000000000000000000000000081526004016113629061209a565b60405180910390fd5b600260008373ffffffffffffffffffffffffffffffffffffffff1673ffffffffffffffffffffffffffffffffffffffff16815260200190815260200160002060008154809291906113bb90611f9a565b9190505550816001600083815260200190815260200160002060006101000a81548173ffffffffffffffffffffffffffffffffffffffff021916908373ffffffffffffffffffffffffffffffffffffffff160217905550808273ffffffffffffffffffffffffffffffffffffffff16600073ffffffffffffffffffffffffffffffffffffffff167fddf252ad1be2c89b69c2b068fc378daa952ba7f163c4a11628f55a4df523b3ef60405160405180910390a45050565b600080fd5b600080fd5b60007fffffffff0000000000000000000000000000000000000000000000000000000082169050919050565b6114b18161147c565b81146114bc57600080fd5b50565b6000813590506114ce816114a8565b92915050565b6000602082840312156114ea576114e9611472565b5b60006114f8848285016114bf565b91505092915050565b60008115159050919050565b61151681611501565b82525050565b6000602082019050611531600083018461150d565b92915050565b600081519050919050565b600082825260208201905092915050565b60005b83811015611571578082015181840152602081019050611556565b60008484015250505050565b6000601f19601f8301169050919050565b600061159982611537565b6115a38185611542565b93506115b3818560208601611553565b6115bc8161157d565b840191505092915050565b600060208201905081810360008301526115e1818461158e565b905092915050565b6000819050919050565b6115fc816115e9565b811461160757600080fd5b50565b600081359050611619816115f3565b92915050565b60006020828403121561163557611634611472565b5b60006116438482850161160a565b91505092915050565b600073ffffffffffffffffffffffffffffffffffffffff82169050919050565b60006116778261164c565b9050919050565b6116878161166c565b82525050565b60006020820190506116a2600083018461167e565b92915050565b6116b18161166c565b81146116bc57600080fd5b50565b6000813590506116ce816116a8565b92915050565b600080604083850312156116eb576116ea611472565b5b60006116f9858286016116bf565b925050602061170a8582860161160a565b9150509250929050565b60008060006060848603121561172d5761172c611472565b5b600061173b868287016116bf565b935050602061174c868287016116bf565b925050604061175d8682870161160a565b9150509250925092565b60006020828403121561177d5761177c611472565b5b600061178b848285016116bf565b91505092915050565b61179d816115e9565b82525050565b60006020820190506117b86000830184611794565b92915050565b6117c781611501565b81146117d257600080fd5b50565b6000813590506117e4816117be565b92915050565b6000806040838503121561180157611800611472565b5b600061180f858286016116bf565b9250506020611820858286016117d5565b9150509250929050565b600080fd5b600080fd5b600080fd5b60008083601f84011261184f5761184e61182a565b5b8235905067ffffffffffffffff81111561186c5761186b61182f565b5b60208301915083600182028301111561188857611887611834565b5b9250929050565b6000806000806000608086880312156118ab576118aa611472565b5b60006118b9888289016116bf565b95505060206118ca888289016116bf565b94505060406118db8882890161160a565b935050606086013567ffffffffffffffff8111156118fc576118fb611477565b5b61190888828901611839565b92509250509295509295909350565b6000806040838503121561192e5761192d611472565b5b600061193c858286016116bf565b925050602061194d858286016116bf565b9150509250929050565b7f4e487b7100000000000000000000000000000000000000000000000000000000600052602260045260246000fd5b6000600282049050600182168061199e57607f821691505b6020821081036119b1576119b0611957565b5b50919050565b7f617070726f76656420717565727920666f72206e6f6e6578697374656e74207460008201527f6f6b656e00000000000000000000000000000000000000000000000000000000602082015250565b6000611a13602483611542565b9150611a1e826119b7565b604082019050919050565b60006020820190508181036000830152611a4281611a06565b9050919050565b7f6e6f7420617574686f72697a6564000000000000000000000000000000000000600082015250565b6000611a7f600e83611542565b9150611a8a82611a49565b602082019050919050565b60006020820190508181036000830152611aae81611a72565b9050919050565b7f6e6f7420616e20617574686f72697a6564206d696e7465720000000000000000600082015250565b6000611aeb601883611542565b9150611af682611ab5565b602082019050919050565b60006020820190508181036000830152611b1a81611ade565b9050919050565b600082825260208201905092915050565b50565b6000611b42600083611b21565b9150611b4d82611b32565b600082019050919050565b6000608082019050611b6d600083018661167e565b611b7a602083018561167e565b611b876040830184611794565b8181036060830152611b9881611b35565b9050949350505050565b600081519050611bb1816114a8565b92915050565b600060208284031215611bcd57611bcc611472565b5b6000611bdb84828501611ba2565b91505092915050565b7f756e7361666520726563697069656e7400000000000000000000000000000000600082015250565b6000611c1a601083611542565b9150611c2582611be4565b602082019050919050565b60006020820190508181036000830152611c4981611c0d565b9050919050565b7f746f6b656e20646f65736e277420657869737400000000000000000000000000600082015250565b6000611c86601383611542565b9150611c9182611c50565b602082019050919050565b60006020820190508181036000830152611cb581611c79565b9050919050565b7f62616c616e636520717565727920666f7220746865207a65726f20616464726560008201527f7373000000000000000000000000000000000000000000000000000000000000602082015250565b6000611d18602283611542565b9150611d2382611cbc565b604082019050919050565b60006020820190508181036000830152611d4781611d0b565b9050919050565b82818337600083830152505050565b6000611d698385611b21565b9350611d76838584611d4e565b611d7f8361157d565b840190509392505050565b6000608082019050611d9f600083018861167e565b611dac602083018761167e565b611db96040830186611794565b8181036060830152611dcc818486611d5d565b90509695505050505050565b7f66726f6d213d6f776e6572000000000000000000000000000000000000000000600082015250565b6000611e0e600b83611542565b9150611e1982611dd8565b602082019050919050565b60006020820190508181036000830152611e3d81611e01565b9050919050565b7f7472616e7366657220746f207a65726f20616464726573730000000000000000600082015250565b6000611e7a601883611542565b9150611e8582611e44565b602082019050919050565b60006020820190508181036000830152611ea981611e6d565b9050919050565b7f6d73672e73656e646572206e6f7420696e207b6f776e65722c206f706572617460008201527f6f722c20617070726f7665640000000000000000000000000000000000000000602082015250565b6000611f0c602c83611542565b9150611f1782611eb0565b604082019050919050565b60006020820190508181036000830152611f3b81611eff565b9050919050565b7f4e487b7100000000000000000000000000000000000000000000000000000000600052601160045260246000fd5b6000611f7c826115e9565b915060008203611f8f57611f8e611f42565b5b600182039050919050565b6000611fa5826115e9565b91507fffffffffffffffffffffffffffffffffffffffffffffffffffffffffffffffff8203611fd757611fd6611f42565b5b600182019050919050565b7f6d696e7420746f207a65726f2061646472657373000000000000000000000000600082015250565b6000612018601483611542565b915061202382611fe2565b602082019050919050565b600060208201905081810360008301526120478161200b565b9050919050565b7f616c7265616479206d696e746564000000000000000000000000000000000000600082015250565b6000612084600e83611542565b915061208f8261204e565b602082019050919050565b600060208201905081810360008301526120b381612077565b905091905056fea2646970667358221220e8a6cdb176ee6238ca66a053b997bb2b57e7fa30ab7cf9c0f27b83731c16dceb64736f6c63430008120033",
					"opcodes": "PUSH1 0x80 PUSH1 0x40 MSTORE CALLVALUE DUP1 ISZERO PUSH3 0x11 JUMPI PUSH1 0x0 DUP1 REVERT JUMPDEST POP PUSH1 0x40 MLOAD PUSH3 0x2AB7 CODESIZE SUB DUP1 PUSH3 0x2AB7 DUP4 CODECOPY DUP2 DUP2 ADD PUSH1 0x40 MSTORE DUP2 ADD SWAP1 PUSH3 0x37 SWAP2 SWAP1 PUSH3 0x48F JUMP JUMPDEST CALLER PUSH1 0x0 DUP1 PUSH2 0x100 EXP DUP2 SLOAD DUP2 PUSH20 0xFFFFFFFFFFFFFFFFFFFFFFFFFFFFFFFFFFFFFFFF MUL NOT AND SWAP1 DUP4 PUSH20 0xFFFFFFFFFFFFFFFFFFFFFFFFFFFFFFFFFFFFFFFF AND MUL OR SWAP1 SSTORE POP DUP2 PUSH1 0x5 SWAP1 DUP2 PUSH3 0x88 SWAP2 SWAP1 PUSH3 0x75F JUMP JUMPDEST POP DUP1 PUSH1 0x6 SWAP1 DUP2 PUSH3 0x9A SWAP2 SWAP1 PUSH3 0x75F JUMP JUMPDEST POP PUSH1 0x0 PUSH1 0x1 SWAP1 POP JUMPDEST PUSH1 0x5 DUP2 GT PUSH3 0xD3 JUMPI PUSH3 0xBD CALLER DUP3 PUSH3 0xDC PUSH1 0x20 SHL PUSH1 0x20 SHR JUMP JUMPDEST DUP1 DUP1 PUSH3 0xCA SWAP1 PUSH3 0x875 JUMP JUMPDEST SWAP2 POP POP PUSH3 0xA2 JUMP JUMPDEST POP POP POP PUSH3 0x9B7 JUMP JUMPDEST PUSH1 0x0 PUSH20 0xFFFFFFFFFFFFFFFFFFFFFFFFFFFFFFFFFFFFFFFF AND DUP3 PUSH20 0xFFFFFFFFFFFFFFFFFFFFFFFFFFFFFFFFFFFFFFFF AND SUB PUSH3 0x14E JUMPI PUSH1 0x40 MLOAD PUSH32 0x8C379A000000000000000000000000000000000000000000000000000000000 DUP2 MSTORE PUSH1 0x4 ADD PUSH3 0x145 SWAP1 PUSH3 0x923 JUMP JUMPDEST PUSH1 0x40 MLOAD DUP1 SWAP2 SUB SWAP1 REVERT JUMPDEST PUSH1 0x0 PUSH20 0xFFFFFFFFFFFFFFFFFFFFFFFFFFFFFFFFFFFFFFFF AND PUSH1 0x1 PUSH1 0x0 DUP4 DUP2 MSTORE PUSH1 0x20 ADD SWAP1 DUP2 MSTORE PUSH1 0x20 ADD PUSH1 0x0 KECCAK256 PUSH1 0x0 SWAP1 SLOAD SWAP1 PUSH2 0x100 EXP SWAP1 DIV PUSH20 0xFFFFFFFFFFFFFFFFFFFFFFFFFFFFFFFFFFFFFFFF AND PUSH20 0xFFFFFFFFFFFFFFFFFFFFFFFFFFFFFFFFFFFFFFFF AND EQ PUSH3 0x1F3 JUMPI PUSH1 0x40 MLOAD PUSH32 0x8C379A000000000000000000000000000000000000000000000000000000000 DUP2 MSTORE PUSH1 0x4 ADD PUSH3 0x1EA SWAP1 PUSH3 0x995 JUMP JUMPDEST PUSH1 0x40 MLOAD DUP1 SWAP2 SUB SWAP1 REVERT JUMPDEST PUSH1 0x2 PUSH1 0x0 DUP4 PUSH20 0xFFFFFFFFFFFFFFFFFFFFFFFFFFFFFFFFFFFFFFFF AND PUSH20 0xFFFFFFFFFFFFFFFFFFFFFFFFFFFFFFFFFFFFFFFF AND DUP2 MSTORE PUSH1 0x20 ADD SWAP1 DUP2 MSTORE PUSH1 0x20 ADD PUSH1 0x0 KECCAK256 PUSH1 0x0 DUP2 SLOAD DUP1 SWAP3 SWAP2 SWAP1 PUSH3 0x245 SWAP1 PUSH3 0x875 JUMP JUMPDEST SWAP2 SWAP1 POP SSTORE POP DUP2 PUSH1 0x1 PUSH1 0x0 DUP4 DUP2 MSTORE PUSH1 0x20 ADD SWAP1 DUP2 MSTORE PUSH1 0x20 ADD PUSH1 0x0 KECCAK256 PUSH1 0x0 PUSH2 0x100 EXP DUP2 SLOAD DUP2 PUSH20 0xFFFFFFFFFFFFFFFFFFFFFFFFFFFFFFFFFFFFFFFF MUL NOT AND SWAP1 DUP4 PUSH20 0xFFFFFFFFFFFFFFFFFFFFFFFFFFFFFFFFFFFFFFFF AND MUL OR SWAP1 SSTORE POP DUP1 DUP3 PUSH20 0xFFFFFFFFFFFFFFFFFFFFFFFFFFFFFFFFFFFFFFFF AND PUSH1 0x0 PUSH20 0xFFFFFFFFFFFFFFFFFFFFFFFFFFFFFFFFFFFFFFFF AND PUSH32 0xDDF252AD1BE2C89B69C2B068FC378DAA952BA7F163C4A11628F55A4DF523B3EF PUSH1 0x40 MLOAD PUSH1 0x40 MLOAD DUP1 SWAP2 SUB SWAP1 LOG4 POP POP JUMP JUMPDEST PUSH1 0x0 PUSH1 0x40 MLOAD SWAP1 POP SWAP1 JUMP JUMPDEST PUSH1 0x0 DUP1 REVERT JUMPDEST PUSH1 0x0 DUP1 REVERT JUMPDEST PUSH1 0x0 DUP1 REVERT JUMPDEST PUSH1 0x0 DUP1 REVERT JUMPDEST PUSH1 0x0 PUSH1 0x1F NOT PUSH1 0x1F DUP4 ADD AND SWAP1 POP SWAP2 SWAP1 POP JUMP JUMPDEST PUSH32 0x4E487B7100000000000000000000000000000000000000000000000000000000 PUSH1 0x0 MSTORE PUSH1 0x41 PUSH1 0x4 MSTORE PUSH1 0x24 PUSH1 0x0 REVERT JUMPDEST PUSH3 0x365 DUP3 PUSH3 0x31A JUMP JUMPDEST DUP2 ADD DUP2 DUP2 LT PUSH8 0xFFFFFFFFFFFFFFFF DUP3 GT OR ISZERO PUSH3 0x387 JUMPI PUSH3 0x386 PUSH3 0x32B JUMP JUMPDEST JUMPDEST DUP1 PUSH1 0x40 MSTORE POP POP POP JUMP JUMPDEST PUSH1 0x0 PUSH3 0x39C PUSH3 0x2FC JUMP JUMPDEST SWAP1 POP PUSH3 0x3AA DUP3 DUP3 PUSH3 0x35A JUMP JUMPDEST SWAP2 SWAP1 POP JUMP JUMPDEST PUSH1 0x0 PUSH8 0xFFFFFFFFFFFFFFFF DUP3 GT ISZERO PUSH3 0x3CD JUMPI PUSH3 0x3CC PUSH3 0x32B JUMP JUMPDEST JUMPDEST PUSH3 0x3D8 DUP3 PUSH3 0x31A JUMP JUMPDEST SWAP1 POP PUSH1 0x20 DUP2 ADD SWAP1 POP SWAP2 SWAP1 POP JUMP JUMPDEST PUSH1 0x0 JUMPDEST DUP4 DUP2 LT ISZERO PUSH3 0x405 JUMPI DUP1 DUP3 ADD MLOAD DUP2 DUP5 ADD MSTORE PUSH1 0x20 DUP2 ADD SWAP1 POP PUSH3 0x3E8 JUMP JUMPDEST PUSH1 0x0 DUP5 DUP5 ADD MSTORE POP POP POP POP JUMP JUMPDEST PUSH1 0x0 PUSH3 0x428 PUSH3 0x422 DUP5 PUSH3 0x3AF JUMP JUMPDEST PUSH3 0x390 JUMP JUMPDEST SWAP1 POP DUP3 DUP2 MSTORE PUSH1 0x20 DUP2 ADD DUP5 DUP5 DUP5 ADD GT ISZERO PUSH3 0x447 JUMPI PUSH3 0x446 PUSH3 0x315 JUMP JUMPDEST JUMPDEST PUSH3 0x454 DUP5 DUP3 DUP6 PUSH3 0x3E5 JUMP JUMPDEST POP SWAP4 SWAP3 POP POP POP JUMP JUMPDEST PUSH1 0x0 DUP3 PUSH1 0x1F DUP4 ADD SLT PUSH3 0x474 JUMPI PUSH3 0x473 PUSH3 0x310 JUMP JUMPDEST JUMPDEST DUP2 MLOAD PUSH3 0x486 DUP5 DUP3 PUSH1 0x20 DUP7 ADD PUSH3 0x411 JUMP JUMPDEST SWAP2 POP POP SWAP3 SWAP2 POP POP JUMP JUMPDEST PUSH1 0x0 DUP1 PUSH1 0x40 DUP4 DUP6 SUB SLT ISZERO PUSH3 0x4A9 JUMPI PUSH3 0x4A8 PUSH3 0x306 JUMP JUMPDEST JUMPDEST PUSH1 0x0 DUP4 ADD MLOAD PUSH8 0xFFFFFFFFFFFFFFFF DUP2 GT ISZERO PUSH3 0x4CA JUMPI PUSH3 0x4C9 PUSH3 0x30B JUMP JUMPDEST JUMPDEST PUSH3 0x4D8 DUP6 DUP3 DUP7 ADD PUSH3 0x45C JUMP JUMPDEST SWAP3 POP POP PUSH1 0x20 DUP4 ADD MLOAD PUSH8 0xFFFFFFFFFFFFFFFF DUP2 GT ISZERO PUSH3 0x4FC JUMPI PUSH3 0x4FB PUSH3 0x30B JUMP JUMPDEST JUMPDEST PUSH3 0x50A DUP6 DUP3 DUP7 ADD PUSH3 0x45C JUMP JUMPDEST SWAP2 POP POP SWAP3 POP SWAP3 SWAP1 POP JUMP JUMPDEST PUSH1 0x0 DUP2 MLOAD SWAP1 POP SWAP2 SWAP1 POP JUMP JUMPDEST PUSH32 0x4E487B7100000000000000000000000000000000000000000000000000000000 PUSH1 0x0 MSTORE PUSH1 0x22 PUSH1 0x4 MSTORE PUSH1 0x24 PUSH1 0x0 REVERT JUMPDEST PUSH1 0x0 PUSH1 0x2 DUP3 DIV SWAP1 POP PUSH1 0x1 DUP3 AND DUP1 PUSH3 0x567 JUMPI PUSH1 0x7F DUP3 AND SWAP2 POP JUMPDEST PUSH1 0x20 DUP3 LT DUP2 SUB PUSH3 0x57D JUMPI PUSH3 0x57C PUSH3 0x51F JUMP JUMPDEST JUMPDEST POP SWAP2 SWAP1 POP JUMP JUMPDEST PUSH1 0x0 DUP2 SWAP1 POP DUP2 PUSH1 0x0 MSTORE PUSH1 0x20 PUSH1 0x0 KECCAK256 SWAP1 POP SWAP2 SWAP1 POP JUMP JUMPDEST PUSH1 0x0 PUSH1 0x20 PUSH1 0x1F DUP4 ADD DIV SWAP1 POP SWAP2 SWAP1 POP JUMP JUMPDEST PUSH1 0x0 DUP3 DUP3 SHL SWAP1 POP SWAP3 SWAP2 POP POP JUMP JUMPDEST PUSH1 0x0 PUSH1 0x8 DUP4 MUL PUSH3 0x5E7 PUSH32 0xFFFFFFFFFFFFFFFFFFFFFFFFFFFFFFFFFFFFFFFFFFFFFFFFFFFFFFFFFFFFFFFF DUP3 PUSH3 0x5A8 JUMP JUMPDEST PUSH3 0x5F3 DUP7 DUP4 PUSH3 0x5A8 JUMP JUMPDEST SWAP6 POP DUP1 NOT DUP5 AND SWAP4 POP DUP1 DUP7 AND DUP5 OR SWAP3 POP POP POP SWAP4 SWAP3 POP POP POP JUMP JUMPDEST PUSH1 0x0 DUP2 SWAP1 POP SWAP2 SWAP1 POP JUMP JUMPDEST PUSH1 0x0 DUP2 SWAP1 POP SWAP2 SWAP1 POP JUMP JUMPDEST PUSH1 0x0 PUSH3 0x640 PUSH3 0x63A PUSH3 0x634 DUP5 PUSH3 0x60B JUMP JUMPDEST PUSH3 0x615 JUMP JUMPDEST PUSH3 0x60B JUMP JUMPDEST SWAP1 POP SWAP2 SWAP1 POP JUMP JUMPDEST PUSH1 0x0 DUP2 SWAP1 POP SWAP2 SWAP1 POP JUMP JUMPDEST PUSH3 0x65C DUP4 PUSH3 0x61F JUMP JUMPDEST PUSH3 0x674 PUSH3 0x66B DUP3 PUSH3 0x647 JUMP JUMPDEST DUP5 DUP5 SLOAD PUSH3 0x5B5 JUMP JUMPDEST DUP3 SSTORE POP POP POP POP JUMP JUMPDEST PUSH1 0x0 SWAP1 JUMP JUMPDEST PUSH3 0x68B PUSH3 0x67C JUMP JUMPDEST PUSH3 0x698 DUP2 DUP5 DUP5 PUSH3 0x651 JUMP JUMPDEST POP POP POP JUMP JUMPDEST JUMPDEST DUP2 DUP2 LT ISZERO PUSH3 0x6C0 JUMPI PUSH3 0x6B4 PUSH1 0x0 DUP3 PUSH3 0x681 JUMP JUMPDEST PUSH1 0x1 DUP2 ADD SWAP1 POP PUSH3 0x69E JUMP JUMPDEST POP POP JUMP JUMPDEST PUSH1 0x1F DUP3 GT ISZERO PUSH3 0x70F JUMPI PUSH3 0x6D9 DUP2 PUSH3 0x583 JUMP JUMPDEST PUSH3 0x6E4 DUP5 PUSH3 0x598 JUMP JUMPDEST DUP2 ADD PUSH1 0x20 DUP6 LT ISZERO PUSH3 0x6F4 JUMPI DUP2 SWAP1 POP JUMPDEST PUSH3 0x70C PUSH3 0x703 DUP6 PUSH3 0x598 JUMP JUMPDEST DUP4 ADD DUP3 PUSH3 0x69D JUMP JUMPDEST POP POP JUMPDEST POP POP POP JUMP JUMPDEST PUSH1 0x0 DUP3 DUP3 SHR SWAP1 POP SWAP3 SWAP2 POP POP JUMP JUMPDEST PUSH1 0x0 PUSH3 0x734 PUSH1 0x0 NOT DUP5 PUSH1 0x8 MUL PUSH3 0x714 JUMP JUMPDEST NOT DUP1 DUP4 AND SWAP2 POP POP SWAP3 SWAP2 POP POP JUMP JUMPDEST PUSH1 0x0 PUSH3 0x74F DUP4 DUP4 PUSH3 0x721 JUMP JUMPDEST SWAP2 POP DUP3 PUSH1 0x2 MUL DUP3 OR SWAP1 POP SWAP3 SWAP2 POP POP JUMP JUMPDEST PUSH3 0x76A DUP3 PUSH3 0x514 JUMP JUMPDEST PUSH8 0xFFFFFFFFFFFFFFFF DUP2 GT ISZERO PUSH3 0x786 JUMPI PUSH3 0x785 PUSH3 0x32B JUMP JUMPDEST JUMPDEST PUSH3 0x792 DUP3 SLOAD PUSH3 0x54E JUMP JUMPDEST PUSH3 0x79F DUP3 DUP3 DUP6 PUSH3 0x6C4 JUMP JUMPDEST PUSH1 0x0 PUSH1 0x20 SWAP1 POP PUSH1 0x1F DUP4 GT PUSH1 0x1 DUP2 EQ PUSH3 0x7D7 JUMPI PUSH1 0x0 DUP5 ISZERO PUSH3 0x7C2 JUMPI DUP3 DUP8 ADD MLOAD SWAP1 POP JUMPDEST PUSH3 0x7CE DUP6 DUP3 PUSH3 0x741 JUMP JUMPDEST DUP7 SSTORE POP PUSH3 0x83E JUMP JUMPDEST PUSH1 0x1F NOT DUP5 AND PUSH3 0x7E7 DUP7 PUSH3 0x583 JUMP JUMPDEST PUSH1 0x0 JUMPDEST DUP3 DUP2 LT ISZERO PUSH3 0x811 JUMPI DUP5 DUP10 ADD MLOAD DUP3 SSTORE PUSH1 0x1 DUP3 ADD SWAP2 POP PUSH1 0x20 DUP6 ADD SWAP5 POP PUSH1 0x20 DUP2 ADD SWAP1 POP PUSH3 0x7EA JUMP JUMPDEST DUP7 DUP4 LT ISZERO PUSH3 0x831 JUMPI DUP5 DUP10 ADD MLOAD PUSH3 0x82D PUSH1 0x1F DUP10 AND DUP3 PUSH3 0x721 JUMP JUMPDEST DUP4 SSTORE POP JUMPDEST PUSH1 0x1 PUSH1 0x2 DUP9 MUL ADD DUP9 SSTORE POP POP POP JUMPDEST POP POP POP POP POP POP JUMP JUMPDEST PUSH32 0x4E487B7100000000000000000000000000000000000000000000000000000000 PUSH1 0x0 MSTORE PUSH1 0x11 PUSH1 0x4 MSTORE PUSH1 0x24 PUSH1 0x0 REVERT JUMPDEST PUSH1 0x0 PUSH3 0x882 DUP3 PUSH3 0x60B JUMP JUMPDEST SWAP2 POP PUSH32 0xFFFFFFFFFFFFFFFFFFFFFFFFFFFFFFFFFFFFFFFFFFFFFFFFFFFFFFFFFFFFFFFF DUP3 SUB PUSH3 0x8B7 JUMPI PUSH3 0x8B6 PUSH3 0x846 JUMP JUMPDEST JUMPDEST PUSH1 0x1 DUP3 ADD SWAP1 POP SWAP2 SWAP1 POP JUMP JUMPDEST PUSH1 0x0 DUP3 DUP3 MSTORE PUSH1 0x20 DUP3 ADD SWAP1 POP SWAP3 SWAP2 POP POP JUMP JUMPDEST PUSH32 0x6D696E7420746F207A65726F2061646472657373000000000000000000000000 PUSH1 0x0 DUP3 ADD MSTORE POP JUMP JUMPDEST PUSH1 0x0 PUSH3 0x90B PUSH1 0x14 DUP4 PUSH3 0x8C2 JUMP JUMPDEST SWAP2 POP PUSH3 0x918 DUP3 PUSH3 0x8D3 JUMP JUMPDEST PUSH1 0x20 DUP3 ADD SWAP1 POP SWAP2 SWAP1 POP JUMP JUMPDEST PUSH1 0x0 PUSH1 0x20 DUP3 ADD SWAP1 POP DUP2 DUP2 SUB PUSH1 0x0 DUP4 ADD MSTORE PUSH3 0x93E DUP2 PUSH3 0x8FC JUMP JUMPDEST SWAP1 POP SWAP2 SWAP1 POP JUMP JUMPDEST PUSH32 0x616C7265616479206D696E746564000000000000000000000000000000000000 PUSH1 0x0 DUP3 ADD MSTORE POP JUMP JUMPDEST PUSH1 0x0 PUSH3 0x97D PUSH1 0xE DUP4 PUSH3 0x8C2 JUMP JUMPDEST SWAP2 POP PUSH3 0x98A DUP3 PUSH3 0x945 JUMP JUMPDEST PUSH1 0x20 DUP3 ADD SWAP1 POP SWAP2 SWAP1 POP JUMP JUMPDEST PUSH1 0x0 PUSH1 0x20 DUP3 ADD SWAP1 POP DUP2 DUP2 SUB PUSH1 0x0 DUP4 ADD MSTORE PUSH3 0x9B0 DUP2 PUSH3 0x96E JUMP JUMPDEST SWAP1 POP SWAP2 SWAP1 POP JUMP JUMPDEST PUSH2 0x20F0 DUP1 PUSH3 0x9C7 PUSH1 0x0 CODECOPY PUSH1 0x0 RETURN INVALID PUSH1 0x80 PUSH1 0x40 MSTORE PUSH1 0x4 CALLDATASIZE LT PUSH2 0xDD JUMPI PUSH1 0x0 CALLDATALOAD PUSH1 0xE0 SHR DUP1 PUSH4 0x4D853EE5 GT PUSH2 0x7F JUMPI DUP1 PUSH4 0x95D89B41 GT PUSH2 0x59 JUMPI DUP1 PUSH4 0x95D89B41 EQ PUSH2 0x2A9 JUMPI DUP1 PUSH4 0xA22CB465 EQ PUSH2 0x2D4 JUMPI DUP1 PUSH4 0xB88D4FDE EQ PUSH2 0x2FD JUMPI DUP1 PUSH4 0xE985E9C5 EQ PUSH2 0x319 JUMPI PUSH2 0xDD JUMP JUMPDEST DUP1 PUSH4 0x4D853EE5 EQ PUSH2 0x204 JUMPI DUP1 PUSH4 0x6352211E EQ PUSH2 0x22F JUMPI DUP1 PUSH4 0x70A08231 EQ PUSH2 0x26C JUMPI PUSH2 0xDD JUMP JUMPDEST DUP1 PUSH4 0x95EA7B3 GT PUSH2 0xBB JUMPI DUP1 PUSH4 0x95EA7B3 EQ PUSH2 0x187 JUMPI DUP1 PUSH4 0x23B872DD EQ PUSH2 0x1A3 JUMPI DUP1 PUSH4 0x3C168EAB EQ PUSH2 0x1BF JUMPI DUP1 PUSH4 0x42842E0E EQ PUSH2 0x1E8 JUMPI PUSH2 0xDD JUMP JUMPDEST DUP1 PUSH4 0x1FFC9A7 EQ PUSH2 0xE2 JUMPI DUP1 PUSH4 0x6FDDE03 EQ PUSH2 0x11F JUMPI DUP1 PUSH4 0x81812FC EQ PUSH2 0x14A JUMPI JUMPDEST PUSH1 0x0 DUP1 REVERT JUMPDEST CALLVALUE DUP1 ISZERO PUSH2 0xEE JUMPI PUSH1 0x0 DUP1 REVERT JUMPDEST POP PUSH2 0x109 PUSH1 0x4 DUP1 CALLDATASIZE SUB DUP2 ADD SWAP1 PUSH2 0x104 SWAP2 SWAP1 PUSH2 0x14D4 JUMP JUMPDEST PUSH2 0x356 JUMP JUMPDEST PUSH1 0x40 MLOAD PUSH2 0x116 SWAP2 SWAP1 PUSH2 0x151C JUMP JUMPDEST PUSH1 0x40 MLOAD DUP1 SWAP2 SUB SWAP1 RETURN JUMPDEST CALLVALUE DUP1 ISZERO PUSH2 0x12B JUMPI PUSH1 0x0 DUP1 REVERT JUMPDEST POP PUSH2 0x134 PUSH2 0x428 JUMP JUMPDEST PUSH1 0x40 MLOAD PUSH2 0x141 SWAP2 SWAP1 PUSH2 0x15C7 JUMP JUMPDEST PUSH1 0x40 MLOAD DUP1 SWAP2 SUB SWAP1 RETURN JUMPDEST CALLVALUE DUP1 ISZERO PUSH2 0x156 JUMPI PUSH1 0x0 DUP1 REVERT JUMPDEST POP PUSH2 0x171 PUSH1 0x4 DUP1 CALLDATASIZE SUB DUP2 ADD SWAP1 PUSH2 0x16C SWAP2 SWAP1 PUSH2 0x161F JUMP JUMPDEST PUSH2 0x4B6 JUMP JUMPDEST PUSH1 0x40 MLOAD PUSH2 0x17E SWAP2 SWAP1 PUSH2 0x168D JUMP JUMPDEST PUSH1 0x40 MLOAD DUP1 SWAP2 SUB SWAP1 RETURN JUMPDEST PUSH2 0x1A1 PUSH1 0x4 DUP1 CALLDATASIZE SUB DUP2 ADD SWAP1 PUSH2 0x19C SWAP2 SWAP1 PUSH2 0x16D4 JUMP JUMPDEST PUSH2 0x594 JUMP JUMPDEST STOP JUMPDEST PUSH2 0x1BD PUSH1 0x4 DUP1 CALLDATASIZE SUB DUP2 ADD SWAP1 PUSH2 0x1B8 SWAP2 SWAP1 PUSH2 0x1714 JUMP JUMPDEST PUSH2 0x77D JUMP JUMPDEST STOP JUMPDEST CALLVALUE DUP1 ISZERO PUSH2 0x1CB JUMPI PUSH1 0x0 DUP1 REVERT JUMPDEST POP PUSH2 0x1E6 PUSH1 0x4 DUP1 CALLDATASIZE SUB DUP2 ADD SWAP1 PUSH2 0x1E1 SWAP2 SWAP1 PUSH2 0x16D4 JUMP JUMPDEST PUSH2 0x78D JUMP JUMPDEST STOP JUMPDEST PUSH2 0x202 PUSH1 0x4 DUP1 CALLDATASIZE SUB DUP2 ADD SWAP1 PUSH2 0x1FD SWAP2 SWAP1 PUSH2 0x1714 JUMP JUMPDEST PUSH2 0x829 JUMP JUMPDEST STOP JUMPDEST CALLVALUE DUP1 ISZERO PUSH2 0x210 JUMPI PUSH1 0x0 DUP1 REVERT JUMPDEST POP PUSH2 0x219 PUSH2 0x961 JUMP JUMPDEST PUSH1 0x40 MLOAD PUSH2 0x226 SWAP2 SWAP1 PUSH2 0x168D JUMP JUMPDEST PUSH1 0x40 MLOAD DUP1 SWAP2 SUB SWAP1 RETURN JUMPDEST CALLVALUE DUP1 ISZERO PUSH2 0x23B JUMPI PUSH1 0x0 DUP1 REVERT JUMPDEST POP PUSH2 0x256 PUSH1 0x4 DUP1 CALLDATASIZE SUB DUP2 ADD SWAP1 PUSH2 0x251 SWAP2 SWAP1 PUSH2 0x161F JUMP JUMPDEST PUSH2 0x985 JUMP JUMPDEST PUSH1 0x40 MLOAD PUSH2 0x263 SWAP2 SWAP1 PUSH2 0x168D JUMP JUMPDEST PUSH1 0x40 MLOAD DUP1 SWAP2 SUB SWAP1 RETURN JUMPDEST CALLVALUE DUP1 ISZERO PUSH2 0x278 JUMPI PUSH1 0x0 DUP1 REVERT JUMPDEST POP PUSH2 0x293 PUSH1 0x4 DUP1 CALLDATASIZE SUB DUP2 ADD SWAP1 PUSH2 0x28E SWAP2 SWAP1 PUSH2 0x1767 JUMP JUMPDEST PUSH2 0xA36 JUMP JUMPDEST PUSH1 0x40 MLOAD PUSH2 0x2A0 SWAP2 SWAP1 PUSH2 0x17A3 JUMP JUMPDEST PUSH1 0x40 MLOAD DUP1 SWAP2 SUB SWAP1 RETURN JUMPDEST CALLVALUE DUP1 ISZERO PUSH2 0x2B5 JUMPI PUSH1 0x0 DUP1 REVERT JUMPDEST POP PUSH2 0x2BE PUSH2 0xAED JUMP JUMPDEST PUSH1 0x40 MLOAD PUSH2 0x2CB SWAP2 SWAP1 PUSH2 0x15C7 JUMP JUMPDEST PUSH1 0x40 MLOAD DUP1 SWAP2 SUB SWAP1 RETURN JUMPDEST CALLVALUE DUP1 ISZERO PUSH2 0x2E0 JUMPI PUSH1 0x0 DUP1 REVERT JUMPDEST POP PUSH2 0x2FB PUSH1 0x4 DUP1 CALLDATASIZE SUB DUP2 ADD SWAP1 PUSH2 0x2F6 SWAP2 SWAP1 PUSH2 0x17EA JUMP JUMPDEST PUSH2 0xB7B JUMP JUMPDEST STOP JUMPDEST PUSH2 0x317 PUSH1 0x4 DUP1 CALLDATASIZE SUB DUP2 ADD SWAP1 PUSH2 0x312 SWAP2 SWAP1 PUSH2 0x188F JUMP JUMPDEST PUSH2 0xC78 JUMP JUMPDEST STOP JUMPDEST CALLVALUE DUP1 ISZERO PUSH2 0x325 JUMPI PUSH1 0x0 DUP1 REVERT JUMPDEST POP PUSH2 0x340 PUSH1 0x4 DUP1 CALLDATASIZE SUB DUP2 ADD SWAP1 PUSH2 0x33B SWAP2 SWAP1 PUSH2 0x1917 JUMP JUMPDEST PUSH2 0xDB6 JUMP JUMPDEST PUSH1 0x40 MLOAD PUSH2 0x34D SWAP2 SWAP1 PUSH2 0x151C JUMP JUMPDEST PUSH1 0x40 MLOAD DUP1 SWAP2 SUB SWAP1 RETURN JUMPDEST PUSH1 0x0 PUSH32 0x80AC58CD00000000000000000000000000000000000000000000000000000000 PUSH28 0xFFFFFFFFFFFFFFFFFFFFFFFFFFFFFFFFFFFFFFFFFFFFFFFFFFFFFFFF NOT AND DUP3 PUSH28 0xFFFFFFFFFFFFFFFFFFFFFFFFFFFFFFFFFFFFFFFFFFFFFFFFFFFFFFFF NOT AND EQ DUP1 PUSH2 0x421 JUMPI POP PUSH32 0x1FFC9A700000000000000000000000000000000000000000000000000000000 PUSH28 0xFFFFFFFFFFFFFFFFFFFFFFFFFFFFFFFFFFFFFFFFFFFFFFFFFFFFFFFF NOT AND DUP3 PUSH28 0xFFFFFFFFFFFFFFFFFFFFFFFFFFFFFFFFFFFFFFFFFFFFFFFFFFFFFFFF NOT AND EQ JUMPDEST SWAP1 POP SWAP2 SWAP1 POP JUMP JUMPDEST PUSH1 0x5 DUP1 SLOAD PUSH2 0x435 SWAP1 PUSH2 0x1986 JUMP JUMPDEST DUP1 PUSH1 0x1F ADD PUSH1 0x20 DUP1 SWAP2 DIV MUL PUSH1 0x20 ADD PUSH1 0x40 MLOAD SWAP1 DUP2 ADD PUSH1 0x40 MSTORE DUP1 SWAP3 SWAP2 SWAP1 DUP2 DUP2 MSTORE PUSH1 0x20 ADD DUP3 DUP1 SLOAD PUSH2 0x461 SWAP1 PUSH2 0x1986 JUMP JUMPDEST DUP1 ISZERO PUSH2 0x4AE JUMPI DUP1 PUSH1 0x1F LT PUSH2 0x483 JUMPI PUSH2 0x100 DUP1 DUP4 SLOAD DIV MUL DUP4 MSTORE SWAP2 PUSH1 0x20 ADD SWAP2 PUSH2 0x4AE JUMP JUMPDEST DUP3 ADD SWAP2 SWAP1 PUSH1 0x0 MSTORE PUSH1 0x20 PUSH1 0x0 KECCAK256 SWAP1 JUMPDEST DUP2 SLOAD DUP2 MSTORE SWAP1 PUSH1 0x1 ADD SWAP1 PUSH1 0x20 ADD DUP1 DUP4 GT PUSH2 0x491 JUMPI DUP3 SWAP1 SUB PUSH1 0x1F AND DUP3 ADD SWAP2 JUMPDEST POP POP POP POP POP DUP2 JUMP JUMPDEST PUSH1 0x0 DUP1 PUSH20 0xFFFFFFFFFFFFFFFFFFFFFFFFFFFFFFFFFFFFFFFF AND PUSH1 0x1 PUSH1 0x0 DUP5 DUP2 MSTORE PUSH1 0x20 ADD SWAP1 DUP2 MSTORE PUSH1 0x20 ADD PUSH1 0x0 KECCAK256 PUSH1 0x0 SWAP1 SLOAD SWAP1 PUSH2 0x100 EXP SWAP1 DIV PUSH20 0xFFFFFFFFFFFFFFFFFFFFFFFFFFFFFFFFFFFFFFFF AND PUSH20 0xFFFFFFFFFFFFFFFFFFFFFFFFFFFFFFFFFFFFFFFF AND SUB PUSH2 0x559 JUMPI PUSH1 0x40 MLOAD PUSH32 0x8C379A000000000000000000000000000000000000000000000000000000000 DUP2 MSTORE PUSH1 0x4 ADD PUSH2 0x550 SWAP1 PUSH2 0x1A29 JUMP JUMPDEST PUSH1 0x40 MLOAD DUP1 SWAP2 SUB SWAP1 REVERT JUMPDEST PUSH1 0x3 PUSH1 0x0 DUP4 DUP2 MSTORE PUSH1 0x20 ADD SWAP1 DUP2 MSTORE PUSH1 0x20 ADD PUSH1 0x0 KECCAK256 PUSH1 0x0 SWAP1 SLOAD SWAP1 PUSH2 0x100 EXP SWAP1 DIV PUSH20 0xFFFFFFFFFFFFFFFFFFFFFFFFFFFFFFFFFFFFFFFF AND SWAP1 POP SWAP2 SWAP1 POP JUMP JUMPDEST PUSH1 0x0 PUSH1 0x1 PUSH1 0x0 DUP4 DUP2 MSTORE PUSH1 0x20 ADD SWAP1 DUP2 MSTORE PUSH1 0x20 ADD PUSH1 0x0 KECCAK256 PUSH1 0x0 SWAP1 SLOAD SWAP1 PUSH2 0x100 EXP SWAP1 DIV PUSH20 0xFFFFFFFFFFFFFFFFFFFFFFFFFFFFFFFFFFFFFFFF AND SWAP1 POP DUP1 PUSH20 0xFFFFFFFFFFFFFFFFFFFFFFFFFFFFFFFFFFFFFFFF AND CALLER PUSH20 0xFFFFFFFFFFFFFFFFFFFFFFFFFFFFFFFFFFFFFFFF AND EQ DUP1 PUSH2 0x68C JUMPI POP PUSH1 0x4 PUSH1 0x0 DUP3 PUSH20 0xFFFFFFFFFFFFFFFFFFFFFFFFFFFFFFFFFFFFFFFF AND PUSH20 0xFFFFFFFFFFFFFFFFFFFFFFFFFFFFFFFFFFFFFFFF AND DUP2 MSTORE PUSH1 0x20 ADD SWAP1 DUP2 MSTORE PUSH1 0x20 ADD PUSH1 0x0 KECCAK256 PUSH1 0x0 CALLER PUSH20 0xFFFFFFFFFFFFFFFFFFFFFFFFFFFFFFFFFFFFFFFF AND PUSH20 0xFFFFFFFFFFFFFFFFFFFFFFFFFFFFFFFFFFFFFFFF AND DUP2 MSTORE PUSH1 0x20 ADD SWAP1 DUP2 MSTORE PUSH1 0x20 ADD PUSH1 0x0 KECCAK256 PUSH1 0x0 SWAP1 SLOAD SWAP1 PUSH2 0x100 EXP SWAP1 DIV PUSH1 0xFF AND JUMPDEST PUSH2 0x6CB JUMPI PUSH1 0x40 MLOAD PUSH32 0x8C379A000000000000000000000000000000000000000000000000000000000 DUP2 MSTORE PUSH1 0x4 ADD PUSH2 0x6C2 SWAP1 PUSH2 0x1A95 JUMP JUMPDEST PUSH1 0x40 MLOAD DUP1 SWAP2 SUB SWAP1 REVERT JUMPDEST DUP3 PUSH1 0x3 PUSH1 0x0 DUP5 DUP2 MSTORE PUSH1 0x20 ADD SWAP1 DUP2 MSTORE PUSH1 0x20 ADD PUSH1 0x0 KECCAK256 PUSH1 0x0 PUSH2 0x100 EXP DUP2 SLOAD DUP2 PUSH20 0xFFFFFFFFFFFFFFFFFFFFFFFFFFFFFFFFFFFFFFFF MUL NOT AND SWAP1 DUP4 PUSH20 0xFFFFFFFFFFFFFFFFFFFFFFFFFFFFFFFFFFFFFFFF AND MUL OR SWAP1 SSTORE POP DUP2 DUP4 PUSH20 0xFFFFFFFFFFFFFFFFFFFFFFFFFFFFFFFFFFFFFFFF AND DUP3 PUSH20 0xFFFFFFFFFFFFFFFFFFFFFFFFFFFFFFFFFFFFFFFF AND PUSH32 0x8C5BE1E5EBEC7D5BD14F71427D1E84F3DD0314C0F7B2291E5B200AC8C7C3B925 PUSH1 0x40 MLOAD PUSH1 0x40 MLOAD DUP1 SWAP2 SUB SWAP1 LOG4 POP POP POP JUMP JUMPDEST PUSH2 0x788 DUP4 DUP4 DUP4 PUSH2 0xE4A JUMP JUMPDEST POP POP POP JUMP JUMPDEST PUSH1 0x0 DUP1 SLOAD SWAP1 PUSH2 0x100 EXP SWAP1 DIV PUSH20 0xFFFFFFFFFFFFFFFFFFFFFFFFFFFFFFFFFFFFFFFF AND PUSH20 0xFFFFFFFFFFFFFFFFFFFFFFFFFFFFFFFFFFFFFFFF AND CALLER PUSH20 0xFFFFFFFFFFFFFFFFFFFFFFFFFFFFFFFFFFFFFFFF AND EQ PUSH2 0x81B JUMPI PUSH1 0x40 MLOAD PUSH32 0x8C379A000000000000000000000000000000000000000000000000000000000 DUP2 MSTORE PUSH1 0x4 ADD PUSH2 0x812 SWAP1 PUSH2 0x1B01 JUMP JUMPDEST PUSH1 0x40 MLOAD DUP1 SWAP2 SUB SWAP1 REVERT JUMPDEST PUSH2 0x825 DUP3 DUP3 PUSH2 0x125A JUMP JUMPDEST POP POP JUMP JUMPDEST PUSH2 0x834 DUP4 DUP4 DUP4 PUSH2 0xE4A JUMP JUMPDEST PUSH1 0x0 DUP3 PUSH20 0xFFFFFFFFFFFFFFFFFFFFFFFFFFFFFFFFFFFFFFFF AND EXTCODESIZE EQ DUP1 PUSH2 0x91D JUMPI POP PUSH4 0x150B7A02 PUSH1 0xE0 SHL PUSH28 0xFFFFFFFFFFFFFFFFFFFFFFFFFFFFFFFFFFFFFFFFFFFFFFFFFFFFFFFF NOT AND DUP3 PUSH20 0xFFFFFFFFFFFFFFFFFFFFFFFFFFFFFFFFFFFFFFFF AND PUSH4 0x150B7A02 CALLER DUP7 DUP6 PUSH1 0x40 MLOAD DUP5 PUSH4 0xFFFFFFFF AND PUSH1 0xE0 SHL DUP2 MSTORE PUSH1 0x4 ADD PUSH2 0x8B9 SWAP4 SWAP3 SWAP2 SWAP1 PUSH2 0x1B58 JUMP JUMPDEST PUSH1 0x20 PUSH1 0x40 MLOAD DUP1 DUP4 SUB DUP2 PUSH1 0x0 DUP8 GAS CALL ISZERO DUP1 ISZERO PUSH2 0x8D8 JUMPI RETURNDATASIZE PUSH1 0x0 DUP1 RETURNDATACOPY RETURNDATASIZE PUSH1 0x0 REVERT JUMPDEST POP POP POP POP PUSH1 0x40 MLOAD RETURNDATASIZE PUSH1 0x1F NOT PUSH1 0x1F DUP3 ADD AND DUP3 ADD DUP1 PUSH1 0x40 MSTORE POP DUP2 ADD SWAP1 PUSH2 0x8FC SWAP2 SWAP1 PUSH2 0x1BB7 JUMP JUMPDEST PUSH28 0xFFFFFFFFFFFFFFFFFFFFFFFFFFFFFFFFFFFFFFFFFFFFFFFFFFFFFFFF NOT AND EQ JUMPDEST PUSH2 0x95C JUMPI PUSH1 0x40 MLOAD PUSH32 0x8C379A000000000000000000000000000000000000000000000000000000000 DUP2 MSTORE PUSH1 0x4 ADD PUSH2 0x953 SWAP1 PUSH2 0x1C30 JUMP JUMPDEST PUSH1 0x40 MLOAD DUP1 SWAP2 SUB SWAP1 REVERT JUMPDEST POP POP POP JUMP JUMPDEST PUSH1 0x0 DUP1 SLOAD SWAP1 PUSH2 0x100 EXP SWAP1 DIV PUSH20 0xFFFFFFFFFFFFFFFFFFFFFFFFFFFFFFFFFFFFFFFF AND DUP2 JUMP JUMPDEST PUSH1 0x0 DUP1 PUSH1 0x1 PUSH1 0x0 DUP5 DUP2 MSTORE PUSH1 0x20 ADD SWAP1 DUP2 MSTORE PUSH1 0x20 ADD PUSH1 0x0 KECCAK256 PUSH1 0x0 SWAP1 SLOAD SWAP1 PUSH2 0x100 EXP SWAP1 DIV PUSH20 0xFFFFFFFFFFFFFFFFFFFFFFFFFFFFFFFFFFFFFFFF AND SWAP1 POP PUSH1 0x0 PUSH20 0xFFFFFFFFFFFFFFFFFFFFFFFFFFFFFFFFFFFFFFFF AND DUP2 PUSH20 0xFFFFFFFFFFFFFFFFFFFFFFFFFFFFFFFFFFFFFFFF AND SUB PUSH2 0xA2D JUMPI PUSH1 0x40 MLOAD PUSH32 0x8C379A000000000000000000000000000000000000000000000000000000000 DUP2 MSTORE PUSH1 0x4 ADD PUSH2 0xA24 SWAP1 PUSH2 0x1C9C JUMP JUMPDEST PUSH1 0x40 MLOAD DUP1 SWAP2 SUB SWAP1 REVERT JUMPDEST DUP1 SWAP2 POP POP SWAP2 SWAP1 POP JUMP JUMPDEST PUSH1 0x0 DUP1 PUSH20 0xFFFFFFFFFFFFFFFFFFFFFFFFFFFFFFFFFFFFFFFF AND DUP3 PUSH20 0xFFFFFFFFFFFFFFFFFFFFFFFFFFFFFFFFFFFFFFFF AND SUB PUSH2 0xAA6 JUMPI PUSH1 0x40 MLOAD PUSH32 0x8C379A000000000000000000000000000000000000000000000000000000000 DUP2 MSTORE PUSH1 0x4 ADD PUSH2 0xA9D SWAP1 PUSH2 0x1D2E JUMP JUMPDEST PUSH1 0x40 MLOAD DUP1 SWAP2 SUB SWAP1 REVERT JUMPDEST PUSH1 0x2 PUSH1 0x0 DUP4 PUSH20 0xFFFFFFFFFFFFFFFFFFFFFFFFFFFFFFFFFFFFFFFF AND PUSH20 0xFFFFFFFFFFFFFFFFFFFFFFFFFFFFFFFFFFFFFFFF AND DUP2 MSTORE PUSH1 0x20 ADD SWAP1 DUP2 MSTORE PUSH1 0x20 ADD PUSH1 0x0 KECCAK256 SLOAD SWAP1 POP SWAP2 SWAP1 POP JUMP JUMPDEST PUSH1 0x6 DUP1 SLOAD PUSH2 0xAFA SWAP1 PUSH2 0x1986 JUMP JUMPDEST DUP1 PUSH1 0x1F ADD PUSH1 0x20 DUP1 SWAP2 DIV MUL PUSH1 0x20 ADD PUSH1 0x40 MLOAD SWAP1 DUP2 ADD PUSH1 0x40 MSTORE DUP1 SWAP3 SWAP2 SWAP1 DUP2 DUP2 MSTORE PUSH1 0x20 ADD DUP3 DUP1 SLOAD PUSH2 0xB26 SWAP1 PUSH2 0x1986 JUMP JUMPDEST DUP1 ISZERO PUSH2 0xB73 JUMPI DUP1 PUSH1 0x1F LT PUSH2 0xB48 JUMPI PUSH2 0x100 DUP1 DUP4 SLOAD DIV MUL DUP4 MSTORE SWAP2 PUSH1 0x20 ADD SWAP2 PUSH2 0xB73 JUMP JUMPDEST DUP3 ADD SWAP2 SWAP1 PUSH1 0x0 MSTORE PUSH1 0x20 PUSH1 0x0 KECCAK256 SWAP1 JUMPDEST DUP2 SLOAD DUP2 MSTORE SWAP1 PUSH1 0x1 ADD SWAP1 PUSH1 0x20 ADD DUP1 DUP4 GT PUSH2 0xB56 JUMPI DUP3 SWAP1 SUB PUSH1 0x1F AND DUP3 ADD SWAP2 JUMPDEST POP POP POP POP POP DUP2 JUMP JUMPDEST DUP1 PUSH1 0x4 PUSH1 0x0 CALLER PUSH20 0xFFFFFFFFFFFFFFFFFFFFFFFFFFFFFFFFFFFFFFFF AND PUSH20 0xFFFFFFFFFFFFFFFFFFFFFFFFFFFFFFFFFFFFFFFF AND DUP2 MSTORE PUSH1 0x20 ADD SWAP1 DUP2 MSTORE PUSH1 0x20 ADD PUSH1 0x0 KECCAK256 PUSH1 0x0 DUP5 PUSH20 0xFFFFFFFFFFFFFFFFFFFFFFFFFFFFFFFFFFFFFFFF AND PUSH20 0xFFFFFFFFFFFFFFFFFFFFFFFFFFFFFFFFFFFFFFFF AND DUP2 MSTORE PUSH1 0x20 ADD SWAP1 DUP2 MSTORE PUSH1 0x20 ADD PUSH1 0x0 KECCAK256 PUSH1 0x0 PUSH2 0x100 EXP DUP2 SLOAD DUP2 PUSH1 0xFF MUL NOT AND SWAP1 DUP4 ISZERO ISZERO MUL OR SWAP1 SSTORE POP DUP2 PUSH20 0xFFFFFFFFFFFFFFFFFFFFFFFFFFFFFFFFFFFFFFFF AND CALLER PUSH20 0xFFFFFFFFFFFFFFFFFFFFFFFFFFFFFFFFFFFFFFFF AND PUSH32 0x17307EAB39AB6107E8899845AD3D59BD9653F200F220920489CA2B5937696C31 DUP4 PUSH1 0x40 MLOAD PUSH2 0xC6C SWAP2 SWAP1 PUSH2 0x151C JUMP JUMPDEST PUSH1 0x40 MLOAD DUP1 SWAP2 SUB SWAP1 LOG3 POP POP JUMP JUMPDEST PUSH2 0xC83 DUP6 DUP6 DUP6 PUSH2 0xE4A JUMP JUMPDEST PUSH1 0x0 DUP5 PUSH20 0xFFFFFFFFFFFFFFFFFFFFFFFFFFFFFFFFFFFFFFFF AND EXTCODESIZE EQ DUP1 PUSH2 0xD70 JUMPI POP PUSH4 0x150B7A02 PUSH1 0xE0 SHL PUSH28 0xFFFFFFFFFFFFFFFFFFFFFFFFFFFFFFFFFFFFFFFFFFFFFFFFFFFFFFFF NOT AND DUP5 PUSH20 0xFFFFFFFFFFFFFFFFFFFFFFFFFFFFFFFFFFFFFFFF AND PUSH4 0x150B7A02 CALLER DUP9 DUP8 DUP8 DUP8 PUSH1 0x40 MLOAD DUP7 PUSH4 0xFFFFFFFF AND PUSH1 0xE0 SHL DUP2 MSTORE PUSH1 0x4 ADD PUSH2 0xD0C SWAP6 SWAP5 SWAP4 SWAP3 SWAP2 SWAP1 PUSH2 0x1D8A JUMP JUMPDEST PUSH1 0x20 PUSH1 0x40 MLOAD DUP1 DUP4 SUB DUP2 PUSH1 0x0 DUP8 GAS CALL ISZERO DUP1 ISZERO PUSH2 0xD2B JUMPI RETURNDATASIZE PUSH1 0x0 DUP1 RETURNDATACOPY RETURNDATASIZE PUSH1 0x0 REVERT JUMPDEST POP POP POP POP PUSH1 0x40 MLOAD RETURNDATASIZE PUSH1 0x1F NOT PUSH1 0x1F DUP3 ADD AND DUP3 ADD DUP1 PUSH1 0x40 MSTORE POP DUP2 ADD SWAP1 PUSH2 0xD4F SWAP2 SWAP1 PUSH2 0x1BB7 JUMP JUMPDEST PUSH28 0xFFFFFFFFFFFFFFFFFFFFFFFFFFFFFFFFFFFFFFFFFFFFFFFFFFFFFFFF NOT AND EQ JUMPDEST PUSH2 0xDAF JUMPI PUSH1 0x40 MLOAD PUSH32 0x8C379A000000000000000000000000000000000000000000000000000000000 DUP2 MSTORE PUSH1 0x4 ADD PUSH2 0xDA6 SWAP1 PUSH2 0x1C30 JUMP JUMPDEST PUSH1 0x40 MLOAD DUP1 SWAP2 SUB SWAP1 REVERT JUMPDEST POP POP POP POP POP JUMP JUMPDEST PUSH1 0x0 PUSH1 0x4 PUSH1 0x0 DUP5 PUSH20 0xFFFFFFFFFFFFFFFFFFFFFFFFFFFFFFFFFFFFFFFF AND PUSH20 0xFFFFFFFFFFFFFFFFFFFFFFFFFFFFFFFFFFFFFFFF AND DUP2 MSTORE PUSH1 0x20 ADD SWAP1 DUP2 MSTORE PUSH1 0x20 ADD PUSH1 0x0 KECCAK256 PUSH1 0x0 DUP4 PUSH20 0xFFFFFFFFFFFFFFFFFFFFFFFFFFFFFFFFFFFFFFFF AND PUSH20 0xFFFFFFFFFFFFFFFFFFFFFFFFFFFFFFFFFFFFFFFF AND DUP2 MSTORE PUSH1 0x20 ADD SWAP1 DUP2 MSTORE PUSH1 0x20 ADD PUSH1 0x0 KECCAK256 PUSH1 0x0 SWAP1 SLOAD SWAP1 PUSH2 0x100 EXP SWAP1 DIV PUSH1 0xFF AND SWAP1 POP SWAP3 SWAP2 POP POP JUMP JUMPDEST PUSH1 0x0 PUSH1 0x1 PUSH1 0x0 DUP4 DUP2 MSTORE PUSH1 0x20 ADD SWAP1 DUP2 MSTORE PUSH1 0x20 ADD PUSH1 0x0 KECCAK256 PUSH1 0x0 SWAP1 SLOAD SWAP1 PUSH2 0x100 EXP SWAP1 DIV PUSH20 0xFFFFFFFFFFFFFFFFFFFFFFFFFFFFFFFFFFFFFFFF AND SWAP1 POP DUP1 PUSH20 0xFFFFFFFFFFFFFFFFFFFFFFFFFFFFFFFFFFFFFFFF AND DUP5 PUSH20 0xFFFFFFFFFFFFFFFFFFFFFFFFFFFFFFFFFFFFFFFF AND EQ PUSH2 0xEF0 JUMPI PUSH1 0x40 MLOAD PUSH32 0x8C379A000000000000000000000000000000000000000000000000000000000 DUP2 MSTORE PUSH1 0x4 ADD PUSH2 0xEE7 SWAP1 PUSH2 0x1E24 JUMP JUMPDEST PUSH1 0x40 MLOAD DUP1 SWAP2 SUB SWAP1 REVERT JUMPDEST PUSH1 0x0 PUSH20 0xFFFFFFFFFFFFFFFFFFFFFFFFFFFFFFFFFFFFFFFF AND DUP4 PUSH20 0xFFFFFFFFFFFFFFFFFFFFFFFFFFFFFFFFFFFFFFFF AND SUB PUSH2 0xF5F JUMPI PUSH1 0x40 MLOAD PUSH32 0x8C379A000000000000000000000000000000000000000000000000000000000 DUP2 MSTORE PUSH1 0x4 ADD PUSH2 0xF56 SWAP1 PUSH2 0x1E90 JUMP JUMPDEST PUSH1 0x40 MLOAD DUP1 SWAP2 SUB SWAP1 REVERT JUMPDEST DUP1 PUSH20 0xFFFFFFFFFFFFFFFFFFFFFFFFFFFFFFFFFFFFFFFF AND CALLER PUSH20 0xFFFFFFFFFFFFFFFFFFFFFFFFFFFFFFFFFFFFFFFF AND EQ DUP1 PUSH2 0xFF7 JUMPI POP PUSH1 0x3 PUSH1 0x0 DUP4 DUP2 MSTORE PUSH1 0x20 ADD SWAP1 DUP2 MSTORE PUSH1 0x20 ADD PUSH1 0x0 KECCAK256 PUSH1 0x0 SWAP1 SLOAD SWAP1 PUSH2 0x100 EXP SWAP1 DIV PUSH20 0xFFFFFFFFFFFFFFFFFFFFFFFFFFFFFFFFFFFFFFFF AND PUSH20 0xFFFFFFFFFFFFFFFFFFFFFFFFFFFFFFFFFFFFFFFF AND CALLER PUSH20 0xFFFFFFFFFFFFFFFFFFFFFFFFFFFFFFFFFFFFFFFF AND EQ JUMPDEST DUP1 PUSH2 0x1088 JUMPI POP PUSH1 0x4 PUSH1 0x0 DUP3 PUSH20 0xFFFFFFFFFFFFFFFFFFFFFFFFFFFFFFFFFFFFFFFF AND PUSH20 0xFFFFFFFFFFFFFFFFFFFFFFFFFFFFFFFFFFFFFFFF AND DUP2 MSTORE PUSH1 0x20 ADD SWAP1 DUP2 MSTORE PUSH1 0x20 ADD PUSH1 0x0 KECCAK256 PUSH1 0x0 CALLER PUSH20 0xFFFFFFFFFFFFFFFFFFFFFFFFFFFFFFFFFFFFFFFF AND PUSH20 0xFFFFFFFFFFFFFFFFFFFFFFFFFFFFFFFFFFFFFFFF AND DUP2 MSTORE PUSH1 0x20 ADD SWAP1 DUP2 MSTORE PUSH1 0x20 ADD PUSH1 0x0 KECCAK256 PUSH1 0x0 SWAP1 SLOAD SWAP1 PUSH2 0x100 EXP SWAP1 DIV PUSH1 0xFF AND JUMPDEST PUSH2 0x10C7 JUMPI PUSH1 0x40 MLOAD PUSH32 0x8C379A000000000000000000000000000000000000000000000000000000000 DUP2 MSTORE PUSH1 0x4 ADD PUSH2 0x10BE SWAP1 PUSH2 0x1F22 JUMP JUMPDEST PUSH1 0x40 MLOAD DUP1 SWAP2 SUB SWAP1 REVERT JUMPDEST PUSH1 0x2 PUSH1 0x0 DUP6 PUSH20 0xFFFFFFFFFFFFFFFFFFFFFFFFFFFFFFFFFFFFFFFF AND PUSH20 0xFFFFFFFFFFFFFFFFFFFFFFFFFFFFFFFFFFFFFFFF AND DUP2 MSTORE PUSH1 0x20 ADD SWAP1 DUP2 MSTORE PUSH1 0x20 ADD PUSH1 0x0 KECCAK256 PUSH1 0x0 DUP2 SLOAD DUP1 SWAP3 SWAP2 SWAP1 PUSH2 0x1117 SWAP1 PUSH2 0x1F71 JUMP JUMPDEST SWAP2 SWAP1 POP SSTORE POP PUSH1 0x2 PUSH1 0x0 DUP5 PUSH20 0xFFFFFFFFFFFFFFFFFFFFFFFFFFFFFFFFFFFFFFFF AND PUSH20 0xFFFFFFFFFFFFFFFFFFFFFFFFFFFFFFFFFFFFFFFF AND DUP2 MSTORE PUSH1 0x20 ADD SWAP1 DUP2 MSTORE PUSH1 0x20 ADD PUSH1 0x0 KECCAK256 PUSH1 0x0 DUP2 SLOAD DUP1 SWAP3 SWAP2 SWAP1 PUSH2 0x116C SWAP1 PUSH2 0x1F9A JUMP JUMPDEST SWAP2 SWAP1 POP SSTORE POP DUP3 PUSH1 0x1 PUSH1 0x0 DUP5 DUP2 MSTORE PUSH1 0x20 ADD SWAP1 DUP2 MSTORE PUSH1 0x20 ADD PUSH1 0x0 KECCAK256 PUSH1 0x0 PUSH2 0x100 EXP DUP2 SLOAD DUP2 PUSH20 0xFFFFFFFFFFFFFFFFFFFFFFFFFFFFFFFFFFFFFFFF MUL NOT AND SWAP1 DUP4 PUSH20 0xFFFFFFFFFFFFFFFFFFFFFFFFFFFFFFFFFFFFFFFF AND MUL OR SWAP1 SSTORE POP PUSH1 0x3 PUSH1 0x0 DUP4 DUP2 MSTORE PUSH1 0x20 ADD SWAP1 DUP2 MSTORE PUSH1 0x20 ADD PUSH1 0x0 KECCAK256 PUSH1 0x0 PUSH2 0x100 EXP DUP2 SLOAD SWAP1 PUSH20 0xFFFFFFFFFFFFFFFFFFFFFFFFFFFFFFFFFFFFFFFF MUL NOT AND SWAP1 SSTORE DUP2 DUP4 PUSH20 0xFFFFFFFFFFFFFFFFFFFFFFFFFFFFFFFFFFFFFFFF AND DUP6 PUSH20 0xFFFFFFFFFFFFFFFFFFFFFFFFFFFFFFFFFFFFFFFF AND PUSH32 0xDDF252AD1BE2C89B69C2B068FC378DAA952BA7F163C4A11628F55A4DF523B3EF PUSH1 0x40 MLOAD PUSH1 0x40 MLOAD DUP1 SWAP2 SUB SWAP1 LOG4 POP POP POP POP JUMP JUMPDEST PUSH1 0x0 PUSH20 0xFFFFFFFFFFFFFFFFFFFFFFFFFFFFFFFFFFFFFFFF AND DUP3 PUSH20 0xFFFFFFFFFFFFFFFFFFFFFFFFFFFFFFFFFFFFFFFF AND SUB PUSH2 0x12C9 JUMPI PUSH1 0x40 MLOAD PUSH32 0x8C379A000000000000000000000000000000000000000000000000000000000 DUP2 MSTORE PUSH1 0x4 ADD PUSH2 0x12C0 SWAP1 PUSH2 0x202E JUMP JUMPDEST PUSH1 0x40 MLOAD DUP1 SWAP2 SUB SWAP1 REVERT JUMPDEST PUSH1 0x0 PUSH20 0xFFFFFFFFFFFFFFFFFFFFFFFFFFFFFFFFFFFFFFFF AND PUSH1 0x1 PUSH1 0x0 DUP4 DUP2 MSTORE PUSH1 0x20 ADD SWAP1 DUP2 MSTORE PUSH1 0x20 ADD PUSH1 0x0 KECCAK256 PUSH1 0x0 SWAP1 SLOAD SWAP1 PUSH2 0x100 EXP SWAP1 DIV PUSH20 0xFFFFFFFFFFFFFFFFFFFFFFFFFFFFFFFFFFFFFFFF AND PUSH20 0xFFFFFFFFFFFFFFFFFFFFFFFFFFFFFFFFFFFFFFFF AND EQ PUSH2 0x136B JUMPI PUSH1 0x40 MLOAD PUSH32 0x8C379A000000000000000000000000000000000000000000000000000000000 DUP2 MSTORE PUSH1 0x4 ADD PUSH2 0x1362 SWAP1 PUSH2 0x209A JUMP JUMPDEST PUSH1 0x40 MLOAD DUP1 SWAP2 SUB SWAP1 REVERT JUMPDEST PUSH1 0x2 PUSH1 0x0 DUP4 PUSH20 0xFFFFFFFFFFFFFFFFFFFFFFFFFFFFFFFFFFFFFFFF AND PUSH20 0xFFFFFFFFFFFFFFFFFFFFFFFFFFFFFFFFFFFFFFFF AND DUP2 MSTORE PUSH1 0x20 ADD SWAP1 DUP2 MSTORE PUSH1 0x20 ADD PUSH1 0x0 KECCAK256 PUSH1 0x0 DUP2 SLOAD DUP1 SWAP3 SWAP2 SWAP1 PUSH2 0x13BB SWAP1 PUSH2 0x1F9A JUMP JUMPDEST SWAP2 SWAP1 POP SSTORE POP DUP2 PUSH1 0x1 PUSH1 0x0 DUP4 DUP2 MSTORE PUSH1 0x20 ADD SWAP1 DUP2 MSTORE PUSH1 0x20 ADD PUSH1 0x0 KECCAK256 PUSH1 0x0 PUSH2 0x100 EXP DUP2 SLOAD DUP2 PUSH20 0xFFFFFFFFFFFFFFFFFFFFFFFFFFFFFFFFFFFFFFFF MUL NOT AND SWAP1 DUP4 PUSH20 0xFFFFFFFFFFFFFFFFFFFFFFFFFFFFFFFFFFFFFFFF AND MUL OR SWAP1 SSTORE POP DUP1 DUP3 PUSH20 0xFFFFFFFFFFFFFFFFFFFFFFFFFFFFFFFFFFFFFFFF AND PUSH1 0x0 PUSH20 0xFFFFFFFFFFFFFFFFFFFFFFFFFFFFFFFFFFFFFFFF AND PUSH32 0xDDF252AD1BE2C89B69C2B068FC378DAA952BA7F163C4A11628F55A4DF523B3EF PUSH1 0x40 MLOAD PUSH1 0x40 MLOAD DUP1 SWAP2 SUB SWAP1 LOG4 POP POP JUMP JUMPDEST PUSH1 0x0 DUP1 REVERT JUMPDEST PUSH1 0x0 DUP1 REVERT JUMPDEST PUSH1 0x0 PUSH32 0xFFFFFFFF00000000000000000000000000000000000000000000000000000000 DUP3 AND SWAP1 POP SWAP2 SWAP1 POP JUMP JUMPDEST PUSH2 0x14B1 DUP2 PUSH2 0x147C JUMP JUMPDEST DUP2 EQ PUSH2 0x14BC JUMPI PUSH1 0x0 DUP1 REVERT JUMPDEST POP JUMP JUMPDEST PUSH1 0x0 DUP2 CALLDATALOAD SWAP1 POP PUSH2 0x14CE DUP2 PUSH2 0x14A8 JUMP JUMPDEST SWAP3 SWAP2 POP POP JUMP JUMPDEST PUSH1 0x0 PUSH1 0x20 DUP3 DUP5 SUB SLT ISZERO PUSH2 0x14EA JUMPI PUSH2 0x14E9 PUSH2 0x1472 JUMP JUMPDEST JUMPDEST PUSH1 0x0 PUSH2 0x14F8 DUP5 DUP3 DUP6 ADD PUSH2 0x14BF JUMP JUMPDEST SWAP2 POP POP SWAP3 SWAP2 POP POP JUMP JUMPDEST PUSH1 0x0 DUP2 ISZERO ISZERO SWAP1 POP SWAP2 SWAP1 POP JUMP JUMPDEST PUSH2 0x1516 DUP2 PUSH2 0x1501 JUMP JUMPDEST DUP3 MSTORE POP POP JUMP JUMPDEST PUSH1 0x0 PUSH1 0x20 DUP3 ADD SWAP1 POP PUSH2 0x1531 PUSH1 0x0 DUP4 ADD DUP5 PUSH2 0x150D JUMP JUMPDEST SWAP3 SWAP2 POP POP JUMP JUMPDEST PUSH1 0x0 DUP2 MLOAD SWAP1 POP SWAP2 SWAP1 POP JUMP JUMPDEST PUSH1 0x0 DUP3 DUP3 MSTORE PUSH1 0x20 DUP3 ADD SWAP1 POP SWAP3 SWAP2 POP POP JUMP JUMPDEST PUSH1 0x0 JUMPDEST DUP4 DUP2 LT ISZERO PUSH2 0x1571 JUMPI DUP1 DUP3 ADD MLOAD DUP2 DUP5 ADD MSTORE PUSH1 0x20 DUP2 ADD SWAP1 POP PUSH2 0x1556 JUMP JUMPDEST PUSH1 0x0 DUP5 DUP5 ADD MSTORE POP POP POP POP JUMP JUMPDEST PUSH1 0x0 PUSH1 0x1F NOT PUSH1 0x1F DUP4 ADD AND SWAP1 POP SWAP2 SWAP1 POP JUMP JUMPDEST PUSH1 0x0 PUSH2 0x1599 DUP3 PUSH2 0x1537 JUMP JUMPDEST PUSH2 0x15A3 DUP2 DUP6 PUSH2 0x1542 JUMP JUMPDEST SWAP4 POP PUSH2 0x15B3 DUP2 DUP6 PUSH1 0x20 DUP7 ADD PUSH2 0x1553 JUMP JUMPDEST PUSH2 0x15BC DUP2 PUSH2 0x157D JUMP JUMPDEST DUP5 ADD SWAP2 POP POP SWAP3 SWAP2 POP POP JUMP JUMPDEST PUSH1 0x0 PUSH1 0x20 DUP3 ADD SWAP1 POP DUP2 DUP2 SUB PUSH1 0x0 DUP4 ADD MSTORE PUSH2 0x15E1 DUP2 DUP5 PUSH2 0x158E JUMP JUMPDEST SWAP1 POP SWAP3 SWAP2 POP POP JUMP JUMPDEST PUSH1 0x0 DUP2 SWAP1 POP SWAP2 SWAP1 POP JUMP JUMPDEST PUSH2 0x15FC DUP2 PUSH2 0x15E9 JUMP JUMPDEST DUP2 EQ PUSH2 0x1607 JUMPI PUSH1 0x0 DUP1 REVERT JUMPDEST POP JUMP JUMPDEST PUSH1 0x0 DUP2 CALLDATALOAD SWAP1 POP PUSH2 0x1619 DUP2 PUSH2 0x15F3 JUMP JUMPDEST SWAP3 SWAP2 POP POP JUMP JUMPDEST PUSH1 0x0 PUSH1 0x20 DUP3 DUP5 SUB SLT ISZERO PUSH2 0x1635 JUMPI PUSH2 0x1634 PUSH2 0x1472 JUMP JUMPDEST JUMPDEST PUSH1 0x0 PUSH2 0x1643 DUP5 DUP3 DUP6 ADD PUSH2 0x160A JUMP JUMPDEST SWAP2 POP POP SWAP3 SWAP2 POP POP JUMP JUMPDEST PUSH1 0x0 PUSH20 0xFFFFFFFFFFFFFFFFFFFFFFFFFFFFFFFFFFFFFFFF DUP3 AND SWAP1 POP SWAP2 SWAP1 POP JUMP JUMPDEST PUSH1 0x0 PUSH2 0x1677 DUP3 PUSH2 0x164C JUMP JUMPDEST SWAP1 POP SWAP2 SWAP1 POP JUMP JUMPDEST PUSH2 0x1687 DUP2 PUSH2 0x166C JUMP JUMPDEST DUP3 MSTORE POP POP JUMP JUMPDEST PUSH1 0x0 PUSH1 0x20 DUP3 ADD SWAP1 POP PUSH2 0x16A2 PUSH1 0x0 DUP4 ADD DUP5 PUSH2 0x167E JUMP JUMPDEST SWAP3 SWAP2 POP POP JUMP JUMPDEST PUSH2 0x16B1 DUP2 PUSH2 0x166C JUMP JUMPDEST DUP2 EQ PUSH2 0x16BC JUMPI PUSH1 0x0 DUP1 REVERT JUMPDEST POP JUMP JUMPDEST PUSH1 0x0 DUP2 CALLDATALOAD SWAP1 POP PUSH2 0x16CE DUP2 PUSH2 0x16A8 JUMP JUMPDEST SWAP3 SWAP2 POP POP JUMP JUMPDEST PUSH1 0x0 DUP1 PUSH1 0x40 DUP4 DUP6 SUB SLT ISZERO PUSH2 0x16EB JUMPI PUSH2 0x16EA PUSH2 0x1472 JUMP JUMPDEST JUMPDEST PUSH1 0x0 PUSH2 0x16F9 DUP6 DUP3 DUP7 ADD PUSH2 0x16BF JUMP JUMPDEST SWAP3 POP POP PUSH1 0x20 PUSH2 0x170A DUP6 DUP3 DUP7 ADD PUSH2 0x160A JUMP JUMPDEST SWAP2 POP POP SWAP3 POP SWAP3 SWAP1 POP JUMP JUMPDEST PUSH1 0x0 DUP1 PUSH1 0x0 PUSH1 0x60 DUP5 DUP7 SUB SLT ISZERO PUSH2 0x172D JUMPI PUSH2 0x172C PUSH2 0x1472 JUMP JUMPDEST JUMPDEST PUSH1 0x0 PUSH2 0x173B DUP7 DUP3 DUP8 ADD PUSH2 0x16BF JUMP JUMPDEST SWAP4 POP POP PUSH1 0x20 PUSH2 0x174C DUP7 DUP3 DUP8 ADD PUSH2 0x16BF JUMP JUMPDEST SWAP3 POP POP PUSH1 0x40 PUSH2 0x175D DUP7 DUP3 DUP8 ADD PUSH2 0x160A JUMP JUMPDEST SWAP2 POP POP SWAP3 POP SWAP3 POP SWAP3 JUMP JUMPDEST PUSH1 0x0 PUSH1 0x20 DUP3 DUP5 SUB SLT ISZERO PUSH2 0x177D JUMPI PUSH2 0x177C PUSH2 0x1472 JUMP JUMPDEST JUMPDEST PUSH1 0x0 PUSH2 0x178B DUP5 DUP3 DUP6 ADD PUSH2 0x16BF JUMP JUMPDEST SWAP2 POP POP SWAP3 SWAP2 POP POP JUMP JUMPDEST PUSH2 0x179D DUP2 PUSH2 0x15E9 JUMP JUMPDEST DUP3 MSTORE POP POP JUMP JUMPDEST PUSH1 0x0 PUSH1 0x20 DUP3 ADD SWAP1 POP PUSH2 0x17B8 PUSH1 0x0 DUP4 ADD DUP5 PUSH2 0x1794 JUMP JUMPDEST SWAP3 SWAP2 POP POP JUMP JUMPDEST PUSH2 0x17C7 DUP2 PUSH2 0x1501 JUMP JUMPDEST DUP2 EQ PUSH2 0x17D2 JUMPI PUSH1 0x0 DUP1 REVERT JUMPDEST POP JUMP JUMPDEST PUSH1 0x0 DUP2 CALLDATALOAD SWAP1 POP PUSH2 0x17E4 DUP2 PUSH2 0x17BE JUMP JUMPDEST SWAP3 SWAP2 POP POP JUMP JUMPDEST PUSH1 0x0 DUP1 PUSH1 0x40 DUP4 DUP6 SUB SLT ISZERO PUSH2 0x1801 JUMPI PUSH2 0x1800 PUSH2 0x1472 JUMP JUMPDEST JUMPDEST PUSH1 0x0 PUSH2 0x180F DUP6 DUP3 DUP7 ADD PUSH2 0x16BF JUMP JUMPDEST SWAP3 POP POP PUSH1 0x20 PUSH2 0x1820 DUP6 DUP3 DUP7 ADD PUSH2 0x17D5 JUMP JUMPDEST SWAP2 POP POP SWAP3 POP SWAP3 SWAP1 POP JUMP JUMPDEST PUSH1 0x0 DUP1 REVERT JUMPDEST PUSH1 0x0 DUP1 REVERT JUMPDEST PUSH1 0x0 DUP1 REVERT JUMPDEST PUSH1 0x0 DUP1 DUP4 PUSH1 0x1F DUP5 ADD SLT PUSH2 0x184F JUMPI PUSH2 0x184E PUSH2 0x182A JUMP JUMPDEST JUMPDEST DUP3 CALLDATALOAD SWAP1 POP PUSH8 0xFFFFFFFFFFFFFFFF DUP2 GT ISZERO PUSH2 0x186C JUMPI PUSH2 0x186B PUSH2 0x182F JUMP JUMPDEST JUMPDEST PUSH1 0x20 DUP4 ADD SWAP2 POP DUP4 PUSH1 0x1 DUP3 MUL DUP4 ADD GT ISZERO PUSH2 0x1888 JUMPI PUSH2 0x1887 PUSH2 0x1834 JUMP JUMPDEST JUMPDEST SWAP3 POP SWAP3 SWAP1 POP JUMP JUMPDEST PUSH1 0x0 DUP1 PUSH1 0x0 DUP1 PUSH1 0x0 PUSH1 0x80 DUP7 DUP9 SUB SLT ISZERO PUSH2 0x18AB JUMPI PUSH2 0x18AA PUSH2 0x1472 JUMP JUMPDEST JUMPDEST PUSH1 0x0 PUSH2 0x18B9 DUP9 DUP3 DUP10 ADD PUSH2 0x16BF JUMP JUMPDEST SWAP6 POP POP PUSH1 0x20 PUSH2 0x18CA DUP9 DUP3 DUP10 ADD PUSH2 0x16BF JUMP JUMPDEST SWAP5 POP POP PUSH1 0x40 PUSH2 0x18DB DUP9 DUP3 DUP10 ADD PUSH2 0x160A JUMP JUMPDEST SWAP4 POP POP PUSH1 0x60 DUP7 ADD CALLDATALOAD PUSH8 0xFFFFFFFFFFFFFFFF DUP2 GT ISZERO PUSH2 0x18FC JUMPI PUSH2 0x18FB PUSH2 0x1477 JUMP JUMPDEST JUMPDEST PUSH2 0x1908 DUP9 DUP3 DUP10 ADD PUSH2 0x1839 JUMP JUMPDEST SWAP3 POP SWAP3 POP POP SWAP3 SWAP6 POP SWAP3 SWAP6 SWAP1 SWAP4 POP JUMP JUMPDEST PUSH1 0x0 DUP1 PUSH1 0x40 DUP4 DUP6 SUB SLT ISZERO PUSH2 0x192E JUMPI PUSH2 0x192D PUSH2 0x1472 JUMP JUMPDEST JUMPDEST PUSH1 0x0 PUSH2 0x193C DUP6 DUP3 DUP7 ADD PUSH2 0x16BF JUMP JUMPDEST SWAP3 POP POP PUSH1 0x20 PUSH2 0x194D DUP6 DUP3 DUP7 ADD PUSH2 0x16BF JUMP JUMPDEST SWAP2 POP POP SWAP3 POP SWAP3 SWAP1 POP JUMP JUMPDEST PUSH32 0x4E487B7100000000000000000000000000000000000000000000000000000000 PUSH1 0x0 MSTORE PUSH1 0x22 PUSH1 0x4 MSTORE PUSH1 0x24 PUSH1 0x0 REVERT JUMPDEST PUSH1 0x0 PUSH1 0x2 DUP3 DIV SWAP1 POP PUSH1 0x1 DUP3 AND DUP1 PUSH2 0x199E JUMPI PUSH1 0x7F DUP3 AND SWAP2 POP JUMPDEST PUSH1 0x20 DUP3 LT DUP2 SUB PUSH2 0x19B1 JUMPI PUSH2 0x19B0 PUSH2 0x1957 JUMP JUMPDEST JUMPDEST POP SWAP2 SWAP1 POP JUMP JUMPDEST PUSH32 0x617070726F76656420717565727920666F72206E6F6E6578697374656E742074 PUSH1 0x0 DUP3 ADD MSTORE PUSH32 0x6F6B656E00000000000000000000000000000000000000000000000000000000 PUSH1 0x20 DUP3 ADD MSTORE POP JUMP JUMPDEST PUSH1 0x0 PUSH2 0x1A13 PUSH1 0x24 DUP4 PUSH2 0x1542 JUMP JUMPDEST SWAP2 POP PUSH2 0x1A1E DUP3 PUSH2 0x19B7 JUMP JUMPDEST PUSH1 0x40 DUP3 ADD SWAP1 POP SWAP2 SWAP1 POP JUMP JUMPDEST PUSH1 0x0 PUSH1 0x20 DUP3 ADD SWAP1 POP DUP2 DUP2 SUB PUSH1 0x0 DUP4 ADD MSTORE PUSH2 0x1A42 DUP2 PUSH2 0x1A06 JUMP JUMPDEST SWAP1 POP SWAP2 SWAP1 POP JUMP JUMPDEST PUSH32 0x6E6F7420617574686F72697A6564000000000000000000000000000000000000 PUSH1 0x0 DUP3 ADD MSTORE POP JUMP JUMPDEST PUSH1 0x0 PUSH2 0x1A7F PUSH1 0xE DUP4 PUSH2 0x1542 JUMP JUMPDEST SWAP2 POP PUSH2 0x1A8A DUP3 PUSH2 0x1A49 JUMP JUMPDEST PUSH1 0x20 DUP3 ADD SWAP1 POP SWAP2 SWAP1 POP JUMP JUMPDEST PUSH1 0x0 PUSH1 0x20 DUP3 ADD SWAP1 POP DUP2 DUP2 SUB PUSH1 0x0 DUP4 ADD MSTORE PUSH2 0x1AAE DUP2 PUSH2 0x1A72 JUMP JUMPDEST SWAP1 POP SWAP2 SWAP1 POP JUMP JUMPDEST PUSH32 0x6E6F7420616E20617574686F72697A6564206D696E7465720000000000000000 PUSH1 0x0 DUP3 ADD MSTORE POP JUMP JUMPDEST PUSH1 0x0 PUSH2 0x1AEB PUSH1 0x18 DUP4 PUSH2 0x1542 JUMP JUMPDEST SWAP2 POP PUSH2 0x1AF6 DUP3 PUSH2 0x1AB5 JUMP JUMPDEST PUSH1 0x20 DUP3 ADD SWAP1 POP SWAP2 SWAP1 POP JUMP JUMPDEST PUSH1 0x0 PUSH1 0x20 DUP3 ADD SWAP1 POP DUP2 DUP2 SUB PUSH1 0x0 DUP4 ADD MSTORE PUSH2 0x1B1A DUP2 PUSH2 0x1ADE JUMP JUMPDEST SWAP1 POP SWAP2 SWAP1 POP JUMP JUMPDEST PUSH1 0x0 DUP3 DUP3 MSTORE PUSH1 0x20 DUP3 ADD SWAP1 POP SWAP3 SWAP2 POP POP JUMP JUMPDEST POP JUMP JUMPDEST PUSH1 0x0 PUSH2 0x1B42 PUSH1 0x0 DUP4 PUSH2 0x1B21 JUMP JUMPDEST SWAP2 POP PUSH2 0x1B4D DUP3 PUSH2 0x1B32 JUMP JUMPDEST PUSH1 0x0 DUP3 ADD SWAP1 POP SWAP2 SWAP1 POP JUMP JUMPDEST PUSH1 0x0 PUSH1 0x80 DUP3 ADD SWAP1 POP PUSH2 0x1B6D PUSH1 0x0 DUP4 ADD DUP7 PUSH2 0x167E JUMP JUMPDEST PUSH2 0x1B7A PUSH1 0x20 DUP4 ADD DUP6 PUSH2 0x167E JUMP JUMPDEST PUSH2 0x1B87 PUSH1 0x40 DUP4 ADD DUP5 PUSH2 0x1794 JUMP JUMPDEST DUP2 DUP2 SUB PUSH1 0x60 DUP4 ADD MSTORE PUSH2 0x1B98 DUP2 PUSH2 0x1B35 JUMP JUMPDEST SWAP1 POP SWAP5 SWAP4 POP POP POP POP JUMP JUMPDEST PUSH1 0x0 DUP2 MLOAD SWAP1 POP PUSH2 0x1BB1 DUP2 PUSH2 0x14A8 JUMP JUMPDEST SWAP3 SWAP2 POP POP JUMP JUMPDEST PUSH1 0x0 PUSH1 0x20 DUP3 DUP5 SUB SLT ISZERO PUSH2 0x1BCD JUMPI PUSH2 0x1BCC PUSH2 0x1472 JUMP JUMPDEST JUMPDEST PUSH1 0x0 PUSH2 0x1BDB DUP5 DUP3 DUP6 ADD PUSH2 0x1BA2 JUMP JUMPDEST SWAP2 POP POP SWAP3 SWAP2 POP POP JUMP JUMPDEST PUSH32 0x756E7361666520726563697069656E7400000000000000000000000000000000 PUSH1 0x0 DUP3 ADD MSTORE POP JUMP JUMPDEST PUSH1 0x0 PUSH2 0x1C1A PUSH1 0x10 DUP4 PUSH2 0x1542 JUMP JUMPDEST SWAP2 POP PUSH2 0x1C25 DUP3 PUSH2 0x1BE4 JUMP JUMPDEST PUSH1 0x20 DUP3 ADD SWAP1 POP SWAP2 SWAP1 POP JUMP JUMPDEST PUSH1 0x0 PUSH1 0x20 DUP3 ADD SWAP1 POP DUP2 DUP2 SUB PUSH1 0x0 DUP4 ADD MSTORE PUSH2 0x1C49 DUP2 PUSH2 0x1C0D JUMP JUMPDEST SWAP1 POP SWAP2 SWAP1 POP JUMP JUMPDEST PUSH32 0x746F6B656E20646F65736E277420657869737400000000000000000000000000 PUSH1 0x0 DUP3 ADD MSTORE POP JUMP JUMPDEST PUSH1 0x0 PUSH2 0x1C86 PUSH1 0x13 DUP4 PUSH2 0x1542 JUMP JUMPDEST SWAP2 POP PUSH2 0x1C91 DUP3 PUSH2 0x1C50 JUMP JUMPDEST PUSH1 0x20 DUP3 ADD SWAP1 POP SWAP2 SWAP1 POP JUMP JUMPDEST PUSH1 0x0 PUSH1 0x20 DUP3 ADD SWAP1 POP DUP2 DUP2 SUB PUSH1 0x0 DUP4 ADD MSTORE PUSH2 0x1CB5 DUP2 PUSH2 0x1C79 JUMP JUMPDEST SWAP1 POP SWAP2 SWAP1 POP JUMP JUMPDEST PUSH32 0x62616C616E636520717565727920666F7220746865207A65726F206164647265 PUSH1 0x0 DUP3 ADD MSTORE PUSH32 0x7373000000000000000000000000000000000000000000000000000000000000 PUSH1 0x20 DUP3 ADD MSTORE POP JUMP JUMPDEST PUSH1 0x0 PUSH2 0x1D18 PUSH1 0x22 DUP4 PUSH2 0x1542 JUMP JUMPDEST SWAP2 POP PUSH2 0x1D23 DUP3 PUSH2 0x1CBC JUMP JUMPDEST PUSH1 0x40 DUP3 ADD SWAP1 POP SWAP2 SWAP1 POP JUMP JUMPDEST PUSH1 0x0 PUSH1 0x20 DUP3 ADD SWAP1 POP DUP2 DUP2 SUB PUSH1 0x0 DUP4 ADD MSTORE PUSH2 0x1D47 DUP2 PUSH2 0x1D0B JUMP JUMPDEST SWAP1 POP SWAP2 SWAP1 POP JUMP JUMPDEST DUP3 DUP2 DUP4 CALLDATACOPY PUSH1 0x0 DUP4 DUP4 ADD MSTORE POP POP POP JUMP JUMPDEST PUSH1 0x0 PUSH2 0x1D69 DUP4 DUP6 PUSH2 0x1B21 JUMP JUMPDEST SWAP4 POP PUSH2 0x1D76 DUP4 DUP6 DUP5 PUSH2 0x1D4E JUMP JUMPDEST PUSH2 0x1D7F DUP4 PUSH2 0x157D JUMP JUMPDEST DUP5 ADD SWAP1 POP SWAP4 SWAP3 POP POP POP JUMP JUMPDEST PUSH1 0x0 PUSH1 0x80 DUP3 ADD SWAP1 POP PUSH2 0x1D9F PUSH1 0x0 DUP4 ADD DUP9 PUSH2 0x167E JUMP JUMPDEST PUSH2 0x1DAC PUSH1 0x20 DUP4 ADD DUP8 PUSH2 0x167E JUMP JUMPDEST PUSH2 0x1DB9 PUSH1 0x40 DUP4 ADD DUP7 PUSH2 0x1794 JUMP JUMPDEST DUP2 DUP2 SUB PUSH1 0x60 DUP4 ADD MSTORE PUSH2 0x1DCC DUP2 DUP5 DUP7 PUSH2 0x1D5D JUMP JUMPDEST SWAP1 POP SWAP7 SWAP6 POP POP POP POP POP POP JUMP JUMPDEST PUSH32 0x66726F6D213D6F776E6572000000000000000000000000000000000000000000 PUSH1 0x0 DUP3 ADD MSTORE POP JUMP JUMPDEST PUSH1 0x0 PUSH2 0x1E0E PUSH1 0xB DUP4 PUSH2 0x1542 JUMP JUMPDEST SWAP2 POP PUSH2 0x1E19 DUP3 PUSH2 0x1DD8 JUMP JUMPDEST PUSH1 0x20 DUP3 ADD SWAP1 POP SWAP2 SWAP1 POP JUMP JUMPDEST PUSH1 0x0 PUSH1 0x20 DUP3 ADD SWAP1 POP DUP2 DUP2 SUB PUSH1 0x0 DUP4 ADD MSTORE PUSH2 0x1E3D DUP2 PUSH2 0x1E01 JUMP JUMPDEST SWAP1 POP SWAP2 SWAP1 POP JUMP JUMPDEST PUSH32 0x7472616E7366657220746F207A65726F20616464726573730000000000000000 PUSH1 0x0 DUP3 ADD MSTORE POP JUMP JUMPDEST PUSH1 0x0 PUSH2 0x1E7A PUSH1 0x18 DUP4 PUSH2 0x1542 JUMP JUMPDEST SWAP2 POP PUSH2 0x1E85 DUP3 PUSH2 0x1E44 JUMP JUMPDEST PUSH1 0x20 DUP3 ADD SWAP1 POP SWAP2 SWAP1 POP JUMP JUMPDEST PUSH1 0x0 PUSH1 0x20 DUP3 ADD SWAP1 POP DUP2 DUP2 SUB PUSH1 0x0 DUP4 ADD MSTORE PUSH2 0x1EA9 DUP2 PUSH2 0x1E6D JUMP JUMPDEST SWAP1 POP SWAP2 SWAP1 POP JUMP JUMPDEST PUSH32 0x6D73672E73656E646572206E6F7420696E207B6F776E65722C206F7065726174 PUSH1 0x0 DUP3 ADD MSTORE PUSH32 0x6F722C20617070726F7665640000000000000000000000000000000000000000 PUSH1 0x20 DUP3 ADD MSTORE POP JUMP JUMPDEST PUSH1 0x0 PUSH2 0x1F0C PUSH1 0x2C DUP4 PUSH2 0x1542 JUMP JUMPDEST SWAP2 POP PUSH2 0x1F17 DUP3 PUSH2 0x1EB0 JUMP JUMPDEST PUSH1 0x40 DUP3 ADD SWAP1 POP SWAP2 SWAP1 POP JUMP JUMPDEST PUSH1 0x0 PUSH1 0x20 DUP3 ADD SWAP1 POP DUP2 DUP2 SUB PUSH1 0x0 DUP4 ADD MSTORE PUSH2 0x1F3B DUP2 PUSH2 0x1EFF JUMP JUMPDEST SWAP1 POP SWAP2 SWAP1 POP JUMP JUMPDEST PUSH32 0x4E487B7100000000000000000000000000000000000000000000000000000000 PUSH1 0x0 MSTORE PUSH1 0x11 PUSH1 0x4 MSTORE PUSH1 0x24 PUSH1 0x0 REVERT JUMPDEST PUSH1 0x0 PUSH2 0x1F7C DUP3 PUSH2 0x15E9 JUMP JUMPDEST SWAP2 POP PUSH1 0x0 DUP3 SUB PUSH2 0x1F8F JUMPI PUSH2 0x1F8E PUSH2 0x1F42 JUMP JUMPDEST JUMPDEST PUSH1 0x1 DUP3 SUB SWAP1 POP SWAP2 SWAP1 POP JUMP JUMPDEST PUSH1 0x0 PUSH2 0x1FA5 DUP3 PUSH2 0x15E9 JUMP JUMPDEST SWAP2 POP PUSH32 0xFFFFFFFFFFFFFFFFFFFFFFFFFFFFFFFFFFFFFFFFFFFFFFFFFFFFFFFFFFFFFFFF DUP3 SUB PUSH2 0x1FD7 JUMPI PUSH2 0x1FD6 PUSH2 0x1F42 JUMP JUMPDEST JUMPDEST PUSH1 0x1 DUP3 ADD SWAP1 POP SWAP2 SWAP1 POP JUMP JUMPDEST PUSH32 0x6D696E7420746F207A65726F2061646472657373000000000000000000000000 PUSH1 0x0 DUP3 ADD MSTORE POP JUMP JUMPDEST PUSH1 0x0 PUSH2 0x2018 PUSH1 0x14 DUP4 PUSH2 0x1542 JUMP JUMPDEST SWAP2 POP PUSH2 0x2023 DUP3 PUSH2 0x1FE2 JUMP JUMPDEST PUSH1 0x20 DUP3 ADD SWAP1 POP SWAP2 SWAP1 POP JUMP JUMPDEST PUSH1 0x0 PUSH1 0x20 DUP3 ADD SWAP1 POP DUP2 DUP2 SUB PUSH1 0x0 DUP4 ADD MSTORE PUSH2 0x2047 DUP2 PUSH2 0x200B JUMP JUMPDEST SWAP1 POP SWAP2 SWAP1 POP JUMP JUMPDEST PUSH32 0x616C7265616479206D696E746564000000000000000000000000000000000000 PUSH1 0x0 DUP3 ADD MSTORE POP JUMP JUMPDEST PUSH1 0x0 PUSH2 0x2084 PUSH1 0xE DUP4 PUSH2 0x1542 JUMP JUMPDEST SWAP2 POP PUSH2 0x208F DUP3 PUSH2 0x204E JUMP JUMPDEST PUSH1 0x20 DUP3 ADD SWAP1 POP SWAP2 SWAP1 POP JUMP JUMPDEST PUSH1 0x0 PUSH1 0x20 DUP3 ADD SWAP1 POP DUP2 DUP2 SUB PUSH1 0x0 DUP4 ADD MSTORE PUSH2 0x20B3 DUP2 PUSH2 0x2077 JUMP JUMPDEST SWAP1 POP SWAP2 SWAP1 POP JUMP INVALID LOG2 PUSH5 0x6970667358 0x22 SLT KECCAK256 0xE8 0xA6 0xCD 0xB1 PUSH23 0xEE6238CA66A053B997BB2B57E7FA30AB7CF9C0F27B8373 SHR AND 0xDC 0xEB PUSH5 0x736F6C6343 STOP ADDMOD SLT STOP CALLER "
				},
				"gasEstimates": {
					"creation": {
						"codeDepositCost": "1686400",
						"executionCost": "infinite",
						"totalCost": "infinite"
					},
					"external": {
						"approve(address,uint256)": "31493",
						"balanceOf(address)": "2943",
						"founder()": "2534",
						"getApproved(uint256)": "5182",
						"isApprovedForAll(address,address)": "infinite",
						"mintNFT(address,uint256)": "infinite",
						"name()": "infinite",
						"ownerOf(uint256)": "3001",
						"safeTransferFrom(address,address,uint256)": "infinite",
						"safeTransferFrom(address,address,uint256,bytes)": "infinite",
						"setApprovalForAll(address,bool)": "infinite",
						"supportsInterface(bytes4)": "708",
						"symbol()": "infinite",
						"transferFrom(address,address,uint256)": "infinite"
					},
					"internal": {
						"_mint(address,uint256)": "infinite",
						"_transferFrom(address,address,uint256)": "infinite"
					}
				},
				"methodIdentifiers": {
					"approve(address,uint256)": "095ea7b3",
					"balanceOf(address)": "70a08231",
					"founder()": "4d853ee5",
					"getApproved(uint256)": "081812fc",
					"isApprovedForAll(address,address)": "e985e9c5",
					"mintNFT(address,uint256)": "3c168eab",
					"name()": "06fdde03",
					"ownerOf(uint256)": "6352211e",
					"safeTransferFrom(address,address,uint256)": "42842e0e",
					"safeTransferFrom(address,address,uint256,bytes)": "b88d4fde",
					"setApprovalForAll(address,bool)": "a22cb465",
					"supportsInterface(bytes4)": "01ffc9a7",
					"symbol()": "95d89b41",
					"transferFrom(address,address,uint256)": "23b872dd"
				}
			},
			"storageLayout": {
				"storage": [
					{
						"astId": 127,
						"contract": "week12/ERC721StdToken.sol:ERC721StdNFT",
						"label": "founder",
						"offset": 0,
						"slot": "0",
						"type": "t_address"
					},
					{
						"astId": 131,
						"contract": "week12/ERC721StdToken.sol:ERC721StdNFT",
						"label": "_ownerOf",
						"offset": 0,
						"slot": "1",
						"type": "t_mapping(t_uint256,t_address)"
					},
					{
						"astId": 135,
						"contract": "week12/ERC721StdToken.sol:ERC721StdNFT",
						"label": "_balanceOf",
						"offset": 0,
						"slot": "2",
						"type": "t_mapping(t_address,t_uint256)"
					},
					{
						"astId": 139,
						"contract": "week12/ERC721StdToken.sol:ERC721StdNFT",
						"label": "_approvals",
						"offset": 0,
						"slot": "3",
						"type": "t_mapping(t_uint256,t_address)"
					},
					{
						"astId": 145,
						"contract": "week12/ERC721StdToken.sol:ERC721StdNFT",
						"label": "_operatorApprovals",
						"offset": 0,
						"slot": "4",
						"type": "t_mapping(t_address,t_mapping(t_address,t_bool))"
					},
					{
						"astId": 147,
						"contract": "week12/ERC721StdToken.sol:ERC721StdNFT",
						"label": "name",
						"offset": 0,
						"slot": "5",
						"type": "t_string_storage"
					},
					{
						"astId": 149,
						"contract": "week12/ERC721StdToken.sol:ERC721StdNFT",
						"label": "symbol",
						"offset": 0,
						"slot": "6",
						"type": "t_string_storage"
					}
				],
				"types": {
					"t_address": {
						"encoding": "inplace",
						"label": "address",
						"numberOfBytes": "20"
					},
					"t_bool": {
						"encoding": "inplace",
						"label": "bool",
						"numberOfBytes": "1"
					},
					"t_mapping(t_address,t_bool)": {
						"encoding": "mapping",
						"key": "t_address",
						"label": "mapping(address => bool)",
						"numberOfBytes": "32",
						"value": "t_bool"
					},
					"t_mapping(t_address,t_mapping(t_address,t_bool))": {
						"encoding": "mapping",
						"key": "t_address",
						"label": "mapping(address => mapping(address => bool))",
						"numberOfBytes": "32",
						"value": "t_mapping(t_address,t_bool)"
					},
					"t_mapping(t_address,t_uint256)": {
						"encoding": "mapping",
						"key": "t_address",
						"label": "mapping(address => uint256)",
						"numberOfBytes": "32",
						"value": "t_uint256"
					},
					"t_mapping(t_uint256,t_address)": {
						"encoding": "mapping",
						"key": "t_uint256",
						"label": "mapping(uint256 => address)",
						"numberOfBytes": "32",
						"value": "t_address"
					},
					"t_string_storage": {
						"encoding": "bytes",
						"label": "string",
						"numberOfBytes": "32"
					},
					"t_uint256": {
						"encoding": "inplace",
						"label": "uint256",
						"numberOfBytes": "32"
					}
				}
			},
			"userdoc": {
				"kind": "user",
				"methods": {},
				"version": 1
			}
		}
	}
}