{
	"week6/SystemLoad.sol": {
		"Load": {
			"abi": [
				{
					"inputs": [
						{
							"internalType": "address",
							"name": "_addr",
							"type": "address"
						}
					],
					"name": "boot",
					"outputs": [
						{
							"internalType": "uint256",
							"name": "",
							"type": "uint256"
						},
						{
							"internalType": "bool",
							"name": "",
							"type": "bool"
						}
					],
					"stateMutability": "nonpayable",
					"type": "function"
				},
				{
					"inputs": [
						{
							"internalType": "address",
							"name": "_addr",
							"type": "address"
						}
					],
					"name": "errorCheck",
					"outputs": [
						{
							"internalType": "bool",
							"name": "",
							"type": "bool"
						}
					],
					"stateMutability": "nonpayable",
					"type": "function"
				},
				{
					"inputs": [
						{
							"internalType": "address",
							"name": "_addr",
							"type": "address"
						}
					],
					"name": "versionCheck",
					"outputs": [
						{
							"internalType": "uint256",
							"name": "",
							"type": "uint256"
						}
					],
					"stateMutability": "nonpayable",
					"type": "function"
				}
			],
			"devdoc": {
				"kind": "dev",
				"methods": {},
				"version": 1
			},
			"evm": {
				"assembly": "    /* \"week6/SystemLoad.sol\":241:595  contract Load{... */\n  mstore(0x40, 0x80)\n  callvalue\n  dup1\n  iszero\n  tag_1\n  jumpi\n  revert(0x00, 0x00)\ntag_1:\n  pop\n  dataSize(sub_0)\n  dup1\n  dataOffset(sub_0)\n  0x00\n  codecopy\n  0x00\n  return\nstop\n\nsub_0: assembly {\n        /* \"week6/SystemLoad.sol\":241:595  contract Load{... */\n      mstore(0x40, 0x80)\n      callvalue\n      dup1\n      iszero\n      tag_1\n      jumpi\n      revert(0x00, 0x00)\n    tag_1:\n      pop\n      jumpi(tag_2, lt(calldatasize, 0x04))\n      shr(0xe0, calldataload(0x00))\n      dup1\n      0x750519e2\n      eq\n      tag_3\n      jumpi\n      dup1\n      0x89cc92e9\n      eq\n      tag_4\n      jumpi\n      dup1\n      0xa0697a8b\n      eq\n      tag_5\n      jumpi\n    tag_2:\n      revert(0x00, 0x00)\n        /* \"week6/SystemLoad.sol\":378:485  function errorCheck(address _addr) public returns(bool){... */\n    tag_3:\n      tag_6\n      0x04\n      dup1\n      calldatasize\n      sub\n      dup2\n      add\n      swap1\n      tag_7\n      swap2\n      swap1\n      tag_8\n      jump\t// in\n    tag_7:\n      tag_9\n      jump\t// in\n    tag_6:\n      mload(0x40)\n      tag_10\n      swap2\n      swap1\n      tag_11\n      jump\t// in\n    tag_10:\n      mload(0x40)\n      dup1\n      swap2\n      sub\n      swap1\n      return\n        /* \"week6/SystemLoad.sol\":491:592  function boot(address _addr) public returns(uint, bool){... */\n    tag_4:\n      tag_12\n      0x04\n      dup1\n      calldatasize\n      sub\n      dup2\n      add\n      swap1\n      tag_13\n      swap2\n      swap1\n      tag_8\n      jump\t// in\n    tag_13:\n      tag_14\n      jump\t// in\n    tag_12:\n      mload(0x40)\n      tag_15\n      swap3\n      swap2\n      swap1\n      tag_16\n      jump\t// in\n    tag_15:\n      mload(0x40)\n      dup1\n      swap2\n      sub\n      swap1\n      return\n        /* \"week6/SystemLoad.sol\":261:372  function versionCheck(address _addr) public returns(uint){... */\n    tag_5:\n      tag_17\n      0x04\n      dup1\n      calldatasize\n      sub\n      dup2\n      add\n      swap1\n      tag_18\n      swap2\n      swap1\n      tag_8\n      jump\t// in\n    tag_18:\n      tag_19\n      jump\t// in\n    tag_17:\n      mload(0x40)\n      tag_20\n      swap2\n      swap1\n      tag_21\n      jump\t// in\n    tag_20:\n      mload(0x40)\n      dup1\n      swap2\n      sub\n      swap1\n      return\n        /* \"week6/SystemLoad.sol\":378:485  function errorCheck(address _addr) public returns(bool){... */\n    tag_9:\n        /* \"week6/SystemLoad.sol\":428:432  bool */\n      0x00\n        /* \"week6/SystemLoad.sol\":458:463  _addr */\n      dup2\n        /* \"week6/SystemLoad.sol\":451:475  System(_addr).errorCheck */\n      0xffffffffffffffffffffffffffffffffffffffff\n      and\n      0xaddd133c\n        /* \"week6/SystemLoad.sol\":451:477  System(_addr).errorCheck() */\n      mload(0x40)\n      dup2\n      0xffffffff\n      and\n      0xe0\n      shl\n      dup2\n      mstore\n      0x04\n      add\n      0x20\n      mload(0x40)\n      dup1\n      dup4\n      sub\n      dup2\n      0x00\n      dup8\n      gas\n      call\n      iszero\n      dup1\n      iszero\n      tag_24\n      jumpi\n      returndatacopy(0x00, 0x00, returndatasize)\n      revert(0x00, returndatasize)\n    tag_24:\n      pop\n      pop\n      pop\n      pop\n      mload(0x40)\n      returndatasize\n      not(0x1f)\n      0x1f\n      dup3\n      add\n      and\n      dup3\n      add\n      dup1\n      0x40\n      mstore\n      pop\n      dup2\n      add\n      swap1\n      tag_25\n      swap2\n      swap1\n      tag_26\n      jump\t// in\n    tag_25:\n        /* \"week6/SystemLoad.sol\":444:477  return System(_addr).errorCheck() */\n      swap1\n      pop\n        /* \"week6/SystemLoad.sol\":378:485  function errorCheck(address _addr) public returns(bool){... */\n      swap2\n      swap1\n      pop\n      jump\t// out\n        /* \"week6/SystemLoad.sol\":491:592  function boot(address _addr) public returns(uint, bool){... */\n    tag_14:\n        /* \"week6/SystemLoad.sol\":535:539  uint */\n      0x00\n        /* \"week6/SystemLoad.sol\":541:545  bool */\n      0x00\n        /* \"week6/SystemLoad.sol\":571:576  _addr */\n      dup3\n        /* \"week6/SystemLoad.sol\":564:582  System(_addr).boot */\n      0xffffffffffffffffffffffffffffffffffffffff\n      and\n      0x54d44bf7\n        /* \"week6/SystemLoad.sol\":564:584  System(_addr).boot() */\n      mload(0x40)\n      dup2\n      0xffffffff\n      and\n      0xe0\n      shl\n      dup2\n      mstore\n      0x04\n      add\n      0x40\n      dup1\n      mload\n      dup1\n      dup4\n      sub\n      dup2\n      0x00\n      dup8\n      gas\n      call\n      iszero\n      dup1\n      iszero\n      tag_29\n      jumpi\n      returndatacopy(0x00, 0x00, returndatasize)\n      revert(0x00, returndatasize)\n    tag_29:\n      pop\n      pop\n      pop\n      pop\n      mload(0x40)\n      returndatasize\n      not(0x1f)\n      0x1f\n      dup3\n      add\n      and\n      dup3\n      add\n      dup1\n      0x40\n      mstore\n      pop\n      dup2\n      add\n      swap1\n      tag_30\n      swap2\n      swap1\n      tag_31\n      jump\t// in\n    tag_30:\n        /* \"week6/SystemLoad.sol\":557:584  return System(_addr).boot() */\n      swap2\n      pop\n      swap2\n      pop\n        /* \"week6/SystemLoad.sol\":491:592  function boot(address _addr) public returns(uint, bool){... */\n      swap2\n      pop\n      swap2\n      jump\t// out\n        /* \"week6/SystemLoad.sol\":261:372  function versionCheck(address _addr) public returns(uint){... */\n    tag_19:\n        /* \"week6/SystemLoad.sol\":313:317  uint */\n      0x00\n        /* \"week6/SystemLoad.sol\":343:348  _addr */\n      dup2\n        /* \"week6/SystemLoad.sol\":336:362  System(_addr).versionCheck */\n      0xffffffffffffffffffffffffffffffffffffffff\n      and\n      0x783c2501\n        /* \"week6/SystemLoad.sol\":336:364  System(_addr).versionCheck() */\n      mload(0x40)\n      dup2\n      0xffffffff\n      and\n      0xe0\n      shl\n      dup2\n      mstore\n      0x04\n      add\n      0x20\n      mload(0x40)\n      dup1\n      dup4\n      sub\n      dup2\n      0x00\n      dup8\n      gas\n      call\n      iszero\n      dup1\n      iszero\n      tag_34\n      jumpi\n      returndatacopy(0x00, 0x00, returndatasize)\n      revert(0x00, returndatasize)\n    tag_34:\n      pop\n      pop\n      pop\n      pop\n      mload(0x40)\n      returndatasize\n      not(0x1f)\n      0x1f\n      dup3\n      add\n      and\n      dup3\n      add\n      dup1\n      0x40\n      mstore\n      pop\n      dup2\n      add\n      swap1\n      tag_35\n      swap2\n      swap1\n      tag_36\n      jump\t// in\n    tag_35:\n        /* \"week6/SystemLoad.sol\":329:364  return System(_addr).versionCheck() */\n      swap1\n      pop\n        /* \"week6/SystemLoad.sol\":261:372  function versionCheck(address _addr) public returns(uint){... */\n      swap2\n      swap1\n      pop\n      jump\t// out\n        /* \"#utility.yul\":88:205   */\n    tag_38:\n        /* \"#utility.yul\":197:198   */\n      0x00\n        /* \"#utility.yul\":194:195   */\n      0x00\n        /* \"#utility.yul\":187:199   */\n      revert\n        /* \"#utility.yul\":334:460   */\n    tag_40:\n        /* \"#utility.yul\":371:378   */\n      0x00\n        /* \"#utility.yul\":411:453   */\n      0xffffffffffffffffffffffffffffffffffffffff\n        /* \"#utility.yul\":404:409   */\n      dup3\n        /* \"#utility.yul\":400:454   */\n      and\n        /* \"#utility.yul\":389:454   */\n      swap1\n      pop\n        /* \"#utility.yul\":334:460   */\n      swap2\n      swap1\n      pop\n      jump\t// out\n        /* \"#utility.yul\":466:562   */\n    tag_41:\n        /* \"#utility.yul\":503:510   */\n      0x00\n        /* \"#utility.yul\":532:556   */\n      tag_58\n        /* \"#utility.yul\":550:555   */\n      dup3\n        /* \"#utility.yul\":532:556   */\n      tag_40\n      jump\t// in\n    tag_58:\n        /* \"#utility.yul\":521:556   */\n      swap1\n      pop\n        /* \"#utility.yul\":466:562   */\n      swap2\n      swap1\n      pop\n      jump\t// out\n        /* \"#utility.yul\":568:690   */\n    tag_42:\n        /* \"#utility.yul\":641:665   */\n      tag_60\n        /* \"#utility.yul\":659:664   */\n      dup2\n        /* \"#utility.yul\":641:665   */\n      tag_41\n      jump\t// in\n    tag_60:\n        /* \"#utility.yul\":634:639   */\n      dup2\n        /* \"#utility.yul\":631:666   */\n      eq\n        /* \"#utility.yul\":621:684   */\n      tag_61\n      jumpi\n        /* \"#utility.yul\":680:681   */\n      0x00\n        /* \"#utility.yul\":677:678   */\n      0x00\n        /* \"#utility.yul\":670:682   */\n      revert\n        /* \"#utility.yul\":621:684   */\n    tag_61:\n        /* \"#utility.yul\":568:690   */\n      pop\n      jump\t// out\n        /* \"#utility.yul\":696:835   */\n    tag_43:\n        /* \"#utility.yul\":742:747   */\n      0x00\n        /* \"#utility.yul\":780:786   */\n      dup2\n        /* \"#utility.yul\":767:787   */\n      calldataload\n        /* \"#utility.yul\":758:787   */\n      swap1\n      pop\n        /* \"#utility.yul\":796:829   */\n      tag_63\n        /* \"#utility.yul\":823:828   */\n      dup2\n        /* \"#utility.yul\":796:829   */\n      tag_42\n      jump\t// in\n    tag_63:\n        /* \"#utility.yul\":696:835   */\n      swap3\n      swap2\n      pop\n      pop\n      jump\t// out\n        /* \"#utility.yul\":841:1170   */\n    tag_8:\n        /* \"#utility.yul\":900:906   */\n      0x00\n        /* \"#utility.yul\":949:951   */\n      0x20\n        /* \"#utility.yul\":937:946   */\n      dup3\n        /* \"#utility.yul\":928:935   */\n      dup5\n        /* \"#utility.yul\":924:947   */\n      sub\n        /* \"#utility.yul\":920:952   */\n      slt\n        /* \"#utility.yul\":917:1036   */\n      iszero\n      tag_65\n      jumpi\n        /* \"#utility.yul\":955:1034   */\n      tag_66\n      tag_38\n      jump\t// in\n    tag_66:\n        /* \"#utility.yul\":917:1036   */\n    tag_65:\n        /* \"#utility.yul\":1075:1076   */\n      0x00\n        /* \"#utility.yul\":1100:1153   */\n      tag_67\n        /* \"#utility.yul\":1145:1152   */\n      dup5\n        /* \"#utility.yul\":1136:1142   */\n      dup3\n        /* \"#utility.yul\":1125:1134   */\n      dup6\n        /* \"#utility.yul\":1121:1143   */\n      add\n        /* \"#utility.yul\":1100:1153   */\n      tag_43\n      jump\t// in\n    tag_67:\n        /* \"#utility.yul\":1090:1153   */\n      swap2\n      pop\n        /* \"#utility.yul\":1046:1163   */\n      pop\n        /* \"#utility.yul\":841:1170   */\n      swap3\n      swap2\n      pop\n      pop\n      jump\t// out\n        /* \"#utility.yul\":1176:1266   */\n    tag_44:\n        /* \"#utility.yul\":1210:1217   */\n      0x00\n        /* \"#utility.yul\":1253:1258   */\n      dup2\n        /* \"#utility.yul\":1246:1259   */\n      iszero\n        /* \"#utility.yul\":1239:1260   */\n      iszero\n        /* \"#utility.yul\":1228:1260   */\n      swap1\n      pop\n        /* \"#utility.yul\":1176:1266   */\n      swap2\n      swap1\n      pop\n      jump\t// out\n        /* \"#utility.yul\":1272:1381   */\n    tag_45:\n        /* \"#utility.yul\":1353:1374   */\n      tag_70\n        /* \"#utility.yul\":1368:1373   */\n      dup2\n        /* \"#utility.yul\":1353:1374   */\n      tag_44\n      jump\t// in\n    tag_70:\n        /* \"#utility.yul\":1348:1351   */\n      dup3\n        /* \"#utility.yul\":1341:1375   */\n      mstore\n        /* \"#utility.yul\":1272:1381   */\n      pop\n      pop\n      jump\t// out\n        /* \"#utility.yul\":1387:1597   */\n    tag_11:\n        /* \"#utility.yul\":1474:1478   */\n      0x00\n        /* \"#utility.yul\":1512:1514   */\n      0x20\n        /* \"#utility.yul\":1501:1510   */\n      dup3\n        /* \"#utility.yul\":1497:1515   */\n      add\n        /* \"#utility.yul\":1489:1515   */\n      swap1\n      pop\n        /* \"#utility.yul\":1525:1590   */\n      tag_72\n        /* \"#utility.yul\":1587:1588   */\n      0x00\n        /* \"#utility.yul\":1576:1585   */\n      dup4\n        /* \"#utility.yul\":1572:1589   */\n      add\n        /* \"#utility.yul\":1563:1569   */\n      dup5\n        /* \"#utility.yul\":1525:1590   */\n      tag_45\n      jump\t// in\n    tag_72:\n        /* \"#utility.yul\":1387:1597   */\n      swap3\n      swap2\n      pop\n      pop\n      jump\t// out\n        /* \"#utility.yul\":1603:1680   */\n    tag_46:\n        /* \"#utility.yul\":1640:1647   */\n      0x00\n        /* \"#utility.yul\":1669:1674   */\n      dup2\n        /* \"#utility.yul\":1658:1674   */\n      swap1\n      pop\n        /* \"#utility.yul\":1603:1680   */\n      swap2\n      swap1\n      pop\n      jump\t// out\n        /* \"#utility.yul\":1686:1804   */\n    tag_47:\n        /* \"#utility.yul\":1773:1797   */\n      tag_75\n        /* \"#utility.yul\":1791:1796   */\n      dup2\n        /* \"#utility.yul\":1773:1797   */\n      tag_46\n      jump\t// in\n    tag_75:\n        /* \"#utility.yul\":1768:1771   */\n      dup3\n        /* \"#utility.yul\":1761:1798   */\n      mstore\n        /* \"#utility.yul\":1686:1804   */\n      pop\n      pop\n      jump\t// out\n        /* \"#utility.yul\":1810:2130   */\n    tag_16:\n        /* \"#utility.yul\":1925:1929   */\n      0x00\n        /* \"#utility.yul\":1963:1965   */\n      0x40\n        /* \"#utility.yul\":1952:1961   */\n      dup3\n        /* \"#utility.yul\":1948:1966   */\n      add\n        /* \"#utility.yul\":1940:1966   */\n      swap1\n      pop\n        /* \"#utility.yul\":1976:2047   */\n      tag_77\n        /* \"#utility.yul\":2044:2045   */\n      0x00\n        /* \"#utility.yul\":2033:2042   */\n      dup4\n        /* \"#utility.yul\":2029:2046   */\n      add\n        /* \"#utility.yul\":2020:2026   */\n      dup6\n        /* \"#utility.yul\":1976:2047   */\n      tag_47\n      jump\t// in\n    tag_77:\n        /* \"#utility.yul\":2057:2123   */\n      tag_78\n        /* \"#utility.yul\":2119:2121   */\n      0x20\n        /* \"#utility.yul\":2108:2117   */\n      dup4\n        /* \"#utility.yul\":2104:2122   */\n      add\n        /* \"#utility.yul\":2095:2101   */\n      dup5\n        /* \"#utility.yul\":2057:2123   */\n      tag_45\n      jump\t// in\n    tag_78:\n        /* \"#utility.yul\":1810:2130   */\n      swap4\n      swap3\n      pop\n      pop\n      pop\n      jump\t// out\n        /* \"#utility.yul\":2136:2358   */\n    tag_21:\n        /* \"#utility.yul\":2229:2233   */\n      0x00\n        /* \"#utility.yul\":2267:2269   */\n      0x20\n        /* \"#utility.yul\":2256:2265   */\n      dup3\n        /* \"#utility.yul\":2252:2270   */\n      add\n        /* \"#utility.yul\":2244:2270   */\n      swap1\n      pop\n        /* \"#utility.yul\":2280:2351   */\n      tag_80\n        /* \"#utility.yul\":2348:2349   */\n      0x00\n        /* \"#utility.yul\":2337:2346   */\n      dup4\n        /* \"#utility.yul\":2333:2350   */\n      add\n        /* \"#utility.yul\":2324:2330   */\n      dup5\n        /* \"#utility.yul\":2280:2351   */\n      tag_47\n      jump\t// in\n    tag_80:\n        /* \"#utility.yul\":2136:2358   */\n      swap3\n      swap2\n      pop\n      pop\n      jump\t// out\n        /* \"#utility.yul\":2364:2480   */\n    tag_48:\n        /* \"#utility.yul\":2434:2455   */\n      tag_82\n        /* \"#utility.yul\":2449:2454   */\n      dup2\n        /* \"#utility.yul\":2434:2455   */\n      tag_44\n      jump\t// in\n    tag_82:\n        /* \"#utility.yul\":2427:2432   */\n      dup2\n        /* \"#utility.yul\":2424:2456   */\n      eq\n        /* \"#utility.yul\":2414:2474   */\n      tag_83\n      jumpi\n        /* \"#utility.yul\":2470:2471   */\n      0x00\n        /* \"#utility.yul\":2467:2468   */\n      0x00\n        /* \"#utility.yul\":2460:2472   */\n      revert\n        /* \"#utility.yul\":2414:2474   */\n    tag_83:\n        /* \"#utility.yul\":2364:2480   */\n      pop\n      jump\t// out\n        /* \"#utility.yul\":2486:2623   */\n    tag_49:\n        /* \"#utility.yul\":2540:2545   */\n      0x00\n        /* \"#utility.yul\":2571:2577   */\n      dup2\n        /* \"#utility.yul\":2565:2578   */\n      mload\n        /* \"#utility.yul\":2556:2578   */\n      swap1\n      pop\n        /* \"#utility.yul\":2587:2617   */\n      tag_85\n        /* \"#utility.yul\":2611:2616   */\n      dup2\n        /* \"#utility.yul\":2587:2617   */\n      tag_48\n      jump\t// in\n    tag_85:\n        /* \"#utility.yul\":2486:2623   */\n      swap3\n      swap2\n      pop\n      pop\n      jump\t// out\n        /* \"#utility.yul\":2629:2974   */\n    tag_26:\n        /* \"#utility.yul\":2696:2702   */\n      0x00\n        /* \"#utility.yul\":2745:2747   */\n      0x20\n        /* \"#utility.yul\":2733:2742   */\n      dup3\n        /* \"#utility.yul\":2724:2731   */\n      dup5\n        /* \"#utility.yul\":2720:2743   */\n      sub\n        /* \"#utility.yul\":2716:2748   */\n      slt\n        /* \"#utility.yul\":2713:2832   */\n      iszero\n      tag_87\n      jumpi\n        /* \"#utility.yul\":2751:2830   */\n      tag_88\n      tag_38\n      jump\t// in\n    tag_88:\n        /* \"#utility.yul\":2713:2832   */\n    tag_87:\n        /* \"#utility.yul\":2871:2872   */\n      0x00\n        /* \"#utility.yul\":2896:2957   */\n      tag_89\n        /* \"#utility.yul\":2949:2956   */\n      dup5\n        /* \"#utility.yul\":2940:2946   */\n      dup3\n        /* \"#utility.yul\":2929:2938   */\n      dup6\n        /* \"#utility.yul\":2925:2947   */\n      add\n        /* \"#utility.yul\":2896:2957   */\n      tag_49\n      jump\t// in\n    tag_89:\n        /* \"#utility.yul\":2886:2957   */\n      swap2\n      pop\n        /* \"#utility.yul\":2842:2967   */\n      pop\n        /* \"#utility.yul\":2629:2974   */\n      swap3\n      swap2\n      pop\n      pop\n      jump\t// out\n        /* \"#utility.yul\":2980:3102   */\n    tag_50:\n        /* \"#utility.yul\":3053:3077   */\n      tag_91\n        /* \"#utility.yul\":3071:3076   */\n      dup2\n        /* \"#utility.yul\":3053:3077   */\n      tag_46\n      jump\t// in\n    tag_91:\n        /* \"#utility.yul\":3046:3051   */\n      dup2\n        /* \"#utility.yul\":3043:3078   */\n      eq\n        /* \"#utility.yul\":3033:3096   */\n      tag_92\n      jumpi\n        /* \"#utility.yul\":3092:3093   */\n      0x00\n        /* \"#utility.yul\":3089:3090   */\n      0x00\n        /* \"#utility.yul\":3082:3094   */\n      revert\n        /* \"#utility.yul\":3033:3096   */\n    tag_92:\n        /* \"#utility.yul\":2980:3102   */\n      pop\n      jump\t// out\n        /* \"#utility.yul\":3108:3251   */\n    tag_51:\n        /* \"#utility.yul\":3165:3170   */\n      0x00\n        /* \"#utility.yul\":3196:3202   */\n      dup2\n        /* \"#utility.yul\":3190:3203   */\n      mload\n        /* \"#utility.yul\":3181:3203   */\n      swap1\n      pop\n        /* \"#utility.yul\":3212:3245   */\n      tag_94\n        /* \"#utility.yul\":3239:3244   */\n      dup2\n        /* \"#utility.yul\":3212:3245   */\n      tag_50\n      jump\t// in\n    tag_94:\n        /* \"#utility.yul\":3108:3251   */\n      swap3\n      swap2\n      pop\n      pop\n      jump\t// out\n        /* \"#utility.yul\":3257:3758   */\n    tag_31:\n        /* \"#utility.yul\":3333:3339   */\n      0x00\n        /* \"#utility.yul\":3341:3347   */\n      0x00\n        /* \"#utility.yul\":3390:3392   */\n      0x40\n        /* \"#utility.yul\":3378:3387   */\n      dup4\n        /* \"#utility.yul\":3369:3376   */\n      dup6\n        /* \"#utility.yul\":3365:3388   */\n      sub\n        /* \"#utility.yul\":3361:3393   */\n      slt\n        /* \"#utility.yul\":3358:3477   */\n      iszero\n      tag_96\n      jumpi\n        /* \"#utility.yul\":3396:3475   */\n      tag_97\n      tag_38\n      jump\t// in\n    tag_97:\n        /* \"#utility.yul\":3358:3477   */\n    tag_96:\n        /* \"#utility.yul\":3516:3517   */\n      0x00\n        /* \"#utility.yul\":3541:3605   */\n      tag_98\n        /* \"#utility.yul\":3597:3604   */\n      dup6\n        /* \"#utility.yul\":3588:3594   */\n      dup3\n        /* \"#utility.yul\":3577:3586   */\n      dup7\n        /* \"#utility.yul\":3573:3595   */\n      add\n        /* \"#utility.yul\":3541:3605   */\n      tag_51\n      jump\t// in\n    tag_98:\n        /* \"#utility.yul\":3531:3605   */\n      swap3\n      pop\n        /* \"#utility.yul\":3487:3615   */\n      pop\n        /* \"#utility.yul\":3654:3656   */\n      0x20\n        /* \"#utility.yul\":3680:3741   */\n      tag_99\n        /* \"#utility.yul\":3733:3740   */\n      dup6\n        /* \"#utility.yul\":3724:3730   */\n      dup3\n        /* \"#utility.yul\":3713:3722   */\n      dup7\n        /* \"#utility.yul\":3709:3731   */\n      add\n        /* \"#utility.yul\":3680:3741   */\n      tag_49\n      jump\t// in\n    tag_99:\n        /* \"#utility.yul\":3670:3741   */\n      swap2\n      pop\n        /* \"#utility.yul\":3625:3751   */\n      pop\n        /* \"#utility.yul\":3257:3758   */\n      swap3\n      pop\n      swap3\n      swap1\n      pop\n      jump\t// out\n        /* \"#utility.yul\":3764:4115   */\n    tag_36:\n        /* \"#utility.yul\":3834:3840   */\n      0x00\n        /* \"#utility.yul\":3883:3885   */\n      0x20\n        /* \"#utility.yul\":3871:3880   */\n      dup3\n        /* \"#utility.yul\":3862:3869   */\n      dup5\n        /* \"#utility.yul\":3858:3881   */\n      sub\n        /* \"#utility.yul\":3854:3886   */\n      slt\n        /* \"#utility.yul\":3851:3970   */\n      iszero\n      tag_101\n      jumpi\n        /* \"#utility.yul\":3889:3968   */\n      tag_102\n      tag_38\n      jump\t// in\n    tag_102:\n        /* \"#utility.yul\":3851:3970   */\n    tag_101:\n        /* \"#utility.yul\":4009:4010   */\n      0x00\n        /* \"#utility.yul\":4034:4098   */\n      tag_103\n        /* \"#utility.yul\":4090:4097   */\n      dup5\n        /* \"#utility.yul\":4081:4087   */\n      dup3\n        /* \"#utility.yul\":4070:4079   */\n      dup6\n        /* \"#utility.yul\":4066:4088   */\n      add\n        /* \"#utility.yul\":4034:4098   */\n      tag_51\n      jump\t// in\n    tag_103:\n        /* \"#utility.yul\":4024:4098   */\n      swap2\n      pop\n        /* \"#utility.yul\":3980:4108   */\n      pop\n        /* \"#utility.yul\":3764:4115   */\n      swap3\n      swap2\n      pop\n      pop\n      jump\t// out\n\n    auxdata: 0xa2646970667358221220041081e461230d8b3f189c5b7b8f210199407811ebae67ecac5f4f98e2fa58a964736f6c634300081e0033\n}\n",
				"bytecode": {
					"linkReferences": {},
					"object": "6080604052348015600e575f5ffd5b5061046a8061001c5f395ff3fe608060405234801561000f575f5ffd5b506004361061003f575f3560e01c8063750519e21461004357806389cc92e914610073578063a0697a8b146100a4575b5f5ffd5b61005d60048036038101906100589190610296565b6100d4565b60405161006a91906102db565b60405180910390f35b61008d60048036038101906100889190610296565b61014a565b60405161009b92919061030c565b60405180910390f35b6100be60048036038101906100b99190610296565b6101c2565b6040516100cb9190610333565b60405180910390f35b5f8173ffffffffffffffffffffffffffffffffffffffff1663addd133c6040518163ffffffff1660e01b81526004016020604051808303815f875af115801561011f573d5f5f3e3d5ffd5b505050506040513d601f19601f820116820180604052508101906101439190610376565b9050919050565b5f5f8273ffffffffffffffffffffffffffffffffffffffff166354d44bf76040518163ffffffff1660e01b815260040160408051808303815f875af1158015610195573d5f5f3e3d5ffd5b505050506040513d601f19601f820116820180604052508101906101b991906103cb565b91509150915091565b5f8173ffffffffffffffffffffffffffffffffffffffff1663783c25016040518163ffffffff1660e01b81526004016020604051808303815f875af115801561020d573d5f5f3e3d5ffd5b505050506040513d601f19601f820116820180604052508101906102319190610409565b9050919050565b5f5ffd5b5f73ffffffffffffffffffffffffffffffffffffffff82169050919050565b5f6102658261023c565b9050919050565b6102758161025b565b811461027f575f5ffd5b50565b5f813590506102908161026c565b92915050565b5f602082840312156102ab576102aa610238565b5b5f6102b884828501610282565b91505092915050565b5f8115159050919050565b6102d5816102c1565b82525050565b5f6020820190506102ee5f8301846102cc565b92915050565b5f819050919050565b610306816102f4565b82525050565b5f60408201905061031f5f8301856102fd565b61032c60208301846102cc565b9392505050565b5f6020820190506103465f8301846102fd565b92915050565b610355816102c1565b811461035f575f5ffd5b50565b5f815190506103708161034c565b92915050565b5f6020828403121561038b5761038a610238565b5b5f61039884828501610362565b91505092915050565b6103aa816102f4565b81146103b4575f5ffd5b50565b5f815190506103c5816103a1565b92915050565b5f5f604083850312156103e1576103e0610238565b5b5f6103ee858286016103b7565b92505060206103ff85828601610362565b9150509250929050565b5f6020828403121561041e5761041d610238565b5b5f61042b848285016103b7565b9150509291505056fea2646970667358221220041081e461230d8b3f189c5b7b8f210199407811ebae67ecac5f4f98e2fa58a964736f6c634300081e0033",
					"opcodes": "PUSH1 0x80 PUSH1 0x40 MSTORE CALLVALUE DUP1 ISZERO PUSH1 0xE JUMPI PUSH0 PUSH0 REVERT JUMPDEST POP PUSH2 0x46A DUP1 PUSH2 0x1C PUSH0 CODECOPY PUSH0 RETURN INVALID PUSH1 0x80 PUSH1 0x40 MSTORE CALLVALUE DUP1 ISZERO PUSH2 0xF JUMPI PUSH0 PUSH0 REVERT JUMPDEST POP PUSH1 0x4 CALLDATASIZE LT PUSH2 0x3F JUMPI PUSH0 CALLDATALOAD PUSH1 0xE0 SHR DUP1 PUSH4 0x750519E2 EQ PUSH2 0x43 JUMPI DUP1 PUSH4 0x89CC92E9 EQ PUSH2 0x73 JUMPI DUP1 PUSH4 0xA0697A8B EQ PUSH2 0xA4 JUMPI JUMPDEST PUSH0 PUSH0 REVERT JUMPDEST PUSH2 0x5D PUSH1 0x4 DUP1 CALLDATASIZE SUB DUP2 ADD SWAP1 PUSH2 0x58 SWAP2 SWAP1 PUSH2 0x296 JUMP JUMPDEST PUSH2 0xD4 JUMP JUMPDEST PUSH1 0x40 MLOAD PUSH2 0x6A SWAP2 SWAP1 PUSH2 0x2DB JUMP JUMPDEST PUSH1 0x40 MLOAD DUP1 SWAP2 SUB SWAP1 RETURN JUMPDEST PUSH2 0x8D PUSH1 0x4 DUP1 CALLDATASIZE SUB DUP2 ADD SWAP1 PUSH2 0x88 SWAP2 SWAP1 PUSH2 0x296 JUMP JUMPDEST PUSH2 0x14A JUMP JUMPDEST PUSH1 0x40 MLOAD PUSH2 0x9B SWAP3 SWAP2 SWAP1 PUSH2 0x30C JUMP JUMPDEST PUSH1 0x40 MLOAD DUP1 SWAP2 SUB SWAP1 RETURN JUMPDEST PUSH2 0xBE PUSH1 0x4 DUP1 CALLDATASIZE SUB DUP2 ADD SWAP1 PUSH2 0xB9 SWAP2 SWAP1 PUSH2 0x296 JUMP JUMPDEST PUSH2 0x1C2 JUMP JUMPDEST PUSH1 0x40 MLOAD PUSH2 0xCB SWAP2 SWAP1 PUSH2 0x333 JUMP JUMPDEST PUSH1 0x40 MLOAD DUP1 SWAP2 SUB SWAP1 RETURN JUMPDEST PUSH0 DUP2 PUSH20 0xFFFFFFFFFFFFFFFFFFFFFFFFFFFFFFFFFFFFFFFF AND PUSH4 0xADDD133C PUSH1 0x40 MLOAD DUP2 PUSH4 0xFFFFFFFF AND PUSH1 0xE0 SHL DUP2 MSTORE PUSH1 0x4 ADD PUSH1 0x20 PUSH1 0x40 MLOAD DUP1 DUP4 SUB DUP2 PUSH0 DUP8 GAS CALL ISZERO DUP1 ISZERO PUSH2 0x11F JUMPI RETURNDATASIZE PUSH0 PUSH0 RETURNDATACOPY RETURNDATASIZE PUSH0 REVERT JUMPDEST POP POP POP POP PUSH1 0x40 MLOAD RETURNDATASIZE PUSH1 0x1F NOT PUSH1 0x1F DUP3 ADD AND DUP3 ADD DUP1 PUSH1 0x40 MSTORE POP DUP2 ADD SWAP1 PUSH2 0x143 SWAP2 SWAP1 PUSH2 0x376 JUMP JUMPDEST SWAP1 POP SWAP2 SWAP1 POP JUMP JUMPDEST PUSH0 PUSH0 DUP3 PUSH20 0xFFFFFFFFFFFFFFFFFFFFFFFFFFFFFFFFFFFFFFFF AND PUSH4 0x54D44BF7 PUSH1 0x40 MLOAD DUP2 PUSH4 0xFFFFFFFF AND PUSH1 0xE0 SHL DUP2 MSTORE PUSH1 0x4 ADD PUSH1 0x40 DUP1 MLOAD DUP1 DUP4 SUB DUP2 PUSH0 DUP8 GAS CALL ISZERO DUP1 ISZERO PUSH2 0x195 JUMPI RETURNDATASIZE PUSH0 PUSH0 RETURNDATACOPY RETURNDATASIZE PUSH0 REVERT JUMPDEST POP POP POP POP PUSH1 0x40 MLOAD RETURNDATASIZE PUSH1 0x1F NOT PUSH1 0x1F DUP3 ADD AND DUP3 ADD DUP1 PUSH1 0x40 MSTORE POP DUP2 ADD SWAP1 PUSH2 0x1B9 SWAP2 SWAP1 PUSH2 0x3CB JUMP JUMPDEST SWAP2 POP SWAP2 POP SWAP2 POP SWAP2 JUMP JUMPDEST PUSH0 DUP2 PUSH20 0xFFFFFFFFFFFFFFFFFFFFFFFFFFFFFFFFFFFFFFFF AND PUSH4 0x783C2501 PUSH1 0x40 MLOAD DUP2 PUSH4 0xFFFFFFFF AND PUSH1 0xE0 SHL DUP2 MSTORE PUSH1 0x4 ADD PUSH1 0x20 PUSH1 0x40 MLOAD DUP1 DUP4 SUB DUP2 PUSH0 DUP8 GAS CALL ISZERO DUP1 ISZERO PUSH2 0x20D JUMPI RETURNDATASIZE PUSH0 PUSH0 RETURNDATACOPY RETURNDATASIZE PUSH0 REVERT JUMPDEST POP POP POP POP PUSH1 0x40 MLOAD RETURNDATASIZE PUSH1 0x1F NOT PUSH1 0x1F DUP3 ADD AND DUP3 ADD DUP1 PUSH1 0x40 MSTORE POP DUP2 ADD SWAP1 PUSH2 0x231 SWAP2 SWAP1 PUSH2 0x409 JUMP JUMPDEST SWAP1 POP SWAP2 SWAP1 POP JUMP JUMPDEST PUSH0 PUSH0 REVERT JUMPDEST PUSH0 PUSH20 0xFFFFFFFFFFFFFFFFFFFFFFFFFFFFFFFFFFFFFFFF DUP3 AND SWAP1 POP SWAP2 SWAP1 POP JUMP JUMPDEST PUSH0 PUSH2 0x265 DUP3 PUSH2 0x23C JUMP JUMPDEST SWAP1 POP SWAP2 SWAP1 POP JUMP JUMPDEST PUSH2 0x275 DUP2 PUSH2 0x25B JUMP JUMPDEST DUP2 EQ PUSH2 0x27F JUMPI PUSH0 PUSH0 REVERT JUMPDEST POP JUMP JUMPDEST PUSH0 DUP2 CALLDATALOAD SWAP1 POP PUSH2 0x290 DUP2 PUSH2 0x26C JUMP JUMPDEST SWAP3 SWAP2 POP POP JUMP JUMPDEST PUSH0 PUSH1 0x20 DUP3 DUP5 SUB SLT ISZERO PUSH2 0x2AB JUMPI PUSH2 0x2AA PUSH2 0x238 JUMP JUMPDEST JUMPDEST PUSH0 PUSH2 0x2B8 DUP5 DUP3 DUP6 ADD PUSH2 0x282 JUMP JUMPDEST SWAP2 POP POP SWAP3 SWAP2 POP POP JUMP JUMPDEST PUSH0 DUP2 ISZERO ISZERO SWAP1 POP SWAP2 SWAP1 POP JUMP JUMPDEST PUSH2 0x2D5 DUP2 PUSH2 0x2C1 JUMP JUMPDEST DUP3 MSTORE POP POP JUMP JUMPDEST PUSH0 PUSH1 0x20 DUP3 ADD SWAP1 POP PUSH2 0x2EE PUSH0 DUP4 ADD DUP5 PUSH2 0x2CC JUMP JUMPDEST SWAP3 SWAP2 POP POP JUMP JUMPDEST PUSH0 DUP2 SWAP1 POP SWAP2 SWAP1 POP JUMP JUMPDEST PUSH2 0x306 DUP2 PUSH2 0x2F4 JUMP JUMPDEST DUP3 MSTORE POP POP JUMP JUMPDEST PUSH0 PUSH1 0x40 DUP3 ADD SWAP1 POP PUSH2 0x31F PUSH0 DUP4 ADD DUP6 PUSH2 0x2FD JUMP JUMPDEST PUSH2 0x32C PUSH1 0x20 DUP4 ADD DUP5 PUSH2 0x2CC JUMP JUMPDEST SWAP4 SWAP3 POP POP POP JUMP JUMPDEST PUSH0 PUSH1 0x20 DUP3 ADD SWAP1 POP PUSH2 0x346 PUSH0 DUP4 ADD DUP5 PUSH2 0x2FD JUMP JUMPDEST SWAP3 SWAP2 POP POP JUMP JUMPDEST PUSH2 0x355 DUP2 PUSH2 0x2C1 JUMP JUMPDEST DUP2 EQ PUSH2 0x35F JUMPI PUSH0 PUSH0 REVERT JUMPDEST POP JUMP JUMPDEST PUSH0 DUP2 MLOAD SWAP1 POP PUSH2 0x370 DUP2 PUSH2 0x34C JUMP JUMPDEST SWAP3 SWAP2 POP POP JUMP JUMPDEST PUSH0 PUSH1 0x20 DUP3 DUP5 SUB SLT ISZERO PUSH2 0x38B JUMPI PUSH2 0x38A PUSH2 0x238 JUMP JUMPDEST JUMPDEST PUSH0 PUSH2 0x398 DUP5 DUP3 DUP6 ADD PUSH2 0x362 JUMP JUMPDEST SWAP2 POP POP SWAP3 SWAP2 POP POP JUMP JUMPDEST PUSH2 0x3AA DUP2 PUSH2 0x2F4 JUMP JUMPDEST DUP2 EQ PUSH2 0x3B4 JUMPI PUSH0 PUSH0 REVERT JUMPDEST POP JUMP JUMPDEST PUSH0 DUP2 MLOAD SWAP1 POP PUSH2 0x3C5 DUP2 PUSH2 0x3A1 JUMP JUMPDEST SWAP3 SWAP2 POP POP JUMP JUMPDEST PUSH0 PUSH0 PUSH1 0x40 DUP4 DUP6 SUB SLT ISZERO PUSH2 0x3E1 JUMPI PUSH2 0x3E0 PUSH2 0x238 JUMP JUMPDEST JUMPDEST PUSH0 PUSH2 0x3EE DUP6 DUP3 DUP7 ADD PUSH2 0x3B7 JUMP JUMPDEST SWAP3 POP POP PUSH1 0x20 PUSH2 0x3FF DUP6 DUP3 DUP7 ADD PUSH2 0x362 JUMP JUMPDEST SWAP2 POP POP SWAP3 POP SWAP3 SWAP1 POP JUMP JUMPDEST PUSH0 PUSH1 0x20 DUP3 DUP5 SUB SLT ISZERO PUSH2 0x41E JUMPI PUSH2 0x41D PUSH2 0x238 JUMP JUMPDEST JUMPDEST PUSH0 PUSH2 0x42B DUP5 DUP3 DUP6 ADD PUSH2 0x3B7 JUMP JUMPDEST SWAP2 POP POP SWAP3 SWAP2 POP POP JUMP INVALID LOG2 PUSH5 0x6970667358 0x22 SLT KECCAK256 DIV LT DUP2 RETF PUSH2 0x230D DUP12 EXTCODEHASH XOR SWAP13 JUMPDEST PUSH28 0x8F210199407811EBAE67ECAC5F4F98E2FA58A964736F6C634300081E STOP CALLER "
				},
				"gasEstimates": {
					"creation": {
						"codeDepositCost": "226000",
						"executionCost": "267",
						"totalCost": "226267"
					},
					"external": {
						"boot(address)": "infinite",
						"errorCheck(address)": "infinite",
						"versionCheck(address)": "infinite"
					}
				},
				"methodIdentifiers": {
					"boot(address)": "89cc92e9",
					"errorCheck(address)": "750519e2",
					"versionCheck(address)": "a0697a8b"
				}
			},
			"storageLayout": {
				"storage": [],
				"types": null
			},
			"userdoc": {
				"kind": "user",
				"methods": {},
				"version": 1
			}
		}
	}
}