{
	"week8/Ex6_14.sol": {
		"Ex6_14": {
			"abi": [
				{
					"inputs": [
						{
							"internalType": "address payable",
							"name": "_address",
							"type": "address"
						}
					],
					"name": "ehtDelivery1",
					"outputs": [],
					"stateMutability": "payable",
					"type": "function"
				},
				{
					"inputs": [
						{
							"internalType": "address",
							"name": "_address",
							"type": "address"
						}
					],
					"name": "ehtDelivery2",
					"outputs": [],
					"stateMutability": "payable",
					"type": "function"
				},
				{
					"inputs": [],
					"name": "etherUinits",
					"outputs": [
						{
							"internalType": "uint256",
							"name": "",
							"type": "uint256"
						},
						{
							"internalType": "uint256",
							"name": "",
							"type": "uint256"
						},
						{
							"internalType": "uint256",
							"name": "",
							"type": "uint256"
						}
					],
					"stateMutability": "pure",
					"type": "function"
				},
				{
					"inputs": [
						{
							"internalType": "address",
							"name": "_address",
							"type": "address"
						}
					],
					"name": "getBalance",
					"outputs": [
						{
							"internalType": "uint256",
							"name": "",
							"type": "uint256"
						}
					],
					"stateMutability": "view",
					"type": "function"
				}
			],
			"devdoc": {
				"kind": "dev",
				"methods": {},
				"version": 1
			},
			"evm": {
				"assembly": "    /* \"week8/Ex6_14.sol\":61:591  contract Ex6_14{... */\n  mstore(0x40, 0x80)\n  callvalue\n  dup1\n  iszero\n  tag_1\n  jumpi\n  0x00\n  dup1\n  revert\ntag_1:\n  pop\n  dataSize(sub_0)\n  dup1\n  dataOffset(sub_0)\n  0x00\n  codecopy\n  0x00\n  return\nstop\n\nsub_0: assembly {\n        /* \"week8/Ex6_14.sol\":61:591  contract Ex6_14{... */\n      mstore(0x40, 0x80)\n      jumpi(tag_1, lt(calldatasize, 0x04))\n      shr(0xe0, calldataload(0x00))\n      dup1\n      0x3f22af94\n      eq\n      tag_2\n      jumpi\n      dup1\n      0xa8ed27d2\n      eq\n      tag_3\n      jumpi\n      dup1\n      0xc7c2ae5e\n      eq\n      tag_4\n      jumpi\n      dup1\n      0xf8b2cb4f\n      eq\n      tag_5\n      jumpi\n    tag_1:\n      0x00\n      dup1\n      revert\n        /* \"week8/Ex6_14.sol\":314:469  function ehtDelivery1(address payable _address) public payable {... */\n    tag_2:\n      tag_6\n      0x04\n      dup1\n      calldatasize\n      sub\n      dup2\n      add\n      swap1\n      tag_7\n      swap2\n      swap1\n      tag_8\n      jump\t// in\n    tag_7:\n      tag_9\n      jump\t// in\n    tag_6:\n      stop\n        /* \"week8/Ex6_14.sol\":477:588  function ehtDelivery2(address _address) public payable {... */\n    tag_3:\n      tag_10\n      0x04\n      dup1\n      calldatasize\n      sub\n      dup2\n      add\n      swap1\n      tag_11\n      swap2\n      swap1\n      tag_12\n      jump\t// in\n    tag_11:\n      tag_13\n      jump\t// in\n    tag_10:\n      stop\n        /* \"week8/Ex6_14.sol\":196:306  function etherUinits() public pure returns(uint, uint, uint){... */\n    tag_4:\n      callvalue\n      dup1\n      iszero\n      tag_14\n      jumpi\n      0x00\n      dup1\n      revert\n    tag_14:\n      pop\n      tag_15\n      tag_16\n      jump\t// in\n    tag_15:\n      mload(0x40)\n      tag_17\n      swap4\n      swap3\n      swap2\n      swap1\n      tag_18\n      jump\t// in\n    tag_17:\n      mload(0x40)\n      dup1\n      swap2\n      sub\n      swap1\n      return\n        /* \"week8/Ex6_14.sol\":83:188  function getBalance(address _address) public view returns(uint){... */\n    tag_5:\n      callvalue\n      dup1\n      iszero\n      tag_19\n      jumpi\n      0x00\n      dup1\n      revert\n    tag_19:\n      pop\n      tag_20\n      0x04\n      dup1\n      calldatasize\n      sub\n      dup2\n      add\n      swap1\n      tag_21\n      swap2\n      swap1\n      tag_12\n      jump\t// in\n    tag_21:\n      tag_22\n      jump\t// in\n    tag_20:\n      mload(0x40)\n      tag_23\n      swap2\n      swap1\n      tag_24\n      jump\t// in\n    tag_23:\n      mload(0x40)\n      dup1\n      swap2\n      sub\n      swap1\n      return\n        /* \"week8/Ex6_14.sol\":314:469  function ehtDelivery1(address payable _address) public payable {... */\n    tag_9:\n        /* \"week8/Ex6_14.sol\":388:399  bool result */\n      0x00\n        /* \"week8/Ex6_14.sol\":402:410  _address */\n      dup2\n        /* \"week8/Ex6_14.sol\":402:415  _address.send */\n      0xffffffffffffffffffffffffffffffffffffffff\n      and\n        /* \"week8/Ex6_14.sol\":402:425  _address.send(10 ether) */\n      0x08fc\n        /* \"week8/Ex6_14.sol\":416:424  10 ether */\n      0x8ac7230489e80000\n        /* \"week8/Ex6_14.sol\":402:425  _address.send(10 ether) */\n      swap1\n      dup2\n      iszero\n      mul\n      swap1\n      mload(0x40)\n      0x00\n      mload(0x40)\n      dup1\n      dup4\n      sub\n      dup2\n      dup6\n      dup9\n      dup9\n      call\n      swap4\n      pop\n      pop\n      pop\n      pop\n        /* \"week8/Ex6_14.sol\":388:425  bool result = _address.send(10 ether) */\n      swap1\n      pop\n        /* \"week8/Ex6_14.sol\":444:450  result */\n      dup1\n        /* \"week8/Ex6_14.sol\":436:461  require(result, \"Failed\") */\n      tag_27\n      jumpi\n      mload(0x40)\n      0x08c379a000000000000000000000000000000000000000000000000000000000\n      dup2\n      mstore\n      0x04\n      add\n      tag_28\n      swap1\n      tag_29\n      jump\t// in\n    tag_28:\n      mload(0x40)\n      dup1\n      swap2\n      sub\n      swap1\n      revert\n    tag_27:\n        /* \"week8/Ex6_14.sol\":377:469  {... */\n      pop\n        /* \"week8/Ex6_14.sol\":314:469  function ehtDelivery1(address payable _address) public payable {... */\n      pop\n      jump\t// out\n        /* \"week8/Ex6_14.sol\":477:588  function ehtDelivery2(address _address) public payable {... */\n    tag_13:\n        /* \"week8/Ex6_14.sol\":551:559  _address */\n      dup1\n        /* \"week8/Ex6_14.sol\":543:569  payable(_address).transfer */\n      0xffffffffffffffffffffffffffffffffffffffff\n      and\n        /* \"week8/Ex6_14.sol\":543:580  payable(_address).transfer(msg.value) */\n      0x08fc\n        /* \"week8/Ex6_14.sol\":570:579  msg.value */\n      callvalue\n        /* \"week8/Ex6_14.sol\":543:580  payable(_address).transfer(msg.value) */\n      swap1\n      dup2\n      iszero\n      mul\n      swap1\n      mload(0x40)\n      0x00\n      mload(0x40)\n      dup1\n      dup4\n      sub\n      dup2\n      dup6\n      dup9\n      dup9\n      call\n      swap4\n      pop\n      pop\n      pop\n      pop\n      iszero\n      dup1\n      iszero\n      tag_32\n      jumpi\n      returndatasize\n      0x00\n      dup1\n      returndatacopy\n      revert(0x00, returndatasize)\n    tag_32:\n      pop\n        /* \"week8/Ex6_14.sol\":477:588  function ehtDelivery2(address _address) public payable {... */\n      pop\n      jump\t// out\n        /* \"week8/Ex6_14.sol\":196:306  function etherUinits() public pure returns(uint, uint, uint){... */\n    tag_16:\n        /* \"week8/Ex6_14.sol\":239:243  uint */\n      0x00\n        /* \"week8/Ex6_14.sol\":245:249  uint */\n      dup1\n        /* \"week8/Ex6_14.sol\":251:255  uint */\n      0x00\n        /* \"week8/Ex6_14.sol\":275:282  1 ether */\n      0x0de0b6b3a7640000\n        /* \"week8/Ex6_14.sol\":284:290  1 gwei */\n      0x3b9aca00\n        /* \"week8/Ex6_14.sol\":292:297  1 wei */\n      0x01\n        /* \"week8/Ex6_14.sol\":267:298  return (1 ether, 1 gwei, 1 wei) */\n      swap3\n      pop\n      swap3\n      pop\n      swap3\n      pop\n        /* \"week8/Ex6_14.sol\":196:306  function etherUinits() public pure returns(uint, uint, uint){... */\n      swap1\n      swap2\n      swap3\n      jump\t// out\n        /* \"week8/Ex6_14.sol\":83:188  function getBalance(address _address) public view returns(uint){... */\n    tag_22:\n        /* \"week8/Ex6_14.sol\":141:145  uint */\n      0x00\n        /* \"week8/Ex6_14.sol\":164:172  _address */\n      dup2\n        /* \"week8/Ex6_14.sol\":164:180  _address.balance */\n      0xffffffffffffffffffffffffffffffffffffffff\n      and\n      balance\n        /* \"week8/Ex6_14.sol\":157:180  return _address.balance */\n      swap1\n      pop\n        /* \"week8/Ex6_14.sol\":83:188  function getBalance(address _address) public view returns(uint){... */\n      swap2\n      swap1\n      pop\n      jump\t// out\n        /* \"#utility.yul\":88:205   */\n    tag_36:\n        /* \"#utility.yul\":197:198   */\n      0x00\n        /* \"#utility.yul\":194:195   */\n      dup1\n        /* \"#utility.yul\":187:199   */\n      revert\n        /* \"#utility.yul\":334:460   */\n    tag_38:\n        /* \"#utility.yul\":371:378   */\n      0x00\n        /* \"#utility.yul\":411:453   */\n      0xffffffffffffffffffffffffffffffffffffffff\n        /* \"#utility.yul\":404:409   */\n      dup3\n        /* \"#utility.yul\":400:454   */\n      and\n        /* \"#utility.yul\":389:454   */\n      swap1\n      pop\n        /* \"#utility.yul\":334:460   */\n      swap2\n      swap1\n      pop\n      jump\t// out\n        /* \"#utility.yul\":466:570   */\n    tag_39:\n        /* \"#utility.yul\":511:518   */\n      0x00\n        /* \"#utility.yul\":540:564   */\n      tag_56\n        /* \"#utility.yul\":558:563   */\n      dup3\n        /* \"#utility.yul\":540:564   */\n      tag_38\n      jump\t// in\n    tag_56:\n        /* \"#utility.yul\":529:564   */\n      swap1\n      pop\n        /* \"#utility.yul\":466:570   */\n      swap2\n      swap1\n      pop\n      jump\t// out\n        /* \"#utility.yul\":576:714   */\n    tag_40:\n        /* \"#utility.yul\":657:689   */\n      tag_58\n        /* \"#utility.yul\":683:688   */\n      dup2\n        /* \"#utility.yul\":657:689   */\n      tag_39\n      jump\t// in\n    tag_58:\n        /* \"#utility.yul\":650:655   */\n      dup2\n        /* \"#utility.yul\":647:690   */\n      eq\n        /* \"#utility.yul\":637:708   */\n      tag_59\n      jumpi\n        /* \"#utility.yul\":704:705   */\n      0x00\n        /* \"#utility.yul\":701:702   */\n      dup1\n        /* \"#utility.yul\":694:706   */\n      revert\n        /* \"#utility.yul\":637:708   */\n    tag_59:\n        /* \"#utility.yul\":576:714   */\n      pop\n      jump\t// out\n        /* \"#utility.yul\":720:875   */\n    tag_41:\n        /* \"#utility.yul\":774:779   */\n      0x00\n        /* \"#utility.yul\":812:818   */\n      dup2\n        /* \"#utility.yul\":799:819   */\n      calldataload\n        /* \"#utility.yul\":790:819   */\n      swap1\n      pop\n        /* \"#utility.yul\":828:869   */\n      tag_61\n        /* \"#utility.yul\":863:868   */\n      dup2\n        /* \"#utility.yul\":828:869   */\n      tag_40\n      jump\t// in\n    tag_61:\n        /* \"#utility.yul\":720:875   */\n      swap3\n      swap2\n      pop\n      pop\n      jump\t// out\n        /* \"#utility.yul\":881:1226   */\n    tag_8:\n        /* \"#utility.yul\":948:954   */\n      0x00\n        /* \"#utility.yul\":997:999   */\n      0x20\n        /* \"#utility.yul\":985:994   */\n      dup3\n        /* \"#utility.yul\":976:983   */\n      dup5\n        /* \"#utility.yul\":972:995   */\n      sub\n        /* \"#utility.yul\":968:1000   */\n      slt\n        /* \"#utility.yul\":965:1084   */\n      iszero\n      tag_63\n      jumpi\n        /* \"#utility.yul\":1003:1082   */\n      tag_64\n      tag_36\n      jump\t// in\n    tag_64:\n        /* \"#utility.yul\":965:1084   */\n    tag_63:\n        /* \"#utility.yul\":1123:1124   */\n      0x00\n        /* \"#utility.yul\":1148:1209   */\n      tag_65\n        /* \"#utility.yul\":1201:1208   */\n      dup5\n        /* \"#utility.yul\":1192:1198   */\n      dup3\n        /* \"#utility.yul\":1181:1190   */\n      dup6\n        /* \"#utility.yul\":1177:1199   */\n      add\n        /* \"#utility.yul\":1148:1209   */\n      tag_41\n      jump\t// in\n    tag_65:\n        /* \"#utility.yul\":1138:1209   */\n      swap2\n      pop\n        /* \"#utility.yul\":1094:1219   */\n      pop\n        /* \"#utility.yul\":881:1226   */\n      swap3\n      swap2\n      pop\n      pop\n      jump\t// out\n        /* \"#utility.yul\":1232:1328   */\n    tag_42:\n        /* \"#utility.yul\":1269:1276   */\n      0x00\n        /* \"#utility.yul\":1298:1322   */\n      tag_67\n        /* \"#utility.yul\":1316:1321   */\n      dup3\n        /* \"#utility.yul\":1298:1322   */\n      tag_38\n      jump\t// in\n    tag_67:\n        /* \"#utility.yul\":1287:1322   */\n      swap1\n      pop\n        /* \"#utility.yul\":1232:1328   */\n      swap2\n      swap1\n      pop\n      jump\t// out\n        /* \"#utility.yul\":1334:1456   */\n    tag_43:\n        /* \"#utility.yul\":1407:1431   */\n      tag_69\n        /* \"#utility.yul\":1425:1430   */\n      dup2\n        /* \"#utility.yul\":1407:1431   */\n      tag_42\n      jump\t// in\n    tag_69:\n        /* \"#utility.yul\":1400:1405   */\n      dup2\n        /* \"#utility.yul\":1397:1432   */\n      eq\n        /* \"#utility.yul\":1387:1450   */\n      tag_70\n      jumpi\n        /* \"#utility.yul\":1446:1447   */\n      0x00\n        /* \"#utility.yul\":1443:1444   */\n      dup1\n        /* \"#utility.yul\":1436:1448   */\n      revert\n        /* \"#utility.yul\":1387:1450   */\n    tag_70:\n        /* \"#utility.yul\":1334:1456   */\n      pop\n      jump\t// out\n        /* \"#utility.yul\":1462:1601   */\n    tag_44:\n        /* \"#utility.yul\":1508:1513   */\n      0x00\n        /* \"#utility.yul\":1546:1552   */\n      dup2\n        /* \"#utility.yul\":1533:1553   */\n      calldataload\n        /* \"#utility.yul\":1524:1553   */\n      swap1\n      pop\n        /* \"#utility.yul\":1562:1595   */\n      tag_72\n        /* \"#utility.yul\":1589:1594   */\n      dup2\n        /* \"#utility.yul\":1562:1595   */\n      tag_43\n      jump\t// in\n    tag_72:\n        /* \"#utility.yul\":1462:1601   */\n      swap3\n      swap2\n      pop\n      pop\n      jump\t// out\n        /* \"#utility.yul\":1607:1936   */\n    tag_12:\n        /* \"#utility.yul\":1666:1672   */\n      0x00\n        /* \"#utility.yul\":1715:1717   */\n      0x20\n        /* \"#utility.yul\":1703:1712   */\n      dup3\n        /* \"#utility.yul\":1694:1701   */\n      dup5\n        /* \"#utility.yul\":1690:1713   */\n      sub\n        /* \"#utility.yul\":1686:1718   */\n      slt\n        /* \"#utility.yul\":1683:1802   */\n      iszero\n      tag_74\n      jumpi\n        /* \"#utility.yul\":1721:1800   */\n      tag_75\n      tag_36\n      jump\t// in\n    tag_75:\n        /* \"#utility.yul\":1683:1802   */\n    tag_74:\n        /* \"#utility.yul\":1841:1842   */\n      0x00\n        /* \"#utility.yul\":1866:1919   */\n      tag_76\n        /* \"#utility.yul\":1911:1918   */\n      dup5\n        /* \"#utility.yul\":1902:1908   */\n      dup3\n        /* \"#utility.yul\":1891:1900   */\n      dup6\n        /* \"#utility.yul\":1887:1909   */\n      add\n        /* \"#utility.yul\":1866:1919   */\n      tag_44\n      jump\t// in\n    tag_76:\n        /* \"#utility.yul\":1856:1919   */\n      swap2\n      pop\n        /* \"#utility.yul\":1812:1929   */\n      pop\n        /* \"#utility.yul\":1607:1936   */\n      swap3\n      swap2\n      pop\n      pop\n      jump\t// out\n        /* \"#utility.yul\":1942:2019   */\n    tag_45:\n        /* \"#utility.yul\":1979:1986   */\n      0x00\n        /* \"#utility.yul\":2008:2013   */\n      dup2\n        /* \"#utility.yul\":1997:2013   */\n      swap1\n      pop\n        /* \"#utility.yul\":1942:2019   */\n      swap2\n      swap1\n      pop\n      jump\t// out\n        /* \"#utility.yul\":2025:2143   */\n    tag_46:\n        /* \"#utility.yul\":2112:2136   */\n      tag_79\n        /* \"#utility.yul\":2130:2135   */\n      dup2\n        /* \"#utility.yul\":2112:2136   */\n      tag_45\n      jump\t// in\n    tag_79:\n        /* \"#utility.yul\":2107:2110   */\n      dup3\n        /* \"#utility.yul\":2100:2137   */\n      mstore\n        /* \"#utility.yul\":2025:2143   */\n      pop\n      pop\n      jump\t// out\n        /* \"#utility.yul\":2149:2591   */\n    tag_18:\n        /* \"#utility.yul\":2298:2302   */\n      0x00\n        /* \"#utility.yul\":2336:2338   */\n      0x60\n        /* \"#utility.yul\":2325:2334   */\n      dup3\n        /* \"#utility.yul\":2321:2339   */\n      add\n        /* \"#utility.yul\":2313:2339   */\n      swap1\n      pop\n        /* \"#utility.yul\":2349:2420   */\n      tag_81\n        /* \"#utility.yul\":2417:2418   */\n      0x00\n        /* \"#utility.yul\":2406:2415   */\n      dup4\n        /* \"#utility.yul\":2402:2419   */\n      add\n        /* \"#utility.yul\":2393:2399   */\n      dup7\n        /* \"#utility.yul\":2349:2420   */\n      tag_46\n      jump\t// in\n    tag_81:\n        /* \"#utility.yul\":2430:2502   */\n      tag_82\n        /* \"#utility.yul\":2498:2500   */\n      0x20\n        /* \"#utility.yul\":2487:2496   */\n      dup4\n        /* \"#utility.yul\":2483:2501   */\n      add\n        /* \"#utility.yul\":2474:2480   */\n      dup6\n        /* \"#utility.yul\":2430:2502   */\n      tag_46\n      jump\t// in\n    tag_82:\n        /* \"#utility.yul\":2512:2584   */\n      tag_83\n        /* \"#utility.yul\":2580:2582   */\n      0x40\n        /* \"#utility.yul\":2569:2578   */\n      dup4\n        /* \"#utility.yul\":2565:2583   */\n      add\n        /* \"#utility.yul\":2556:2562   */\n      dup5\n        /* \"#utility.yul\":2512:2584   */\n      tag_46\n      jump\t// in\n    tag_83:\n        /* \"#utility.yul\":2149:2591   */\n      swap5\n      swap4\n      pop\n      pop\n      pop\n      pop\n      jump\t// out\n        /* \"#utility.yul\":2597:2819   */\n    tag_24:\n        /* \"#utility.yul\":2690:2694   */\n      0x00\n        /* \"#utility.yul\":2728:2730   */\n      0x20\n        /* \"#utility.yul\":2717:2726   */\n      dup3\n        /* \"#utility.yul\":2713:2731   */\n      add\n        /* \"#utility.yul\":2705:2731   */\n      swap1\n      pop\n        /* \"#utility.yul\":2741:2812   */\n      tag_85\n        /* \"#utility.yul\":2809:2810   */\n      0x00\n        /* \"#utility.yul\":2798:2807   */\n      dup4\n        /* \"#utility.yul\":2794:2811   */\n      add\n        /* \"#utility.yul\":2785:2791   */\n      dup5\n        /* \"#utility.yul\":2741:2812   */\n      tag_46\n      jump\t// in\n    tag_85:\n        /* \"#utility.yul\":2597:2819   */\n      swap3\n      swap2\n      pop\n      pop\n      jump\t// out\n        /* \"#utility.yul\":2825:2994   */\n    tag_47:\n        /* \"#utility.yul\":2909:2920   */\n      0x00\n        /* \"#utility.yul\":2943:2949   */\n      dup3\n        /* \"#utility.yul\":2938:2941   */\n      dup3\n        /* \"#utility.yul\":2931:2950   */\n      mstore\n        /* \"#utility.yul\":2983:2987   */\n      0x20\n        /* \"#utility.yul\":2978:2981   */\n      dup3\n        /* \"#utility.yul\":2974:2988   */\n      add\n        /* \"#utility.yul\":2959:2988   */\n      swap1\n      pop\n        /* \"#utility.yul\":2825:2994   */\n      swap3\n      swap2\n      pop\n      pop\n      jump\t// out\n        /* \"#utility.yul\":3000:3156   */\n    tag_48:\n        /* \"#utility.yul\":3140:3148   */\n      0x4661696c65640000000000000000000000000000000000000000000000000000\n        /* \"#utility.yul\":3136:3137   */\n      0x00\n        /* \"#utility.yul\":3128:3134   */\n      dup3\n        /* \"#utility.yul\":3124:3138   */\n      add\n        /* \"#utility.yul\":3117:3149   */\n      mstore\n        /* \"#utility.yul\":3000:3156   */\n      pop\n      jump\t// out\n        /* \"#utility.yul\":3162:3527   */\n    tag_49:\n        /* \"#utility.yul\":3304:3307   */\n      0x00\n        /* \"#utility.yul\":3325:3391   */\n      tag_89\n        /* \"#utility.yul\":3389:3390   */\n      0x06\n        /* \"#utility.yul\":3384:3387   */\n      dup4\n        /* \"#utility.yul\":3325:3391   */\n      tag_47\n      jump\t// in\n    tag_89:\n        /* \"#utility.yul\":3318:3391   */\n      swap2\n      pop\n        /* \"#utility.yul\":3400:3493   */\n      tag_90\n        /* \"#utility.yul\":3489:3492   */\n      dup3\n        /* \"#utility.yul\":3400:3493   */\n      tag_48\n      jump\t// in\n    tag_90:\n        /* \"#utility.yul\":3518:3520   */\n      0x20\n        /* \"#utility.yul\":3513:3516   */\n      dup3\n        /* \"#utility.yul\":3509:3521   */\n      add\n        /* \"#utility.yul\":3502:3521   */\n      swap1\n      pop\n        /* \"#utility.yul\":3162:3527   */\n      swap2\n      swap1\n      pop\n      jump\t// out\n        /* \"#utility.yul\":3533:3952   */\n    tag_29:\n        /* \"#utility.yul\":3699:3703   */\n      0x00\n        /* \"#utility.yul\":3737:3739   */\n      0x20\n        /* \"#utility.yul\":3726:3735   */\n      dup3\n        /* \"#utility.yul\":3722:3740   */\n      add\n        /* \"#utility.yul\":3714:3740   */\n      swap1\n      pop\n        /* \"#utility.yul\":3786:3795   */\n      dup2\n        /* \"#utility.yul\":3780:3784   */\n      dup2\n        /* \"#utility.yul\":3776:3796   */\n      sub\n        /* \"#utility.yul\":3772:3773   */\n      0x00\n        /* \"#utility.yul\":3761:3770   */\n      dup4\n        /* \"#utility.yul\":3757:3774   */\n      add\n        /* \"#utility.yul\":3750:3797   */\n      mstore\n        /* \"#utility.yul\":3814:3945   */\n      tag_92\n        /* \"#utility.yul\":3940:3944   */\n      dup2\n        /* \"#utility.yul\":3814:3945   */\n      tag_49\n      jump\t// in\n    tag_92:\n        /* \"#utility.yul\":3806:3945   */\n      swap1\n      pop\n        /* \"#utility.yul\":3533:3952   */\n      swap2\n      swap1\n      pop\n      jump\t// out\n\n    auxdata: 0xa26469706673582212208d18ee3adc9b04d745b3d034163171c32fc58b2d3bb3aa06d3cf40fa53b8d1aa64736f6c63430008120033\n}\n",
				"bytecode": {
					"linkReferences": {},
					"object": "608060405234801561001057600080fd5b5061040f806100206000396000f3fe60806040526004361061003f5760003560e01c80633f22af9414610044578063a8ed27d214610060578063c7c2ae5e1461007c578063f8b2cb4f146100a9575b600080fd5b61005e60048036038101906100599190610259565b6100e6565b005b61007a600480360381019061007591906102c4565b61016b565b005b34801561008857600080fd5b506100916101b5565b6040516100a09392919061030a565b60405180910390f35b3480156100b557600080fd5b506100d060048036038101906100cb91906102c4565b6101d5565b6040516100dd9190610341565b60405180910390f35b60008173ffffffffffffffffffffffffffffffffffffffff166108fc678ac7230489e800009081150290604051600060405180830381858888f19350505050905080610167576040517f08c379a000000000000000000000000000000000000000000000000000000000815260040161015e906103b9565b60405180910390fd5b5050565b8073ffffffffffffffffffffffffffffffffffffffff166108fc349081150290604051600060405180830381858888f193505050501580156101b1573d6000803e3d6000fd5b5050565b6000806000670de0b6b3a7640000633b9aca006001925092509250909192565b60008173ffffffffffffffffffffffffffffffffffffffff16319050919050565b600080fd5b600073ffffffffffffffffffffffffffffffffffffffff82169050919050565b6000610226826101fb565b9050919050565b6102368161021b565b811461024157600080fd5b50565b6000813590506102538161022d565b92915050565b60006020828403121561026f5761026e6101f6565b5b600061027d84828501610244565b91505092915050565b6000610291826101fb565b9050919050565b6102a181610286565b81146102ac57600080fd5b50565b6000813590506102be81610298565b92915050565b6000602082840312156102da576102d96101f6565b5b60006102e8848285016102af565b91505092915050565b6000819050919050565b610304816102f1565b82525050565b600060608201905061031f60008301866102fb565b61032c60208301856102fb565b61033960408301846102fb565b949350505050565b600060208201905061035660008301846102fb565b92915050565b600082825260208201905092915050565b7f4661696c65640000000000000000000000000000000000000000000000000000600082015250565b60006103a360068361035c565b91506103ae8261036d565b602082019050919050565b600060208201905081810360008301526103d281610396565b905091905056fea26469706673582212208d18ee3adc9b04d745b3d034163171c32fc58b2d3bb3aa06d3cf40fa53b8d1aa64736f6c63430008120033",
					"opcodes": "PUSH1 0x80 PUSH1 0x40 MSTORE CALLVALUE DUP1 ISZERO PUSH2 0x10 JUMPI PUSH1 0x0 DUP1 REVERT JUMPDEST POP PUSH2 0x40F DUP1 PUSH2 0x20 PUSH1 0x0 CODECOPY PUSH1 0x0 RETURN INVALID PUSH1 0x80 PUSH1 0x40 MSTORE PUSH1 0x4 CALLDATASIZE LT PUSH2 0x3F JUMPI PUSH1 0x0 CALLDATALOAD PUSH1 0xE0 SHR DUP1 PUSH4 0x3F22AF94 EQ PUSH2 0x44 JUMPI DUP1 PUSH4 0xA8ED27D2 EQ PUSH2 0x60 JUMPI DUP1 PUSH4 0xC7C2AE5E EQ PUSH2 0x7C JUMPI DUP1 PUSH4 0xF8B2CB4F EQ PUSH2 0xA9 JUMPI JUMPDEST PUSH1 0x0 DUP1 REVERT JUMPDEST PUSH2 0x5E PUSH1 0x4 DUP1 CALLDATASIZE SUB DUP2 ADD SWAP1 PUSH2 0x59 SWAP2 SWAP1 PUSH2 0x259 JUMP JUMPDEST PUSH2 0xE6 JUMP JUMPDEST STOP JUMPDEST PUSH2 0x7A PUSH1 0x4 DUP1 CALLDATASIZE SUB DUP2 ADD SWAP1 PUSH2 0x75 SWAP2 SWAP1 PUSH2 0x2C4 JUMP JUMPDEST PUSH2 0x16B JUMP JUMPDEST STOP JUMPDEST CALLVALUE DUP1 ISZERO PUSH2 0x88 JUMPI PUSH1 0x0 DUP1 REVERT JUMPDEST POP PUSH2 0x91 PUSH2 0x1B5 JUMP JUMPDEST PUSH1 0x40 MLOAD PUSH2 0xA0 SWAP4 SWAP3 SWAP2 SWAP1 PUSH2 0x30A JUMP JUMPDEST PUSH1 0x40 MLOAD DUP1 SWAP2 SUB SWAP1 RETURN JUMPDEST CALLVALUE DUP1 ISZERO PUSH2 0xB5 JUMPI PUSH1 0x0 DUP1 REVERT JUMPDEST POP PUSH2 0xD0 PUSH1 0x4 DUP1 CALLDATASIZE SUB DUP2 ADD SWAP1 PUSH2 0xCB SWAP2 SWAP1 PUSH2 0x2C4 JUMP JUMPDEST PUSH2 0x1D5 JUMP JUMPDEST PUSH1 0x40 MLOAD PUSH2 0xDD SWAP2 SWAP1 PUSH2 0x341 JUMP JUMPDEST PUSH1 0x40 MLOAD DUP1 SWAP2 SUB SWAP1 RETURN JUMPDEST PUSH1 0x0 DUP2 PUSH20 0xFFFFFFFFFFFFFFFFFFFFFFFFFFFFFFFFFFFFFFFF AND PUSH2 0x8FC PUSH8 0x8AC7230489E80000 SWAP1 DUP2 ISZERO MUL SWAP1 PUSH1 0x40 MLOAD PUSH1 0x0 PUSH1 0x40 MLOAD DUP1 DUP4 SUB DUP2 DUP6 DUP9 DUP9 CALL SWAP4 POP POP POP POP SWAP1 POP DUP1 PUSH2 0x167 JUMPI PUSH1 0x40 MLOAD PUSH32 0x8C379A000000000000000000000000000000000000000000000000000000000 DUP2 MSTORE PUSH1 0x4 ADD PUSH2 0x15E SWAP1 PUSH2 0x3B9 JUMP JUMPDEST PUSH1 0x40 MLOAD DUP1 SWAP2 SUB SWAP1 REVERT JUMPDEST POP POP JUMP JUMPDEST DUP1 PUSH20 0xFFFFFFFFFFFFFFFFFFFFFFFFFFFFFFFFFFFFFFFF AND PUSH2 0x8FC CALLVALUE SWAP1 DUP2 ISZERO MUL SWAP1 PUSH1 0x40 MLOAD PUSH1 0x0 PUSH1 0x40 MLOAD DUP1 DUP4 SUB DUP2 DUP6 DUP9 DUP9 CALL SWAP4 POP POP POP POP ISZERO DUP1 ISZERO PUSH2 0x1B1 JUMPI RETURNDATASIZE PUSH1 0x0 DUP1 RETURNDATACOPY RETURNDATASIZE PUSH1 0x0 REVERT JUMPDEST POP POP JUMP JUMPDEST PUSH1 0x0 DUP1 PUSH1 0x0 PUSH8 0xDE0B6B3A7640000 PUSH4 0x3B9ACA00 PUSH1 0x1 SWAP3 POP SWAP3 POP SWAP3 POP SWAP1 SWAP2 SWAP3 JUMP JUMPDEST PUSH1 0x0 DUP2 PUSH20 0xFFFFFFFFFFFFFFFFFFFFFFFFFFFFFFFFFFFFFFFF AND BALANCE SWAP1 POP SWAP2 SWAP1 POP JUMP JUMPDEST PUSH1 0x0 DUP1 REVERT JUMPDEST PUSH1 0x0 PUSH20 0xFFFFFFFFFFFFFFFFFFFFFFFFFFFFFFFFFFFFFFFF DUP3 AND SWAP1 POP SWAP2 SWAP1 POP JUMP JUMPDEST PUSH1 0x0 PUSH2 0x226 DUP3 PUSH2 0x1FB JUMP JUMPDEST SWAP1 POP SWAP2 SWAP1 POP JUMP JUMPDEST PUSH2 0x236 DUP2 PUSH2 0x21B JUMP JUMPDEST DUP2 EQ PUSH2 0x241 JUMPI PUSH1 0x0 DUP1 REVERT JUMPDEST POP JUMP JUMPDEST PUSH1 0x0 DUP2 CALLDATALOAD SWAP1 POP PUSH2 0x253 DUP2 PUSH2 0x22D JUMP JUMPDEST SWAP3 SWAP2 POP POP JUMP JUMPDEST PUSH1 0x0 PUSH1 0x20 DUP3 DUP5 SUB SLT ISZERO PUSH2 0x26F JUMPI PUSH2 0x26E PUSH2 0x1F6 JUMP JUMPDEST JUMPDEST PUSH1 0x0 PUSH2 0x27D DUP5 DUP3 DUP6 ADD PUSH2 0x244 JUMP JUMPDEST SWAP2 POP POP SWAP3 SWAP2 POP POP JUMP JUMPDEST PUSH1 0x0 PUSH2 0x291 DUP3 PUSH2 0x1FB JUMP JUMPDEST SWAP1 POP SWAP2 SWAP1 POP JUMP JUMPDEST PUSH2 0x2A1 DUP2 PUSH2 0x286 JUMP JUMPDEST DUP2 EQ PUSH2 0x2AC JUMPI PUSH1 0x0 DUP1 REVERT JUMPDEST POP JUMP JUMPDEST PUSH1 0x0 DUP2 CALLDATALOAD SWAP1 POP PUSH2 0x2BE DUP2 PUSH2 0x298 JUMP JUMPDEST SWAP3 SWAP2 POP POP JUMP JUMPDEST PUSH1 0x0 PUSH1 0x20 DUP3 DUP5 SUB SLT ISZERO PUSH2 0x2DA JUMPI PUSH2 0x2D9 PUSH2 0x1F6 JUMP JUMPDEST JUMPDEST PUSH1 0x0 PUSH2 0x2E8 DUP5 DUP3 DUP6 ADD PUSH2 0x2AF JUMP JUMPDEST SWAP2 POP POP SWAP3 SWAP2 POP POP JUMP JUMPDEST PUSH1 0x0 DUP2 SWAP1 POP SWAP2 SWAP1 POP JUMP JUMPDEST PUSH2 0x304 DUP2 PUSH2 0x2F1 JUMP JUMPDEST DUP3 MSTORE POP POP JUMP JUMPDEST PUSH1 0x0 PUSH1 0x60 DUP3 ADD SWAP1 POP PUSH2 0x31F PUSH1 0x0 DUP4 ADD DUP7 PUSH2 0x2FB JUMP JUMPDEST PUSH2 0x32C PUSH1 0x20 DUP4 ADD DUP6 PUSH2 0x2FB JUMP JUMPDEST PUSH2 0x339 PUSH1 0x40 DUP4 ADD DUP5 PUSH2 0x2FB JUMP JUMPDEST SWAP5 SWAP4 POP POP POP POP JUMP JUMPDEST PUSH1 0x0 PUSH1 0x20 DUP3 ADD SWAP1 POP PUSH2 0x356 PUSH1 0x0 DUP4 ADD DUP5 PUSH2 0x2FB JUMP JUMPDEST SWAP3 SWAP2 POP POP JUMP JUMPDEST PUSH1 0x0 DUP3 DUP3 MSTORE PUSH1 0x20 DUP3 ADD SWAP1 POP SWAP3 SWAP2 POP POP JUMP JUMPDEST PUSH32 0x4661696C65640000000000000000000000000000000000000000000000000000 PUSH1 0x0 DUP3 ADD MSTORE POP JUMP JUMPDEST PUSH1 0x0 PUSH2 0x3A3 PUSH1 0x6 DUP4 PUSH2 0x35C JUMP JUMPDEST SWAP2 POP PUSH2 0x3AE DUP3 PUSH2 0x36D JUMP JUMPDEST PUSH1 0x20 DUP3 ADD SWAP1 POP SWAP2 SWAP1 POP JUMP JUMPDEST PUSH1 0x0 PUSH1 0x20 DUP3 ADD SWAP1 POP DUP2 DUP2 SUB PUSH1 0x0 DUP4 ADD MSTORE PUSH2 0x3D2 DUP2 PUSH2 0x396 JUMP JUMPDEST SWAP1 POP SWAP2 SWAP1 POP JUMP INVALID LOG2 PUSH5 0x6970667358 0x22 SLT KECCAK256 DUP14 XOR 0xEE GASPRICE 0xDC SWAP12 DIV 0xD7 GASLIMIT 0xB3 0xD0 CALLVALUE AND BALANCE PUSH18 0xC32FC58B2D3BB3AA06D3CF40FA53B8D1AA64 PUSH20 0x6F6C634300081200330000000000000000000000 "
				},
				"gasEstimates": {
					"creation": {
						"codeDepositCost": "207800",
						"executionCost": "251",
						"totalCost": "208051"
					},
					"external": {
						"ehtDelivery1(address)": "infinite",
						"ehtDelivery2(address)": "infinite",
						"etherUinits()": "infinite",
						"getBalance(address)": "3301"
					}
				},
				"methodIdentifiers": {
					"ehtDelivery1(address)": "3f22af94",
					"ehtDelivery2(address)": "a8ed27d2",
					"etherUinits()": "c7c2ae5e",
					"getBalance(address)": "f8b2cb4f"
				}
			},
			"storageLayout": {
				"storage": [],
				"types": null
			},
			"userdoc": {
				"kind": "user",
				"methods": {},
				"version": 1
			}
		}
	}
}