{
	"data": {
		"bytecode": {
			"linkReferences": {},
			"object": "60806040526001600260006101000a81548160ff0219169083600181111561002a57610029610081565b5b021790555034801561003b57600080fd5b50336000806101000a81548173ffffffffffffffffffffffffffffffffffffffff021916908373ffffffffffffffffffffffffffffffffffffffff1602179055506100b0565b7f4e487b7100000000000000000000000000000000000000000000000000000000600052602160045260246000fd5b610de0806100bf6000396000f3fe6080604052600436106100555760003560e01c8063085634ec1461005a578063481c6a75146100715780635d495aea1461009c5780638b5b9ccc146100b3578063e97dcb62146100de578063f71d96cb146100e8575b600080fd5b34801561006657600080fd5b5061006f610125565b005b34801561007d57600080fd5b5061008661024b565b6040516100939190610829565b60405180910390f35b3480156100a857600080fd5b506100b161026f565b005b3480156100bf57600080fd5b506100c86103e7565b6040516100d59190610902565b60405180910390f35b6100e6610475565b005b3480156100f457600080fd5b5061010f600480360381019061010a919061095f565b610731565b60405161011c9190610829565b60405180910390f35b60008054906101000a900473ffffffffffffffffffffffffffffffffffffffff1673ffffffffffffffffffffffffffffffffffffffff163373ffffffffffffffffffffffffffffffffffffffff16146101b3576040517f08c379a00000000000000000000000000000000000000000000000000000000081526004016101aa906109e9565b60405180910390fd5b6001808111156101c6576101c5610a09565b5b600260009054906101000a900460ff1660018111156101e8576101e7610a09565b5b0361021d576000600260006101000a81548160ff0219169083600181111561021357610212610a09565b5b0217905550610249565b6001600260006101000a81548160ff0219169083600181111561024357610242610a09565b5b02179055505b565b60008054906101000a900473ffffffffffffffffffffffffffffffffffffffff1681565b60008054906101000a900473ffffffffffffffffffffffffffffffffffffffff1673ffffffffffffffffffffffffffffffffffffffff163373ffffffffffffffffffffffffffffffffffffffff16146102fd576040517f08c379a00000000000000000000000000000000000000000000000000000000081526004016102f4906109e9565b60405180910390fd5b60006001808054905061030e610770565b6103189190610a67565b8154811061032957610328610a98565b5b9060005260206000200160009054906101000a900473ffffffffffffffffffffffffffffffffffffffff1690508073ffffffffffffffffffffffffffffffffffffffff166108fc479081150290604051600060405180830381858888f1935050505015801561039c573d6000803e3d6000fd5b507f35ceadb59f10d1fdf3ffca7f84d699458b36a409b2e29201c8ef53196c36fbad81476040516103ce929190610ad6565b60405180910390a1600160006103e491906107aa565b50565b6060600180548060200260200160405190810160405280929190818152602001828054801561046b57602002820191906000526020600020905b8160009054906101000a900473ffffffffffffffffffffffffffffffffffffffff1673ffffffffffffffffffffffffffffffffffffffff1681526020019060010190808311610421575b5050505050905090565b600080600181111561048a57610489610a09565b5b600260009054906101000a900460ff1660018111156104ac576104ab610a09565b5b146104ec576040517f08c379a00000000000000000000000000000000000000000000000000000000081526004016104e390610b4b565b60405180910390fd5b60008054906101000a900473ffffffffffffffffffffffffffffffffffffffff1673ffffffffffffffffffffffffffffffffffffffff163373ffffffffffffffffffffffffffffffffffffffff160361057a576040517f08c379a000000000000000000000000000000000000000000000000000000000815260040161057190610bb7565b60405180910390fd5b670de0b6b3a764000034146105c4576040517f08c379a00000000000000000000000000000000000000000000000000000000081526004016105bb90610c23565b60405180910390fd5b60005b60018054905081101561069357600181815481106105e8576105e7610a98565b5b9060005260206000200160009054906101000a900473ffffffffffffffffffffffffffffffffffffffff1673ffffffffffffffffffffffffffffffffffffffff163373ffffffffffffffffffffffffffffffffffffffff1603610680576040517f08c379a000000000000000000000000000000000000000000000000000000000815260040161067790610cb5565b60405180910390fd5b808061068b90610d04565b9150506105c7565b6001339080600181540180825580915050600190039060005260206000200160009091909190916101000a81548173ffffffffffffffffffffffffffffffffffffffff021916908373ffffffffffffffffffffffffffffffffffffffff1602179055507f5223f77765b5429cf34accd573fd1eec5e4602155a986bfca26243e4805b9f59336040516107259190610829565b60405180910390a15050565b6001818154811061074157600080fd5b906000526020600020016000915054906101000a900473ffffffffffffffffffffffffffffffffffffffff1681565b6000434260018054905060405160200161078c93929190610d6d565b6040516020818303038152906040528051906020012060001c905090565b50805460008255906000526020600020908101906107c891906107cb565b50565b5b808211156107e45760008160009055506001016107cc565b5090565b600073ffffffffffffffffffffffffffffffffffffffff82169050919050565b6000610813826107e8565b9050919050565b61082381610808565b82525050565b600060208201905061083e600083018461081a565b92915050565b600081519050919050565b600082825260208201905092915050565b6000819050602082019050919050565b61087981610808565b82525050565b600061088b8383610870565b60208301905092915050565b6000602082019050919050565b60006108af82610844565b6108b9818561084f565b93506108c483610860565b8060005b838110156108f55781516108dc888261087f565b97506108e783610897565b9250506001810190506108c8565b5085935050505092915050565b6000602082019050818103600083015261091c81846108a4565b905092915050565b600080fd5b6000819050919050565b61093c81610929565b811461094757600080fd5b50565b60008135905061095981610933565b92915050565b60006020828403121561097557610974610924565b5b60006109838482850161094a565b91505092915050565b600082825260208201905092915050565b7f6f6e6c79206d616e616765722063616e20746f00000000000000000000000000600082015250565b60006109d360138361098c565b91506109de8261099d565b602082019050919050565b60006020820190508181036000830152610a02816109c6565b9050919050565b7f4e487b7100000000000000000000000000000000000000000000000000000000600052602160045260246000fd5b7f4e487b7100000000000000000000000000000000000000000000000000000000600052601260045260246000fd5b6000610a7282610929565b9150610a7d83610929565b925082610a8d57610a8c610a38565b5b828206905092915050565b7f4e487b7100000000000000000000000000000000000000000000000000000000600052603260045260246000fd5b610ad081610929565b82525050565b6000604082019050610aeb600083018561081a565b610af86020830184610ac7565b9392505050565b7f7374617475732065727200000000000000000000000000000000000000000000600082015250565b6000610b35600a8361098c565b9150610b4082610aff565b602082019050919050565b60006020820190508181036000830152610b6481610b28565b9050919050565b7f6d616e616765722063616e206e6f742070617274696369706174650000000000600082015250565b6000610ba1601b8361098c565b9150610bac82610b6b565b602082019050919050565b60006020820190508181036000830152610bd081610b94565b9050919050565b7f76616c7565206973206e6f742031206574686572000000000000000000000000600082015250565b6000610c0d60148361098c565b9150610c1882610bd7565b602082019050919050565b60006020820190508181036000830152610c3c81610c00565b9050919050565b7f4475706c69636174652070617274696369706174696f6e206973206e6f74206160008201527f6c6c6f7765640000000000000000000000000000000000000000000000000000602082015250565b6000610c9f60268361098c565b9150610caa82610c43565b604082019050919050565b60006020820190508181036000830152610cce81610c92565b9050919050565b7f4e487b7100000000000000000000000000000000000000000000000000000000600052601160045260246000fd5b6000610d0f82610929565b91507fffffffffffffffffffffffffffffffffffffffffffffffffffffffffffffffff8203610d4157610d40610cd5565b5b600182019050919050565b6000819050919050565b610d67610d6282610929565b610d4c565b82525050565b6000610d798286610d56565b602082019150610d898285610d56565b602082019150610d998284610d56565b60208201915081905094935050505056fea2646970667358221220027804025444b543d74b527930ccd71f06779a9796178b323485f21531e375ef64736f6c63430008120033",
			"opcodes": "PUSH1 0x80 PUSH1 0x40 MSTORE PUSH1 0x1 PUSH1 0x2 PUSH1 0x0 PUSH2 0x100 EXP DUP2 SLOAD DUP2 PUSH1 0xFF MUL NOT AND SWAP1 DUP4 PUSH1 0x1 DUP2 GT ISZERO PUSH2 0x2A JUMPI PUSH2 0x29 PUSH2 0x81 JUMP JUMPDEST JUMPDEST MUL OR SWAP1 SSTORE POP CALLVALUE DUP1 ISZERO PUSH2 0x3B JUMPI PUSH1 0x0 DUP1 REVERT JUMPDEST POP CALLER PUSH1 0x0 DUP1 PUSH2 0x100 EXP DUP2 SLOAD DUP2 PUSH20 0xFFFFFFFFFFFFFFFFFFFFFFFFFFFFFFFFFFFFFFFF MUL NOT AND SWAP1 DUP4 PUSH20 0xFFFFFFFFFFFFFFFFFFFFFFFFFFFFFFFFFFFFFFFF AND MUL OR SWAP1 SSTORE POP PUSH2 0xB0 JUMP JUMPDEST PUSH32 0x4E487B7100000000000000000000000000000000000000000000000000000000 PUSH1 0x0 MSTORE PUSH1 0x21 PUSH1 0x4 MSTORE PUSH1 0x24 PUSH1 0x0 REVERT JUMPDEST PUSH2 0xDE0 DUP1 PUSH2 0xBF PUSH1 0x0 CODECOPY PUSH1 0x0 RETURN INVALID PUSH1 0x80 PUSH1 0x40 MSTORE PUSH1 0x4 CALLDATASIZE LT PUSH2 0x55 JUMPI PUSH1 0x0 CALLDATALOAD PUSH1 0xE0 SHR DUP1 PUSH4 0x85634EC EQ PUSH2 0x5A JUMPI DUP1 PUSH4 0x481C6A75 EQ PUSH2 0x71 JUMPI DUP1 PUSH4 0x5D495AEA EQ PUSH2 0x9C JUMPI DUP1 PUSH4 0x8B5B9CCC EQ PUSH2 0xB3 JUMPI DUP1 PUSH4 0xE97DCB62 EQ PUSH2 0xDE JUMPI DUP1 PUSH4 0xF71D96CB EQ PUSH2 0xE8 JUMPI JUMPDEST PUSH1 0x0 DUP1 REVERT JUMPDEST CALLVALUE DUP1 ISZERO PUSH2 0x66 JUMPI PUSH1 0x0 DUP1 REVERT JUMPDEST POP PUSH2 0x6F PUSH2 0x125 JUMP JUMPDEST STOP JUMPDEST CALLVALUE DUP1 ISZERO PUSH2 0x7D JUMPI PUSH1 0x0 DUP1 REVERT JUMPDEST POP PUSH2 0x86 PUSH2 0x24B JUMP JUMPDEST PUSH1 0x40 MLOAD PUSH2 0x93 SWAP2 SWAP1 PUSH2 0x829 JUMP JUMPDEST PUSH1 0x40 MLOAD DUP1 SWAP2 SUB SWAP1 RETURN JUMPDEST CALLVALUE DUP1 ISZERO PUSH2 0xA8 JUMPI PUSH1 0x0 DUP1 REVERT JUMPDEST POP PUSH2 0xB1 PUSH2 0x26F JUMP JUMPDEST STOP JUMPDEST CALLVALUE DUP1 ISZERO PUSH2 0xBF JUMPI PUSH1 0x0 DUP1 REVERT JUMPDEST POP PUSH2 0xC8 PUSH2 0x3E7 JUMP JUMPDEST PUSH1 0x40 MLOAD PUSH2 0xD5 SWAP2 SWAP1 PUSH2 0x902 JUMP JUMPDEST PUSH1 0x40 MLOAD DUP1 SWAP2 SUB SWAP1 RETURN JUMPDEST PUSH2 0xE6 PUSH2 0x475 JUMP JUMPDEST STOP JUMPDEST CALLVALUE DUP1 ISZERO PUSH2 0xF4 JUMPI PUSH1 0x0 DUP1 REVERT JUMPDEST POP PUSH2 0x10F PUSH1 0x4 DUP1 CALLDATASIZE SUB DUP2 ADD SWAP1 PUSH2 0x10A SWAP2 SWAP1 PUSH2 0x95F JUMP JUMPDEST PUSH2 0x731 JUMP JUMPDEST PUSH1 0x40 MLOAD PUSH2 0x11C SWAP2 SWAP1 PUSH2 0x829 JUMP JUMPDEST PUSH1 0x40 MLOAD DUP1 SWAP2 SUB SWAP1 RETURN JUMPDEST PUSH1 0x0 DUP1 SLOAD SWAP1 PUSH2 0x100 EXP SWAP1 DIV PUSH20 0xFFFFFFFFFFFFFFFFFFFFFFFFFFFFFFFFFFFFFFFF AND PUSH20 0xFFFFFFFFFFFFFFFFFFFFFFFFFFFFFFFFFFFFFFFF AND CALLER PUSH20 0xFFFFFFFFFFFFFFFFFFFFFFFFFFFFFFFFFFFFFFFF AND EQ PUSH2 0x1B3 JUMPI PUSH1 0x40 MLOAD PUSH32 0x8C379A000000000000000000000000000000000000000000000000000000000 DUP2 MSTORE PUSH1 0x4 ADD PUSH2 0x1AA SWAP1 PUSH2 0x9E9 JUMP JUMPDEST PUSH1 0x40 MLOAD DUP1 SWAP2 SUB SWAP1 REVERT JUMPDEST PUSH1 0x1 DUP1 DUP2 GT ISZERO PUSH2 0x1C6 JUMPI PUSH2 0x1C5 PUSH2 0xA09 JUMP JUMPDEST JUMPDEST PUSH1 0x2 PUSH1 0x0 SWAP1 SLOAD SWAP1 PUSH2 0x100 EXP SWAP1 DIV PUSH1 0xFF AND PUSH1 0x1 DUP2 GT ISZERO PUSH2 0x1E8 JUMPI PUSH2 0x1E7 PUSH2 0xA09 JUMP JUMPDEST JUMPDEST SUB PUSH2 0x21D JUMPI PUSH1 0x0 PUSH1 0x2 PUSH1 0x0 PUSH2 0x100 EXP DUP2 SLOAD DUP2 PUSH1 0xFF MUL NOT AND SWAP1 DUP4 PUSH1 0x1 DUP2 GT ISZERO PUSH2 0x213 JUMPI PUSH2 0x212 PUSH2 0xA09 JUMP JUMPDEST JUMPDEST MUL OR SWAP1 SSTORE POP PUSH2 0x249 JUMP JUMPDEST PUSH1 0x1 PUSH1 0x2 PUSH1 0x0 PUSH2 0x100 EXP DUP2 SLOAD DUP2 PUSH1 0xFF MUL NOT AND SWAP1 DUP4 PUSH1 0x1 DUP2 GT ISZERO PUSH2 0x243 JUMPI PUSH2 0x242 PUSH2 0xA09 JUMP JUMPDEST JUMPDEST MUL OR SWAP1 SSTORE POP JUMPDEST JUMP JUMPDEST PUSH1 0x0 DUP1 SLOAD SWAP1 PUSH2 0x100 EXP SWAP1 DIV PUSH20 0xFFFFFFFFFFFFFFFFFFFFFFFFFFFFFFFFFFFFFFFF AND DUP2 JUMP JUMPDEST PUSH1 0x0 DUP1 SLOAD SWAP1 PUSH2 0x100 EXP SWAP1 DIV PUSH20 0xFFFFFFFFFFFFFFFFFFFFFFFFFFFFFFFFFFFFFFFF AND PUSH20 0xFFFFFFFFFFFFFFFFFFFFFFFFFFFFFFFFFFFFFFFF AND CALLER PUSH20 0xFFFFFFFFFFFFFFFFFFFFFFFFFFFFFFFFFFFFFFFF AND EQ PUSH2 0x2FD JUMPI PUSH1 0x40 MLOAD PUSH32 0x8C379A000000000000000000000000000000000000000000000000000000000 DUP2 MSTORE PUSH1 0x4 ADD PUSH2 0x2F4 SWAP1 PUSH2 0x9E9 JUMP JUMPDEST PUSH1 0x40 MLOAD DUP1 SWAP2 SUB SWAP1 REVERT JUMPDEST PUSH1 0x0 PUSH1 0x1 DUP1 DUP1 SLOAD SWAP1 POP PUSH2 0x30E PUSH2 0x770 JUMP JUMPDEST PUSH2 0x318 SWAP2 SWAP1 PUSH2 0xA67 JUMP JUMPDEST DUP2 SLOAD DUP2 LT PUSH2 0x329 JUMPI PUSH2 0x328 PUSH2 0xA98 JUMP JUMPDEST JUMPDEST SWAP1 PUSH1 0x0 MSTORE PUSH1 0x20 PUSH1 0x0 KECCAK256 ADD PUSH1 0x0 SWAP1 SLOAD SWAP1 PUSH2 0x100 EXP SWAP1 DIV PUSH20 0xFFFFFFFFFFFFFFFFFFFFFFFFFFFFFFFFFFFFFFFF AND SWAP1 POP DUP1 PUSH20 0xFFFFFFFFFFFFFFFFFFFFFFFFFFFFFFFFFFFFFFFF AND PUSH2 0x8FC SELFBALANCE SWAP1 DUP2 ISZERO MUL SWAP1 PUSH1 0x40 MLOAD PUSH1 0x0 PUSH1 0x40 MLOAD DUP1 DUP4 SUB DUP2 DUP6 DUP9 DUP9 CALL SWAP4 POP POP POP POP ISZERO DUP1 ISZERO PUSH2 0x39C JUMPI RETURNDATASIZE PUSH1 0x0 DUP1 RETURNDATACOPY RETURNDATASIZE PUSH1 0x0 REVERT JUMPDEST POP PUSH32 0x35CEADB59F10D1FDF3FFCA7F84D699458B36A409B2E29201C8EF53196C36FBAD DUP2 SELFBALANCE PUSH1 0x40 MLOAD PUSH2 0x3CE SWAP3 SWAP2 SWAP1 PUSH2 0xAD6 JUMP JUMPDEST PUSH1 0x40 MLOAD DUP1 SWAP2 SUB SWAP1 LOG1 PUSH1 0x1 PUSH1 0x0 PUSH2 0x3E4 SWAP2 SWAP1 PUSH2 0x7AA JUMP JUMPDEST POP JUMP JUMPDEST PUSH1 0x60 PUSH1 0x1 DUP1 SLOAD DUP1 PUSH1 0x20 MUL PUSH1 0x20 ADD PUSH1 0x40 MLOAD SWAP1 DUP2 ADD PUSH1 0x40 MSTORE DUP1 SWAP3 SWAP2 SWAP1 DUP2 DUP2 MSTORE PUSH1 0x20 ADD DUP3 DUP1 SLOAD DUP1 ISZERO PUSH2 0x46B JUMPI PUSH1 0x20 MUL DUP3 ADD SWAP2 SWAP1 PUSH1 0x0 MSTORE PUSH1 0x20 PUSH1 0x0 KECCAK256 SWAP1 JUMPDEST DUP2 PUSH1 0x0 SWAP1 SLOAD SWAP1 PUSH2 0x100 EXP SWAP1 DIV PUSH20 0xFFFFFFFFFFFFFFFFFFFFFFFFFFFFFFFFFFFFFFFF AND PUSH20 0xFFFFFFFFFFFFFFFFFFFFFFFFFFFFFFFFFFFFFFFF AND DUP2 MSTORE PUSH1 0x20 ADD SWAP1 PUSH1 0x1 ADD SWAP1 DUP1 DUP4 GT PUSH2 0x421 JUMPI JUMPDEST POP POP POP POP POP SWAP1 POP SWAP1 JUMP JUMPDEST PUSH1 0x0 DUP1 PUSH1 0x1 DUP2 GT ISZERO PUSH2 0x48A JUMPI PUSH2 0x489 PUSH2 0xA09 JUMP JUMPDEST JUMPDEST PUSH1 0x2 PUSH1 0x0 SWAP1 SLOAD SWAP1 PUSH2 0x100 EXP SWAP1 DIV PUSH1 0xFF AND PUSH1 0x1 DUP2 GT ISZERO PUSH2 0x4AC JUMPI PUSH2 0x4AB PUSH2 0xA09 JUMP JUMPDEST JUMPDEST EQ PUSH2 0x4EC JUMPI PUSH1 0x40 MLOAD PUSH32 0x8C379A000000000000000000000000000000000000000000000000000000000 DUP2 MSTORE PUSH1 0x4 ADD PUSH2 0x4E3 SWAP1 PUSH2 0xB4B JUMP JUMPDEST PUSH1 0x40 MLOAD DUP1 SWAP2 SUB SWAP1 REVERT JUMPDEST PUSH1 0x0 DUP1 SLOAD SWAP1 PUSH2 0x100 EXP SWAP1 DIV PUSH20 0xFFFFFFFFFFFFFFFFFFFFFFFFFFFFFFFFFFFFFFFF AND PUSH20 0xFFFFFFFFFFFFFFFFFFFFFFFFFFFFFFFFFFFFFFFF AND CALLER PUSH20 0xFFFFFFFFFFFFFFFFFFFFFFFFFFFFFFFFFFFFFFFF AND SUB PUSH2 0x57A JUMPI PUSH1 0x40 MLOAD PUSH32 0x8C379A000000000000000000000000000000000000000000000000000000000 DUP2 MSTORE PUSH1 0x4 ADD PUSH2 0x571 SWAP1 PUSH2 0xBB7 JUMP JUMPDEST PUSH1 0x40 MLOAD DUP1 SWAP2 SUB SWAP1 REVERT JUMPDEST PUSH8 0xDE0B6B3A7640000 CALLVALUE EQ PUSH2 0x5C4 JUMPI PUSH1 0x40 MLOAD PUSH32 0x8C379A000000000000000000000000000000000000000000000000000000000 DUP2 MSTORE PUSH1 0x4 ADD PUSH2 0x5BB SWAP1 PUSH2 0xC23 JUMP JUMPDEST PUSH1 0x40 MLOAD DUP1 SWAP2 SUB SWAP1 REVERT JUMPDEST PUSH1 0x0 JUMPDEST PUSH1 0x1 DUP1 SLOAD SWAP1 POP DUP2 LT ISZERO PUSH2 0x693 JUMPI PUSH1 0x1 DUP2 DUP2 SLOAD DUP2 LT PUSH2 0x5E8 JUMPI PUSH2 0x5E7 PUSH2 0xA98 JUMP JUMPDEST JUMPDEST SWAP1 PUSH1 0x0 MSTORE PUSH1 0x20 PUSH1 0x0 KECCAK256 ADD PUSH1 0x0 SWAP1 SLOAD SWAP1 PUSH2 0x100 EXP SWAP1 DIV PUSH20 0xFFFFFFFFFFFFFFFFFFFFFFFFFFFFFFFFFFFFFFFF AND PUSH20 0xFFFFFFFFFFFFFFFFFFFFFFFFFFFFFFFFFFFFFFFF AND CALLER PUSH20 0xFFFFFFFFFFFFFFFFFFFFFFFFFFFFFFFFFFFFFFFF AND SUB PUSH2 0x680 JUMPI PUSH1 0x40 MLOAD PUSH32 0x8C379A000000000000000000000000000000000000000000000000000000000 DUP2 MSTORE PUSH1 0x4 ADD PUSH2 0x677 SWAP1 PUSH2 0xCB5 JUMP JUMPDEST PUSH1 0x40 MLOAD DUP1 SWAP2 SUB SWAP1 REVERT JUMPDEST DUP1 DUP1 PUSH2 0x68B SWAP1 PUSH2 0xD04 JUMP JUMPDEST SWAP2 POP POP PUSH2 0x5C7 JUMP JUMPDEST PUSH1 0x1 CALLER SWAP1 DUP1 PUSH1 0x1 DUP2 SLOAD ADD DUP1 DUP3 SSTORE DUP1 SWAP2 POP POP PUSH1 0x1 SWAP1 SUB SWAP1 PUSH1 0x0 MSTORE PUSH1 0x20 PUSH1 0x0 KECCAK256 ADD PUSH1 0x0 SWAP1 SWAP2 SWAP1 SWAP2 SWAP1 SWAP2 PUSH2 0x100 EXP DUP2 SLOAD DUP2 PUSH20 0xFFFFFFFFFFFFFFFFFFFFFFFFFFFFFFFFFFFFFFFF MUL NOT AND SWAP1 DUP4 PUSH20 0xFFFFFFFFFFFFFFFFFFFFFFFFFFFFFFFFFFFFFFFF AND MUL OR SWAP1 SSTORE POP PUSH32 0x5223F77765B5429CF34ACCD573FD1EEC5E4602155A986BFCA26243E4805B9F59 CALLER PUSH1 0x40 MLOAD PUSH2 0x725 SWAP2 SWAP1 PUSH2 0x829 JUMP JUMPDEST PUSH1 0x40 MLOAD DUP1 SWAP2 SUB SWAP1 LOG1 POP POP JUMP JUMPDEST PUSH1 0x1 DUP2 DUP2 SLOAD DUP2 LT PUSH2 0x741 JUMPI PUSH1 0x0 DUP1 REVERT JUMPDEST SWAP1 PUSH1 0x0 MSTORE PUSH1 0x20 PUSH1 0x0 KECCAK256 ADD PUSH1 0x0 SWAP2 POP SLOAD SWAP1 PUSH2 0x100 EXP SWAP1 DIV PUSH20 0xFFFFFFFFFFFFFFFFFFFFFFFFFFFFFFFFFFFFFFFF AND DUP2 JUMP JUMPDEST PUSH1 0x0 NUMBER TIMESTAMP PUSH1 0x1 DUP1 SLOAD SWAP1 POP PUSH1 0x40 MLOAD PUSH1 0x20 ADD PUSH2 0x78C SWAP4 SWAP3 SWAP2 SWAP1 PUSH2 0xD6D JUMP JUMPDEST PUSH1 0x40 MLOAD PUSH1 0x20 DUP2 DUP4 SUB SUB DUP2 MSTORE SWAP1 PUSH1 0x40 MSTORE DUP1 MLOAD SWAP1 PUSH1 0x20 ADD KECCAK256 PUSH1 0x0 SHR SWAP1 POP SWAP1 JUMP JUMPDEST POP DUP1 SLOAD PUSH1 0x0 DUP3 SSTORE SWAP1 PUSH1 0x0 MSTORE PUSH1 0x20 PUSH1 0x0 KECCAK256 SWAP1 DUP2 ADD SWAP1 PUSH2 0x7C8 SWAP2 SWAP1 PUSH2 0x7CB JUMP JUMPDEST POP JUMP JUMPDEST JUMPDEST DUP1 DUP3 GT ISZERO PUSH2 0x7E4 JUMPI PUSH1 0x0 DUP2 PUSH1 0x0 SWAP1 SSTORE POP PUSH1 0x1 ADD PUSH2 0x7CC JUMP JUMPDEST POP SWAP1 JUMP JUMPDEST PUSH1 0x0 PUSH20 0xFFFFFFFFFFFFFFFFFFFFFFFFFFFFFFFFFFFFFFFF DUP3 AND SWAP1 POP SWAP2 SWAP1 POP JUMP JUMPDEST PUSH1 0x0 PUSH2 0x813 DUP3 PUSH2 0x7E8 JUMP JUMPDEST SWAP1 POP SWAP2 SWAP1 POP JUMP JUMPDEST PUSH2 0x823 DUP2 PUSH2 0x808 JUMP JUMPDEST DUP3 MSTORE POP POP JUMP JUMPDEST PUSH1 0x0 PUSH1 0x20 DUP3 ADD SWAP1 POP PUSH2 0x83E PUSH1 0x0 DUP4 ADD DUP5 PUSH2 0x81A JUMP JUMPDEST SWAP3 SWAP2 POP POP JUMP JUMPDEST PUSH1 0x0 DUP2 MLOAD SWAP1 POP SWAP2 SWAP1 POP JUMP JUMPDEST PUSH1 0x0 DUP3 DUP3 MSTORE PUSH1 0x20 DUP3 ADD SWAP1 POP SWAP3 SWAP2 POP POP JUMP JUMPDEST PUSH1 0x0 DUP2 SWAP1 POP PUSH1 0x20 DUP3 ADD SWAP1 POP SWAP2 SWAP1 POP JUMP JUMPDEST PUSH2 0x879 DUP2 PUSH2 0x808 JUMP JUMPDEST DUP3 MSTORE POP POP JUMP JUMPDEST PUSH1 0x0 PUSH2 0x88B DUP4 DUP4 PUSH2 0x870 JUMP JUMPDEST PUSH1 0x20 DUP4 ADD SWAP1 POP SWAP3 SWAP2 POP POP JUMP JUMPDEST PUSH1 0x0 PUSH1 0x20 DUP3 ADD SWAP1 POP SWAP2 SWAP1 POP JUMP JUMPDEST PUSH1 0x0 PUSH2 0x8AF DUP3 PUSH2 0x844 JUMP JUMPDEST PUSH2 0x8B9 DUP2 DUP6 PUSH2 0x84F JUMP JUMPDEST SWAP4 POP PUSH2 0x8C4 DUP4 PUSH2 0x860 JUMP JUMPDEST DUP1 PUSH1 0x0 JUMPDEST DUP4 DUP2 LT ISZERO PUSH2 0x8F5 JUMPI DUP2 MLOAD PUSH2 0x8DC DUP9 DUP3 PUSH2 0x87F JUMP JUMPDEST SWAP8 POP PUSH2 0x8E7 DUP4 PUSH2 0x897 JUMP JUMPDEST SWAP3 POP POP PUSH1 0x1 DUP2 ADD SWAP1 POP PUSH2 0x8C8 JUMP JUMPDEST POP DUP6 SWAP4 POP POP POP POP SWAP3 SWAP2 POP POP JUMP JUMPDEST PUSH1 0x0 PUSH1 0x20 DUP3 ADD SWAP1 POP DUP2 DUP2 SUB PUSH1 0x0 DUP4 ADD MSTORE PUSH2 0x91C DUP2 DUP5 PUSH2 0x8A4 JUMP JUMPDEST SWAP1 POP SWAP3 SWAP2 POP POP JUMP JUMPDEST PUSH1 0x0 DUP1 REVERT JUMPDEST PUSH1 0x0 DUP2 SWAP1 POP SWAP2 SWAP1 POP JUMP JUMPDEST PUSH2 0x93C DUP2 PUSH2 0x929 JUMP JUMPDEST DUP2 EQ PUSH2 0x947 JUMPI PUSH1 0x0 DUP1 REVERT JUMPDEST POP JUMP JUMPDEST PUSH1 0x0 DUP2 CALLDATALOAD SWAP1 POP PUSH2 0x959 DUP2 PUSH2 0x933 JUMP JUMPDEST SWAP3 SWAP2 POP POP JUMP JUMPDEST PUSH1 0x0 PUSH1 0x20 DUP3 DUP5 SUB SLT ISZERO PUSH2 0x975 JUMPI PUSH2 0x974 PUSH2 0x924 JUMP JUMPDEST JUMPDEST PUSH1 0x0 PUSH2 0x983 DUP5 DUP3 DUP6 ADD PUSH2 0x94A JUMP JUMPDEST SWAP2 POP POP SWAP3 SWAP2 POP POP JUMP JUMPDEST PUSH1 0x0 DUP3 DUP3 MSTORE PUSH1 0x20 DUP3 ADD SWAP1 POP SWAP3 SWAP2 POP POP JUMP JUMPDEST PUSH32 0x6F6E6C79206D616E616765722063616E20746F00000000000000000000000000 PUSH1 0x0 DUP3 ADD MSTORE POP JUMP JUMPDEST PUSH1 0x0 PUSH2 0x9D3 PUSH1 0x13 DUP4 PUSH2 0x98C JUMP JUMPDEST SWAP2 POP PUSH2 0x9DE DUP3 PUSH2 0x99D JUMP JUMPDEST PUSH1 0x20 DUP3 ADD SWAP1 POP SWAP2 SWAP1 POP JUMP JUMPDEST PUSH1 0x0 PUSH1 0x20 DUP3 ADD SWAP1 POP DUP2 DUP2 SUB PUSH1 0x0 DUP4 ADD MSTORE PUSH2 0xA02 DUP2 PUSH2 0x9C6 JUMP JUMPDEST SWAP1 POP SWAP2 SWAP1 POP JUMP JUMPDEST PUSH32 0x4E487B7100000000000000000000000000000000000000000000000000000000 PUSH1 0x0 MSTORE PUSH1 0x21 PUSH1 0x4 MSTORE PUSH1 0x24 PUSH1 0x0 REVERT JUMPDEST PUSH32 0x4E487B7100000000000000000000000000000000000000000000000000000000 PUSH1 0x0 MSTORE PUSH1 0x12 PUSH1 0x4 MSTORE PUSH1 0x24 PUSH1 0x0 REVERT JUMPDEST PUSH1 0x0 PUSH2 0xA72 DUP3 PUSH2 0x929 JUMP JUMPDEST SWAP2 POP PUSH2 0xA7D DUP4 PUSH2 0x929 JUMP JUMPDEST SWAP3 POP DUP3 PUSH2 0xA8D JUMPI PUSH2 0xA8C PUSH2 0xA38 JUMP JUMPDEST JUMPDEST DUP3 DUP3 MOD SWAP1 POP SWAP3 SWAP2 POP POP JUMP JUMPDEST PUSH32 0x4E487B7100000000000000000000000000000000000000000000000000000000 PUSH1 0x0 MSTORE PUSH1 0x32 PUSH1 0x4 MSTORE PUSH1 0x24 PUSH1 0x0 REVERT JUMPDEST PUSH2 0xAD0 DUP2 PUSH2 0x929 JUMP JUMPDEST DUP3 MSTORE POP POP JUMP JUMPDEST PUSH1 0x0 PUSH1 0x40 DUP3 ADD SWAP1 POP PUSH2 0xAEB PUSH1 0x0 DUP4 ADD DUP6 PUSH2 0x81A JUMP JUMPDEST PUSH2 0xAF8 PUSH1 0x20 DUP4 ADD DUP5 PUSH2 0xAC7 JUMP JUMPDEST SWAP4 SWAP3 POP POP POP JUMP JUMPDEST PUSH32 0x7374617475732065727200000000000000000000000000000000000000000000 PUSH1 0x0 DUP3 ADD MSTORE POP JUMP JUMPDEST PUSH1 0x0 PUSH2 0xB35 PUSH1 0xA DUP4 PUSH2 0x98C JUMP JUMPDEST SWAP2 POP PUSH2 0xB40 DUP3 PUSH2 0xAFF JUMP JUMPDEST PUSH1 0x20 DUP3 ADD SWAP1 POP SWAP2 SWAP1 POP JUMP JUMPDEST PUSH1 0x0 PUSH1 0x20 DUP3 ADD SWAP1 POP DUP2 DUP2 SUB PUSH1 0x0 DUP4 ADD MSTORE PUSH2 0xB64 DUP2 PUSH2 0xB28 JUMP JUMPDEST SWAP1 POP SWAP2 SWAP1 POP JUMP JUMPDEST PUSH32 0x6D616E616765722063616E206E6F742070617274696369706174650000000000 PUSH1 0x0 DUP3 ADD MSTORE POP JUMP JUMPDEST PUSH1 0x0 PUSH2 0xBA1 PUSH1 0x1B DUP4 PUSH2 0x98C JUMP JUMPDEST SWAP2 POP PUSH2 0xBAC DUP3 PUSH2 0xB6B JUMP JUMPDEST PUSH1 0x20 DUP3 ADD SWAP1 POP SWAP2 SWAP1 POP JUMP JUMPDEST PUSH1 0x0 PUSH1 0x20 DUP3 ADD SWAP1 POP DUP2 DUP2 SUB PUSH1 0x0 DUP4 ADD MSTORE PUSH2 0xBD0 DUP2 PUSH2 0xB94 JUMP JUMPDEST SWAP1 POP SWAP2 SWAP1 POP JUMP JUMPDEST PUSH32 0x76616C7565206973206E6F742031206574686572000000000000000000000000 PUSH1 0x0 DUP3 ADD MSTORE POP JUMP JUMPDEST PUSH1 0x0 PUSH2 0xC0D PUSH1 0x14 DUP4 PUSH2 0x98C JUMP JUMPDEST SWAP2 POP PUSH2 0xC18 DUP3 PUSH2 0xBD7 JUMP JUMPDEST PUSH1 0x20 DUP3 ADD SWAP1 POP SWAP2 SWAP1 POP JUMP JUMPDEST PUSH1 0x0 PUSH1 0x20 DUP3 ADD SWAP1 POP DUP2 DUP2 SUB PUSH1 0x0 DUP4 ADD MSTORE PUSH2 0xC3C DUP2 PUSH2 0xC00 JUMP JUMPDEST SWAP1 POP SWAP2 SWAP1 POP JUMP JUMPDEST PUSH32 0x4475706C69636174652070617274696369706174696F6E206973206E6F742061 PUSH1 0x0 DUP3 ADD MSTORE PUSH32 0x6C6C6F7765640000000000000000000000000000000000000000000000000000 PUSH1 0x20 DUP3 ADD MSTORE POP JUMP JUMPDEST PUSH1 0x0 PUSH2 0xC9F PUSH1 0x26 DUP4 PUSH2 0x98C JUMP JUMPDEST SWAP2 POP PUSH2 0xCAA DUP3 PUSH2 0xC43 JUMP JUMPDEST PUSH1 0x40 DUP3 ADD SWAP1 POP SWAP2 SWAP1 POP JUMP JUMPDEST PUSH1 0x0 PUSH1 0x20 DUP3 ADD SWAP1 POP DUP2 DUP2 SUB PUSH1 0x0 DUP4 ADD MSTORE PUSH2 0xCCE DUP2 PUSH2 0xC92 JUMP JUMPDEST SWAP1 POP SWAP2 SWAP1 POP JUMP JUMPDEST PUSH32 0x4E487B7100000000000000000000000000000000000000000000000000000000 PUSH1 0x0 MSTORE PUSH1 0x11 PUSH1 0x4 MSTORE PUSH1 0x24 PUSH1 0x0 REVERT JUMPDEST PUSH1 0x0 PUSH2 0xD0F DUP3 PUSH2 0x929 JUMP JUMPDEST SWAP2 POP PUSH32 0xFFFFFFFFFFFFFFFFFFFFFFFFFFFFFFFFFFFFFFFFFFFFFFFFFFFFFFFFFFFFFFFF DUP3 SUB PUSH2 0xD41 JUMPI PUSH2 0xD40 PUSH2 0xCD5 JUMP JUMPDEST JUMPDEST PUSH1 0x1 DUP3 ADD SWAP1 POP SWAP2 SWAP1 POP JUMP JUMPDEST PUSH1 0x0 DUP2 SWAP1 POP SWAP2 SWAP1 POP JUMP JUMPDEST PUSH2 0xD67 PUSH2 0xD62 DUP3 PUSH2 0x929 JUMP JUMPDEST PUSH2 0xD4C JUMP JUMPDEST DUP3 MSTORE POP POP JUMP JUMPDEST PUSH1 0x0 PUSH2 0xD79 DUP3 DUP7 PUSH2 0xD56 JUMP JUMPDEST PUSH1 0x20 DUP3 ADD SWAP2 POP PUSH2 0xD89 DUP3 DUP6 PUSH2 0xD56 JUMP JUMPDEST PUSH1 0x20 DUP3 ADD SWAP2 POP PUSH2 0xD99 DUP3 DUP5 PUSH2 0xD56 JUMP JUMPDEST PUSH1 0x20 DUP3 ADD SWAP2 POP DUP2 SWAP1 POP SWAP5 SWAP4 POP POP POP POP JUMP INVALID LOG2 PUSH5 0x6970667358 0x22 SLT KECCAK256 MUL PUSH25 0x4025444B543D74B527930CCD71F06779A9796178B323485F2 ISZERO BALANCE 0xE3 PUSH22 0xEF64736F6C6343000812003300000000000000000000 "
		},
		"gasEstimates": {
			"creation": {
				"codeDepositCost": "710400",
				"executionCost": "49306",
				"totalCost": "759706"
			},
			"external": {
				"changeStatus()": "28798",
				"enter()": "infinite",
				"getPlayers()": "infinite",
				"manager()": "2511",
				"pickWinner()": "infinite",
				"players(uint256)": "5044"
			},
			"internal": {
				"random()": "infinite"
			}
		},
		"methodIdentifiers": {
			"changeStatus()": "085634ec",
			"enter()": "e97dcb62",
			"getPlayers()": "8b5b9ccc",
			"manager()": "481c6a75",
			"pickWinner()": "5d495aea",
			"players(uint256)": "f71d96cb"
		}
	},
	"abi": [
		{
			"inputs": [],
			"stateMutability": "nonpayable",
			"type": "constructor"
		},
		{
			"anonymous": false,
			"inputs": [
				{
					"indexed": false,
					"internalType": "address",
					"name": "_address",
					"type": "address"
				}
			],
			"name": "PlayerInfo",
			"type": "event"
		},
		{
			"anonymous": false,
			"inputs": [
				{
					"indexed": false,
					"internalType": "address",
					"name": "_address",
					"type": "address"
				},
				{
					"indexed": false,
					"internalType": "uint256",
					"name": "_amount",
					"type": "uint256"
				}
			],
			"name": "WinnerInfo",
			"type": "event"
		},
		{
			"inputs": [],
			"name": "changeStatus",
			"outputs": [],
			"stateMutability": "nonpayable",
			"type": "function"
		},
		{
			"inputs": [],
			"name": "enter",
			"outputs": [],
			"stateMutability": "payable",
			"type": "function"
		},
		{
			"inputs": [],
			"name": "getPlayers",
			"outputs": [
				{
					"internalType": "address[]",
					"name": "",
					"type": "address[]"
				}
			],
			"stateMutability": "view",
			"type": "function"
		},
		{
			"inputs": [],
			"name": "manager",
			"outputs": [
				{
					"internalType": "address",
					"name": "",
					"type": "address"
				}
			],
			"stateMutability": "view",
			"type": "function"
		},
		{
			"inputs": [],
			"name": "pickWinner",
			"outputs": [],
			"stateMutability": "nonpayable",
			"type": "function"
		},
		{
			"inputs": [
				{
					"internalType": "uint256",
					"name": "",
					"type": "uint256"
				}
			],
			"name": "players",
			"outputs": [
				{
					"internalType": "address",
					"name": "",
					"type": "address"
				}
			],
			"stateMutability": "view",
			"type": "function"
		}
	]
}